:020000040800F2
:1000000090060020BD010008591B0008F9190008DE
:10001000551B000865050008A51E0008000000002B
:10002000000000000000000000000000991E000811
:1000300069050008000000005D1B00089D1E000807
:10004000D7010008D7010008D7010008D701000830
:10005000D7010008D7010008D7010008D701000820
:10006000D7010008D7010008D7010008D701000810
:10007000D7010008D7010008D7010008D701000800
:10008000D7010008D7010008D7010008D7010008F0
:10009000D7010008D7010008D7010008D7010008E0
:1000A000D7010008D7010008D7010008D7010008D0
:1000B000D7010008D7010008D7010008D7010008C0
:1000C000D7010008D7010008D7010008D7010008B0
:1000D000D7010008D7010008D7010008D7010008A0
:1000E000D7010008D7010008D701000800F002F886
:1000F00000F055F814A696E8000CB244B344DA4573
:1001000001D100F04CF8BAE80F000FA696E83000D5
:10011000A5EB040504EB0607AAEB0704A7F101070A
:100120004FEA15154FEA3414A4F10104AC4201D38F
:1001300000F035F813F0010F18BFFB1A43F001036C
:1001400000F001F8DBE718471C2100003C2100000B
:10015000103A24BF78C878C1FAD8520724BF30C8F3
:1001600030C144BF04680C60704700007047000055
:100170000023002400250026103A28BF78C1FBD8B0
:10018000520728BF30C148BF0B607047642900F098
:100190007180002070471FB51FBD10B510BD00F065
:1001A000A6F91146FFF7F7FF01F0BCFF00F0C4F914
:1001B00003B4FFF7F2FF03BC00F0CCF90948804715
:1001C00009480047FEE7FEE7FEE7FEE7FEE7FEE739
:1001D000FEE7FEE7FEE7FEE704480549054A064B51
:1001E00070470000A11E0008ED00000890000020EC
:1001F0009006002090020020900200200FB41CB551
:10020000074B06AA7B4469460090059800F057F911
:100210000020694600F066F91CBC5DF814FB000084
:10022000DD02000070B5044685690068C10601D58D
:10023000302600E02026C00707D070BDD4E9012198
:1002400030469047206A401C20626D1EF6D570BD76
:1002500070B5044685690078C00707D170BDD4E940
:10026000012120209047206A401C20626D1EF6D597
:1002700070BD00002DE9F041064600241068752984
:10028000314616A510D0AFF30080002802DA4042B4
:1002900013A507E031688A0701D512A502E04907D6
:1002A00004D511A5012401E0AFF3008000210A224A
:1002B00006F1240709E0B0FBF2FCB0FBF2F302FB0D
:1002C0001C00303078541846491C0028F3D12346CE
:1002D0002A463046BDE8F04100F092B80000000028
:1002E0002D0000002B000000200000002DE9F04749
:1002F0004FF0000A89460446C0F820A02046E16875
:100300008847002876D0252806D0D4E901219047D7
:10031000206A401C2062F1E7E168204600258847FA
:10032000C4F81CA006460027C4F818A02A2E09D03D
:10033000304601F075FF38B304EB8708303EC8F84B
:10034000186019E059F8041B204604EB87029161FC
:10035000E1688847012F064618D1E069002820DAB5
:1003600025F020051DE0D8F8180000EB800006EB12
:1003700040003038C8F818002046E1688847064633
:1003800001F04EFF0028EED1012F0AD02E2E08D109
:100390002046E16888477F1C0646022F45F020056D
:1003A000C4DBA069002803DA404245F00105A061E2
:1003B000E80701D025F01005B6B1A6F141001928D3
:1003C00002D8203645F400654A463146204625606D
:1003D0004D46FFF7DBFE58B1012806D0ED1D25F094
:1003E000070000F1080989E704E005F1040985E741
:1003F00030468AE7206ABDE8F0877047704770474B
:100400002DE9F0470D4699469246044600F124082E
:100410000168880604D5E06921F01001216000E040
:100420000120A84201DD471B00E00027A1697A19DD
:1004300002EB0900081AA0612078C00602D4204609
:10044000FFF7F0FE002608E0D4E901211AF80600C3
:100450009047206A401C761C20624E45F4DB2078D1
:10046000C0060AD52046FFF7DDFE06E0D4E90121EB
:1004700030209047206A401C2062381EA7F10107F7
:10048000F4DC07E0D4E9012118F805009047206A60
:10049000401C2062281EA5F10105F3DC2046FFF771
:1004A000D7FE2078000602D50220BDE8F0870120A3
:1004B000FBE7000001694A1C02610878704700B53B
:1004C0008FB0CDE901310021059105497944CDE98D
:1004D000031011466846FFF709FF0FB000BD00008A
:1004E000E5FFFFFF0A6802F8010B0A6070477546D6
:1004F00000F02CF8AE4605006946534620F0070090
:10050000854618B020B5FFF767FEBDE820404FF0E4
:1005100000064FF000074FF000084FF0000BAC460C
:10052000ACE8C009ACE8C009ACE8C009ACE8C00957
:1005300021F007018D46704710B50446AFF30080E7
:100540002046BDE81040FFF733BE0000004870476A
:100550001000002001491820ABBEFEE72600020073
:1005600070470000FEE7000070470000EFF31080C6
:1005700072B600BFFEE70000B0B5044600F01EF9F9
:10058000054640F20000C2F200000078611C18BF6E
:10059000044400BF00F012F9401BA042FAD3B0BDE2
:1005A0002DE9F04F82B00E68002E00F0FD8041F280
:1005B0000042C4F20102042340F2004E904208BF00
:1005C00003234FF6FF7CC4F2010E009300240123A5
:1005D000C1F2100C4FF0000A4FF0000944E000BFD8
:1005E000012704F00C030F229A402BEA020207FABB
:1005F00003F34FEA9A051A4346F825204E6840F265
:100600000C45F202DEF8082054BF22EA080242EA52
:100610000802C4F20105CEF808202A68B30254BFCC
:1006200022EA080242EA08022A60B303DEF8042044
:1006300054BF22EA080242EA0802F303CEF804207B
:10064000DEF800204FF0010354BF22EA080242EA1C
:100650000802CEF800200E680AF1010A36FA0AF202
:1006600004F1040400F0A08003FA0AFB16EA0B0868
:10067000F1D04E68664511DC122E55D8DFE806F041
:10068000340A4448545454545454545454545454B0
:10069000544C5000D1F80C9046E000BF4FF6FF726A
:1006A000C1F2210296420FDC0022C1F211029642F1
:1006B0001AD00022C1F21202964215D00022C1F2D5
:1006C0002102964210D02FE00022C1F2220296426F
:1006D0000AD00022C1F23102964205D00022C1F2B6
:1006E0003202964220D100BF8A684AB1012A14BF63
:1006F000C0F814B0C0F810B04FF0080914E000BF03
:100700004FF0040910E000BFCA6802F108090BE0CD
:100710004FF0000908E000BFCA6802F1040903E0D5
:10072000CA6802F10C0900BF22460646B8F5807F70
:1007300024BF203A043637680F25954027EA05057F
:1007400009FA02F22A433260CA79D2067FF583AFF2
:1007500041F21803C4F202031A68AEF57E7642F045
:1007600001021A601A6802F001020192019A2AF04D
:10077000030256F802B040F60002C4F201029042B1
:1007800010D040F60042C4F2010290423FF428AF7C
:1007900041F20002C4F20102009F904208BF02270A
:1007A0001FE700BF00271CE702B0BDE8F08F000084
:1007B000002A08BF090401617047000040F28C0064
:1007C000C2F200000068704740F2000040F28C0165
:1007D000C2F20000C2F2000100780A68104408600A
:1007E0007047000080B542F20000C4F202000168C8
:1007F00041F010010160032000F07AF80F2000F0B2
:1008000005F800F027F8002080BD000070B540F228
:100810000006C2F2000640F208013278C2F200017E
:100820004FF47A730968B3FBF2F20446B1FBF2F1BC
:10083000084601F0CBF80F2C4FF0010508D838B965
:100840004FF0FF3021460022002500F025F87460AB
:10085000284670BD82B041F21800C4F2020001685F
:10086000022241F001010160016801F001010191E2
:100870000199416841F080514160406800F080502A
:10088000009000980420C4F20100016862F31A612C
:10089000016002B07047000010B54EF60C5CCEF25D
:1008A000000CDCF80030C3F3022E8EF00704042C99
:1008B00028BF0424BEF103034FF0FF3E0EFA04F4F8
:1008C00038BF0023A14399400EFA03F39A43114322
:1008D00000F00F0200F160430901043A03F564439C
:1008E0006244002848BF02F10C03197010BD0000DB
:1008F0004EF60C51CEF200010A684FF6FF031A4083
:1009000060F30A2242F0806040F0FD70086070479A
:100910002020C4F20E2001210160704701280FD071
:1009200002282DD0102808D141F20401C4F202019E
:100930000A6851F8040CC00134D40020704700BF8D
:1009400041F20400C4F20200C16940F202320A40DE
:10095000B2F5817F04BF4FF40040704701F440714D
:10096000B1F5407F2AD0B1F5007F1CBF0020704751
:10097000006A49F64041800701EAE070704700BF15
:1009800080B500F0ABF941F20401C4F2020109683C
:100990000222C1F3813102EB4101B0FBF1F0BDE86D
:1009A00080407047C2F3834015A3185CD2030DD476
:1009B00040F60012C0F23D02504313E050F8040C20
:1009C0004FF22441800301EAE07070470A6810A3E7
:1009D000C2F340429A5C41F20023C0F27A03B3FBB7
:1009E000F2F250430968490248BF70474AF6AB210A
:1009F0004000CAF6AA21A0FB01014808704700BFC9
:100A000002030405060708090A0B0C0D0E0F10104F
:100A1000010200002DE9F04182B00446007841F265
:100A20001C06C007C4F202064AD030685FEAC0085C
:100A300008D4306840F080503060306800F080505A
:100A40000190019847F20007C4F200073868C0051A
:100A500012D4386840F480703860FFF7AFFE054666
:100A60003868C00508D4FFF7A9FE401B6428F7D9F1
:100A7000032002B0BDE8F081706810F4407012D01D
:100A8000616801F4407188420DD0706840F24042C4
:100A9000C4F24222012320F4407113600023C007F6
:100AA0001360716026D17068616820F4407008435B
:100AB000B8F1000F706003D4306820F080503060CF
:100AC0002068810707D556F8181CA26821F4404118
:100AD000114346F8181CC00607D556F8180CE168F3
:100AE00020F48000084346F8180C002002B0BDE84E
:100AF000F08100BFFFF762FE054641F2883700BF74
:100B000070688007CFD4FFF759FE401BB8424FF002
:100B10000300F5D9EAE70000002804BF0120704770
:100B20002DE9F04381B042F20008C4F20208044605
:100B3000D8F800000D4600F0070088420CD2D8F823
:100B4000000020F007002843C8F80000D8F8000093
:100B500000F00700A8426CD1206841F20409810727
:100B6000C4F2020917D5410705D5D9F8001041F4A0
:100B7000E061C9F80010010705D5D9F8001041F46B
:100B80006051C9F80010D9F80010A26821F0F001F6
:100B90001143C9F80010C00742D1D8F8000000F096
:100BA0000700A8420CD9D8F8000020F0070028431D
:100BB000C8F80000D8F8000000F00700A84238D1BB
:100BC0002068410707D5D9F80010E26821F4E061F8
:100BD0001143C9F80010000708D5D9F800002169B1
:100BE00020F4605040EAC100C9F80000D9F80020A4
:100BF00002F00C00082841F20020C0F27A0051D126
:100C000042F24823C2F38341C0F60003595CD20389
:100C10003CD440F60010C0F23D00484342E000BF23
:100C2000606802280AD001282AD159F8041C8903D7
:100C300008D4012001B0BDE8F08300BF59F8041CBE
:100C40008901F6D5D9F8001021F003010843C9F84D
:100C50000000FFF7B3FD064641F28837D9F80000DF
:100C6000616800F00C00B0EB810F96D0FFF7A6FD95
:100C7000801BB842F2D9032001B0BDE8F08300BF69
:100C800059F8041C8907D4D5DCE700BFD9F8002047
:100C900042F24623C2F34042C0F600039A5C484346
:100CA000B0FBF2F0D9F8001042F22E22C1F303118A
:100CB000C0F60002515C40F2080220FA01F140F255
:100CC0000400C2F200000068C2F200021160FFF7E7
:100CD0009DFD002001B0BDE8F083000040F2080057
:100CE00041F20401C2F20000C4F202010068096886
:100CF00042F23E22C1F3C221C0F60002515CC8405C
:100D000070470000002804BF012070472DE9F04122
:100D100082B00446007841F20006C007C4F2020621
:100D20000CD0706800F00C00042840F0818030681E
:100D3000800303D56068002800F04E81207880078A
:100D40001BD5706810F00C0F09D0706800F00C0013
:100D5000082840F08B807068C00300F187803068FD
:100D6000800703D52069012840F036813068616929
:100D700020F0F80040EAC10030602078000713D46A
:100D8000207840072CD4E569002D00F020817068A0
:100D900000F00C00082840F0AF80012D40F00C81DD
:100DA000012002B0BDE8F081A069002800F08C802D
:100DB0000020C4F242200121C0F88014FFF7FEFC9D
:100DC000054600BF706A800700F1BA80FFF7F6FCA5
:100DD000401B0228F6D9032002B0BDE8F08100BF15
:100DE000F0695FEAC00808D4F06940F08050F06113
:100DF000F06900F080500090009847F20007C4F2BC
:100E000000073868C0054DD4386840F480703860F9
:100E1000FFF7D4FC054600BF3868C00542D4FFF791
:100E2000CDFC401B6428F7D9032002B0BDE8F08157
:100E3000706800F00C00082803D17068C0033FF50B
:100E400076AF6068002800F00981B0F5A02F00F0AF
:100E50001D81B0F5803F00F01D81306820F48030A6
:100E60003060306820F4802017E100BF206900283E
:100E700040F20000C4F2422000F08C8001210160A9
:100E8000FFF79CFC054600BF306880073FF56EAF5A
:100E9000FFF794FC401B0228F6D9032002B0BDE8FE
:100EA000F08100BFE068002800F09A80052800F07B
:100EB000B180012800F0B280306A20F00100306279
:100EC000306A20F00400ACE00020C4F2422000218F
:100ED000C0F88014FFF772FC054600BF706A8007F7
:100EE0007FF54EAFFFF76AFC401B0228F6D90320BE
:100EF00002B0BDE8F08100BF0027C4F24227002005
:100F00003866FFF75BFC022D05460DD13068800185
:100F100040F1D680FFF752FC401B02284FF003003F
:100F2000F4D902B0BDE8F081306880014FD5FFF7F9
:100F300045FC401B02284FF00300F5D9F1E700BF44
:100F400040F20800C2F20000006844F6D351C1F23A
:100F50006201A0FB0101480A019000BF00BF019897
:100F6000411E002801913FF40BAF00BF0198411EC4
:100F7000002801913FF404AF00BF0198411E0028F2
:100F800001913FF4FDAE00BF0198411E0028019180
:100F9000E4D1F5E600210160FFF710FC054600BF33
:100FA000306880077FF5E9AEFFF708FC401B022898
:100FB0004FF00300F4D9B4E77068216A00F480327E
:100FC0008A4209D1616A00F47010884204D100207D
:100FD00002B0BDE8F08100BF012002B0BDE8F081A1
:100FE000306A20F001003062306A20F00400306284
:100FF000FFF7E4FB054641F2883700BF306A8007FF
:1010000022D5FFF7DBFB401BB8424FF00300F5D9B8
:1010100087E700BF306A40F004003062306A40F079
:1010200001003062FFF7CAFB054641F2883700BF76
:10103000306A800708D4FFF7C1FB401BB842F7D9DC
:10104000032002B0BDE8F081B8F1000F3FF59BAE80
:10105000F06920F08050F06195E600BF306820F420
:1010600080303060306820F480203060FFF7A6FBCD
:10107000054600BF306880037FF560AEFFF79EFB3A
:10108000401B64284FF00300F4D94AE7306840F46D
:1010900080203060306840F480303060FFF78EFB95
:1010A000054600BF306880033FF548AEFFF786FB7A
:1010B000401B6428F6D9032002B0BDE8F08100BFD0
:1010C000206AB0F5803F05D17168A26821F4003133
:1010D000114371607168626A21F47411114308430D
:1010E000706001203866FFF769FB044630688001B4
:1010F0003FF56DAFFFF762FB001B02284FF00300C6
:10110000F4D90EE770B582B0064600208DF80600CF
:10111000ADF80400002E4FF001004DD00C46002920
:101120004AD0154601A93046002200F047F818B110
:10113000012002B070BD00BF337B717BB07BF27BBE
:101140002370E2706170A070ADB3A2F10A03DEB249
:101150004FF0CD0C06FB0CF6F50A05EB8505A3EB6D
:101160004503012505EBD626092A88BF43EA061266
:10117000E270A1F10A02D3B203FB0CF3DE0A06EB24
:101180008606A2EB460205EBD323092988BF42EA73
:1011900003116170A0F10A01CAB202FB0CF2D30A7A
:1011A00003EB8303A1EB430105EBD222092888BF9F
:1011B00041EA0210A070002002B070BD2DE9F04796
:1011C000064600284FF0010000F0AF800C460029D1
:1011D00008BFBDE8F08730684168490700F1E28048
:1011E00091468169C26987698BB2B9B28B4203D1DA
:1011F000190492B203E000BFC3690A0499B2114313
:101200004BF2C532C9F2A212A1FB0223DA0A4FF453
:10121000616302FB131348F689059FB26F437D0D8E
:1012200065702D01A5EB5757A3EB870345F2801797
:10123000C0F20107B942A37036D344F20753CCF28F
:101240002E23A1FB03374AF6AB23C0F6AA23A2FB49
:10125000033505EB4503A2EBC3022270026A406A24
:101260004FEA174880B240EA0240451A98BF4FF053
:10127000FF35421C4AF68062CFF6FE7208FB021A66
:1012800008BF0546FFF79AFA074600BF3068416875
:1012900089064DD4FFF792FAC01BB0F57A7FF5D9D5
:1012A0000120BDE8F08700BF2270B9F1000F3BD0EC
:1012B00021784FF0CD0CA1F10A07FEB206FB0CF627
:1012C0006278F50ACBB205EB8505A7EB450701254A
:1012D000092BA2F10A03A07805EBD62688BF47EABE
:1012E0000611DFB207FB0CF7FE0A2170D1B206EB44
:1012F0008606A3EB460305EBD727092988BF43EAF7
:1013000007126270A0F10A02D3B203FB0CF3DF0AEA
:10131000C1B207EB8707A2EB470205EBD3230929EC
:1013200088BF42EA0310A0700020BDE8F08700BF2C
:10133000416841F0100141604FEA1A4181611FFA92
:101340008AF1C161416821F010014160FFF736FA6E
:10135000074600BF30684068800609D4FFF72EFAC0
:10136000C01BB0F57A7FF5D90120BDE8F08700BF3A
:10137000681C11D05544FFF721FA074630684168D0
:10138000890613D4FFF71AFAC01BB0F57A7F4FF025
:101390000100F3D9C9E700BF30464FF0FF3100F03C
:1013A0004BFD08B30120BDE8F08700BF416841F064
:1013B00010014160290C0162A9B24162416821F02B
:1013C00010014160FFF7FAF9074600BF3068406836
:1013D000800609D4FFF7F2F9C01BB0F57A7F4FF011
:1013E0000100F3D9A1E700BF3046414600F0B8FB49
:1013F000B9F1000F7FF45CAF96E7000070B50028EC
:1014000066D00446407C20B900202074204600F0BD
:101410006FF8022060742068416821F00801416083
:10142000FFF7CCF9064600BF20684568FFF7C6F90C
:10143000290705460ED4A81BB0F57A7FF4D90125FB
:1014400004206074284670BDFFF7B8F9401BB0F562
:101450007A7FF4D8216848688006F5D5486846F652
:101460002C4240F0100048604868C4F2000220F0AE
:1014700007004860A06818B1536823F00103536067
:10148000136823F46073184310606068421C06D12F
:1014900001200125FFF742FA30B321680138C0F37B
:1014A000034280B28A60C860486820F0100048603B
:1014B000FFF784F9054600BF20684068800609D41C
:1014C000FFF77CF9401BB0F57A7FF5D9B7E700BF8D
:1014D000012070BD40F201100025A4F80D0001208C
:1014E000E5736074284670BD04206074284670BDA2
:1014F000006842F60001C4F20001884218BF70473C
:1015000080B582B0FFF704FA41F21C00C4F2020079
:10151000016841F0006101600068012100F0006095
:101520000190019840F23C40C4F24220016002B0B8
:10153000BDE880407047000070B582B004460020CE
:101540008DF80600ADF804004FF001009CB10D4687
:1015500089B1207C01284FF002000CD001211646F1
:101560002174607401A920460022FFF727FE00289D
:101570004FF0010002D002B070BD00BF9DF8040022
:101580009DF805204FF461619DF806304843C2EB99
:10159000021200EB82002A781844FEB1130903EB13
:1015A000830302F00F0202EB4302D2B251436A7886
:1015B000AB78160906EB860602F00F0202EB460234
:1015C000D2B2C2EB021201EB82011A0902EB8202D3
:1015D00003F00F0303EB420207E000BF6B785143B7
:1015E000AA78C3EB031301EB8301D2B28E1806F580
:1015F0008031864238BF01F5A346FFF7DFF8054684
:1016000020684168890607D4FFF7D8F8401BB0F579
:101610007A7FF5D91AE000BF416841F010014160BE
:10162000310C0162B1B24162416821F010014160A8
:10163000FFF7C4F8054600BF20684068800609D45B
:10164000FFF7BCF8401BB0F57A7FF5D901200421E3
:1016500002E000BF0020012161740021217402B06A
:1016600070BD0000F0B581B0044600284FF00100C5
:1016700018BF002902D101B0F0BD00BF207C0128B5
:101680004FF00200F7D0012323746074CB78BAB115
:10169000180900EB800003F00F0202EB40034878CA
:1016A0008A78070907EB870700F00F0000EB470770
:1016B000100900EB800002F00F0202EB400001E095
:1016C0004F788878022FDAB2E3736773A0730DD86E
:1016D00017237B434CF21D77C1F67147A3FB0737F5
:1016E00002F2CF7340F2D4760BE000BF48F63E66BC
:1016F000FFB2C0F20206774302F5FA633F0C40F2F4
:10170000D276C0B21044304440F21F5500EB930033
:101710005D433844A0EB554000EBD54082B242F225
:1017200093435A43A0EB12439BB25B0803EB124274
:101730009208A2EBC2020244206822730A708269F6
:10174000C169876993B2BAB2934203D1180489B2CE
:1017500003E000BFC069110480B2084345F69071F0
:10176000C0F2010188424FF000061BD344F207513A
:10177000CCF22E21A0FB0112110C40F2A322514306
:10178000A0EBC117FFF71AF8054600BF20684168B3
:1017900089060DD4FFF712F8401BB0F57A7FF5D912
:1017A00020E000BF012100206174267401B0F0BD6B
:1017B000416841F010014160390C8161B9B2C161E9
:1017C000416821F010014160FEF7F8FF054600BFB7
:1017D0002068416889060BD4FEF7F0FF401BB0F586
:1017E0007A7FF5D9012004216174267401B0F0BD1F
:1017F000016A406A80B240EA0140B84230D200F546
:10180000803000F5A347FEF7D9FF05462068416800
:10181000890607D4FEF7D2FF401BB0F57A7FF5D9D1
:10182000E0E700BF416841F010014160390C0162FE
:10183000B9B24162416821F010014160FEF7BEFF7C
:1018400005462068406880060AD4FEF7B7FF411BB2
:101850000120B1F57A7F4FF00401F2D9A4E700BF6F
:10186000002001216174267401B0F0BD70B50446FA
:1018700000284FF0010018BF002901D170BD00BF42
:10188000207C01284FF0020008BF70BD01232374A3
:101890006074087802B3020902EB820200F00F00C4
:1018A00000EB4200C0B24FF4616250434A7889783D
:1018B000130903EB830302F00F0202EB4302D2B2DF
:1018C000C2EB021200EB82000A0902EB820201F075
:1018D0000F0101EB420108E04FF4616250434A7886
:1018E0008978C2EB021200EB8200C9B24618FEF7FB
:1018F00065FF054620684168890607D4FEF75EFF4C
:10190000401BB0F57A7FF5D91AE000BF416841F07D
:1019100010014160310C8161B1B2C161416821F0B7
:1019200010014160FEF74AFF054600BF206841688C
:1019300089060BD4FEF742FF401BB0F57A7FF5D93C
:101940000120042161740021217470BD416821F0DF
:1019500005014160016A406A80B240EA0140B0423C
:101960002ED200F5803000F5A346FEF727FF05468E
:1019700020684168890607D4FEF720FF401BB0F5B8
:101980007A7FF5D9DCE700BF416841F01001416082
:10199000310C0162B1B24162416821F01001416035
:1019A000FEF70CFF054600BF20684068800607D49C
:1019B000FEF704FF401BB0F57A7FF5D9C0E700BF02
:1019C0000020012161740021217470BD411E00209E
:1019D000B0EB116F1CBF012070474EF21002CEF227
:1019E000000251604EF62351CEF20001F0230B703D
:1019F0000721906011607047FEE700002DE9F04775
:101A000084B041F21800C4F20200016840F60004FC
:101A100041F0100101600168C4F2010401F01001FD
:101A2000009100990168002241F0200101600168E5
:101A3000FF2601F020010091009901684FF0000994
:101A400041F004010160016801F004010091009976
:101A5000016841F0080101600068FF2100F0080002
:101A6000009000982046FEF7A3FE04F58065284606
:101A7000072100224FF00708FEF79AFE00966E46F7
:101A80004FF0010A022720463146CDE901A903970C
:101A9000FEF786FD28463146CDE9008ACDE902975A
:101AA000FEF77EFD04B0BDE8F087000010B584B0FD
:101AB00000200290CDE9000040F2780042F60001DB
:101AC000C2F20000C4F200014FF0FF324FF4807305
:101AD00080E80E00FFF792FC002818BFFEF746FDD5
:101AE00043F61720ADF80D003B208DF80F0040F2B3
:101AF0007800C2F200000DF10D010022FFF7B6FEE2
:101B0000002818BFFEF732FD40F20150C1F20A4032
:101B1000029040F27800C2F2000002A900220024E4
:101B2000FFF7A0FD002818BFFEF720FD40F2780067
:101B3000C2F2000069460022ADF800408DF8024074
:101B40000194FFF7F9FC002818BFFEF70FFD04B061
:101B500010BD0000FEE70000FEE700007047000037
:101B60002DE9F043427B90F80EE090F80FC0002979
:101B700000F0E380012917D1C90700F0DE800C2AAC
:101B800000F2DB800121914041F2AA53194200F09A
:101B9000C780BEF11F0FC0F0C9800C2A40F0CA8078
:101BA0000CF1010C0122C6E045F6294945F628470B
:101BB0004DF20B7821F00103012441F2AA55CCF239
:101BC0008F29C0F28F27C0F2A30803E00EF1010EA7
:101BD000023BD1D00C2A1AD804FA02F62E4209D0C0
:101BE000BEF11E0F0CD90C2A0ED10CF1010C0122F2
:101BF0000BE000BF16F4256F24D0BEF11D0F03D8F3
:101C00000EF1010E03E000BF01324FF0010E0C2A6D
:101C1000DED804FA02F62E420AD0BEF11F0FD5D349
:101C20000C2A0BD10CF1010C01224FF0010ECFE771
:101C300016F4256F10D0BEF11E0FC7D301324FF03E
:101C4000010EC5E7022AE2D1BEF11B0F0ED80EF13C
:101C5000010E0222DBE700BF022AB9D1BEF11C0F40
:101C600010D20EF1010E0222B2E700BFBEF11D0F2D
:101C700010D0BEF11C0F11D15FEA8C7218D0002277
:101C800031E000BF0CD0BEF11D0F0FD14FF0010E9F
:101C900003229DE74FF0010E0322B8E70222B6E7C8
:101CA0005FEA8C720ED000222FE000BF02228FE785
:101CB0001FFA8CF202FB09F24FEAB206BE420BD9C0
:101CC000012210E01FFA8CF202FB09F24FEAB20681
:101CD000BE4213D9012218E04FEA321242454FF0BA
:101CE000000238BF0122002A4FF002024FF01D0E01
:101CF00008BF032208BF4FF0010E88E74FEA3212F7
:101D000042454FF0000238BF0122002A4FF0020284
:101D10004FF01D0E08BF032208BF4FF0010E57E71A
:101D200011F4256F4AD0BEF11E0F03D20EF1010E41
:101D300003E000BF01324FF0010ED1B2022980F85A
:101D40000FC0427380F80EE00CD8172251434CF2BA
:101D50001D72C1F67142A1FB02210CF2CF7240F25A
:101D6000D47309E048F63E63C0F2020359430CF510
:101D7000FA62090C40F2D2735FFA8EF748F21F54F0
:101D80006744C5F2EB143B44A2FB044503EB92020B
:101D9000A2EB551202EBD512114444F62512C2F201
:101DA0009242A1FB0223CA1A03EB52029308DB0002
:101DB000A3EB9202891A0173BDE8F083022ABCD119
:101DC000BEF11C0F04D20EF1010E0222B5E700BFD6
:101DD00006D0BEF11D0F09D14FF0010E0322ACE772
:101DE0005FEA8C7104D001211CE000BF0222A4E74D
:101DF00045F629421FFA8CF1CCF28F224A4345F670
:101E000028434FEAB201C0F28F2399424FF00001FC
:101E100008D84DF20A734FEA3212C0F2A3039A4275
:101E200088BF012102224FF01D0E002918BF032296
:101E300018BF4FF0010E80E770B50D460446FEF75F
:101E4000BDFC064620684168890607D4FEF7B6FC4B
:101E5000801BB0F57A7FF5D91AE000BF416841F0E8
:101E600010014160290C0162A9B24162416821F070
:101E700010014160FEF7A2FC054600BF20684068E3
:101E8000800607D4FEF79AFC401BB0F57A7FF5D99F
:101E9000012070BD002070BD70470000FEF794BCAB
:101EA00070470000FEE70000B0B50120FEF764FBBC
:101EB0000220FEF761FB40F60044C4F20104204614
:101EC00001210022FEF774FC204602210022FEF7C9
:101ED0006FFCA4F580652846FF210022FEF768FC10
:101EE000284601210122FEF763FC2046042101223D
:101EF000FEF75EFC204604210022FEF759FC02207A
:101F0000FEF73AFB204601210022FEF751FC204655
:101F100002210022FEF74CFC2846FF210022FEF79A
:101F200047FC284602210122FEF742FC20460421FC
:101F30000122FEF73DFC204604210022BDE8B0400E
:101F4000FEF736BC70B5044601200D46FEF714FBC3
:101F5000032D88BF70BDDFE805F00311090D00BF38
:101F60006FF07F0084EA00060AE000BFA4F16C066F
:101F700006E000BFA4F12C0602E000BFA4F1400679
:101F80000220FEF7F9FA40F60044C4F201042046AC
:101F900001210022FEF70CFC204602210022FEF760
:101FA00007FCA4F580652846FF210022FEF700FC0F
:101FB000F1B228460122FEF7FBFB20460421012254
:101FC000FEF7F6FB204604210022BDE87040FEF734
:101FD000EFBB0000B0B50220FEF7CEFA0220FEF7FC
:101FE000CBFA40F60044C4F201042046012100224D
:101FF000FEF7DEFB204602210022FEF7D9FBA4F506
:1020000080652846FF210022FEF7D2FB28463821B2
:102010000122FEF7CDFB204604210122FEF7C8FB7A
:10202000204604210022FEF7C3FB0220FEF7A4FA9B
:10203000204601210022FEF7BBFB204602210022A0
:10204000FEF7B6FB2846FF210022FEF7B1FB28462B
:1020500006210122FEF7ACFB204604210122FEF7F7
:10206000A7FB204604210022FEF7A2FB0220FEF778
:1020700083FA204601210022FEF79AFB2046022126
:102080000022FEF795FB2846FF210022FEF790FB79
:1020900028460C210122FEF78BFB20460421012259
:1020A000FEF786FB204604210022BDE8B040FEF783
:1020B0007FBB0000F0B581B005460120FEF75CFA59
:1020C0002F7867B340F60044C4F201046E1EA4F5F5
:1020D000806500BF0120FEF74FFA20460121012252
:1020E000FEF766FB204602210022FEF761FB284630
:1020F000FF210022FEF75CFBF9B228460122FEF721
:1021000057FB204604210122FEF752FB2046042102
:102110000022FEF74DFBB7780136002FDAD101B06F
:10212000F0BD000094B0FEF75DFB03200A904FF471
:10213000803000240B900120CDE91244CDE91044F9
:10214000CDE90E440E9010200F900AA8CDE90C4462
:10215000CDE90344FEF7D6FD20B1EFF3108072B64F
:10216000FEE700BF0F20CDE9050405A80021CDE959
:1021700007440994FEF7D0FC20B1EFF3108072B64B
:10218000FEE700BF012001904FF44070029001A8CB
:10219000FEF740FC20B1EFF3108072B6FEE700BFFF
:1021A000FFF72CFCFFF782FCFFF714FF40F27005ED
:1021B00040F27808C2F2000542F25827C2F2000845
:1021C00005F10309C0F600070AAC00BF40462946E6
:1021D0000022FEF7F3FF404649460022FEF792FF39
:1021E0002A786B78AE78204639460096FEF706F8D6
:1021F0002046FFF75FFF00200121FFF7A3FE2B79A8
:102200006E79AA79204639460096FDF7F7FF2046F9
:10221000FFF750FF6420FEF7AFF9FFF745FED5E763
:1022200030380A2801D20120704700207047000092
:102230000000000000000102030406070809000076
:102240000000010203040102020304050607080955
:102250000A0B0C0D0E0F10102532643A2532643A29
:1022600025326400882200080000002010000000D1
:10227000500100089822000810000020800600008D
:1022800070010008000000000100000010000000C4
:0822900000127A0000000000BA
:04000005080000ED02
:00000001FF
