:020000040800F2
:1000000088060020B5010008C50C00080D0C00088A
:10001000C10C000871020008D90C000800000000A3
:10002000000000000000000000000000CD0C0008EF
:100030007502000800000000C90C0008D10C00087F
:10004000CF010008CF010008CF010008CF01000850
:10005000CF010008CF010008CF010008CF01000840
:10006000CF010008CF010008CF010008CF01000830
:10007000CF010008CF010008CF010008CF01000820
:10008000CF010008CF010008CF010008CF01000810
:10009000CF010008CF010008CF010008CF01000800
:1000A000CF010008CF010008CF010008CF010008F0
:1000B000CF010008CF010008CF010008CF010008E0
:1000C000CF010008CF010008CF010008CF010008D0
:1000D000CF010008CF010008CF010008CF010008C0
:1000E000CF010008CF010008CF01000800F002F89E
:1000F00000F050F814A696E8000CB244B344DA4578
:1001000001D100F047F8BAE80F000FA696E83000DA
:10011000A5EB040504EB0607AAEB0704A7F101070A
:100120004FEA15154FEA3414A4F10104AC4201D38F
:1001300000F030F813F0010F18BFFB1A43F0010371
:1001400000F001F8DBE718474812000068120000D1
:10015000103A24BF78C878C1FAD8520724BF30C8F3
:1001600030C144BF04680C60704700007047000055
:100170000023002400250026103A28BF78C1FBD8B0
:10018000520728BF30C148BF0B6070471FB51FBD65
:1001900010B510BD00F031F81146FFF7F7FF01F080
:1001A00075F800F04FF803B4FFF7F2FF03BC00F05E
:1001B00057F800000948804709480047FEE7FEE776
:1001C000FEE7FEE7FEE7FEE7FEE7FEE7FEE7FEE707
:1001D00004480549054A064B70470000D50C000845
:1001E000ED0000088800002088060020880200201A
:1001F00088020020704770477047754600F02CF861
:10020000AE4605006946534620F00700854618B003
:1002100020B5FFF7DDFFBDE820404FF000064FF0AE
:1002200000074FF000084FF0000BAC46ACE8C009E7
:10023000ACE8C009ACE8C009ACE8C00921F007018E
:100240008D46704710B50446AFF300802046BDE8E8
:100250001040FFF7A8BF00000048704720000020B2
:1002600001491820ABBEFEE72600020070470000DF
:10027000FEE7000070470000B0B5044600F024F926
:10028000054640F20000C2F200000078611C18BF71
:10029000044400BF00F018F9401BA042FAD3B0BDDF
:1002A0002DE9F04F82B00E68002E00F0FD8041F283
:1002B0000042C4F20102042340F2004E904208BF03
:1002C00003234FF6FF7CC4F2010E009300240123A8
:1002D000C1F2100C4FF0000A4FF0000944E000BFDB
:1002E000012704F00C030F229A402BEA020207FABE
:1002F00003F34FEA9A051A4346F825204E6840F268
:100300000C45F202DEF8082054BF22EA080242EA55
:100310000802C4F20105CEF808202A68B30254BFCF
:1003200022EA080242EA08022A60B303DEF8042047
:1003300054BF22EA080242EA0802F303CEF804207E
:10034000DEF800204FF0010354BF22EA080242EA1F
:100350000802CEF800200E680AF1010A36FA0AF205
:1003600004F1040400F0A08003FA0AFB16EA0B086B
:10037000F1D04E68664511DC122E55D8DFE806F044
:10038000340A4448545454545454545454545454B3
:10039000544C5000D1F80C9046E000BF4FF6FF726D
:1003A000C1F2210296420FDC0022C1F211029642F4
:1003B0001AD00022C1F21202964215D00022C1F2D8
:1003C0002102964210D02FE00022C1F22202964272
:1003D0000AD00022C1F23102964205D00022C1F2B9
:1003E0003202964220D100BF8A684AB1012A14BF66
:1003F000C0F814B0C0F810B04FF0080914E000BF06
:100400004FF0040910E000BFCA6802F108090BE0D0
:100410004FF0000908E000BFCA6802F1040903E0D8
:10042000CA6802F10C0900BF22460646B8F5807F73
:1004300024BF203A043637680F25954027EA050582
:1004400009FA02F22A433260CA79D2067FF583AFF5
:1004500041F21803C4F202031A68AEF57E7642F048
:1004600001021A601A6802F001020192019A2AF050
:10047000030256F802B040F60002C4F201029042B4
:1004800010D040F60042C4F2010290423FF428AF7F
:1004900041F20002C4F20102009F904208BF02270D
:1004A0001FE700BF00271CE702B0BDE8F08F000087
:1004B0008068084018BF012070470000002A08BF6C
:1004C000090401617047000040F28400C2F200009C
:1004D0000068704740F2000040F28401C2F2000060
:1004E000C2F2000100780A681044086070470000FA
:1004F00080B542F20000C4F20200016841F0100130
:100500000160032000F07AF80F2000F005F800F0F9
:1005100027F8002080BD000070B540F20006C2F24E
:10052000000640F208013278C2F200014FF47A73FB
:100530000968B3FBF2F20446B1FBF2F1084600F0A1
:100540004FFB0F2C4FF0010508D838B94FF0FF30A2
:1005500021460022002500F025F87460284670BD71
:1005600082B041F21800C4F202000168022241F098
:1005700001010160016801F00101019101994168E7
:1005800041F080514160406800F080500090009838
:100590000420C4F20100016862F31A61016002B034
:1005A0007047000010B54EF60C5CCEF2000CDCF883
:1005B0000030C3F3022E8EF00704042C28BF04245D
:1005C000BEF103034FF0FF3E0EFA04F438BF0023E0
:1005D000A14399400EFA03F39A43114300F00F022E
:1005E00000F160430901043A03F5644362440028C2
:1005F00048BF02F10C03197010BD00004EF60C51FB
:10060000CEF200010A684FF6FF031A4060F30A2297
:1006100042F0806040F0FD7008607047002804BF21
:10062000012070472DE9F04381B042F20008C4F286
:1006300002080446D8F800000D4600F00700884282
:100640000CD2D8F8000020F007002843C8F80000BA
:10065000D8F8000000F00700A8426CD1206841F2F1
:1006600004098107C4F2020917D5410705D5D9F855
:10067000001041F4E061C9F80010010705D5D9F870
:10068000001041F46051C9F80010D9F80010A268B8
:1006900021F0F0011143C9F80010C00742D1D8F889
:1006A000000000F00700A8420CD9D8F8000020F0A4
:1006B00007002843C8F80000D8F8000000F0070041
:1006C000A84238D12068410707D5D9F80010E26860
:1006D00021F4E0611143C9F80010000708D5D9F8EA
:1006E0000000216920F4605040EAC100C9F8000010
:1006F000D9F8002002F00C00082841F20020C0F2D6
:100700007A0051D141F27E33C2F38341C0F6000337
:10071000595CD2033CD440F60010C0F23D0048437F
:1007200042E000BF606802280AD001282AD159F8A7
:10073000041C890308D4012001B0BDE8F08300BF88
:1007400059F8041C8901F6D5D9F8001021F00301ED
:100750000843C9F80000FFF7B7FE064641F28837A4
:10076000D9F80000616800F00C00B0EB810F96D062
:10077000FFF7AAFE801BB842F2D9032001B0BDE802
:10078000F08300BF59F8041C8907D4D5DCE700BF0B
:10079000D9F8002041F27C33C2F34042C0F6000396
:1007A0009A5C4843B0FBF2F0D9F8001041F26C3289
:1007B000C1F30311C0F60002515C40F2080220FAB6
:1007C00001F140F20400C2F200000068C2F200022F
:1007D0001160FFF7A1FE002001B0BDE8F08300002A
:1007E000002804BF012070472DE9F04182B0044683
:1007F000007841F20006C007C4F202060CD070680F
:1008000000F00C00042840F081803068800303D59C
:100810006068002800F04E81207880071BD5706842
:1008200010F00C0F09D0706800F00C00082840F0A0
:100830008B807068C00300F187803068800703D523
:100840002069012840F036813068616920F0F800A5
:1008500040EAC10030602078000713D420784007B8
:100860002CD4E569002D00F02081706800F00C00A8
:10087000082840F0AF80012D40F00C81012002B02B
:10088000BDE8F081A069002800F08C800020C4F24F
:1008900042200121C0F88014FFF716FE054600BF74
:1008A000706A800700F1BA80FFF70EFE401B022835
:1008B000F6D9032002B0BDE8F08100BFF0695FEA1D
:1008C000C00808D4F06940F08050F061F06900F091
:1008D00080500090009847F20007C4F20007386883
:1008E000C0054DD4386840F480703860FFF7ECFDE7
:1008F000054600BF3868C00542D4FFF7E5FD401B40
:100900006428F7D9032002B0BDE8F081706800F0D8
:100910000C00082803D17068C0033FF576AF60680B
:10092000002800F00981B0F5A02F00F01D81B0F57E
:10093000803F00F01D81306820F4803030603068E6
:1009400020F4802017E100BF2069002840F2000059
:10095000C4F2422000F08C8001210160FFF7B4FD59
:10096000054600BF306880073FF56EAFFFF7ACFD6E
:10097000401B0228F6D9032002B0BDE8F08100BF79
:10098000E068002800F09A80052800F0B180012876
:1009900000F0B280306A20F001003062306A20F04E
:1009A0000400ACE00020C4F242200021C0F8801412
:1009B000FFF78AFD054600BF706A80077FF54EAFDE
:1009C000FFF782FD401B0228F6D9032002B0BDE8E4
:1009D000F08100BF0027C4F2422700203866FFF7ED
:1009E00073FD022D05460DD13068800140F1D6809F
:1009F000FFF76AFD401B02284FF00300F4D902B054
:100A0000BDE8F081306880014FD5FFF75DFD401BE8
:100A100002284FF00300F5D9F1E700BF40F20800CB
:100A2000C2F20000006844F6D351C1F26201A0FB9B
:100A30000101480A019000BF00BF0198411E002833
:100A400001913FF40BAF00BF0198411E00280191B6
:100A50003FF404AF00BF0198411E002801913FF40C
:100A6000FDAE00BF0198411E00280191E4D1F5E6DA
:100A700000210160FFF728FD054600BF30688007B0
:100A80007FF5E9AEFFF720FD401B02284FF0030081
:100A9000F4D9B4E77068216A00F480328A4209D13F
:100AA000616A00F47010884204D1002002B0BDE8F1
:100AB000F08100BF012002B0BDE8F081306A20F073
:100AC00001003062306A20F004003062FFF7FCFC65
:100AD000054641F2883700BF306A800722D5FFF70C
:100AE000F3FC401BB8424FF00300F5D987E700BF85
:100AF000306A40F004003062306A40F00100306239
:100B0000FFF7E2FC054641F2883700BF306A8007F4
:100B100008D4FFF7D9FC401BB842F7D9032002B034
:100B2000BDE8F081B8F1000F3FF59BAEF06920F011
:100B30008050F06195E600BF306820F4803030606E
:100B4000306820F480203060FFF7BEFC054600BF0F
:100B5000306880037FF560AEFFF7B6FC401B642869
:100B60004FF00300F4D94AE7306840F48020306049
:100B7000306840F480303060FFF7A6FC054600BFC7
:100B8000306880033FF548AEFFF79EFC401B6428A9
:100B9000F6D9032002B0BDE8F08100BF206AB0F5AD
:100BA000803F05D17168A26821F400311143716062
:100BB0007168626A21F47411114308437060012066
:100BC0003866FFF781FC0446306880013FF56DAF61
:100BD000FFF77AFC001B02284FF00300F4D90EE760
:100BE000411E0020B0EB116F1CBF012070474EF278
:100BF0001002CEF2000251604EF62351CEF20001F7
:100C0000F0230B700721906011607047FEE7000031
:100C10002DE9F04784B041F21800C4F202000168E7
:100C200040F6000541F0200101600168C4F20105B1
:100C300001F02001009100990168002241F00401B7
:100C4000016001680F2601F004010091009901681C
:100C50004FF0000941F00801016000680F2100F029
:100C60000800009000982846FFF728FC05F58064EE
:100C7000204640F2FF71002240F2FF78FFF71EFC91
:100C800000966E4601274FF0020A28463146CDE90C
:100C90000179CDF80CA0FFF703FBF020CDE90009A6
:100CA000284631460297FFF7FBFA20463146CDE948
:100CB0000087CDE9029AFFF7F3FA04B0BDE8F087A8
:100CC000FEE70000FEE700007047000070470000EC
:100CD000FFF700BC70470000FEE7000070B540F66B
:100CE0000004C4F2010420461021FFF7E1FB0025B7
:100CF00000284FF0000677D1204601210122FFF79E
:100D0000DDFB204602210122FFF7D8FB204604210B
:100D10000122FFF7D3FB204608210022FFF7CEFB7C
:100D200020461021FFF7C4FB002820464FF00101A8
:100D30004FF0010208BF0325FFF7C0FB2046022148
:100D40000122FFF7BBFB204604210022FFF7B6FB80
:100D5000204608210122FFF7B1FB20461021FFF7B2
:100D6000A7FB002820464FF001014FF0010208BF09
:100D70000225FFF7A3FB204602210022FFF79EFB7E
:100D8000204604210122FFF799FB20460821012279
:100D9000FFF794FB20461021FFF78AFB002820462E
:100DA0004FF001014FF0000208BF0125FFF786FB5D
:100DB000204602210122FFF781FB20460421012267
:100DC000FFF77CFB204608210122FFF777FB204636
:100DD0001021FFF76DFB002808BF054640F20C000C
:100DE000C2F2000010F8256020462021FFF760FBCA
:100DF000002878D1204601210122FFF75FFB204621
:100E000002210122FFF75AFB204604210122FFF7AD
:100E100055FB204608210022FFF750FB20462021E9
:100E2000FFF746FB002820464FF001014FF001027A
:100E300008BF0325FFF742FB204602210122FFF7EE
:100E40003DFB204604210022FFF738FB2046082105
:100E50000122FFF733FB20462021FFF729FB002862
:100E600020464FF001014FF0010208BF0225FFF7B5
:100E700025FB204602210022FFF720FB204604210B
:100E80000122FFF71BFB204608210122FFF716FB7A
:100E900020462021FFF70CFB002820464FF00101DF
:100EA0004FF0000208BF0125FFF708FB2046022192
:100EB0000122FFF703FB204604210122FFF7FEFA7F
:100EC000204608210122FFF7F9FA20462021FFF7EA
:100ED000EFFA002808BF054640F20C00C2F20000FD
:100EE00000EB8500467820464021FFF7E1FA002814
:100EF00078D1204601210122FFF7E0FA20460221A5
:100F00000122FFF7DBFA204604210122FFF7D6FA7F
:100F1000204608210022FFF7D1FA20464021FFF7A2
:100F2000C7FA002820464FF001014FF0010208BF28
:100F30000325FFF7C3FA204602210122FFF7BEFA7C
:100F4000204604210022FFF7B9FA20460821012299
:100F5000FFF7B4FA20464021FFF7AAFA00282046FE
:100F60004FF001014FF0010208BF0225FFF7A6FA7A
:100F7000204602210022FFF7A1FA20460421012287
:100F8000FFF79CFA204608210122FFF797FA204636
:100F90004021FFF78DFA002820464FF001014FF065
:100FA000000208BF0125FFF789FA2046022101222D
:100FB000FFF784FA204604210122FFF77FFA20463A
:100FC00008210122FFF77AFA20464021FFF770FA44
:100FD000002808BF054640F20C00C2F2000000EBFA
:100FE0008500867820468021FFF762FA002878D1B4
:100FF000204601210122FFF761FA20460221012249
:10100000FFF75CFA204604210122FFF757FA204639
:1010100008210022FFF752FA20468021FFF748FA04
:10102000002820464FF001014FF0010208BF0325C0
:10103000FFF744FA204602210122FFF73FFA20463B
:1010400004210022FFF73AFA204608210122FFF787
:1010500035FA20468021FFF72BFA002820464FF072
:1010600001014FF0010208BF0225FFF727FA2046D1
:1010700002210022FFF722FA204604210122FFF775
:101080001DFA204608210122FFF718FA2046802188
:10109000FFF70EFA002820464FF001014FF0000242
:1010A00008BF0125FFF70AFA204602210122FFF7B7
:1010B00005FA204604210122FFF700FA2046082104
:1010C0000122FFF7FBF920468021FFF7F1F9002804
:1010D00008BF054640F20C00C2F2000000EB85009C
:1010E000C6782046012100220025FFF7E7F92046B7
:1010F00002210022FFF7E2F9204604210022FFF737
:10110000DDF9204608210022FFF7D8F9002E08BF9C
:1011100070BD40F28000C2F2000006704570BDE86C
:10112000704000F07BB8000010B50220FFF7A4F873
:101130000220FFF7A1F840F60044C4F20104204663
:101140004FF480710022FFF7B9F920464FF4007187
:101150000022FFF7B3F92046FF210022FFF7AEF986
:10116000204638210122FFF7A9F920464FF480617B
:101170000122FFF7A3F920464FF480610022FFF718
:101180009DF90220FFF778F820464FF48071002285
:10119000FFF794F920464FF400710022FFF78EF913
:1011A0002046FF210022FFF789F92046062101226F
:1011B000FFF784F920464FF480610122FFF77EF9A2
:1011C00020464FF480610022FFF778F90220FFF7F4
:1011D00053F820464FF480710022FFF76FF9204644
:1011E0004FF400710022FFF769F92046FF21002229
:1011F000FFF764F920460C210122FFF75FF9204632
:101200004FF480610122FFF759F920464FF48061C5
:101210000022BDE81040FFF751B9000070B5054647
:101220000120FFF729F82E78002E08BF70BD40F688
:101230000044C4F20104013D0120FFF71DF82046DF
:101240004FF480710122FFF739F920464FF4007105
:101250000022FFF733F92046FF210022FFF72EF985
:10126000F1B220460122FFF729F920464FF48061B0
:101270000122FFF723F920464FF480610022FFF797
:101280001DF9AE780135002ED6D170BD90B0FFF7B4
:101290002FF900240120CDE90B44CDE90944069043
:1012A0004FF480310A90022506A8CDE90714CDE954
:1012B0000D510F94FFF794FA20B1EFF3108072B63E
:1012C000FEE700BF0F20CDE9010501A80021CDE90F
:1012D00003440594FFF7A2F920B1EFF3108072B632
:1012E000FEE700BF40F60004C4F20104FFF790FCE3
:1012F000FFF71AFF1AA0FFF791FF00BF2046102149
:10130000FFF7D6F880B120462021FFF7D1F858B179
:1013100020464021FFF7CCF830B120468021FFF76E
:10132000C7F80028EAD100BFFFF7D8FC20461021FB
:10133000FFF7BEF80028F9D020462021FFF7B8F8C3
:101340000028F3D020464021FFF7B2F80028EDD066
:1013500020468021FFF7ACF80028E7D0CEE700BF99
:101360006D6F68616D6D6164000000000000000039
:10137000000000000102030406070809010202033D
:101380000405060708090A0B0C0D0E0F10100000CB
:10139000B0130008000000202000000050010008E9
:1013A000D01300082000002068060000700100082B
:1013B000010000001000000000127A003738392FB9
:1013C0003435362A3132332D63303D2B0000000096
:04000005080000ED02
:00000001FF
