:020000040800F2
:10000000D8060020E5010008D119000841190008B0
:10001000CD190008A90D0008E5190008000000002E
:10002000000000000000000000000000D9190008D6
:10003000AD0D000800000000D5190008DD1900080A
:10004000FF010008FF010008FF010008FF01000890
:10005000FF010008FF010008FF010008FF01000880
:10006000FF010008FF010008FF010008FF01000870
:10007000FF010008FF010008FF010008FF01000860
:10008000FF010008FF010008FF010008FF01000850
:10009000FF010008FF010008FF010008FF01000840
:1000A000FF010008FF010008FF010008FF01000830
:1000B000FF010008FF010008FF010008FF01000820
:1000C000FF010008FF010008FF010008FF01000810
:1000D000FF010008FF010008FF010008FF01000800
:1000E000FF010008FF010008FF01000800F002F80E
:1000F00000F069F814A696E8000CB244B344DA455F
:1001000001D100F060F8BAE80F000FA696E83000C1
:10011000A5EB040504EB0607AAEB0704A7F101070A
:100120004FEA15154FEA3414A4F10104AC4201D38F
:1001300000F049F813F0010F18BFFB1A43F0010358
:1001400000F001F8DBE7184754280000742800008D
:10015000103A24BF78C878C1FAD8520724BF30C8F3
:1001600030C144BF04680C60704700007047000055
:100170000023002400250026103A28BF78C1FBD8B0
:10018000520728BF30C148BF0B607047662902F094
:100190008D83652902F08A83672902F087836129AC
:1001A00002F08683642900F06580002070471FB547
:1001B00000F084FC04000020002102F061FBE060FC
:1001C0001FBD10B510BD00F079FD1146FFF7EFFF20
:1001D00001F00AFC00F097FD03B4FFF7F2FF03BC47
:1001E00000F0DAFD0948804709480047FEE7FEE7CE
:1001F000FEE7FEE7FEE7FEE7FEE7FEE7FEE7FEE7D7
:1002000004480549054A064B70470000E1190008FB
:10021000ED000008D8000020D8060020D8020020F9
:10022000D802002070B5044685690068C10601D572
:10023000302600E02026C00707D070BDD4E9012198
:1002400030469047206A401C20626D1EF6D570BD76
:1002500070B5044685690078C00707D170BDD4E940
:10026000012120209047206A401C20626D1EF6D597
:1002700070BD00002DE9F041064600241068752984
:10028000314616A510D0AFF30080002802DA4042B4
:1002900013A507E031688A0701D512A502E04907D6
:1002A00004D511A5012401E0AFF3008000210A224A
:1002B00006F1240709E0B0FBF2FCB0FBF2F302FB0D
:1002C0001C00303078541846491C0028F3D12346CE
:1002D0002A463046BDE8F04100F00BB800000000AF
:1002E0002D0000002B000000200000007047704728
:1002F00070472DE9F0470D4699469246044600F1B5
:1003000024080168880604D5E06921F01001216005
:1003100000E00120A84201DD471B00E00027A169A1
:100320007A1902EB0900081AA0612078C00602D4ED
:100330002046FFF777FF002608E0D4E901211AF8EC
:1003400006009047206A401C761C20624E45F4DB74
:100350002078C0060AD52046FFF764FF06E0D4E9FE
:10036000012130209047206A401C2062381EA7F1EE
:100370000107F4DC07E0D4E9012118F805009047F3
:10038000206A401C2062281EA5F10105F3DC2046EE
:10039000FFF75EFF2078000602D50220BDE8F08757
:1003A0000120FBE72DE9FF4F0C461E464FF0FF37BB
:1003B0008BB0D2E90001DDF860800A908A46C1F373
:1003C0000A5505B93D46002108464FF00000BAF134
:1003D000000F00F4400005DA00EB80004FF440010C
:1003E00001EA50004FEA9059B9F1010F00DDB9461A
:1003F0000A9850EA4A000ED044F61050A5F2FF3594
:1004000045432F14B8F1000F1ED07542291E1EDD82
:10041000C9F100021CE0B8F1010F4FF0000001D05B
:10042000302103E0F24305E02154401CB042FBDBE5
:1004300030460022002121540B99C1F80880C1E9FF
:1004400000200FB0BDE8F08FBD1B6D1CDEE74A46F3
:1004500000DA694206A800F0BBFB06AB93E8070090
:1004600003AB83E8070050460A9901F02DFE8DE8A2
:100470000700A0F500501F3800900398002D0ADDFA
:1004800042F21F014A460844002303A9039068462C
:1004900002F096F809E0A0F500504A461F38002304
:1004A00003A90390684602F0A0F88DE80700000455
:1004B000000C03D04FF0FF30410800E01046B8F1C7
:1004C000000F03D00022009215461EE0751E05D4D1
:1004D00000F0F8FA303262556D1EF9D5B3460122AC
:1004E000084302D000227F1C04E02078302801D18C
:1004F00000227F1E002A099784D01DE0112D07DA03
:1005000000F0E0FA303262556D1C50EA0102F5D17C
:10051000084302D00098C8B10EE00021681E05E033
:10052000235C625C63542254401E491C8142F7DB09
:10053000AB46A81B401E0990002004F80B000B9846
:10054000099AC0F80880C0E9002B7AE711264FF01D
:10055000000857E72DE9F04F88460446D21D22F0E7
:10056000070191B0D1E90001CDE90A0102F074F967
:1005700002460B98C00F01D02D2007E020688107AC
:1005800001D52B2002E0202101EAC000032A0990B6
:1005900001D0072A05DB03464146204600F0D8FA81
:1005A0000BE12078800601D5E06900E00620B8F173
:1005B000650F814606D0B8F1660F18D0B8F1670F05
:1005C00070D131E00020B9F1110F009001DB11234F
:1005D00001E009F101030AAA01A90CA8FFF7E2FE54
:1005E000DDE90C70002609F10105834647E0012092
:1005F0004B4600904FF000470AAA01A90CA8FFF74C
:10060000D1FEDDE90DB00C995D46002610B909F167
:1006100001000D18B9EB050003D4C0F1FF3609F154
:100620000105A5EB09002BE0B9F1010F01DA4FF04C
:1006300001090020B9F1110F0090484601DD112396
:1006400000E003460AAA01A90CA8FFF7ABFEDDE90A
:100650000C704D4600268346207800070AD4AB452F
:1006600000DA5D4601A8012D04DD411911F8011CD5
:10067000302907D04F4502DA17F1040F04DA0120C0
:1006800082460FE06D1EEEE7002F02DCED1B3E44BC
:1006900003E0781CA84200DD7D1CB81B00F1010AB4
:1006A0004FF000472078000703D4AA4501DB4FF044
:1006B000FF3A0021B7F1004F0DF143088DF84310C8
:1006C00024D002202B23002F01DA7F422D230A2180
:1006D000021EA0F1010000DC5FB197FBF1FC97FB6B
:1006E000F1F201FB1C7C17460CF1300C08F801CD2F
:1006F000EEE7A8F1010003702188090501D5452125
:1007000000E06521A0F1010800F8011C09980FA97B
:10071000A1EB0807FF1D00B10120411901EBEA70B0
:10072000A1693844081A401EA0612078C00602D48E
:100730002046FFF777FD099828B1D4E901219047B9
:10074000206A401C20622078C00622D52046FFF790
:1007500069FD1EE0002E04DBB34502DD01A8805DCB
:1007600000E03020D4E901219047206A401C20623B
:10077000761CAAF101005FEA000A0AD100F09EF996
:10078000C0680168405CD4E901219047206A401CA0
:100790002062281EA5F10105DCDC07E0D4E9012177
:1007A00018F8010B9047206A401C2062381EA7F100
:1007B0000107F3DC2046FFF74BFD032011B041E6B3
:1007C0002DE9F04F04460D46D21D22F0070089B0F6
:1007D000D0E900974846394602F03EF80246F80F45
:1007E00001D02D2307E02068810701D52B2302E0EB
:1007F000202101EAC0038DF820300BB1012000E078
:100800000020032A824601D0072A04DB294620461D
:1008100000F09EF93FE12078800601D40D2500E02C
:10082000E569C7F30A560D2D49DA00214FEA175B37
:1008300008464FF00000002F00F4400007DA00EBFC
:1008400080004FF4400100EBD07001EA6000811598
:10085000012901DD4FF0FF3100224FEA850CBCF188
:10086000180F06D31346ACF118004FF08052C24067
:1008700003E04FF4801323FA0CF30CF10C0CBCF1E1
:10088000200F04D3ACF1200C09FA0CF001E007FAB8
:100890000CF000294FF0004801DD18B90FE00ED12F
:1008A00040450CD319EB02095F4121B9404502D103
:1008B0009F4329EA0209BBEB175F00D0761C208812
:1008C000000502D57B48784402E07A48784419381C
:1008D00008AA302302F80A30037C0AF10101002E35
:1008E0000AF1020A53546A4602DC4FF0300101E07B
:1008F0004FF031014FF001088DF8001002D0A6F240
:10090000FF3603E059EA470100D06B4E002D02DCB0
:100910002178090704D54FF002082E218DF8011027
:10092000C44600210BE0C7F303433F01C35C491CED
:100930006D1E02F80830052908F1010801DA002DC2
:10094000F1DC00210CE000EB1973491C1B786D1ED3
:10095000082902F808304FEA091908F1010801DAFC
:10096000002DF0DC21688B0602D516E0A8F1010805
:10097000E04505DD02EB080313F8013C302BF5D010
:10098000B8F1000F09DD02EB080313F8013C2E2B30
:1009900003D1090701D4A8F10108002D05DD3E218E
:1009A00002F808106D1E08F10108407C002E02F8C4
:1009B000080008F1010804DA2D20764202F8080048
:1009C00002E02B2002F808000A214FF47A708642D8
:1009D00008F101080BDB96FBF0F3303302F8083026
:1009E00096FBF0F308F1010800FB136601E0642EAA
:1009F0000CDB642096FBF0F3303302F8083096FBF2
:100A0000F0F308F1010800FB136601E00A2E06DB93
:100A100096FBF1F0303002F8080008F1010896FB6F
:100A2000F1F001FB1060303002F80800A16908F114
:100A3000010808EB050202EB0A00081AA061207801
:100A4000C00602D42046FFF7EDFB216A08AE01EB99
:100A50000A00206204E0D4E9012116F8010B904756
:100A6000BAF1010AF7D22078C00602D52046FFF776
:100A7000D9FB6E4609E016F8010B3E280FD0D4E9E9
:100A800001219047206A401C2062B8F10108F2D28F
:100A90002046FFF7DDFB09B00320BDE8F08F206A98
:100AA0002844206203E0D4E90121302090476D1EE4
:100AB000EBD3F8E7FD1F000002FCFFFF0048704782
:100AC0003000002030B5B0F10A0271F100034FEAA6
:100AD000900E4EEA817EB0EB0E0061EB91014FEA81
:100AE000101E4EEA017E10EB0E0041EB11114FEA91
:100AF000102E4EEA016E10EB0E0041EB11214FEA71
:100B0000104E4EEA014E10EB0E0041EB1141401821
:100B100041F100014FEAD00040EA41704FEAD101B3
:100B20004FEA810444EA907410EB800544EB010421
:100B30006D1944EB0404521BA3414FF0000348BF5E
:100B40000A3200D530BD401C41F1000130BD00002B
:100B50002DE9F0411F46044603260168072A01F4E7
:100B6000006004DB08B116A505E016A503E008B196
:100B700015A500E015A521F010002060A069C01E99
:100B8000A0610FB1401EA0612046FFF74BFB4FB1A3
:100B9000D4E9012138469047206A401C2062C01CDD
:100BA000206206E0206AFAE7D4E9012115F8010B7A
:100BB0009047761EF8D22046FFF74AFBBDE8F08149
:100BC0004E414E006E616E00494E4600696E6600F1
:100BD0002DE9F047814616468AB0354878440DC85D
:100BE0008DE80D0032487844801C03AC0DC884E8C1
:100BF0000D0041F69B300844372190FBF1F290FB49
:100C0000F1F5A5F1800501FB12041B3C02D56442FD
:100C1000012000E00020DFF898A080460027FA4479
:100C2000AAF1BE0A0EE0E0070AD03246684607EB9A
:100C3000470101230AEB810101F0D7FC8DE8070091
:100C400064107F1C002CEED1194F7F44AE3F19E099
:100C5000E80715D007EB04100DF1180A90E80E0014
:100C60008AE80E00C068F04201D198190890324617
:100C7000012306A903A801F0B8FC03AB83E8070031
:100C80006D10641C002DE3D14FF00103324669461C
:100C9000B8F1000F03A802D001F092FC01E001F0CE
:100CA000A4FCC9E90001C9F808200AB0BDE8F08732
:100CB000781D000000487047100000207546FFF7BF
:100CC000F9FFAE4605006946534620F00700854609
:100CD00018B020B5FFF794FABDE820404FF00006A9
:100CE0004FF000074FF000084FF0000BAC46ACE8A7
:100CF000C009ACE8C009ACE8C009ACE8C00921F003
:100D000007018D46704710B50446AFF300802046BA
:100D1000BDE81040FFF760BA4FF0013C50F8042BDB
:100D200051F8043B9A4221D1A2EB0C03934313EAFE
:100D3000CC1317D150F8042B51F8043B9A4215D12B
:100D4000A2EB0C03934313EACC130BD150F8042B02
:100D500051F8043B9A4209D1A2EB0C03934313EAE6
:100D6000CC13DBD04FF00000704700BFD01A01BA9F
:100D7000B1FA81F101F0180122FA01F0CB40DBB2A7
:100D8000C0B2C01AC1F120012CFA01F3D11A91436B
:100D900011EAC311E6D1704701491820ABBEFEE746
:100DA0002600020070470000FEE7000070470000C8
:100DB000EFF3108072B600BFFEE70000B0B5044646
:100DC00000F024F9054640F20000C2F2000000786D
:100DD000611C18BF044400BF00F018F9401BA0427A
:100DE000FAD3B0BD2DE9F04F82B00E68002E00F0AE
:100DF000FD8041F20042C4F20102042340F2004EA1
:100E0000904208BF03234FF6FF7CC4F2010E00930B
:100E100000240123C1F2100C4FF0000A4FF000092A
:100E200044E000BF012704F00C030F229A402BEA94
:100E3000020207FA03F34FEA9A051A4346F82520FF
:100E40004E6840F20C45F202DEF8082054BF22EA58
:100E5000080242EA0802C4F20105CEF808202A6816
:100E6000B30254BF22EA080242EA08022A60B3032E
:100E7000DEF8042054BF22EA080242EA0802F30323
:100E8000CEF80420DEF800204FF0010354BF22EA20
:100E9000080242EA0802CEF800200E680AF1010AB0
:100EA00036FA0AF204F1040400F0A08003FA0AFB07
:100EB00016EA0B08F1D04E68664511DC122E55D8A3
:100EC000DFE806F0340A44485454545454545454FB
:100ED00054545454544C5000D1F80C9046E000BF88
:100EE0004FF6FF72C1F2210296420FDC0022C1F2DE
:100EF000110296421AD00022C1F21202964215D077
:100F00000022C1F22102964210D02FE00022C1F24D
:100F1000220296420AD00022C1F23102964205D046
:100F20000022C1F23202964220D100BF8A684AB143
:100F3000012A14BFC0F814B0C0F810B04FF008096F
:100F400014E000BF4FF0040910E000BFCA6802F1CE
:100F500008090BE04FF0000908E000BFCA6802F181
:100F6000040903E0CA6802F10C0900BF22460646E4
:100F7000B8F5807F24BF203A043637680F259540A6
:100F800027EA050509FA02F22A433260CA79D20635
:100F90007FF583AF41F21803C4F202031A68AEF57D
:100FA0007E7642F001021A601A6802F00102019294
:100FB000019A2AF0030256F802B040F60002C4F289
:100FC0000102904210D040F60042C4F20102904269
:100FD0003FF428AF41F20002C4F20102009F9042A8
:100FE00008BF02271FE700BF00271CE702B0BDE8CB
:100FF000F08F00008068084018BF01207047000093
:10100000002A08BF090401617047000040F2D400C3
:10101000C2F2000000687047002804BF012070473A
:10102000F0B581B0044690F83D0028B9002084F85E
:101030003C00204600F0A2F8242084F83D002068FF
:10104000016821F001010160016841F40041016083
:10105000016821F40041016000F048FA636848F239
:10106000A16CC0F2010C40F60011C0F23D016345D5
:101070003CBF48F28041C0F21E01884202D20120EA
:1010800001B0F0BD4DF68361C4F21B31A0FB01122B
:101090002168970CD1F804E04FF496762EF03F05C6
:1010A00045EA92454D60774348F638160D6AC0F21E
:1010B0004106A7FB067625F03F07634538BF960C2F
:1010C000721C3A430A62CA6948F2A0664CF6FF777E
:1010D000C0F20106B34222EA07020BD801385B00D6
:1010E000B0FBF3F001306FF31F30042898BF0420E9
:1010F0001BE000BFA768013857B119277B43B0FB3D
:10110000F3F001306FF31F3070B100F5804007E05D
:1011100003EB4303B0FBF3F001306FF31F3018B162
:1011200000F5004001E000BF01201043C8610868DD
:10113000D4E9072320F0C0001043184308608868F2
:1011400048F2FF3204F10C0790438CCF1843104350
:10115000A6698860C86820F0FF0038433043C86043
:10116000086840F00100086000202021206484F815
:101170003D10206384F83E0001B0F0BD10B586B08C
:1011800045F600010068C4F2000100228842049282
:1011900002D006B010BD00BF41F21804C4F2020430
:1011A000206840F008002060206800F008000190EE
:1011B00001984FF4406002901220039003200590A4
:1011C00001F5344002A9FFF70DFE606840F480008D
:1011D0006060606800F480000190019806B010BD66
:1011E00040F2000040F2D401C2F20000C2F200015D
:1011F00000780A68104408607047000080B542F229
:101200000000C4F20200016841F0100101600320F7
:1012100000F07AF80F2000F005F800F027F8002021
:1012200080BD000070B540F20006C2F2000640F238
:1012300008013278C2F200014FF47A730968B3FBF7
:10124000F2F20446B1FBF2F1084600F063FB0F2C0A
:101250004FF0010508D838B94FF0FF302146002281
:10126000002500F025F87460284670BD82B041F278
:101270001800C4F202000168022241F0010101607D
:10128000016801F0010101910199416841F080512B
:101290004160406800F08050009000980420C4F243
:1012A0000100016862F31A61016002B0704700003A
:1012B00010B54EF60C5CCEF2000CDCF80030C3F337
:1012C000022E8EF00704042C28BF0424BEF1030371
:1012D0004FF0FF3E0EFA04F438BF0023A1439940BB
:1012E0000EFA03F39A43114300F00F0200F160433A
:1012F0000901043A03F564436244002848BF02F13F
:101300000C03197010BD00004EF60C51CEF2000116
:101310000A684FF6FF031A4060F30A2242F0806029
:1013200040F0FD7008607047002804BF012070473E
:101330002DE9F04381B042F20008C4F202080446ED
:10134000D8F800000D4600F0070088420CD2D8F80B
:10135000000020F007002843C8F80000D8F800007B
:1013600000F00700A8426CD1206841F2040981070F
:10137000C4F2020917D5410705D5D9F8001041F488
:10138000E061C9F80010010705D5D9F8001041F453
:101390006051C9F80010D9F80010A26821F0F001DE
:1013A0001143C9F80010C00742D1D8F8000000F07E
:1013B0000700A8420CD9D8F8000020F00700284305
:1013C000C8F80000D8F8000000F00700A84238D1A3
:1013D0002068410707D5D9F80010E26821F4E061E0
:1013E0001143C9F80010000708D5D9F80000216999
:1013F00020F4605040EAC100C9F80000D9F800208C
:1014000002F00C00082841F20020C0F27A0051D10D
:1014100042F68A13C2F38341C0F60003595CD2033B
:101420003CD440F60010C0F23D00484342E000BF0B
:10143000606802280AD001282AD159F8041C8903BF
:1014400008D4012001B0BDE8F08300BF59F8041CA6
:101450008901F6D5D9F8001021F003010843C9F835
:101460000000FFF7D3FD064641F28837D9F80000A7
:10147000616800F00C00B0EB810F96D0FFF7C6FD5D
:10148000801BB842F2D9032001B0BDE8F08300BF51
:1014900059F8041C8907D4D5DCE700BFD9F800202F
:1014A00042F68813C2F34042C0F600039A5C4843F8
:1014B000B0FBF2F0D9F8001042F67012C1F303113C
:1014C000C0F60002515C40F2080220FA01F140F23D
:1014D0000400C2F200000068C2F200021160FFF7CF
:1014E000A1FE002001B0BDE8F083000040F208003A
:1014F00041F20401C2F20000C4F20201006809686E
:1015000042F68012C1F30221C0F60002515CC840CD
:1015100070470000002804BF012070472DE9F0410A
:1015200082B00446007841F20006C007C4F2020609
:101530000CD0706800F00C00042840F08180306806
:10154000800303D56068002800F04E812078800772
:101550001BD5706810F00C0F09D0706800F00C00FB
:10156000082840F08B807068C00300F187803068E5
:10157000800703D52069012840F036813068616911
:1015800020F0F80040EAC10030602078000713D452
:10159000207840072CD4E569002D00F02081706888
:1015A00000F00C00082840F0AF80012D40F00C81C5
:1015B000012002B0BDE8F081A069002800F08C8015
:1015C0000020C4F242200121C0F88014FFF71EFD64
:1015D000054600BF706A800700F1BA80FFF716FD6C
:1015E000401B0228F6D9032002B0BDE8F08100BFFD
:1015F000F0695FEAC00808D4F06940F08050F061FB
:10160000F06900F080500090009847F20007C4F2A3
:1016100000073868C0054DD4386840F480703860E1
:10162000FFF7F4FC054600BF3868C00542D4FFF759
:10163000EDFC401B6428F7D9032002B0BDE8F0811F
:10164000706800F00C00082803D17068C0033FF5F3
:1016500076AF6068002800F00981B0F5A02F00F097
:101660001D81B0F5803F00F01D81306820F480308E
:101670003060306820F4802017E100BF2069002826
:1016800040F20000C4F2422000F08C800121016091
:10169000FFF7BCFC054600BF306880073FF56EAF22
:1016A000FFF7B4FC401B0228F6D9032002B0BDE8C6
:1016B000F08100BFE068002800F09A80052800F063
:1016C000B180012800F0B280306A20F00100306261
:1016D000306A20F00400ACE00020C4F24220002177
:1016E000C0F88014FFF792FC054600BF706A8007BF
:1016F0007FF54EAFFFF78AFC401B0228F6D9032086
:1017000002B0BDE8F08100BF0027C4F242270020EC
:101710003866FFF77BFC022D05460DD1306880014D
:1017200040F1D680FFF772FC401B02284FF0030007
:10173000F4D902B0BDE8F081306880014FD5FFF7E1
:1017400065FC401B02284FF00300F5D9F1E700BF0C
:1017500040F20800C2F20000006844F6D351C1F222
:101760006201A0FB0101480A019000BF00BF01987F
:10177000411E002801913FF40BAF00BF0198411EAC
:10178000002801913FF404AF00BF0198411E0028DA
:1017900001913FF4FDAE00BF0198411E0028019168
:1017A000E4D1F5E600210160FFF730FC054600BFFB
:1017B000306880077FF5E9AEFFF728FC401B022860
:1017C0004FF00300F4D9B4E77068216A00F4803266
:1017D0008A4209D1616A00F47010884204D1002065
:1017E00002B0BDE8F08100BF012002B0BDE8F08189
:1017F000306A20F001003062306A20F0040030626C
:10180000FFF704FC054641F2883700BF306A8007C5
:1018100022D5FFF7FBFB401BB8424FF00300F5D980
:1018200087E700BF306A40F004003062306A40F061
:1018300001003062FFF7EAFB054641F2883700BF3E
:10184000306A800708D4FFF7E1FB401BB842F7D9A4
:10185000032002B0BDE8F081B8F1000F3FF59BAE68
:10186000F06920F08050F06195E600BF306820F408
:1018700080303060306820F480203060FFF7C6FB95
:10188000054600BF306880037FF560AEFFF7BEFB02
:10189000401B64284FF00300F4D94AE7306840F455
:1018A00080203060306840F480303060FFF7AEFB5D
:1018B000054600BF306880033FF548AEFFF7A6FB42
:1018C000401B6428F6D9032002B0BDE8F08100BFB8
:1018D000206AB0F5803F05D17168A26821F400311B
:1018E000114371607168626A21F4741111430843F5
:1018F000706001203866FFF789FB0446306880017C
:101900003FF56DAFFFF782FB001B02284FF003008D
:10191000F4D90EE7411E0020B0EB116F1CBF01206F
:1019200070474EF21002CEF2000251604EF6235183
:10193000CEF20001F0230B70072190601160704718
:10194000FEE7000083B041F21800C4F20200016813
:1019500041F020010160016801F02001029102992B
:10196000016841F008010160016801F0080101917E
:101970000199016841F004010160006800F0040071
:101980000090009803B0704780B540F2800045F6A3
:101990000001C2F20000C4F2000148F2A06200237C
:1019A0004FF4804CC0F2010280E80E00C0E9033C15
:1019B000C0E90533C0E90733FFF72EFB002808BF55
:1019C00080BDBDE88040FFF7F3B90000FEE70000EE
:1019D000FEE700007047000070470000FFF700BC02
:1019E00070470000FEE7000090B0FFF707FC0024FE
:1019F0000120CDE90B44CDE9094406904FF4803134
:101A00000A90022506A8CDE90714CDE90D510F94DF
:101A1000FFF780FD20B1EFF3108072B6FEE700BF44
:101A20000F20CDE90105902003904FF48060CDE9AF
:101A3000040401A80021FFF777FC28B1EFF3108020
:101A400072B600BFFEE700BFFFF77CFFFFF79CFF09
:101A500040F2700440F60041C2F20004C4F20101F9
:101A60004FF4006520464FF480620B46009500F06D
:101A700033F82046012100F01BF845F27855C7F6EF
:101A8000065506A9204604220023069500F000FB17
:101A90004FF4FA60FFF792F905F50040019001A9B3
:101AA00020460422002300F0F3FA00BFFEE7000006
:101AB000B0B5044600780D46012805D10120FFF796
:101AC0007DF920780128F9D0012060F3DF0500209E
:101AD00065702070B0BD00002DE9F04184B0002792
:101AE0000546076040F6017028801120DDF8288047
:101AF000CDE9010703206E46696003900846314630
:101B00001C46AA81AB60A5F80E800092FFF76AF927
:101B100020463146CDF80080FFF764F92F7004B0FD
:101B2000BDE8F08110B504468068E1890022FFF726
:101B300067FA00BF00BF00BF00BF00BF00BF00BF0B
:101B400000BF00BF00BF00BF00BF00BF00BF00BF9D
:101B500000BF00BF00BF00BF00BF00BF00BF00BF8D
:101B600000BF00BF00BF00BF00BF00BF00BF00BF7D
:101B700000BF00BF00BF00BF00BF00BF00BF00BF6D
:101B800000BF6068A1890122FFF73AFA00BF00BFD9
:101B900000BF00BF00BF00BF00BF00BF00BF00BF4D
:101BA00000BF00BF00BF00BF00BF00BF00BF00BF3D
:101BB00000BF00BF00BF00BF00BF00BF00BF00BF2D
:101BC00000BF00BF00BF00BF00BF00BF00BF00BF1D
:101BD00000BF00BF00BF00BF00BF00BFA068E18919
:101BE0000122FFF70DFA00BF00BF00BF00BF00BF1A
:101BF00000BF00BF00BF00BF00BF00BF00BF00BFED
:101C000000BF00BF00BF00BF00BF00BF00BF00BFDC
:101C100000BF00BF00BF00BF00BF00BF00BF00BFCC
:101C200000BF00BF00BF00BF00BF00BF00BF00BFBC
:101C300000BF00BF00BF10BDF0B581B00D46044627
:101C4000002600BF6068A1890022FFF7D9F900BF14
:101C500000BF00BF00BF00BF00BF00BF00BF00BF8C
:101C600000BF00BF00BF00BF00BF00BF00BF00BF7C
:101C700000BF00BF00BF00BF00BF00BF00BF00BF6C
:101C800000BF00BF00BF00BF00BF00BF00BF00BF5C
:101C900000BF00BF00BF00BF00BF00BF00BFA06803
:101CA000E18905F00102EFB2FFF7AAF900BF00BF1A
:101CB00000BF00BF00BF00BF00BF00BF00BF00BF2C
:101CC00000BF00BF00BF00BF00BF00BF00BF00BF1C
:101CD00000BF00BF00BF00BF00BF00BF00BF00BF0C
:101CE00000BF00BF00BF00BF00BF00BF00BF00BFFC
:101CF00000BF00BF00BF00BF00BF00BF6068A18978
:101D00000122FFF77DF900BF00BF00BF00BF00BF89
:101D100000BF00BF00BF00BF00BF00BF00BF00BFCB
:101D200000BF00BF00BF00BF00BF00BF00BF00BFBB
:101D300000BF00BF00BF00BF00BF00BF00BF00BFAB
:101D400000BF00BF00BF00BF00BF00BF00BF00BF9B
:101D500000BF00BF7D08072E06F1010600BFFFF49B
:101D600071AF6068A1890022FFF74AF9A068E18994
:101D70000122FFF745F900BF00BF00BF00BF00BF51
:101D800000BF00BF00BF00BF00BF00BF00BF00BF5B
:101D900000BF00BF00BF00BF00BF00BF00BF00BF4B
:101DA00000BF00BF00BF00BF00BF00BF00BF00BF3B
:101DB00000BF00BF00BF00BF00BF00BF00BF00BF2B
:101DC00000BF00BF00BF6068A1890122FFF718F9BA
:101DD00000BF00BF00BF00BF00BF00BF00BF00BF0B
:101DE00000BF00BF00BF00BF00BF00BF00BF00BFFB
:101DF00000BF00BF00BF00BF00BF00BF00BF00BFEB
:101E000000BF00BF00BF00BF00BF00BF00BF00BFDA
:101E100000BF00BF00BF00BF00BF00BF00BF00BFCA
:101E2000A068E189FFF7E6F8054620B9A068E189D6
:101E30000022FFF7E5F800BF00BF00BF00BF00BFF2
:101E400000BF00BF00BF00BF00BF00BF00BF00BF9A
:101E500000BF00BF00BF00BF00BF00BF00BF00BF8A
:101E600000BF00BF00BF00BF00BF00BF00BF00BF7A
:101E700000BF00BF00BF00BF00BF00BF00BF00BF6A
:101E800000BF00BF00BF6068A1890022FFF7B8F85B
:101E900000BF00BF00BF00BF00BF00BF00BF00BF4A
:101EA00000BF00BF00BF00BF00BF00BF00BF00BF3A
:101EB00000BF00BF00BF00BF00BF00BF00BF00BF2A
:101EC00000BF00BF00BF00BF00BF00BF00BF00BF1A
:101ED00000BF00BF00BF00BF00BF00BF00BF28465B
:101EE00000BF01B0F0BD0000052B88BF7047F0B502
:101EF00081B004460D468068E1891646062A4FF0F7
:101F000000021F4628BF0626FFF77AF800BF00BF71
:101F100000BF00BF00BF00BF00BF00BF00BF00BFC9
:101F200000BF00BF00BF00BF00BF00BF00BF00BFB9
:101F300000BF00BF00BF00BF00BF00BF00BF00BFA9
:101F400000BF00BF00BF00BF00BF00BF00BF00BF99
:101F500000BF00BF00BF00BF00BF2046402100BF40
:101F6000FFF76AFE2046FFF7DDFDA068E189002249
:101F7000FFF746F800BF00BF00BF00BF00BF00BFB3
:101F800000BF00BF00BF00BF00BF00BF00BF00BF59
:101F900000BF00BF00BF00BF00BF00BF00BF00BF49
:101FA00000BF00BF00BF00BF00BF00BF00BF00BF39
:101FB00000BF00BF00BF00BF00BF00BF00BF00BF29
:101FC00047F0C00000BF00F0C301204600BFFFF78C
:101FD00033FE0EB329782046FFF72EFE012E1BD0CC
:101FE00069782046FFF728FE022E15D0A9782046F2
:101FF000FFF722FE032E0FD0E9782046FFF71CFEE4
:10200000042E09D029792046FFF716FE052E03D0AD
:1020100069792046FFF710FE2046FFF783FDA06890
:10202000E1890022FEF7ECFF00BF00BF00BF00BF48
:1020300000BF00BF00BF00BF00BF00BF00BF00BFA8
:1020400000BF00BF00BF00BF00BF00BF00BF00BF98
:1020500000BF00BF00BF00BF00BF00BF00BF00BF88
:1020600000BF00BF00BF00BF00BF00BF00BF00BF78
:1020700000BF00BF00BF00BF607880F08001204635
:10208000FFF7DAFD204601B0BDE8F040FFF74ABD9A
:10209000F0B581B0044600781D46164601280F466B
:1020A00006D100BF0120FEF789FE20780128F9D073
:1020B000012020702046394632462B46FFF714FF98
:1020C0000020207001B0F0BD5FEA400C08BF91F025
:1020D000000F4FEA8C234FEAC12243EA51514FEAE5
:1020E0001C5018BF00F5F0404FEA300018BF41F017
:1020F00000415FEA6C5C00F02980BCF1FF3F08BF43
:1021000040F080407047130C06BF12044FF0100CD3
:102110004FF0000C130E04BF12020CF1080C130F49
:1021200004BF12010CF1040C930F04BF92000CF1D8
:10213000020CD30F04BF52000CF1010C11464FF0FA
:102140000002A0F11F00A0EB0C00704711F0004F3F
:1021500008BF704731F000413FF4D5AF0B0C06BF0C
:1021600009044FF0100C4FF0000C0B0E04BF0902D5
:102170000CF1080C0B0F04BF09010CF1040C8B0FC0
:1021800004BF89000CF1020CCB0F04BF49000CF115
:10219000010CCCF1200322FA03F341EA030102FA15
:1021A0000CF2A0EB0C0000F10100704723F07F4718
:1021B00020F07F4C80EA030000F00040ACEB070306
:1021C00003F57C5303F1FF032DE9804909B44FEA7D
:1021D000144324EA03484FEA154B25EA0B4E0FF24D
:1021E000042606EB13273E7803FB0667C7F50007B6
:1021F00007FB06F64FEAD64606F102064FEA5437C9
:1022000007FB066CCCF1005C4FEA1C472CEA074C3C
:102210000CFB06F507FB06F404EB15464FEA961691
:1022200049085FEA320234BF00204FF000404FEA15
:10223000D13706FB07FC4FEA1C4C0CFB0BF7D21BFB
:1022400003FB0CF761EB07010CFB0EF7B0EB07404B
:1022500072EB17420CFB08F734BFA2EB0742B2EB5C
:10226000074261EB17414FEA0C444FEA910706FB26
:1022700007FC4FEA1C4C0CFB0BF7B0EBC74072EBB2
:10228000573203FB0CF734BFA2EBC742B2EBC74295
:1022900061EB57310CFB0EF7B0EBC70072EB5772D6
:1022A0000CFB08F734BFA2EBC702B2EBC70261EB2D
:1022B00057714FEA816141EA92114FEA826242EA24
:1022C00090124FEA806004EBCC04039F4FEAD137B1
:1022D00006FB07FC4FEA1C4C0CFB0BF7D21B03FB65
:1022E0000CF761EB07010CFB0EF7B0EB074072EB4C
:1022F00017420CFB08F734BFA2EB0742B2EB0742D0
:1023000061EB17414FEA8C5504EB9C244FEA91078F
:1023100006FB07FC4FEA1C4C0CFB0BF7B0EBC7406D
:1023200072EB573203FB0CF734BFA2EBC742B2EBA0
:10233000C74261EB57310CFB0EF7B0EBC70072EBF5
:1023400057720CFB08F734BFA2EBC702B2EBC7020F
:1023500061EB57714FEA816141EA92114FEA826263
:1023600042EA90124FEA806015EB4C2544F10004DC
:102370004FEAD13706FB07FC4FEA1C4C0CFB0BF76E
:10238000D21B03FB0CF761EB07010CFB0EF7B0EB64
:10239000074072EB17420CFB08F734BFA2EB074271
:1023A000B2EB074261EB17414FEA813141EA9241BA
:1023B0004FEA823242EA90424FEA80304FEA0C768E
:1023C00015EB1C1544F1000448EA03434EEA0B48A0
:1023D0004FF0000EB2EB080C71EB030724BF62460E
:1023E00039464EEB0E0E4FF0000B0018524149419A
:1023F0004BEB0B0BB2EB080C71EB03077BF1000B03
:1024000024BF624639464EEB0E0E4FF0000B00180B
:10241000524149414BEB0B0BB2EB080C71EB03073C
:102420007BF1000B24BF624639464EEB0E0E51EA9B
:10243000020718BF46F0010616EB0E7655F10002B2
:1024400054F1000103D5BDE88901BDE80088BDE86D
:102450008901BDE80048B619524141EB0101A3F1E1
:102460000103704780807F7E7D7C7B7A79787776E8
:1024700076757473727171706F6E6E6D6C6C6B6A61
:102480006A696868676666656464636362616160FF
:10249000605F5F5E5E5D5D5C5C5B5B5A5A5959587C
:1024A00058575756565555555454535352525251E6
:1024B000515050504F4F4F4E4E4D4D4D4C4C4C4B3C
:1024C0004B4B4A4A4A494949484848474747474683
:1024D00046464545454444444443434343424242BF
:1024E000424141419C46002B30D477002BD04FEA2B
:1024F00037071CB503B44FF010004FF01001BAF1CC
:10250000000F06D0BCF1000FDCBF40F0080040F027
:1025100008014FF000000FBCBDE810400BF1010BAB
:10252000BBF1010F08BF5FEA170722BF12F10102DA
:1025300011F101014FF0004143F1000300F00040B0
:1025400043EA00007047F9D35708D0E746EA064649
:102550004FEA164613F1400F1FDD13F1200FDFBFC6
:1025600016430A46002120335B42BED0C3F1200748
:1025700046EA06464FEA164602FA07F746EA070613
:1025800022FA03F2C3F1200701FA07F742EA070231
:1025900021FA03F14FF00003A7E746EA020646EAF4
:1025A00006464FEA164646EA0106BCBF46EA06461C
:1025B000360C4FF000034FF000024FF0000194E79B
:1025C0002DE9804C70B49A46934691E8380007C8CC
:1025D00031EA400C48BF34EA430C03D5FFF7E6FD6F
:1025E000FFF780FFF0BCBDE8008C2DE9804C70B493
:1025F0009A46934691E8380007C810F0804F08BF0C
:1026000013F0804F03D100F005F8FFF76BFFF0BC2B
:10261000BDE8008C20F07F4723F07F4C80EA030068
:1026200000F0004007EB0C03A3F57C53A3F1FE037D
:1026300092F0000F00F0B38095F0000F00F077806B
:102640002DE901494FEA114021EA00484FEA1446BA
:1026500024EA064700FB06FC08FB06F607FB08F821
:1026600018EB06484CEB164C00FB07F718EB074835
:102670004CEB17404FEA124B22EA0B4E4FEA15463D
:1026800025EA06470BFB06FC0EFB06F607FB0EFED3
:102690001EEB064E4CEB164C0BFB07F71EEB074EE2
:1026A0004CEB174B18EB0B0840F1000018EB0E0B2E
:1026B00058EB000840F100008F1A4FF000014FF076
:1026C00000063CBFC943661B14BFB5EB040C0021D8
:1026D0003CBFC943F61B4FEA174427EA04454FEABB
:1026E0001C472CEA074C04FB076205FB07F70CFBB1
:1026F00005F616EB074642EB174204FB0CFC16EB03
:102700000C4642EB1C421BEB060658EB0202414111
:102710004EEA8E0E46EA9E0601D5BDE80189B6193D
:10272000524141EB0101A3F10103BDE801894FEAE8
:10273000144524EA05464FEA114721EA074C05FBF8
:1027400007F406FB07F70CFB06F111EB074144EB1E
:10275000174405FB0CFC11EB0C4144EB1C444FEA05
:10276000124722EA074C05FB07F206FB07F70CFBB2
:1027700006F616EB074642EB174205FB0CFC16EB80
:102780000C4642EB1C456A1854F1000148BF7047E3
:10279000B619524141EB0101A3F10103704795F0D5
:1027A000000F37D04FEA114221EA02464FEA1447A0
:1027B00024EA074C02FB07F106FB07F70CFB06F4C3
:1027C00014EB074441EB174102FB0CFC14EB0C44E7
:1027D00041EB1C414FEA154725EA074C02FB07F580
:1027E00006FB07F70CFB06F616EB074645EB17450D
:1027F00002FB0CFC16EB0C4645EB1C42121951F186
:10280000000148BF7047B619524141EB0101A3F1E5
:10281000010370474FEA144524EA05464FEA114781
:1028200021EA074C05FB07F106FB07F70CFB06F254
:1028300012EB074241EB174105FB0CFC12EB0C427B
:1028400051EB1C414FF0000648BF7047921841EB16
:102850000101A3F101037047490050EAC12018BFEC
:1028600004204A0D18BF40F0010040F2FF72B2EBA5
:10287000515F08BF40F00200012808BF05207047E3
:1028800010B500290AD00878002807D005487844F8
:10289000FEF742FA002801D0002010BD024878441B
:1028A00010BD00002E01000026010000FDF752BE01
:1028B000FDF786BF3031323334353637383961620F
:1028C00063646566787000303132333435363738BA
:1028D0003941424344454658500000000240000040
:1028E000000000A00000000005400000000000C83B
:1028F000000000000C4000000000409C00000000B0
:10290000194000000020BCBE000000003440000060
:10291000BFC91B8E00000004B5400000504BCFD053
:102920006607E2CF010000006C4100003E8251AA20
:10293000DFEEA73401000000D9420000DCB5A0E2C0
:102940003A301F97FFFFFFFFB4450000FD25A0C8E8
:10295000E9A3C14FFFFFFFFFFF3F00000000008021
:1029600000000000FF3F00000000008000000000A9
:10297000000000000000000001020304060708092F
:10298000000000000102030401020203040506071F
:1029900008090A0B0C0D0E0F10100000D8290008B2
:1029A000000000201000000050010008E829000885
:1029B00010000020C8060000700100081C00000084
:1029C00043000000F8FFFFFF0C0000000E000000B5
:1029D0000F0000002E0000000100000010000000A9
:0829E00000127A000000000063
:04000005080000ED02
:00000001FF
