:020000040800F2
:10000000E8080020D1010008C92400085124000894
:10001000C52400082D0A0008092600080000000079
:10002000000000000000000000000000D1240008D3
:10003000310A000800000000CD240008D524000883
:10004000EB010008EB010008EB010008EB010008E0
:10005000EB010008EB010008EB010008EB010008D0
:10006000EB010008EB010008EB010008EB010008C0
:10007000EB010008EB010008EB010008EB010008B0
:10008000EB010008EB010008EB010008EB010008A0
:10009000EB010008EB010008EB010008EB01000890
:1000A000EB010008EB010008EB010008EB01000880
:1000B000EB010008EB010008EB010008EB01000870
:1000C000EB010008EB010008EB010008EB01000860
:1000D000EB010008FD250008EB010008EB0100081A
:1000E000EB010008EB010008EB01000800F002F84A
:1000F00000F05EF814A696E8000CB244B344DA456A
:1001000001D100F055F8BAE80F000FA696E83000CC
:10011000A5EB040504EB0607AAEB0704A7F101070A
:100120004FEA15154FEA3414A4F10104AC4201D38F
:1001300000F03EF813F0010F18BFFB1A43F0010363
:1001400000F001F8DBE71847702D0000902D00004B
:10015000103A24BF78C878C1FAD8520724BF30C8F3
:1001600030C144BF04680C60704700007047000055
:100170000023002400250026103A28BF78C1FBD8B0
:10018000520728BF30C148BF0B607047732900F089
:100190000782002070471FB500F03CFC04000020DF
:1001A000002102F021FE401C60601FBD10B510BD93
:1001B00000F0F4FB1146FFF7EEFF02F08BFC00F0BD
:1001C0001BFC03B4FFF7F2FF03BC00F027FC0000A8
:1001D0000948804709480047FEE7FEE7FEE7FEE7DB
:1001E000FEE7FEE7FEE7FEE7FEE7FEE70448054917
:1001F000054A064B70470000D9240008ED000008AE
:10020000E8020020E8080020E8040020E8040020BC
:100210000FB41CB50C0007AA009007D04142A142C0
:1002200002D32044401E01E04FF0FF30074B7B44D7
:1002300069460190069800F086F90020002C01D054
:10024000009908701CBC5DF814FB00003B03000023
:100250002DE9F0410E460446002020622046E16868
:10026000884730B3252805D0D4E901219047206A7A
:10027000401CF2E7E168204600278847050018D0B7
:10028000A5F14100192802D820354FF40067324605
:10029000294620462760FFF779FF40B1012804D0A6
:1002A000F61D26F007060836D8E7361DD6E728469D
:1002B000DAE7206ABDE8F08170B50C460546012AF0
:1002C00005D02878800600D5EA69002302E00123E2
:1002D00005E05B1C934202D2E05C0028F9D1A869DA
:1002E000E618C01AA861286A184428622846AFF3A5
:1002F000008004E0D5E9012114F8010B9047B442D5
:10030000F8D32846AFF3008070BD00000FB400B5ED
:100310008DB010A9099000910B904FF0FF300A901A
:1003200000200C90064878440690064878446A46B7
:1003300007900F9909A800F03DF90DB05DF814FB86
:10034000AB020000C30200002DE9FF5F4FF0000880
:100350009946144646469169D2E901A7DDF838B0BE
:1003600001988847054659EA0B0005D009E0A169C4
:100370000198761C88470546216A28468847002848
:10038000F5D1681C03D05FEACA7005D015E04FF0C4
:10039000FF3004B0BDE8F09F2068011D2160D0F857
:1003A00000800AE05FEACA7001D108F8015BA16928
:1003B000761C01987F1E88470546002F1ADD681CB1
:1003C00018D0B9F1000F0DD0E81705EBD06042113D
:1003D00020F01F0059F822102A1A012090400142F3
:1003E000E0D107E0BBF1000FDCD12846216A884745
:1003F0000028D7D0E16901988847BBF1000F07D1E9
:10040000002E05DD5FEACA7002D1002188F80010D5
:10041000A068B84203DDBBF1000F03D017B16FF045
:100420000100B6E73046B4E710B5431C02E010F80F
:10043000011B71B18107FAD14FF0013202C88C1A49
:100440008C4314EAC211F9D0C01A0A0603D0C01EA8
:1004500010BDC01A10BD0A0401D0801E10BD0902D3
:10046000FCD0401E10BD4FF0000200B5134694466C
:100470009646203922BFA0E80C50A0E80C50B1F1FC
:100480002001BFF4F7AF090728BFA0E80C5048BF10
:100490000CC05DF804EB890028BF40F8042B08BFAE
:1004A000704748BF20F8022B11F0804F18BF00F8AA
:1004B000012B70474FF0013C50F8042B51F8043BDE
:1004C0009A4221D1A2EB0C03934313EACC1317D128
:1004D00050F8042B51F8043B9A4215D1A2EB0C03BF
:1004E000934313EACC130BD150F8042B51F8043B7F
:1004F0009A4209D1A2EB0C03934313EACC13DBD04D
:100500004FF00000704700BFD01A01BAB1FA81F174
:1005100001F0180122FA01F0CB40DBB2C0B2C01AE0
:10052000C1F120012CFA01F3D11A914311EAC31150
:10053000E6D17047704770477047000001694A1C58
:1005400002610878704700B58FB0CDE90131002114
:10055000059105497944CDE9031011466846FFF736
:1005600077FE0FB000BD0000E5FFFFFFD1E90023DB
:100570009A4202D2531C0B601070704710B5436949
:1005800013B1AFF3008001E0FFF796FE012010BD2C
:10059000127800F124010A7000224A700122EDE76E
:1005A00011684FF0FF32E9E70268114413780160E7
:1005B00018467047D160054979445161044979442E
:1005C000116200211161114600F02EB8EDFFFFFF0E
:1005D00053000000426842B1016811F8013B23B1A9
:1005E000521EC0E90012184670470121C160881EE2
:1005F000704742685AB1C368016843B983688B4247
:1006000005D0491E521CC0E90012002070474FF06F
:10061000FF30704710B5044600F0E6F90068005D51
:1006200000F0010010BD00002DE9F34F4FF0000A6B
:100630000C4656468DB001200C9001F10C000B9039
:1006400062690B9801219047051E2DD0252D2CD0D5
:10065000216A8847C0B162690B9801219047216ADD
:1006600088470028F7D16269411E0B98904700E047
:10067000761CA1690D988847216A88470028F7D120
:10068000E1690D988847DBE7A1690D988847A84282
:10069000074601D1761CD3E7E1690D9888477F1C96
:1006A00002D1BAF1000F6FD06BE162690B9800279D
:1006B0003D46394690472A2804D162690B980121AA
:1006C00090470125DFF8D08262690B98012190479D
:1006D000A0F130010A290AD24745E5DC07EB870182
:1006E00000EB4107303FDFD445F01005ECE7E906A9
:1006F00001D46FF000476C280AD04C2814D0682829
:1007000015D06A280DD074281CD07A281AD01DE084
:1007100062690B98012190476C2802D045F00405CE
:1007200014E045F002050DE045F020050AE062699D
:100730000B9801219047682802D045F0080505E094
:1007400045F4006562690B9801219047C4E901579F
:1007500065283DD019DC58287AD00CDC452837D0E4
:1007600004DC252826D041289ED131E046282FD010
:10077000472899D12CE05B2877D0612828D06328BE
:100780007CD0642823D15AE0F6E06F2848D008DCFA
:1007900066281DD067281BD0692821D06E2816D165
:1007A00027E0702845D0732868D0752847D078286E
:1007B0000DD14DE0A1690D988847252805463FF4E5
:1007C00069AFE1690D9888476D1C3FF46AAFD8E0C6
:1007D0000D9923466A466FF00100AFF30080C5E033
:1007E00045F0400023464FF000026060A80736D471
:1007F0003EE0E8077FF447AF2068011D21600068F4
:10080000290501D506701BE7290701D5068017E7E2
:10081000A90703D5F117C0E9006111E706600FE7EA
:1008200045F0400023464FF008026060A80716D448
:100830001EE040F60E0125EA0100606016E045F07A
:10084000400023464FF00A026060A80707D40FE07B
:1008500045F040006060A80708D5234610220D9996
:100860006FF00100AFF3008080E007E01022234624
:100870000D996FF00100AFF3008077E04FF00009B1
:1008800063284F46C8464B46CB4602D05B2806D06D
:1008900038E0E80601D40120A060012732E0626957
:1008A000D4F80CB00B98012190475E2807D14FF087
:1008B000010949466269D4F80CB00B989047216948
:1008C00039B900210A4603AB43F82120491C082905
:1008D000FADBD8B3216949B308F1010862690B98C2
:1008E000012190475D28F4D1B9F1000F09D0002013
:1008F00003A951F82020D24341F82020401C0828A9
:10090000F7DB03AB2069002820794FEA40701ED046
:100910005B462246CDF80080CDE901970D9900286D
:100920006FF0010020DAAFF300801FE0C11703AAC7
:1009300000EBD1614B1121F01F0102EB8302411A40
:1009400013680120884003431360C7E719E00D993D
:10095000224600286FF00100009702DAAFF3008012
:1009600004E0FFF7F1FC01E0AFF3008000280ADAB1
:10097000401C06D10C9820B14FF0FF300FB0BDE8FD
:10098000F08F5046FAE7E90701D10AF1010A06445F
:1009900000200C9054E60000CCCCCC0C754600F046
:1009A00035F8AE4605006946534620F007008546F7
:1009B00018B020B5FFF71AFCBDE820404FF0000644
:1009C0004FF000074FF000084FF0000BAC46ACE8CA
:1009D000C009ACE8C009ACE8C009ACE8C00921F026
:1009E00007018D467047000010B500F013F8001D98
:1009F00010BD00BFF523000010B50446AFF3008022
:100A00002046BDE81040FFF7DCBB000000487047FF
:100A100010000020004870473000002001491820D5
:100A2000ABBEFEE72600020070470000FEE70000B4
:100A300070470000EFF3108072B600BFFEE70000C1
:100A4000014690F82100022816D10868D1E90FC3A9
:100A5000026822F00E020260026822F001020260C7
:100A6000012000FA03F2CCF8042081F821000020D4
:100A7000002281F820207047042088630120002292
:100A800081F820207047000090F82110022923D11E
:100A90000268116821F00E0111602F211368C4F261
:100AA00002018A4240F20401C4F2020123F0010370
:100AB000136015DD3023C4F202039A421CD0442394
:100AC000C4F202039A421BD05823C4F202039A4292
:100AD0001CD14FF4803321E0042181630120704751
:100AE0000823C4F202039A420ED01C23C4F202036C
:100AF0009A420BD1102311E04FF480730EE000BF37
:100B00004FF480530AE000BF012307E001F1680CB5
:100B10004FF08073624508BF4FF480130B600121D2
:100B200080F82110426B002180F8201022B180B59E
:100B300090470021BDE88040084670472DE9F04FFE
:100B400082B00E68002E00F0FD8041F20042C4F237
:100B50000102042340F2004E904208BF03234FF6E7
:100B6000FF7CC4F2010E009300240123C1F2100C9B
:100B70004FF0000A4FF0000944E000BF012704F0E5
:100B80000C030F229A402BEA020207FA03F34FEA02
:100B90009A051A4346F825204E6840F20C45F202A9
:100BA000DEF8082054BF22EA080242EA0802C4F232
:100BB0000105CEF808202A68B30254BF22EA0802D1
:100BC00042EA08022A60B303DEF8042054BF22EA96
:100BD000080242EA0802F303CEF80420DEF80020FF
:100BE0004FF0010354BF22EA080242EA0802CEF89D
:100BF00000200E680AF1010A36FA0AF204F1040430
:100C000000F0A08003FA0AFB16EA0B08F1D04E6848
:100C1000664511DC122E55D8DFE806F0340A444848
:100C2000545454545454545454545454544C5000E4
:100C3000D1F80C9046E000BF4FF6FF72C1F22102DE
:100C400096420FDC0022C1F2110296421AD0002215
:100C5000C1F21202964215D00022C1F22102964240
:100C600010D02FE00022C1F2220296420AD00022C8
:100C7000C1F23102964205D00022C1F23202964200
:100C800020D100BF8A684AB1012A14BFC0F814B04D
:100C9000C0F810B04FF0080914E000BF4FF004098D
:100CA00010E000BFCA6802F108090BE04FF000092C
:100CB00008E000BFCA6802F1040903E0CA6802F153
:100CC0000C0900BF22460646B8F5807F24BF203AB3
:100CD000043637680F25954027EA050509FA02F220
:100CE0002A433260CA79D2067FF583AF41F21803F6
:100CF000C4F202031A68AEF57E7642F001021A6071
:100D00001A6802F001020192019A2AF0030256F8D1
:100D100002B040F60002C4F20102904210D040F648
:100D20000042C4F2010290423FF428AF41F20002B7
:100D3000C4F20102009F904208BF02271FE700BFD4
:100D400000271CE702B0BDE8F08F000040F2E4206D
:100D5000C2F200000068704740F2000040F2E42157
:100D6000C2F20000C2F2000100780A681044086074
:100D70007047000080B542F20000C4F20200016832
:100D800041F010010160032000F08CF80F2000F00A
:100D900005F800F027F8002080BD000070B540F293
:100DA0000006C2F2000640F208013278C2F20001E9
:100DB0004FF47A730968B3FBF2F20446B1FBF2F127
:100DC000084600F089FB0F2C4FF0010508D838B910
:100DD0004FF0FF3021460022002500F037F8746004
:100DE000284670BD82B041F21800C4F202000168CA
:100DF000022241F001010160016801F0010101914D
:100E00000199416841F080514160406800F0805094
:100E1000009000980420C4F20100016862F31A6196
:100E2000016002B070470000002848BF704700F022
:100E30001F01012202FA01F11C2202EAD0004EF247
:100E40000012CEF2000281507047000010B54EF63D
:100E50000C5CCEF2000CDCF80030C3F3022E8EF0F6
:100E60000704042C28BF0424BEF103034FF0FF3E07
:100E70000EFA04F438BF0023A14399400EFA03F39D
:100E80009A43114300F00F0200F160430901043A54
:100E900003F564436244002848BF02F10C03197053
:100EA00010BD00004EF60C51CEF200010A684FF65C
:100EB000FF031A4060F30A2242F0806040F0FD70A8
:100EC00008607047002804BF012070472DE9F043F7
:100ED00081B042F20008C4F202080446D8F80000CB
:100EE0000D4600F0070088420CD2D8F8000020F030
:100EF00007002843C8F80000D8F8000000F00700F9
:100F0000A8426CD1206841F204098107C4F20209A9
:100F100017D5410705D5D9F8001041F4E061C9F8AB
:100F20000010010705D5D9F8001041F46051C9F847
:100F30000010D9F80010A26821F0F0011143C9F89F
:100F40000010C00742D1D8F8000000F00700A84206
:100F50000CD9D8F8000020F007002843C8F800009A
:100F6000D8F8000000F00700A84238D120684107F7
:100F700007D5D9F80010E26821F4E0611143C9F8FF
:100F80000010000708D5D9F80000216920F460504E
:100F900040EAC100C9F80000D9F8002002F00C00B6
:100FA000082841F20020C0F27A0051D142F62F63A6
:100FB000C2F38341C0F60003595CD2033CD440F62F
:100FC0000010C0F23D00484342E000BF60680228C4
:100FD0000AD001282AD159F8041C890308D4012019
:100FE00001B0BDE8F08300BF59F8041C8901F6D5B3
:100FF000D9F8001021F003010843C9F80000FFF7F9
:10100000A5FE064641F28837D9F80000616800F075
:101010000C00B0EB810F96D0FFF798FE801BB84212
:10102000F2D9032001B0BDE8F08300BF59F8041CD9
:101030008907D4D5DCE700BFD9F8002042F62D633C
:10104000C2F34042C0F600039A5C4843B0FBF2F0A2
:10105000D9F8001042F61462C1F30311C0F6000281
:10106000515C40F2080220FA01F140F20400C2F2A1
:1010700000000068C2F200021160FFF78FFE00203E
:1010800001B0BDE8F083000040F2080041F2040125
:10109000C2F20000C4F202010068096842F624624C
:1010A000C1F30221C0F60002515CC8407047000045
:1010B00040F2080041F20401C2F20000C4F2020151
:1010C0000068096842F62462C1F3C221C0F600023A
:1010D000515CC84070470000002804BF01207047E1
:1010E0002DE9F04182B00446007841F20006C007C5
:1010F000C4F202060CD0706800F00C00042840F026
:1011000081803068800303D56068002800F04E813C
:10111000207880071BD5706810F00C0F09D070681C
:1011200000F00C00082840F08B807068C00300F1CC
:1011300087803068800703D52069012840F0368118
:101140003068616920F0F80040EAC1003060207822
:10115000000713D4207840072CD4E569002D00F057
:101160002081706800F00C00082840F0AF80012D4D
:1011700040F00C81012002B0BDE8F081A069002898
:1011800000F08C800020C4F242200121C0F88014BD
:10119000FFF7DCFD054600BF706A800700F1BA80EA
:1011A000FFF7D4FD401B0228F6D9032002B0BDE8AA
:1011B000F08100BFF0695FEAC00808D4F06940F030
:1011C0008050F061F06900F080500090009847F284
:1011D0000007C4F200073868C0054DD4386840F4F1
:1011E00080703860FFF7B2FD054600BF3868C00563
:1011F00042D4FFF7ABFD401B6428F7D9032002B0AF
:10120000BDE8F081706800F00C00082803D1706818
:10121000C0033FF576AF6068002800F00981B0F5A3
:10122000A02F00F01D81B0F5803F00F01D813068D7
:1012300020F480303060306820F4802017E100BF57
:101240002069002840F20000C4F2422000F08C80A7
:1012500001210160FFF77AFD054600BF3068800775
:101260003FF56EAFFFF772FD401B0228F6D9032051
:1012700002B0BDE8F08100BFE068002800F09A806D
:10128000052800F0B180012800F0B280306A20F01B
:1012900001003062306A20F00400ACE00020C4F2AB
:1012A00042200021C0F88014FFF750FD054600BF22
:1012B000706A80077FF54EAFFFF748FD401B02289C
:1012C000F6D9032002B0BDE8F08100BF0027C4F2C8
:1012D000422700203866FFF739FD022D05460DD163
:1012E0003068800140F1D680FFF730FD401B0228B6
:1012F0004FF00300F4D902B0BDE8F08130688001FE
:101300004FD5FFF723FD401B02284FF00300F5D90E
:10131000F1E700BF40F20800C2F20000006844F6A6
:10132000D351C1F26201A0FB0101480A019000BF44
:1013300000BF0198411E002801913FF40BAF00BF90
:101340000198411E002801913FF404AF00BF0198AD
:10135000411E002801913FF4FDAE00BF0198411EDF
:1013600000280191E4D1F5E600210160FFF7EEFCD1
:10137000054600BF306880077FF5E9AEFFF7E6FC61
:10138000401B02284FF00300F4D9B4E77068216ACB
:1013900000F480328A4209D1616A00F470108842F8
:1013A00004D1002002B0BDE8F08100BF012002B0EE
:1013B000BDE8F081306A20F001003062306A20F030
:1013C00004003062FFF7C2FC054641F2883700BFD7
:1013D000306A800722D5FFF7B9FC401BB8424FF0B6
:1013E0000300F5D987E700BF306A40F0040030629F
:1013F000306A40F001003062FFF7A8FC054641F278
:10140000883700BF306A800708D4FFF79FFC401B75
:10141000B842F7D9032002B0BDE8F081B8F1000F5F
:101420003FF59BAEF06920F08050F06195E600BF7B
:10143000306820F480303060306820F480203060E4
:10144000FFF784FC054600BF306880037FF560AE7F
:10145000FFF77CFC401B64284FF00300F4D94AE7F7
:10146000306840F480203060306840F48030306074
:10147000FFF76CFC054600BF306880033FF548AEBF
:10148000FFF764FC401B6428F6D9032002B0BDE8D6
:10149000F08100BF206AB0F5803F05D17168A26875
:1014A00021F40031114371607168626A21F4741192
:1014B00011430843706001203866FFF747FC04467B
:1014C000306880013FF56DAFFFF740FC001B02283C
:1014D0004FF00300F4D90EE7411E0020B0EB116F6E
:1014E0001CBF012070474EF21002CEF20002516084
:1014F0004EF62351CEF20001F0230B7007219060CD
:1015000011607047704700007047000010B5044636
:10151000206850E8030F216820F4907041E803022E
:10152000BAB3206850E8030F216820F4907041E8B6
:10153000030272B3206850E8030F216820F4907012
:1015400041E803022AB3206850E8030F216820F421
:10155000907041E80302002ADAD11AE0206850E8CE
:10156000050F216820F0010041E80502DAB120688A
:1015700050E8050F216820F0010041E8050292B112
:10158000206850E8050F216820F0010041E80502BD
:101590004AB1206850E8050F216820F0010041E8B9
:1015A0000502002ADAD1206B012824D1206850E8F6
:1015B000030F216820F0100041E80302DAB120682F
:1015C00050E8030F216820F0100041E8030292B1B7
:1015D000206850E8030F216820F0100041E8030262
:1015E0004AB1206850E8030F216820F0100041E85C
:1015F0000302002ADAD120684069400634D500BFD2
:10160000206850E8050F216820F0400041E80502FD
:10161000DAB1206850E8050F216820F0400041E869
:10162000050292B1206850E8050F216820F04000C3
:1016300041E805024AB1206850E8050F216820F012
:10164000400041E80502002ADAD1E06B60B142F2C5
:10165000E941C0F600014163FFF716FA68B1E06B9B
:10166000416B8847002010BD00202021E08584F8D0
:10167000421020632046FFF747FF002010BD000006
:1016800070470000B0B582B0044600680168C368C6
:10169000426901F02F05202D03F0200506D12DB160
:1016A000204602B0BDE8B04000F028BF5FEA017CF0
:1016B0001EBF02F0010E03F4907212EB0E0243D132
:1016C000226BCD0618D5012A16D113F0100213D0C3
:1016D00000210191016801914168019101994069DE
:1016E00040063BD4A08DE18DE28D002A18BF8842D0
:1016F00040F0F28102B0B0BD0A0640F1E78013F07D
:10170000800200F0E38094F841102129F2D1A16811
:10171000B1F5805F03D12169002900F06382216A5D
:101720004A1C226209784160E18C01390A04E18493
:10173000E0D1C16821F08001C160C16841F0400181
:10174000C16002B0B0BD00BFCA0718BF13F48072F9
:1017500040F0D0804A0700F1D380D8E0E06B016808
:1017600049688AB2002AC5D0A38D9A42C2D2E185C7
:101770008069202800F09E80206850E8030F2168CF
:1017800020F4807041E80302DAB1206850E8030FCA
:10179000216820F4807041E8030292B1206850E88B
:1017A000030F216820F4807041E803024AB12068E9
:1017B00050E8030F216820F4807041E80302002AFA
:1017C000DAD1206850E8050F216820F0010041E8D7
:1017D0000502C2B3206850E8050F216820F001001F
:1017E00041E805027AB3206850E8050F216820F02F
:1017F000010041E8050232B3206850E8050F216876
:1018000020F0010041E80502002ADAD11BE000BF08
:10181000206850E8050F216820F0400041E80502EB
:10182000DAB1206850E8050F216820F0400041E857
:10183000050292B1206850E8050F216820F04000B1
:1018400041E805024AB1206850E8050F216820F000
:10185000400041E80502002ADAD1202084F8420045
:1018600000202063206850E8030F216820F010005A
:1018700041E80302DAB1206850E8030F216820F044
:10188000100041E8030292B1206850E8030F21687C
:1018900020F0100041E803024AB1206850E8030F2D
:1018A000216820F0100041E80302002ADAD1E06B41
:1018B000FFF7C6F802206063A08DE18D401A81B267
:1018C000204602B0BDE8B040FFF71CBE49067FF5D8
:1018D00011AF13F040013FF40DAFC16821F040019A
:1018E000C1602021204684F8411002B0BDE8B0401C
:1018F00000F0ACBD626C42F0010262644A0706D59A
:10190000BEF1000F03D0626C42F0020262648A07EB
:1019100006D5BEF1000F03D0626C42F0040262648F
:10192000BCF1000F06D55EEA050203D0626C42F0FE
:1019300008026264626C002A3FF4DCAE890604D5BA
:101940001DB1204600F0DAFD20684069616C00F0AE
:10195000400001F00801401800F0B680206850E80F
:10196000030F216820F4907041E80302BAB32068A5
:1019700050E8030F216820F4907041E8030272B32D
:10198000206850E8030F216820F4907041E80302BA
:101990002AB3206850E8030F216820F4907041E8D2
:1019A0000302002ADAD11AE0206850E8050F216806
:1019B00020F0010041E80502DAB1206850E8050F87
:1019C000216820F0010041E8050292B1206850E84A
:1019D000050F216820F0010041E805024AB12068A6
:1019E00050E8050F216820F0010041E80502002AB7
:1019F000DAD1206B012824D1206850E8030F216838
:101A000020F0100041E80302DAB1206850E8030F2B
:101A1000216820F0100041E8030292B1206850E8EC
:101A2000030F216820F0100041E803024AB120684A
:101A300050E8030F216820F0100041E80302002A5B
:101A4000DAD1202084F84200002020632068406919
:101A5000400640F1C180206850E8050F216820F061
:101A6000400041E80502DAB1206850E8050F21681E
:101A700020F0400041E8050292B1206850E8050FCF
:101A8000216820F0400041E805024AB1206850E892
:101A9000050F216820F0400041E80502002ADAD154
:101AA000E06B002800F0988042F2DD41C0F60001B2
:101AB0004163FEF7E9FF00283FF41CAEE06B416B89
:101AC00002B0BDE8B04008472046FFF7D9FD00202E
:101AD000606402B0B0BD00BF401A00BF216851E889
:101AE000031F226821F4907142E80313BBB32168FD
:101AF00051E8031F226821F4907142E8031373B385
:101B0000216851E8031F226821F4907142E8031311
:101B10002BB3216851E8031F226821F4907142E839
:101B20000313002BDAD11AE0216851E8051F22685F
:101B300021F0010142E80513DBB1216851E8051FDE
:101B4000226821F0010142E8051393B1216851E8B0
:101B5000051F226821F0010142E805134BB12168FD
:101B600051E8051F226821F0010142E80513002B0E
:101B7000DAD1202184F8421000212163216851E844
:101B8000031F226821F0100142E80313DBB1216832
:101B900051E8031F226821F0100142E8031393B1BA
:101BA000216851E8031F226821F0100142E8031365
:101BB0004BB1216851E8031F226821F0100142E86F
:101BC0000313002BDAD1022281B22046626302B0F5
:101BD000BDE8B040FFF796BC204602B0BDE8B0407B
:101BE000FFF74EBD216A31F8022B6FF35F2242608E
:101BF000216299E5002804BF0120704710B5044612
:101C000090F8410028B9002084F84000204600F0F8
:101C100063F8242084F841002068D4E90212C368E4
:101C200023F40053C360036923F440531A43026151
:101C3000D4E904231143C268194341F20C639A4367
:101C40001143C1604169A26921F44071114343F617
:101C50000002C4F201029042416103D0FFF714FA7E
:101C600002E000BFFFF724FAD4E90023192148431A
:101C70009900B0FBF1F048F21F5CC5F2EB1CA0FB31
:101C80000C314FF69C734909C0F6FF7301FB03004A
:101C9000322303EB0010A0FB0C03F02000EA5310EA
:101CA00000EB0110C3F34311084490601069202138
:101CB00020F490401061506920F02A005061D068F3
:101CC00040F40050D0600020606484F8411084F833
:101CD0004210606310BD000070B586B040F600048D
:101CE000C4F20104006804F54051002688420496BD
:101CF00002D006B070BD00BF41F21800C4F202006D
:101D0000016802AD41F480410160016801F4804145
:101D100001910199016841F00401016000682946C0
:101D200000F00400019001984FF40070029002202E
:101D30000390032005902046FEF700FF4FF48060DB
:101D4000CDE90206204629460496FEF7F7FE252037
:101D500000210022FFF77AF82520FFF765F806B08A
:101D600070BD00002DE9F04381B0044690F84200B8
:101D7000202825D1884600294FF0010000F0FA8084
:101D80001746002A00F0F680002022211D466064DC
:101D900084F842102063FEF7D9FFA785E785A16884
:101DA0000746B1F5805F02D12069002854D046462D
:101DB0004FF00008E08D002852D005F101090FE036
:101DC000022001B0BDE8F083406800266FF35F2079
:101DD00028F8020BE08D0138E085E08D00283FD027
:101DE00020680168890617D4B9F1000F22D0002DB0
:101DF00000F0C480FEF7AAFFC01BA84200F2B68024
:101E00002068C168490744BF01685FEA017129D4AD
:101E100001688906EED500BF002ED5D0A168B1F5C6
:101E2000805F15D009B9216991B1406800F07F0049
:101E30000FE000BF01688906EED4016889065CBF27
:101E400001685FEA8161E7D401688906F2D5E3E7BA
:101E5000406806F8010BBDE70026E08D0028ACD1F4
:101E6000002084E00021009101680091406800900A
:101E7000009800BF206850E8030F216820F490709C
:101E800041E80302BAB3206850E8030F216820F448
:101E9000907041E8030272B3206850E8030F216894
:101EA00020F4907041E803022AB3206850E8030F41
:101EB000216820F4907041E80302002ADAD11AE088
:101EC000206850E8050F216820F0010041E8050274
:101ED000DAB1206850E8050F216820F0010041E8E0
:101EE000050292B1206850E8050F216820F001003A
:101EF00041E805024AB1206850E8050F216820F04A
:101F0000010041E80502002ADAD1206B012824D122
:101F1000206850E8030F216820F0100041E8030218
:101F2000DAB1206850E8030F216820F0100041E882
:101F3000030292B1206850E8030F216820F01000DE
:101F400041E803024AB1206850E8030F216820F0FD
:101F5000100041E80302002ADAD1202084F8420070
:101F6000002008212063616484F8400003202021C0
:101F700084F8421001B0BDE8F08300BFFEF7E6FE32
:101F8000F4E7000090F84230202B07D100294FF0F1
:101F9000010318BF002A05D11846704702231846CE
:101FA000704700BF00230363816222218285C285BE
:101FB000436480F842100169006819B1C16841F4B6
:101FC0008071C160416941F001014161C16841F026
:101FD0002001C160184670472DE9F04F97B040F2DC
:101FE0007007C2F200077968814240F06881009072
:101FF000B8787978421CD3B23844BA70112B017288
:1020000024BF0020B870002013900B2016900A20E7
:1020100010250F230E210D220C24159009200826CF
:102020004FF0070C4FF0060E4FF0050B4FF0040871
:102030004FF003094FF0020A30E000BF1698129DDE
:102040000130119B10990F9A149C16901598013528
:10205000013015900E980D9EDDF830C0DDF82CE0B3
:10206000DDF828B0DDF82480DDF82090DDF81CA034
:102070000133013101320134013001360CF1010C20
:102080000EF1010E0BF1010B08F1010809F1010934
:102090000AF1010A112F139700F009814FF2F1079D
:1020A000CFF2F0071494129514460A461946A5FB80
:1020B00007530193A1FB075311910293A2FB07530E
:1020C000A4FB0751109203930F9404911499A0FB61
:1020D0000754A1FB075105911699A6FB0753A1FBD5
:1020E0000751069115990E90A1FB07520D96CDF858
:1020F00030C0ACFB075CCDF82CE0AEFB075ECDF842
:1021000028B0ABFB075BCDF82480A8FB0756CDF8C1
:102110002090A9FB0751CDF81CA0AAFB075A40F25A
:1021200070051398C2F2000505EB000898F80850F6
:10213000471C0D2D82D140F27005C2F20005102817
:1021400018BF3D442D7A0A2D7FF478AF2AF00F0591
:1021500005EB1A15C5F10A0518F805502B2D7FF46B
:102160006DAF21F00F0505EB1115C5F10B0518F842
:102170000550432D7FF462AF26F00F0505EB1615D1
:10218000C5F10C0518F805504D2D7FF457AF2BF015
:102190000F0505EB1B15C5F10D0518F80550542D5D
:1021A0007FF44CAF2EF00F0505EB1E15C5F10E05A3
:1021B00018F80550492D7FF441AF2CF00F0505EBC1
:1021C0001C15C5F10F0518F805503A2D7FF436AFF0
:1021D00023F00F0505EB1315C5F1100518F8055090
:1021E000202D7FF42BAF24F00F0505EB1415C5F15E
:1021F000110518F80550222D7FF420AF22F00F05AD
:1022000005EB1215C5F1120518F80550532D7FF492
:1022100015AF069B23F00F0505EB1315C5F113054C
:1022200018F805504D2D7FF409AF059B23F00F05DD
:1022300005EB1315C5F1140518F80550222D7FF490
:10224000FDAE049B23F00F0505EB1315C5F1150535
:1022500018F805502C2D7FF4F1AE039B23F00F05E9
:1022600005EB1315C5F1160518F80550312D7FF44F
:10227000E5AE029820F00F0505EB1015C5F1170526
:1022800018F805500D2D7FF4D9AE019820F00F05F8
:1022900005EB1015C5F1180518F805500A2D7FF447
:1022A000CDAE40F270010120C2F20001087040F290
:1022B0007001C2F2000108780028009802D017B01F
:1022C000BDE8F08F0131012217B0BDE8F04FFFF7F4
:1022D00059BE00002DE9F041044690F84100202845
:1022E0001CBF0220BDE8F0810D4600294FF001001F
:1022F00000F0AA801646002A08BFBDE8F081002041
:1023000060642120984684F84100FEF71FFDA684F2
:10231000E684A1680646B1F5805F02D120690028F5
:1023200062D02F460025E08C002861D018F1010012
:1023300018D0B8F1000F37D1216808E017F8010B69
:102340004860E08C0138E084E08C002851D00868B7
:10235000000673D5002FF1D135F8020B00276FF37B
:102360005F20EDE7216802E00868000609D40868EC
:10237000000606D4086800065CBF08685FEA0060D3
:10238000F2D51FB117F8010B05E000BF35F8020BBD
:1023900000276FF35F204860E08C0138E084E08C18
:1023A0000028E4D125E000BF216800BF08680006CE
:1023B00008D4FEF7CBFC801B404541D82168C86893
:1023C000F4E700BF17B117F8010B04E035F8020B72
:1023D00000276FF35F204860E08C0138E084E08CD8
:1023E0000028E3D105E000BF0027E08C00289DD144
:1023F0002168086840061FD4B8F1000F1ED018F1FC
:1024000001000FD10868400616D40868400613D4AE
:102410000868400610D4086840064FF00000F1D567
:102420000FE000BFFEF792FC801B404508D82068F3
:10243000C16800684006F5D5002002E0FEF786FC82
:102440000320202184F84110BDE8F081704700008E
:10245000FEE7000082B041F21800C4F202000168F9
:1024600041F020010160016801F020010191019912
:10247000016841F004010160006800F00400009070
:10248000009802B07047000080B540F2B80043F6F3
:102490000001C2F20000C4F2010100234FF00C0C55
:1024A0004FF4E13280E80E00C0E90333C0E905C310
:1024B000C361FFF79FFB002808BF80BDBDE88040D7
:1024C000FEF7B8BAFEE70000FEE700007047000024
:1024D00070470000FEF740BC70470000406A0021D2
:1024E000C185C184FFF7CCB8406A00212022C18594
:1024F00080F842200163FFF707B8000081B090F830
:102500004210222921D183680246B3F5805F09D1A8
:1025100052F8281F52F8183C002B63D003685B6800
:102520000AE000BF52F8281F13B90369002BF5D049
:1025300003685B6803F07F030B7011680131116061
:10254000C18D01390A04C18502D001B0704700BFB6
:102550000168CA6822F02002CA60CA6822F4807248
:10256000CA604A6922F001024A61202180F84210C3
:1025700000214163026B012A3CD10163016851E8EB
:10258000031F026821F0100142E80313DBB1016868
:1025900051E8031F026821F0100142E8031393B1D0
:1025A000016851E8031F026821F0100142E803139B
:1025B0004BB1016851E8031F026821F0100142E8A5
:1025C0000313002BDAD101680A68D20606D500226F
:1025D00000920A680092496800910099818D01B0CB
:1025E000FEF790BF026852686FF35F2221F8022B5A
:1025F0008162A5E701B0FFF7EFBC000040F2B80030
:10260000C2F20000FFF73EB8FEE700002DE9F043FC
:1026100091B040F27006C2F200060446706040F6C7
:102620003050C0F20A00CDF8070045F24140C3F235
:10263000450001AD01902846FDF7F6FE82B2204626
:1026400029466423FFF746FE42F65560C0F60000B7
:102650004FF47A7100F0AEFA002800F0F18045F2F4
:10266000465040F63157C3F64E5045F2414801AD51
:10267000C0F20A070290C4F22B3874682846039708
:10268000CDF80480FDF7D0FE82B2204629466423AF
:10269000FFF720FE42F65560C0F600004FF4FA61E5
:1026A00000F088FA002800F0CB8044F24D7901ADAB
:1026B000C3F64659746828460397CDF80890CDF8BC
:1026C0000480FDF7B1FE82B2204629466423FFF75D
:1026D00001FE42F65560C0F600004FF47A7100F03A
:1026E00069FA002800F0AC8040F62250C0F20A00DF
:1026F000049044F22270C4F65350039044F25330D5
:10270000C3F6535001AD029074682846CDF804809A
:10271000FDF78AFE82B2204629466423FFF7DAFDE0
:1027200042F65560C0F600004FF47A7100F042FAAC
:10273000002800F0858042F66C60C0F6000090E84A
:102740002E0004690DF1040C007D8CE82E0001AD13
:10275000059474688DF818002846FDF765FE82B26E
:10276000204629466423FFF7B5FD42F65560C0F6C2
:1027700000004FF47A7100F01DFA002860D001AD1E
:1027800074682846CDE90297CDF80480FDF74CFE29
:1027900082B2204629466423FFF79CFD42F655602D
:1027A000C0F600004FF47A7100F004FA002847D018
:1027B000254801AD019024A0031D00690ECB0DF149
:1027C000080C7468059028468CE80E00FDF72CFE76
:1027D00082B2204629466423FFF77CFD42F655600D
:1027E000C0F600004FF47A7100F0E4F940B30A201B
:1027F000ADF8100042F63140C0F63450039044F278
:102800004D70C3F6445001AD029074682846CDF86F
:102810000480FDF709FE82B2204629466423FFF7B3
:1028200059FD42F65560C0F600004FF47A7100F091
:10283000C1F9002818BF012011B0BDE8F08300BF26
:10284000002011B0BDE8F08341542B434E4D493D6B
:10285000322C312C302C302C300D0A002DE9F04F69
:102860008BB040F63150C0F20A00059044F24D7032
:1028700040F27004C3F6525045F24149C2F20004DE
:1028800003AD0490C4F22B3966682846CDF80C904D
:10289000FDF7CAFD82B2304629466423FFF71AFDD0
:1028A00040F20018C2F200084046A121FDF7DBFD0E
:1028B00040F2A415C2F200054FF0000A284640F28B
:1028C0003B1184F845A0C4F841A0C4F83DA0C4F869
:1028D00039A0C4F835A0C4F831A0C4F82DA0C4F8BC
:1028E00019A0C4F81DA0C4F821A0C4F825A0C4F8FC
:1028F00029A0FDF7B8FD42F6556B0DF10B06C0F6A9
:10290000000B00276068314601226423FFF72AFA92
:102910000028F7D1B7F59D7F08DA9DF80B00032F4B
:10292000E85507F1010705F807A0EBDB7819043833
:102930005946FDF7BFFD9F2F01D80028E2D140F294
:10294000A41004F1190204F12D03C2F2000015A134
:10295000CDF80080FDF7DAFC44F24D70C3F6445028
:10296000049042F63140C0F6345005900A2003AD81
:102970006468ADF818002846CDF80C90FDF754FDBA
:1029800082B2204629466423FFF7A4FC42F6556034
:10299000C0F600004FF47A7100F00CF90BB0BDE8FE
:1029A000F08F00BF252A5B5E2B5D2B434D47523ACB
:1029B0002022252A5B5E5C225D222C22255B5E2282
:1029C0005D222C22222C22255B5E225D220D0A250F
:1029D0005B5E0D5D0D0A4F4B0D0A0000F0B5CBB0EC
:1029E000044600284FF0000052D00B4600294FD07B
:1029F00042F63F626D46C0F6000228464FF49671DB
:102A0000FDF706FC40F27007C2F200077E68284618
:102A1000FDF70AFD82B2304629466423FFF75AFCCF
:102A200042F65A60C0F600004FF47A7100F0C2F826
:102A300080B32046FDF7F8FCB0F5917F2AD86D46AB
:102A400016A228464FF496712346FDF7E1FB7C68F9
:102A50002846FDF7E9FC82B2204629466423FFF7A9
:102A600039FC786842F62C61C0F60001012264232B
:102A7000FFF730FC0AA041F2883100F09BF848B122
:102A800009A04FF4FA6100F095F8002818BF012062
:102A90004BB0F0BD00204BB0F0BD00BF257300006F
:102AA0002B434D47533A00000D0A4F4B0D0A0000CF
:102AB00040F27001C2F20001486801310122FFF7C3
:102AC00061BA000040F27000C2F200004068FEF7F8
:102AD0001DBD000090B0FEF74DF900240120CDE9A6
:102AE0000B44CDE9094406900A904FF4E0104FF4EE
:102AF000803102250F9006A8CDE90714CDE90D51CC
:102B0000FEF7EAFA20B1EFF3108072B6FEE700BFDD
:102B10000F20CDE901054FF48060CDE9040401A840
:102B200002210394FEF7CEF920B1EFF3108072B6C4
:102B3000FEE700BFFFF78EFCFFF7A6FC40F2B800EF
:102B4000C2F20000FFF762FD11A016A1FFF746FFD9
:102B500040F2700440F2E026C2F200040025C2F206
:102B6000000605E0FFF77AFE25703560FFF7AAFF43
:102B7000FFF79EFF20780028F4D120780028F1D1BB
:102B800020780028EED120780028F3D0EAE700BFB3
:102B900030363333303634343036323730363435FD
:102BA000000000002B3938393931383535353338A4
:102BB000340000002DE9F04F89B00C468146FDF746
:102BC00033FC142804D9002009B0BDE8F08F00BF01
:102BD0000646002800F0868070420090701E002596
:102BE0000DF10C080021029008E000BF01980025BB
:102BF000042800F101014FF00000E5D20191FEF739
:102C0000A5F88246CDE90355CDE905550795FEF7B0
:102C10009DF8A0EB0A00A042E8D24FF0000B06E0BE
:102C2000E346FEF793F8A0EB0A00A042DED240F2A2
:102C30007000C2F2000040680DF1230101226423FC
:102C4000FFF790F80028ECD1BBFBF6F09DF82310BD
:102C500000FB16B00BF1010CB44508F80010DFD3EF
:102C60000098002200EB0B0E83460EEB0203581C6B
:102C7000B0FBF6F101FB160019F8021018F800007D
:102C80008842CDD10298904228D0981CB0FBF6F72C
:102C900007FB160009EB020718F800007D78A84230
:102CA000BED10BEB0200851C18D0DD1CB5FBF6F184
:102CB00001FB1651BD7818F80110A942B0D10330BC
:102CC0000CD0181DB0FBF6F101FB1600F97818F8CE
:102CD00000008842A4D104329642C6D1012009B036
:102CE000BDE8F08FFEF732F80546FEF72FF8401BDF
:102CF000A04210D240F27007C2F200070DF1230685
:102D00007868314601226423FFF72CF8FEF71EF89D
:102D1000401BA042F4D3FEF719F80546FEF716F85B
:102D2000401BA04211D240F27007C2F200070DF121
:102D3000230600BF7868314601226423FFF712F8AA
:102D4000FEF704F8401BA042F4D3FDF7FFFF054651
:102D5000FDF7FCFF401BA04211D240F27007C2F207
:102D600000070DF1230600BF786831460122642375
:102D7000FEF7F8FFFDF7EAFF401BA042F4D3FDF792
:102D8000E5FF0546FDF7E2FF401BA04211D240F2ED
:102D90007007C2F200070DF1230600BF78683146C4
:102DA00001226423FEF7DEFFFDF7D0FF401BA042A7
:102DB000F4D3FDF7CBFF0546FDF7C8FF401BA0424B
:102DC000BFF401AF40F27007C2F200070DF1230615
:102DD0007868314601226423FEF7C4FFFDF7B6FF91
:102DE000401BA042F4D3EEE610B500290AD00878C3
:102DF000002807D005487844FDF75CFB002801D087
:102E0000002010BD0248784410BD0000E200000020
:102E1000DA000000000000000000000001020304CE
:102E20000607080900000000010203041A0102025B
:102E3000030405060708090A0B0C0D0E0F101041BC
:102E4000542B434D47533D222573220D0A00415414
:102E500045300D0A004F4B0D0A003E0041542B43F4
:102E60005343533D2247534D220D0A0041542B43F7
:102E7000534D503D31372C3136372C302C300D0A24
:102E80000000000041542B434D47463D310D0A00E0
:102E900041542B4346554E3D310D0A0041542B43BE
:102EA0004D47523D310D0A0041542B434D47443D9F
:102EB000312C340D0A000000E82F0008000000202B
:102EC0001000000050010008F82F0008100000203A
:102ED000D808000070010008100100004300000045
:102EE000F8FFFFFF0040404040404040404041412B
:102EF00041414140404040404040404040404040CF
:102F00004040404040050202020202020202020268
:102F10000202020202202020202020202020200265
:102F200002020202020290909090909010101010F5
:102F30001010101010101010101010101010101091
:102F40000202020202028888888888880808080825
:102F500008080808080808080808080808080808F1
:102F60000202020240000000000000000000000019
:102F70000000000000000000000000000000000051
:102F80000000000000000000000000000000000041
:102F90000000000000000000000000000000000031
:102FA0000000000000000000000000000000000021
:102FB0000000000000000000000000000000000011
:102FC0000000000000000000000000000000000001
:102FD00000000000000000000000000000000000F1
:102FE00000000000000000000100000010000000D0
:082FF00000127A00000000004D
:04000005080000ED02
:00000001FF
