:020000040800F2
:10000000D80A0020B50100088D100008950F0008DF
:1000100089100008ED020008C1110008000000006E
:10002000000000000000000000000000B511000802
:10003000F10200080000000091100008B91100084A
:10004000CF010008CF010008CF010008CF01000850
:10005000CF010008CF010008CF010008CF01000840
:10006000CF010008CF010008CF010008CF01000830
:10007000CF010008CF010008CF010008CF01000820
:10008000CF010008CF010008CF010008CF01000810
:10009000CF010008CF010008CF010008CF01000800
:1000A000CF010008CF010008CF010008CF010008F0
:1000B000CF010008CF010008CF010008CF010008E0
:1000C000CF010008CF010008CF010008CF010008D0
:1000D000CF010008CF010008CF010008CF010008C0
:1000E000CF010008CF010008CF01000800F002F89E
:1000F00000F050F814A696E8000CB244B344DA4578
:1001000001D100F047F8BAE80F000FA696E83000DA
:10011000A5EB040504EB0607AAEB0704A7F101070A
:100120004FEA15154FEA3414A4F10104AC4201D38F
:1001300000F030F813F0010F18BFFB1A43F0010371
:1001400000F001F8DBE71847285200004852000091
:10015000103A24BF78C878C1FAD8520724BF30C8F3
:1001600030C144BF04680C60704700007047000055
:100170000023002400250026103A28BF78C1FBD8B0
:10018000520728BF30C148BF0B6070471FB51FBD65
:1001900010B510BD00F074F81146FFF7F7FF01F03D
:1001A00011F800F092F803B4FFF7F2FF03BC00F07F
:1001B00095F800000948804709480047FEE7FEE738
:1001C000FEE7FEE7FEE7FEE7FEE7FEE7FEE7FEE707
:1001D00004480549054A064B70470000BD11000858
:1001E000ED000008D8040020D80A0020D80600201E
:1001F000D806002002F0FF0343EA032242EA02424B
:1002000000F002B84FF0000200B51346944696463F
:10021000203922BFA0E80C50A0E80C50B1F1200119
:10022000BFF4F7AF090728BFA0E80C5048BF0CC0C7
:100230005DF804EB890028BF40F8042B08BF704725
:1002400048BF20F8022B11F0804F18BF00F8012B97
:10025000704770477047704710B500F009F80068A4
:1002600010BD10B5044600F003F8046010BD000096
:100270000048704710000020004870471000002020
:100280007546FFF7F9FFAE4605006946534620F074
:100290000700854618B020B5FFF79AFFBDE820405B
:1002A0004FF000064FF000074FF000084FF0000B32
:1002B000AC46ACE8C009ACE8C009ACE8C009ACE8A1
:1002C000C00921F007018D46704710B50446AFF311
:1002D00000802046BDE81040FFF765BF01491820A7
:1002E000ABBEFEE72600020070470000FEE70000FC
:1002F00070470000EFF3108072B600BFFEE7000009
:10030000B0B5044600F01EF9054640F20000C2F206
:1003100000000078611C18BF044400BF00F012F90F
:10032000401BA042FAD3B0BD2DE9F04F82B00E6859
:10033000002E00F0FD8041F20042C4F201020423CD
:1003400040F2004E904208BF03234FF6FF7CC4F2F8
:10035000010E009300240123C1F2100C4FF0000A9B
:100360004FF0000944E000BF012704F00C030F2206
:100370009A402BEA020207FA03F34FEA9A051A435E
:1003800046F825204E6840F20C45F202DEF80820BF
:1003900054BF22EA080242EA0802C4F20105CEF87C
:1003A00008202A68B30254BF22EA080242EA08027F
:1003B0002A60B303DEF8042054BF22EA080242EAAE
:1003C0000802F303CEF80420DEF800204FF001030A
:1003D00054BF22EA080242EA0802CEF800200E6862
:1003E0000AF1010A36FA0AF204F1040400F0A080CE
:1003F00003FA0AFB16EA0B08F1D04E68664511DCD9
:10040000122E55D8DFE806F0340A444854545454A8
:100410005454545454545454544C5000D1F80C90E7
:1004200046E000BF4FF6FF72C1F2210296420FDC98
:100430000022C1F2110296421AD00022C1F2120229
:10044000964215D00022C1F22102964210D02FE030
:100450000022C1F2220296420AD00022C1F23102E9
:10046000964205D00022C1F23202964220D100BF4E
:100470008A684AB1012A14BFC0F814B0C0F810B09D
:100480004FF0080914E000BF4FF0040910E000BF6E
:10049000CA6802F108090BE04FF0000908E000BF4C
:1004A000CA6802F1040903E0CA6802F10C0900BF3E
:1004B00022460646B8F5807F24BF203A04363768C6
:1004C0000F25954027EA050509FA02F22A43326012
:1004D000CA79D2067FF583AF41F21803C4F2020352
:1004E0001A68AEF57E7642F001021A601A6802F0D0
:1004F00001020192019A2AF0030256F802B040F676
:100500000002C4F20102904210D040F60042C4F250
:10051000010290423FF428AF41F20002C4F201020E
:10052000009F904208BF02271FE700BF00271CE77B
:1005300002B0BDE8F08F0000002A08BF0904016185
:100540007047000040F2D040C2F2000000687047DF
:1005500040F2000040F2D041C2F20000C2F20001BD
:1005600000780A68104408607047000080B542F2C5
:100570000000C4F20200016841F010010160032094
:1005800000F07AF80F2000F005F800F027F80020BE
:1005900080BD000070B540F20006C2F2000640F2D5
:1005A00008013278C2F200014FF47A730968B3FB94
:1005B000F2F20446B1FBF2F1084600F0D5FC0F2C34
:1005C0004FF0010508D838B94FF0FF30214600221E
:1005D000002500F025F87460284670BD82B041F215
:1005E0001800C4F202000168022241F0010101601A
:1005F000016801F0010101910199416841F08051C8
:100600004160406800F08050009000980420C4F2DF
:100610000100016862F31A61016002B070470000D6
:1006200010B54EF60C5CCEF2000CDCF80030C3F3D3
:10063000022E8EF00704042C28BF0424BEF103030D
:100640004FF0FF3E0EFA04F438BF0023A143994057
:100650000EFA03F39A43114300F00F0200F16043D6
:100660000901043A03F564436244002848BF02F1DB
:100670000C03197010BD00004EF60C51CEF20001B3
:100680000A684FF6FF031A4060F30A2242F08060C6
:1006900040F0FD7008607047002804BF01207047DB
:1006A0002DE9F04381B042F20008C4F2020804468A
:1006B000D8F800000D4600F0070088420CD2D8F8A8
:1006C000000020F007002843C8F80000D8F8000018
:1006D00000F00700A8426CD1206841F204098107AC
:1006E000C4F2020917D5410705D5D9F8001041F425
:1006F000E061C9F80010010705D5D9F8001041F4F0
:100700006051C9F80010D9F80010A26821F0F0017A
:100710001143C9F80010C00742D1D8F8000000F01A
:100720000700A8420CD9D8F8000020F007002843A1
:10073000C8F80000D8F8000000F00700A84238D13F
:100740002068410707D5D9F80010E26821F4E0617C
:100750001143C9F80010000708D5D9F80000216935
:1007600020F4605040EAC100C9F80000D9F8002028
:1007700002F00C00082841F20020C0F27A0051D1AA
:1007800045F25E33C2F38341C0F60003595CD203E5
:100790003CD440F60010C0F23D00484342E000BFA8
:1007A000606802280AD001282AD159F8041C89035C
:1007B00008D4012001B0BDE8F08300BF59F8041C43
:1007C0008901F6D5D9F8001021F003010843C9F8D2
:1007D0000000FFF7B7FE064641F28837D9F800005F
:1007E000616800F00C00B0EB810F96D0FFF7AAFE15
:1007F000801BB842F2D9032001B0BDE8F08300BFEE
:1008000059F8041C8907D4D5DCE700BFD9F80020CB
:1008100045F25C33C2F34042C0F600039A5C4843A1
:10082000B0FBF2F0D9F8001043F6F812C1F303114F
:10083000C0F60002515C40F2080220FA01F140F2D9
:100840000400C2F200000068C2F200021160FFF76B
:10085000A1FE002001B0BDE8F0830000002804BF25
:10086000012070472DE9F04182B00446007841F242
:100870000006C007C4F202060CD0706800F00C003D
:10088000042840F081803068800303D56068002828
:1008900000F04E81207880071BD5706810F00C0F97
:1008A00009D0706800F00C00082840F08B80706858
:1008B000C00300F187803068800703D520690128D4
:1008C00040F036813068616920F0F80040EAC100EC
:1008D00030602078000713D4207840072CD4E569D5
:1008E000002D00F02081706800F00C00082840F016
:1008F000AF80012D40F00C81012002B0BDE8F081F5
:10090000A069002800F08C800020C4F24220012160
:10091000C0F88014FFF716FE054600BF706A800716
:1009200000F1BA80FFF70EFE401B0228F6D9032023
:1009300002B0BDE8F08100BFF0695FEAC00808D4EA
:10094000F06940F08050F061F06900F08050009054
:10095000009847F20007C4F200073868C0054DD47C
:10096000386840F480703860FFF7ECFD054600BF42
:100970003868C00542D4FFF7E5FD401B6428F7D96D
:10098000032002B0BDE8F081706800F00C00082878
:1009900003D17068C0033FF576AF6068002800F0AF
:1009A0000981B0F5A02F00F01D81B0F5803F00F067
:1009B0001D81306820F480303060306820F4802061
:1009C00017E100BF2069002840F20000C4F2422075
:1009D00000F08C8001210160FFF7B4FD054600BFE7
:1009E000306880073FF56EAFFFF7ACFD401B022873
:1009F000F6D9032002B0BDE8F08100BFE06800280E
:100A000000F09A80052800F0B180012800F0B28043
:100A1000306A20F001003062306A20F00400ACE05F
:100A20000020C4F242200021C0F88014FFF78AFDA4
:100A3000054600BF706A80077FF54EAFFFF782FD65
:100A4000401B0228F6D9032002B0BDE8F08100BFA8
:100A50000027C4F2422700203866FFF773FD022DFD
:100A600005460DD13068800140F1D680FFF76AFD60
:100A7000401B02284FF00300F4D902B0BDE8F0811A
:100A8000306880014FD5FFF75DFD401B02284FF015
:100A90000300F5D9F1E700BF40F20800C2F2000000
:100AA000006844F6D351C1F26201A0FB0101480A7B
:100AB000019000BF00BF0198411E002801913FF442
:100AC0000BAF00BF0198411E002801913FF404AF15
:100AD00000BF0198411E002801913FF4FDAE00BF08
:100AE0000198411E00280191E4D1F5E60021016042
:100AF000FFF728FD054600BF306880077FF5E9AEA7
:100B0000FFF720FD401B02284FF00300F4D9B4E7A3
:100B10007068216A00F480328A4209D1616A00F467
:100B20007010884204D1002002B0BDE8F08100BFFF
:100B3000012002B0BDE8F081306A20F0010030628F
:100B4000306A20F004003062FFF7FCFC054641F2F9
:100B5000883700BF306A800722D5FFF7F3FC401BBF
:100B6000B8424FF00300F5D987E700BF306A40F084
:100B700004003062306A40F001003062FFF7E2FCAE
:100B8000054641F2883700BF306A800708D4FFF776
:100B9000D9FC401BB842F7D9032002B0BDE8F08170
:100BA000B8F1000F3FF59BAEF06920F08050F06186
:100BB00095E600BF306820F480303060306820F463
:100BC00080203060FFF7BEFC054600BF3068800320
:100BD0007FF560AEFFF7B6FC401B64284FF00300C2
:100BE000F4D94AE7306840F480203060306840F43F
:100BF00080303060FFF7A6FC054600BF30688003F8
:100C00003FF548AEFFF79EFC401B6428F6D9032051
:100C100002B0BDE8F08100BF206AB0F5803F05D189
:100C20007168A26821F40031114371607168626AD1
:100C300021F4741111430843706001203866FFF7F6
:100C400081FC0446306880013FF56DAFFFF77AFC08
:100C5000001B02284FF00300F4D90EE770B538B13D
:100C60000446406A30B10020206104F1140007E01E
:100C7000012070BD6068B0F5827F03D004F11C00D4
:100C8000002101600026A66294F8510020B9204698
:100C900084F8506000F038F8022084F8510094E89D
:100CA000071001F48271036802F4044223F0400348
:100CB0000360236911440CF40062114403F0020242
:100CC0006369114403F00102A369E569114403F467
:100CD0000072114405F03802256A114405F08002C3
:100CE000A56A114305F4005211430160042101EA91
:100CF00013414160C16921F40061C1610120666551
:100D000084F85100304670BD80B586B0014640F68B
:100D10000000C4F20100096800F520530022994246
:100D2000049201D006B080BD41F21801C4F2020164
:100D30000A6842F480520A600A6802F48052019202
:100D4000019A0A6842F004020A60096801F004018D
:100D500001910199A02102910221039103210591A2
:100D600002A9FFF7E1FA06B080BD00002DE9F041CD
:100D700082B01D4616460F460446FFF7E3FB94F883
:100D8000511001290ED18046002F4FF0010018BFED
:100D9000002E03D102B0BDE8F08100BF94F85000EE
:100DA000012803D1022002B0BDE8F081012084F8BF
:100DB00050000320002184F8510061652763A68656
:100DC000E686A163A187E187A0682164B0F5004FA2
:100DD0002068616407D1016821F040010160016869
:100DE00041F4804101600168490603D4016841F083
:100DF000400101606168731EE268B1FA81F1B3FAE3
:100E000083F349095B09B2F5006F41EA030139D167
:100E100031B137F8021BC1602763E08E0138E086EC
:100E2000E08E002870D0681C0BD11AE0216B31F8DD
:100E3000022BC2602163E08E0138E086E08E00283C
:100E400062D0206881688907F0D4FFF77BFBA0EBB4
:100E50000800A842F2D338E0FFF774FBE08E0028C8
:100E600052D0206881688907F6D5216B31F8022BB2
:100E7000C2602163E08E0138E086E08E0028F0D168
:100E800042E000BF39B139780173206B0130206333
:100E9000E08E0138E086E08EB0B3681C0BD123E011
:100EA000216B09780173206B01302063E08E0138DB
:100EB000E086E08E40B3206881688907F0D4FFF7B0
:100EC00041FBA0EB0800A842F3D3012084F85100B5
:100ED000002084F85000032002B0BDE8F08100BF7C
:100EE000FFF730FBE08E78B1206881688907F7D57D
:100EF000216B09780173206B01302063E08E01388B
:100F0000E086E08E0028EFD12046022101222B4608
:100F1000CDF8008000F0BEF840B9204680210022C4
:100F20002B46CDF8008000F0B5F828B1606D40F098
:100F30002000606520206065A06838B9002001901D
:100F40002068C1680191806801900198012084F8AF
:100F50005100002084F85000606D002818BF012067
:100F600002B0BDE8F0810000411E0020B0EB116F1F
:100F70001CBF012070474EF21002CEF200025160F9
:100F80004EF62351CEF20001F0230B700721906042
:100F900011607047FEE700002DE9F04784B041F290
:100FA0001800C4F20200016840F6000441F020017C
:100FB00001600168C4F2010401F020010091009970
:100FC0000168002241F0040101600168102601F06F
:100FD00004010091009901684FF0000941F00801F7
:100FE00001600068102100F0080000900098204681
:100FF000FFF7A2FA04F580652846032100224FF08E
:101000000308FFF799FA00966E464FF0010A02278F
:1010100020463146CDE901A90397FFF785F9284617
:101020003146CDE9008ACDE90297FFF77DF904B09A
:10103000BDE8F08770B540F2784043F2000CC2F290
:101040000000C4F2010C4FF482724FF400430021FF
:101050004FF0020E01244FF400750826C0E900C2CB
:101060000A22C0E90231C0E904E4C0E90656C0E939
:101070000811C0E90A12FFF7F1FD002808BF70BD92
:10108000BDE87040FFF736B9FEE70000FEE700005C
:10109000704700002DE9F04381B0089C9846154642
:1010A0000E468146FFF74EFA201A00EB0804FFF7C0
:1010B00049FA40F20801C2F200010968C1F3CB31DC
:1010C00061430091D9F800108A683240921BB2FA4D
:1010D00082F25209AA423DD0074618F1010031D0F0
:1010E000FFF730FAC01BA04238D2009800990028C0
:1010F000A1F101010091D9F80010896808BF0446E8
:1011000001EA0600801BB0FA80F04009A842E7D14E
:1011100020E000BF88683040801BB0FA80F04009B2
:10112000A84217D088683040801BB0FA80F0400990
:10113000A8420FD088683040801BB0FA80F0400988
:10114000A84207D088683040801BB0FA80F0400980
:10115000A842DFD1002001B0BDE8F083D9E9000149
:101160004268B1F5827F22F0E00242600BD1D9F8EB
:101170000810B1F5004F02D0B1F5806F03D10168BE
:1011800021F040010160D9F82810B1F5005F07D1C6
:10119000016821F400510160016841F400510160CF
:1011A000012089F85100002089F85000032001B087
:1011B000BDE8F08370470000FFF7CAB97047000030
:1011C000FEE7000090B0FFF7D1F900240120CDE93F
:1011D0000B44CDE9094406900A904FF4E0104FF417
:1011E000803102250F9006A8CDE90714CDE90D51F5
:1011F000FFF734FB20B1EFF3108072B6FEE700BFBB
:101200000F20CDE901054FF48060CDE9040401A869
:1012100002210394FFF740FA20B1EFF3108072B679
:10122000FEE700BFFFF7B8FEFFF704FF01F03CFD4B
:10123000FCE700002DE9F04F85B00E460E9942F60E
:10124000835401FB04F7BF0D4FF4B475904607FBC0
:1012500015120746100403FB04F04FEA905000FB00
:10126000153008BF4FF4B472B1F5B47F98BF0A4689
:10127000010408BF4FF4B470B3F5B47F98BF1846AB
:1012800080B24CF6CD414843C40C90B200FB01F94A
:101290004FEAD94502F0A0F983462846029502F0AC
:1012A0009BF90146584602F0A1F8B4EBD94F61D240
:1012B0008246404602F090F981460298013801903A
:1012C000204602F089F90146504602F099F94EF2A3
:1012D000A771C3F68E4102F093F9054601F05AFF5B
:1012E000494602F08DF902F043F93844049028464B
:1012F00001F092FE494602F083F902F039F93044D8
:1013000004F101080390404602F066F90146504698
:1013100002F076F90199A1424EF2A771C3F68E410F
:1013200008BF584602F06CF9044601F033FF494605
:1013300002F066F902F01CF95546DA4600EB070B9D
:10134000204601F069FE494602F05AF902F010F910
:101350008319049803995FFA8BF2D346AA460F9D2E
:10136000C0B2C9B2DBB2009501F0B6F902984446AA
:101370004045A5D105B0BDE8F08F00002DE9F04F44
:101380008BB0099014988A4642F68351164600FBAA
:1013900001F2920D4FF4B47702FB17025943890D05
:1013A000150401FB173108BF4FF4B472B0F5B47FD8
:1013B00098BF0246080408BF4FF4B471B3F5B47F78
:1013C00098BF194688B24CF6CD4148434FEAD04900
:1013D00090B200FB01F4E50C02F0FEF80746284647
:1013E000089502F0F9F80146384601F0FFFF05467E
:1013F000484602F0F1F80146284602F001F94EF2A3
:10140000A771C3F68E4102F0FBF8804601F0C2FEE0
:101410000390304602F0E0F80646404601F0FCFD3D
:10142000B9EBD44F64D202900898CDE90457013843
:10143000CDE9060ADDF810A0484602F0CDF80146D5
:10144000504602F0DDF84EF2A771C3F68E4102F06D
:10145000D7F8044601F09EFE314602F0D1F802F0C2
:1014600087F8DDF824B058440A90204601F0D4FDF6
:10147000314602F0C5F802F07BF8079F09F1010838
:10148000C519404602F0A8F80146504602F0B8F8E7
:1014900006994945059908BF08464EF2A771C3F65B
:1014A0008E4102F0ADF8044601F074FE314602F0C0
:1014B000A7F802F05DF88344204601F0ADFD314607
:1014C00002F09EF802F054F8C4190A98159FC0B2B1
:1014D000E9B25FFA8BF2E3B2009701F0FDF80898E9
:1014E000C1464045A8D1DDF81CA0099F029803E041
:1014F000099F00244FF0000B314602F081F802F002
:1015000037F8314600EB0A06039802F079F802F04A
:101510002FF83844F3B2159EC2B2384651460096B1
:1015200001F0DAF85FFA8BF2E3B2384651460096E2
:1015300001F0D2F80BB0BDE8F08F00002DE9F04FBC
:1015400082B0984643B2002B00F1F6803F2900F2AA
:10155000F3800223A3EB420952420026CDE900802A
:101560000DE000BF4F46531C9145C8BF1A4607EB1C
:101570004303C8BF5F1C012AB94680F2DD80871A89
:101580004FFA87FE75180B465FFA87FABEF1000F17
:101590005FFA85FC24D4BCF13F0F21D805F0070485
:1015A0000121B8F1010F01FA04F80CF0F80440F23F
:1015B00078010AEB0414C2F2000133D10D5D45EA53
:1015C00008050D55141865B25FFA84FB002D4FF025
:1015D000000448BF012442D4BCF13F0F15D93EE0BE
:1015E000141867B25FFA84FB002F4FF0000448BF65
:1015F000012436D4BCF13F0F33D805F00705012094
:10160000B8F1010F00FA05F81DD10CF0F80740F20F
:1016100078000BEB0717C2F20000C55D45EA08052C
:101620001CE000BF0D5D25EA08050D55141865B2D4
:101630005FFA84FB002D4FF0000448BF01240ED454
:10164000BCF13F0F0BD80CF0F80740F278000BEB21
:101650000717C2F20000C55D25EA0805C555DDF88B
:1016600000809F1B1946FDB2E4B93F2D1AD807F040
:1016700007070120B8F1010F00FA07F42ED16FF02F
:10168000700000EA051740F2780007EB0B03C2F286
:101690000000C55CBEF1000F45EA0405C554019881
:1016A00012D538E00198BEF1000F34D43F2D32D866
:1016B00007F007030127B8F1010F07FA03F41FD160
:1016C0006FF0700303EA051740F2780507EB0A0391
:1016D000C2F20005EF5C27431CE000BF05F0F807ED
:1016E00040F278000BEB0717C2F20000C35DBEF1B9
:1016F000000F23EA0403C35501980CD43F2D0AD8E8
:1017000005F0F80340F278050AEB0313C2F2000576
:10171000EF5CA743EF54B1453FF724AF013609EB27
:101720004603D64203F101077FF41DAF91454FF008
:101730000003D8BF994616E702B0BDE8F08F00005D
:1017400043B2002B48BF70473F2914D801F007036C
:1017500001F0F8014FF0010C00EB011040F27801AC
:10176000012A0CFA03F2C2F200010B5C14BF23EA57
:1017700002021A430A5470472DE9F04182B0DDF8A5
:1017800020801D460B4617460C460646CDF80080C5
:1017900000F0A2FF384621463A462B46CDF800809D
:1017A00000F09AFF3846294632462B46CDF8008095
:1017B00000F092FF3046294632462346CDF800809D
:1017C00000F08AFF02B0BDE8F081000080B502465B
:1017D000002840F27800C2F200004FF4806118BF88
:1017E000FF22FEF707FD80BD2DE9F04F8BB00A9375
:1017F0000B460390891AD01840F2780EC2F101040A
:101800008142C2F2000E0592019345DC039A52B266
:10181000002A41D40A9A012A019A4FEA02121DD1E4
:10182000059B0127A2EB031206E000BF814201F1F4
:10183000010102F110022FDACBB23F2BF6D8039D43
:1018400002F478662E4403F007031EF8065007FAE8
:1018500003F32B430EF80630E8E700BF059B012792
:10186000A2EB031206E000BF814201F1010102F187
:10187000100211DACBB23F2BF6D8039D02F4786642
:101880002E4403F007031EF8065007FA03F325EA77
:1018900003030EF80630E7E703980027411C0230E7
:1018A0000991009015E000BF049F059A0137029B43
:1018B000501E3946002B5CBF0246091A03EB41005B
:1018C000441C0998BA4200F1010005920990C0F247
:1018D000358303980294C11B38448142049700F376
:1018E0008F81059B019F049DA7EB0308DA1908F07F
:1018F00007030126D0B206FA03FA4FF478636C00AE
:101900006FEA0A0B3F2803EA081713D95FFA88F039
:101910003F2800F275810A98012833D1049B0806FC
:1019200072D5D80701F101007BD1032C80F097809C
:1019300066E100BF02F0070006FA00F908946FEABA
:101940000904080603EA021C38D4CAB25FFA88F018
:1019500000233F2888BF012302EB0C060A9D1EF8D6
:101960000600012D43EAD2151AD1002D049D40EA4C
:1019700009000EF8060021D1D0191EF8002042EA15
:101980000A0219E0049B080640F1A080D80701F183
:10199000010640F0A880032C80F0C28030E100BF37
:1019A000002D049D00EA04000EF8060006D1D019AF
:1019B0001EF8002002EA0B020EF80020E80701F1F1
:1019C000010600F01981300600F1EB80F2B25FFAF7
:1019D00088F000233F2888BF012302EB0C060A9DF4
:1019E0001EF80600012D43EAD21540F0CF8040EAF0
:1019F0000900002D0EF8060040F0D380D0191EF823
:101A0000002042EA0A02CAE0C8B238441EF80020A8
:101A100042EA0A020EF80020D80701F101003FF463
:101A200084AF020607D4C0B238441EF8002042EA50
:101A30000A020EF80020881C020607D4C0B23844FF
:101A40001EF8002042EA0A020EF80020C81C032CEF
:101A500005D2D5E009990430814200F0D180010619
:101A60000AD5411C0A0612D5811C0A061AD5C11CCA
:101A70000A06EFD421E000BFC1B239441EF80120AC
:101A800042EA0A020EF80120411C0A06ECD4C9B24F
:101A900039441EF8012042EA0A020EF80120811C96
:101AA0000A06E4D4C9B239441EF8012042EA0A0207
:101AB0000EF80120C11C0A06CCD4C9B239441EF864
:101AC000012042EA0A020EF80120C3E7C8B23844F6
:101AD0001EF8002002EA0B020EF80020D80701F1E0
:101AE00001063FF458AF300607D4F0B238441EF870
:101AF000002002EA0B020EF80020881C020607D420
:101B0000C0B238441EF8002002EA0B020EF8002092
:101B1000CE1C032C04D273E009980436B0426FD077
:101B2000300609D5701C010611D5B01C010619D567
:101B3000F01C0106F0D420E0F0B238441EF800108A
:101B400001EA0B010EF80010701C0106EDD4C0B2C2
:101B500038441EF8001001EA0B010EF80010B01C0A
:101B60000106E5D4C0B238441EF8001001EA0B01AA
:101B70000EF80010F01C0106CED4C0B238441EF896
:101B8000001001EA0B010EF80010C5E720400EF826
:101B9000060035B9D0191EF8002002EA0B020EF833
:101BA0000020881C020626D4C2B25FFA88F0002307
:101BB0003F2888BF012302EB0C060A9D1EF8060091
:101BC000012D43EAD2150BD140EA09000EF80600B8
:101BD0008DB9D0191EF8002042EA0A0209E000BFC0
:101BE00020400EF8060035B9D0191EF8002002EA90
:101BF0000B020EF80020CE1C0898032848D200BF24
:101C0000059803990A1A084482423FF74DAE019F96
:101C1000049E0125F01900F0070305FA03F307936A
:101C2000DB4306934FF47863BC1BC1B203EA001890
:101C300004F0070005FA00FC6FEA0C0003EA04193F
:101C4000D7B23F2902F08002089000F2D380002A28
:101C500040F0D080E0B200253F2888BF012507EB87
:101C600008020A9E1EF80200012E45EAD71640F02F
:101C7000CF80079B002E40EA03000EF8020000F020
:101C8000C080D3E00EF8001009980436B042B7D0F7
:101C9000300627D45FFA88F0F1B23F284FF00000F9
:101CA00088BF012001EB0C020A9B1EF80250012B99
:101CB00040EAD1100AD145EA09030EF8023088B98A
:101CC000C8191EF8001041EA0A0109E005EA0403F8
:101CD0000EF8023030B9C8191EF8001001EA0B01E5
:101CE0000EF80010701C010628D4C1B25FFA88F00B
:101CF0003F284FF0000088BF012001EB0C020A9B37
:101D00001EF80250012B40EAD1100BD145EA09031D
:101D10000EF8023090B9C8191EF8001041EA0A0105
:101D20000AE000BF05EA04030EF8023030B9C81912
:101D30001EF8001001EA0B010EF80010B01C01069D
:101D400028D4C1B25FFA88F03F284FF0000088BF66
:101D5000012001EB0C020A9B1EF80250012B40EA05
:101D6000D1100BD145EA09030EF8023090B9C81919
:101D70001EF8001041EA0A010AE000BF05EA040368
:101D80000EF8023030B9C8191EF8001001EA0B0134
:101D90000EF80010F01C01063FF576AFC1B25FFAF5
:101DA00088F03F284FF0000088BF012001EB0C02B3
:101DB0000A9B1EF80250012B40EAD1100CD145EAD3
:101DC000090300280EF802307FF45EAFC8191EF830
:101DD000001041EA0A0155E705EA040300280EF85D
:101DE00002307FF451AFC8191EF8001001EA0B0150
:101DF00048E700BFE0B23F2818D8BAB90A980128CE
:101E00000CD107EB09001EF8002042EA0C020BE09F
:101E1000069B00EA03000EF802003EB907EB09003A
:101E20001EF80020089B1A400EF800200598470075
:101E30003FF43AAD0598009AA2EB000B0DE000BF0D
:101E400002EB09001EF8002042EA0C020EF8002006
:101E5000023F0BF1020B3FF427ADABF10100C2B220
:101E60003F2900F0800615D8A6B9E0B200253F282A
:101E700088BF012502EB080A0A9E1EF80A00012EFF
:101E800045EAD21614D1079B40EA03000EF80A0077
:101E90003EB11BE0E0B23F2818D8BEB90A9801282D
:101EA0000CD102EB09001EF8002042EA0C020BE004
:101EB000069B00EA03000EF80A003EB902EB090097
:101EC0001EF80020089B1A400EF800205FFA8BF2E3
:101ED0003F290BF0800617D8B6B9E0B23F284FF083
:101EE000000088BF012002EB08060A9B1EF806507E
:101EF000012B40EAD21011D1079B002845EA0305C7
:101F00000EF806509CD0A3E7E0B23F28A0D8002EE0
:101F10009ED10A9801283FF493AF07E0069B002862
:101F200005EA03050EF806507FF492AF02EB0900B4
:101F30001EF80020089B1A4088E700BF0BB0BDE8E0
:101F4000F08F00002DE9F04799421E4638BF0E463B
:101F50009042174638BF07463F2E00F2A5807FB259
:101F6000002F48BFBDE8F08799429C4688BF8C4649
:101F70009042964688BF86468242089C38BF1046EB
:101F80008B4238BF1946BCF13F0F40F2780828BF9A
:101F90004FF03F0C00F1020A0A01C2F200084FF0B4
:101FA0000109012C06D045E0614501F1010102F172
:101FB000100279D202F4786308EB030501F00703FD
:101FC00009FA03F6574600BFEB1913F8020CBC1EC2
:101FD0003043744503F8020CE6D2781E10F08000FE
:101FE000E2D113F8010C01343043744503F8010CBD
:101FF000DAD217F08000D7D1E85D01343043744560
:10200000E855D1D2781C10F08000CDD15878013439
:10201000304374455870C7D2B81C10F0800007F1E7
:102020000407D1D0C0E700BF614501F1010102F111
:10203000100239D202F4786308EB030501F00703BC
:1020400009FA03F3DE435746EB1913F8020CBC1EE2
:102050003040744503F8020CE6D2781E10F0800080
:10206000E2D113F8010C01343040744503F8010C3F
:10207000DAD217F08000D7D1E85D013430407445E2
:10208000E855D1D2781C10F08000CDD158780134B9
:10209000304074455870C7D2B81C10F0800007F16A
:1020A0000407D1D0C0E700BFBDE8F0872DE9F04FAD
:1020B00081B040F60004C4F2010420461021012240
:1020C00010274FF00109FEF737FA04F5806528461E
:1020D000012100224FF0000BFEF72EFA0A20FEF736
:1020E0000FF9284601210122FEF726FA0A20FEF701
:1020F00007F96420FEF704F940F27008AE20C2F23E
:1021000000088DF8030020461021002288F800B056
:10211000FEF712FA284602210022FEF70DFA40F2DD
:102120007846C2F200060DF10301304601224FF05D
:10213000FF33FEF71BFE204610210122FEF7FCF9BB
:102140004FF0200A2046102100228DF803A0FEF750
:10215000F3F9284602210022FEF7EEF90DF1030102
:10216000304601224FF0FF33FEF700FE20461021DB
:102170000122FEF7E1F92046102100228DF803B07C
:10218000FEF7DAF9284602210022FEF7D5F90DF113
:102190000301304601224FF0FF33FEF7E7FD2046F2
:1021A00010210122FEF7C8F9B0208DF80300204667
:1021B00010210022FEF7C0F9284602210022FEF776
:1021C000BBF90DF10301304601224FF0FF33FEF75A
:1021D000CDFD204610210122FEF7AEF9C8208DF872
:1021E0000300204610210022FEF7A6F9284602210E
:1021F0000022FEF7A1F90DF10301304601224FF054
:10220000FF33FEF7B3FD204610210122FEF794F9BB
:102210002046102100228DF803B0FEF78DF92846E4
:1022200002210022FEF788F90DF103013046012258
:102230004FF0FF33FEF79AFD204610210122FEF7F2
:102240007BF92046102100228DF80370FEF774F907
:10225000284602210022FEF76FF90DF103013046F6
:1022600001224FF0FF33FEF781FD204610210122AD
:10227000FEF762F940208DF803002046102100226D
:10228000FEF75AF9284602210022FEF755F90DF112
:102290000301304601224FF0FF33FEF767FD204671
:1022A00010210122FEF748F981208DF80300204615
:1022B00010210022FEF740F9284602210022FEF7F5
:1022C0003BF90DF10301304601224FF0FF33FEF7D9
:1022D0004DFD204610210122FEF72EF9FF208DF83A
:1022E0000300204610210022FEF726F9284602218D
:1022F0000022FEF721F90DF10301304601224FF0D3
:10230000FF33FEF733FD204610210122FEF714F9BA
:10231000A1208DF80300204610210022FEF70CF9C1
:10232000284602210022FEF707F90DF1030130468D
:1023300001224FF0FF33FEF719FD20461021012244
:10234000FEF7FAF8A6208DF803002046102100229F
:10235000FEF7F2F8284602210022FEF7EDF80DF113
:102360000301304601224FF0FF33FEF7FFFC204609
:1023700010210122FEF7E0F8A8208DF80300204686
:1023800010210022FEF7D8F8284602210022FEF78D
:10239000D3F80DF10301304601224FF0FF33FEF771
:1023A000E5FC204610210122FEF7C6F83F208DF8FB
:1023B0000300204610210022FEF7BEF82846022125
:1023C0000022FEF7B9F80DF10301304601224FF06B
:1023D000FF33FEF7CBFC204610210122FEF7ACF8BC
:1023E000A4208DF80300204610210022FEF7A4F857
:1023F000284602210022FEF79FF80DF10301304626
:1024000001224FF0FF33FEF7B1FC204610210122DC
:10241000FEF792F8D3208DF8030020461021002209
:10242000FEF78AF8284602210022FEF785F80DF112
:102430000301304601224FF0FF33FEF797FC2046A0
:1024400010210122FEF778F82046102100228DF895
:1024500003B0FEF771F8284602210022FEF76CF85F
:102460000DF10301304601224FF0FF33FEF77EFCF1
:10247000204610210122FEF75FF8D5208DF80300D9
:10248000204610210022FEF757F82846022100229C
:10249000FEF752F80DF10301304601224FF0FF33F1
:1024A000FEF764FC204610210122FEF745F8F020DB
:1024B0008DF80300204610210022FEF73DF8284643
:1024C00002210022FEF738F80DF103013046012207
:1024D0004FF0FF33FEF74AFC204610210122FEF7A1
:1024E0002BF8D9208DF80300204610210022FEF79A
:1024F00023F8284602210022FEF71EF80DF1030101
:10250000304601224FF0FF33FEF730FC2046102109
:102510000122FEF711F822208DF803002046102139
:102520000022FEF709F8284602210022FEF704F8EF
:102530000DF10301304601224FF0FF33FEF716FC88
:10254000204610210122FDF7F7FFDA208DF8030065
:10255000204610210022FDF7EFFF2846022100222D
:10256000FDF7EAFF0DF10301304601224FF0FF3382
:10257000FEF7FCFB204610210122FDF7DDFF1220B3
:102580008DF80300204610210022FDF7D5FF2846D4
:1025900002210022FDF7D0FF0DF103013046012298
:1025A0004FF0FF33FEF7E2FB204610210122FDF73A
:1025B000C3FFDB208DF80300204610210022FDF729
:1025C000BBFF284602210022FDF7B6FF0DF10301F3
:1025D000304601224FF0FF33FEF7C8FB20461021A2
:1025E0000122FDF7A9FF2046102100228DF803A04B
:1025F000FDF7A2FF284602210022FDF79DFF0DF105
:102600000301304601224FF0FF33FEF7AFFB2046B7
:1026100010210122FDF790FF8D208DF80300204648
:1026200010210022FDF788FF284602210022FDF735
:1026300083FF0DF10301304601224FF0FF33FEF717
:1026400095FB204610210122FDF776FF14208DF81E
:102650000300204610210022FDF76EFF28460221CC
:102660000022FDF769FF0DF10301304601224FF012
:10267000FF33FEF77BFB204610210122FDF75CFFB4
:10268000AF208DF8030020461021002288F800902A
:10269000FDF752FF284602210022FDF74DFF0DF104
:1026A0000301304601224FF0FF33FEF75FFB204667
:1026B00010210122FDF740FF40F27800C2F2000035
:1026C0004FF48061FDF79EFD00F0DEF8C8F802B01F
:1026D00001B0BDE8F08F0000B2EB000C48BFCCF1B8
:1026E000000C2DE9F04F81B0B3EB010E48BFCEF1E5
:1026F000000E82424FF0FF3B56B2DDF828804FF0CB
:10270000FF3A88BF4FF0010B8B4288BF4FF0010AA0
:10271000002EACEB0E0600932AD43F2B28D803F0F2
:1027200007074FF00109B8F1010F09FA07F903F0A3
:10273000F80713D140F2780802EB0714C2F2000840
:1027400018F80470904247EA090708F8047008BFB7
:10275000994273D0CEF1000914E000BF40F2780432
:1027600002EB0715C2F20004675D27EA0907675507
:10277000904208BF994261D0B8F1010FCEF1000933
:102780002ED100BFCCB23F2C16D844B2002C13D4AB
:10279000C4B201F0F80804EB081440F27808C2F261
:1027A000000801F0070518F80470012303FA05F585
:1027B000009B3D4308F80450B9EB460F3446BCBFBC
:1027C000A4EB0E045844C5B2BCEB460FC4BF514441
:1027D000644495422646D5D1CCB29C42D2D12DE05C
:1027E00040F27804C2F20004CDB23F2D13D845B2B6
:1027F000002D10D4C3B201F0F80703EB071801F065
:10280000070514F80870012303FA05F5009B27EA71
:10281000050504F80850B9EB460F3746BCBFA7EBD7
:102820000E075844C5B2BCEB460FC4BF51446744C1
:1028300095423E46D8D1CDB29D42D5D101B0BDE83A
:10284000F08F0000B8B1022938BF704770B582B070
:1028500014464D42461E00BF16F8021F16F8010C22
:102860007278B3780094FFF737FF0135681CF3D115
:1028700002B0BDE87040704740F27002C2F2000240
:1028800050809180704700002DE9F04F81B040F6F4
:102890000004C4F2010440F2780540F27847C2F225
:1028A000000504F58066C2F200070DF101080DF184
:1028B00002090DF1030A4FF0000B00BFABF150000D
:1028C0008DF80100204610210022FDF735FE30462C
:1028D00002210022FDF730FE3846414601224FF02A
:1028E000FF33FEF743FA204610210122FDF724FEB4
:1028F00000208DF80200204610210022FDF71CFE6A
:10290000304602210022FDF717FE384649460122D3
:102910004FF0FF33FEF72AFA204610210122FDF77F
:102920000BFE10208DF80300204610210022FDF739
:1029300003FE304602210022FDF7FEFD38465146D7
:1029400001224FF0FF33FEF711FA20461021012239
:10295000FDF7F2FD204610210022FDF7EDFD304687
:1029600002210122FDF7E8FD3846294680224FF07A
:10297000FF33FEF7FBF9204610210122FDF7DCFDB5
:102980000BF1010BBBF1080F05F1800596D101B0E9
:10299000BDE8F08F2DE9F04F89B0A0F17F0717F166
:1029A0005F0F13D340F27007C2F20007002B0EBF77
:1029B000CBB2034413F8203C7C88E618802E05D85F
:1029C000090ABF88CDB2E919402903D9002009B00E
:1029D000BDE8F08F002D0493CDE9006000F0328156
:1029E0000498002800F02E810198129E2038684338
:1029F0000390049840F2780B00F0030100F0FC0013
:102A00000023C2F2000B059108900292CDE906570F
:102A10000AE000BF00EA08000BF80100069D013340
:102A2000079FAB4200F00E81D919C8B23F28F5D8F4
:102A300003980127184432F8109001F0070007FAB4
:102A400000FC04988CF0FF0804284FF4786000EA3A
:102A5000011E4FF000010DD20598002840F08D8036
:102A6000DCE700BF05EA08000BF802000898013116
:102A700081427BD08A4609FA0AF562182D04D1B248
:102A80004FEA02650AD5002D13D471441BF801509A
:102A9000012E0AD145EA0C0509E000BF002D08D43B
:102AA00071441BF80150002EF4D005EA08050BF81C
:102AB00001500AF101010F1909FA01F0FDB20004F9
:102AC0004FEA07670AD5002F13D475441BF8057029
:102AD000012E0AD147EA0C0009E000BF002F08D4FC
:102AE00075441BF80570002EF4D007EA08000BF8B7
:102AF0000500013109FA01F7901C3F04C5B24FEA05
:102B0000006709D5002F12D475441BF80570012EFB
:102B100009D147EA0C0008E0002F08D475441BF8DF
:102B20000570002EF5D007EA08000BF8050001310A
:102B300009FA01F5D01C2D04C2B24FEA006509D58F
:102B4000002D3FF593AF72441BF80250012E7FF425
:102B500089AF08E0002D3FF589AF72441BF80250A1
:102B6000002E7FF47FAF45EA0C007DE7029A0AF160
:102B70000401059800283FF451AF01EB040A09FA5B
:102B800001F108045FFA8AF50AD55FEA0A6013D4F6
:102B900075441BF80570012E0AD147EA0C0009E0C4
:102BA0005FEA0A6008D475441BF80570002EF4D063
:102BB00007EA08000BF80500059801283FF42EAF3E
:102BC0000AF101004F04C5B24FEA00670AD5002F91
:102BD00013D475441BF80570012E0AD147EA0C0086
:102BE00009E000BF002F08D475441BF80570002EC3
:102BF000F4D007EA08000BF80500059802283FF416
:102C00000DAF0AF102008904C5B24FEA00610BD58D
:102C100000293FF503AF05EB0E011BF80100012E63
:102C20007FF4F8AE0AE000BF00293FF5F7AE05EBF0
:102C30000E011BF80100002E7FF4ECAE40EA0C0000
:102C4000EAE600BF40F270000099C2F20000418045
:102C5000019809B0BDE8F08F2DE9F04182B01C4623
:102C60000378DBB1DDF8208015460E46471C00BF17
:102C7000D8B231462A462346CDF80080FFF78AFEB7
:102C800017F8011C884204D117F8013B002BEFD143
:102C90000021084602B0BDE8F08100BF00210846CF
:102CA00002B0BDE8F0810000B0B584B0FFF7FEF9D6
:102CB0000020FEF78BFDFFF7E7FD4FF47A70FDF77C
:102CC0001FFB01200124FEF781FDFFF7DDFD4FF41E
:102CD0007A70FDF715FB0020FEF778FD40202021DB
:102CE0000122FEF72DFDFFF7CFFD4FF47A70FDF7BF
:102CF00007FB0020FEF76AFD0A200A21FFF7BCFD52
:102D000045F24430C0F6000090E80E0041200094E7
:102D1000FFF740FEFFF7B8FD4FF47A70FDF7F0FAC9
:102D20000020FEF753FD00200021FFF7A5FD45F22E
:102D30005030C0F6000090E80E004AA00094FFF763
:102D40008BFFFFF7A1FD4FF47A70FDF7D9FA002051
:102D5000FEF73CFD002000217F223F230094FFF777
:102D6000BBFCFFF791FD4FF47A70FDF7C9FA002024
:102D7000FEF72CFDB425402020211E220023CDE9A2
:102D80000054FEF757FAFFF77FFD4FF47A70FDF716
:102D9000B7FA0020FEF71AFD402020211E222D2325
:102DA000CDE90054FEF7EAFAFFF76EFD4FF47A70B2
:102DB000FDF7A6FA0020FEF709FD4020202114228D
:102DC0000123FEF7BBFBFFF75FFD4FF47A70FDF7C1
:102DD00097FA0020FEF7FAFC402020210F22012361
:102DE000FEF702FDFFF750FD4FF47A70FDF788FA09
:102DF00043F26C20C3F21420039043F21420C0F677
:102E0000402002900020FEF7E1FC02A804210122EC
:102E1000FFF718FDFFF738FD4FF47A70FDF770FAF1
:102E20000020FEF7D3FC0A200A21642232230094FA
:102E3000FEF7A2FCFFF728FD4FF47A70FDF760FA69
:102E40000020FEF7C3FC14201421502228230094F4
:102E5000FFF778F8FFF718FD4FF47A70FDF750FA96
:102E600004B0B0BD48656C6C6F204F4C4544000009
:102E70004100080218BF04200A0E18BF40F00100EC
:102E80004FF07F4232EA010108BF40F00200012802
:102E900008BF05207047012100F05FBD00210846F2
:102EA00000F0A4BA6FF05E01080700F056BD000004
:102EB0002DE9F04D0D4614464FF07F41B1EB440F24
:102EC0009EBF4FF0FF312960BDE8F08D4FF000400C
:102ED00040EA0421C4F3C750783810F01F024A4B6F
:102EE0004FEA601CC2F120067B44C4F3C750A0F136
:102EF00078004FEA601003EB800053F82C3008BFD5
:102F0000D0E901C612D0D0F804C093402CFA06F7DD
:102F10003B4387680CFA02FC27FA06F8C06807FAF8
:102F200002F2F0404CEA080C42EA0006A3FB013230
:102F3000ACFB01C0A6FB016101EB0C068E4234BF65
:102F40004FF0010C4FF0000CC1186144BCF1000FB0
:102F500002D0814202D903E0814201D2012000E087
:102F60000020104400F120024FEA92188006CA0C9B
:102F700040EA42304F03C5F8008000F015FB82465E
:102F8000384600F029FB6FF0120100F0E6FC07461E
:102F9000304600F021FB6FF0250100F0DEFC834697
:102FA0003946504600F0BAF9594600F0B7F900F535
:102FB00000666FF30B065146304600F027FC394699
:102FC00000F024FC594600F017FC104900F018FBF3
:102FD00007460F49304600F013FB394600F09EF9D2
:102FE00007460C49304600F00BFB394600F096F9D5
:102FF00014F0004F08BFBDE8F08DC8F1805180F09B
:1030000000402960BDE8F08DEC0A0000DB0FC92FFD
:1030100022AAFD290000C92F2DE9F84304460246E3
:103020004F486946B0EB420F09D94FF0E640B0EB8C
:10303000420F94BF00204FF0FF30009030E0494B2A
:1030400022F00040834271D94749204600F0D8FA67
:1030500000F0A2FB804600F08BFA00F00300009025
:103060004249404600F0CCFA05464149404600F04E
:10307000C7FA06463F49404600F0C2FA07463E49B5
:10308000404600F0BDFA214600F0B6FB394600F09C
:10309000BDFB314600F0BAFB294600F0B7FB044601
:1030A0002546009C002C45DB294614F0010F0846FC
:1030B0001CD000F0A5FA0646304900F0A1FA3049CC
:1030C00000F02CF9314600F09BFA2E4900F026F969
:1030D000314600F095FA294600F092FA294600F0B0
:1030E0001DF914F0020F1CD0BDE8F88300F088FA37
:1030F0000546254900F084FA244900F00FF92946D5
:1031000000F07EFA224900F009F9294600F078FA29
:103110004FF07E5100F002F914F0020F08BFBDE835
:10312000F88380F00040BDE8F883FFE71046FFF722
:10313000BFFEB4E76800B0F17F4F3CBF4FF07E5058
:10314000BDE8F88307D14FF00100FDF78AF8BDE82C
:10315000F843FFF7A3BE2846BDE8F843FFF79BBE40
:10316000B61F927E490E494683F9223F1A61342CDC
:103170000020A23300A0FD390000C93F336D4CB9D7
:10318000DA82083CA0AA2ABEB93AB2BACA9F2A3D3E
:10319000DDFFFFBE2DE9F84304460246524869466A
:1031A000B0EB420F09D94FF0E640B0EB420F94BFAD
:1031B00000204FF0FF30009030E04C4B22F00040F8
:1031C000834271D94A49204600F01AFA00F0E4FA25
:1031D000804600F0CDF900F00300009045494046DC
:1031E00000F00EFA05464449404600F009FA06464A
:1031F0004249404600F004FA07464149404600F083
:10320000FFF9214600F0F8FA394600F0FFFA31469E
:1032100000F0FCFA294600F0F9FA04462546009C25
:10322000002C45DB294614F0010F08461ED000F0A3
:10323000E7F90546334900F0E3F9334900F06EF849
:10324000294600F0DDF9314900F068F8294600F020
:10325000D7F94FF07E5100F061F814F0020F08BF6B
:10326000BDE8F88380F00040BDE8F88300F0C8F9BD
:103270000646274900F0C4F9264900F04FF83146C8
:1032800000F0BEF9244900F049F8314600F0B8F9E1
:10329000294600F0B5F9294600F040F814F0020F75
:1032A000E0D1BDE8F883FFE71046FFF701FEB4E781
:1032B0006800B0F17F4F09D22846FFF7D9FD0428F6
:1032C00008BFFFF7EFFD2846BDE8F88306D10120CF
:1032D000FCF7C7FFBDE8F843FFF7E0BD2846BDE8AF
:1032E000F843FFF7D8BD0000B61F927E490E49464D
:1032F00083F9223F1A61342C0020A23300A0FD394B
:103300000000C93FB93AB2BACA9F2A3DDDFFFFBEED
:10331000336D4CB9DA82083CA0AA2ABE90EA010FAC
:1033200048BF81F0004100F17882421A3CBF801A08
:1033300089184FEAD052A2EBD1534FF07F4C1CEAD0
:10334000410F18BF9CEA026F00F03B804FF0004C29
:103350004CEA00204CEA012121FA03FC10EB0C0C92
:103360001ED202F1FF325FEA1C2040EBC25038BF90
:1033700070471CF07F0F4FEA400C18BFBCF17F4F25
:1033800038BF7047C3F12003994008BF20F0010007
:10339000BCF17F4F38BF7047A0F1C04000F0F7B9D3
:1033A0004FEA3C00000A40EBC25028BF1CF0FF0F60
:1033B0004FEA400CE6D018BFBCF17F4F38BF7047D2
:1033C000EAE79CEA026F05D010EA5C0F08BF00F044
:1033D0000040704710B500F094F900BF64FBBE3E9A
:1033E000014800F088BA00BF0000C07F4FF47F0C96
:1033F0001CEAD0121EBF1CEAD11392EA0C0F93EA0A
:103400000C0F00F0858090EA010F48BF42F48072F3
:1034100040F4000C41F400002CF07F4120F07F408C
:1034200000B5A2EB030281420FF2081CACEB504E38
:103430009EF800E0C0F100004FEA4E0E00FB0EFCCB
:1034400038BF49004FEA2C1C0CFB0EF34FEACE1E8E
:103450000EEB635E4FEA112C0EFB0CFC4FEAC12110
:103460004FEA1C5300FB031102F5FA024FEA112C3C
:103470000EFB0CFC4FEA01314FEADC4C00FB0C1157
:1034800042EB2242C14228BF09184CEB03335DF8DE
:1034900004EB10EB410143EBC250B2F57C0F38BF97
:1034A000704729D512F0F00F1CBF00F1C04000F0AA
:1034B00000407047008182838485868788898B8C51
:1034C0008D8E8F919293959697999A9C9D9FA0A28D
:1034D000A3A5A7A8AAACAEB0B2B3B5B7B9BCBEC0DD
:1034E000C2C5C7C9CCCED1D4D7D9DCDFE2E6E9EC7E
:1034F000F0F3F7FAFE0000004FEA400C0CF1807C7C
:10350000BCF17E4F28BF7047B0F1C04000F03FB91A
:103510000CEAD11390EA010F48BF42F48072624571
:1035200038BF634507D213F47F0F16D080EA01003D
:1035300000F00040704710B500F0E3F8097EFC3E53
:1035400000F005B880EA010000F00040704780EA12
:10355000010000F0004000F01AB912F47F0F04BF20
:103560000248704780EA010000F011B90000C07FF6
:1035700041000B0ED3F19E0208D950F400034FEA2C
:10358000032323FA02F048BF4042704710B500F011
:10359000B8F800BF49922480002070476FF00042C5
:1035A00082EA20007047000010F0004148BF40420E
:1035B000B0FA80F310FA03F2C3F19D030BD051EA85
:1035C000C35101EB1220530638BF704700F10100D0
:1035D00008BF20F001007047B0FA80F310FA03F240
:1035E000C3F19D030AD0D90501EB1220530638BF61
:1035F000704700F1010008BF20F001007047000093
:103600004FF47F0C1CEAD0121EBF1CEAD11392EAC1
:103610000C0F93EA0C0F00F0478090EA010F48BFAF
:1036200042F480724FF0004C4CEA00204CEA012139
:1036300002EB0302A0FB0113A2F50002002918BF50
:1036400043F001035B0028BF4FEA330342EB224201
:103650005FEA132C4CEBC2502EBFBCEB436FB2F5AC
:103660007C0F70474FEA036CBCF1004F08BF20F09D
:103670000100B2F57C0F38BF70470BD582F0FF0216
:1036800012F5803FC8BF704700F1C040D8BF00F0BE
:103690000040704700F5000C5FEA4C0C48BF7047D3
:1036A000B0F1C04000F073B80CEAD11390EA010FFA
:1036B00048BF42F48072624538BF634504D280EA55
:1036C000010000F00040704710B500F01AF800BF8C
:1036D0008900013E00F007B800F009B85FEA410C2C
:1036E0005FEA1C6C08D080EA010000F050B85FEA85
:1036F000400C5FEA1C6CF6D14FF00040A0F5800052
:1037000070470EF1020E2EF0030E5EF8044B2442B9
:1037100004D44FEA4102B2F17F4F11D84FEA40037F
:10372000B3F17F4F0CD80ED14FEAD07C0CEB4C0C90
:103730000CF1020CB2F17F4F08BF4CEBD17C04E0DE
:103740004FF0080C01E04FEAD17C0CEB4C0324FA5B
:1037500003F404F00704B4F1040C06D20EEB840C5D
:10376000BDE810404CF0010C6047DFE80CF00708A2
:1037700002024FF00040A0F5800010BD0846420054
:1037800018BFD2F1807288BF00F0004010BDFF2149
:1037900041EAD050C00570475FEA400C5FEA1C6CFC
:1037A000BCF17F0314D4D3F1170240F31C804FF017
:1037B000010C0CFA02FCACF10103034020EA030007
:1037C000B3EB5C0208BF10EA0C0F88BF604470477F
:1037D000B3F1FF3F28BF5FEA002C00F0004088BF34
:1037E00040F07E507047BCF1FF0FB8BF704710B576
:1037F000FFF787FF40DBB6BE80F0004090EA010F84
:103800007FF593AD81F0004100F007B890EA010F19
:1038100048BF81F000413FF588AD421A04D882F0DC
:103820000042A0EB020011444FEAD052A2EBD15368
:103830004FF07F4C1CEA410F18BF9CEA026F4AD040
:103840004FF0004C4CEA00204CEA012121FA03FC25
:10385000B0EB0C0C0FD412F0FE0F36D05FEA4C0028
:103860001DD5001240EBC25038BF70471CF03F0F0F
:1038700018BF70470BE05FEA1C20A2F1010240EB89
:10388000C25038BF70471CF07F0F18BF7047C3F19C
:103890002003994014BF401E20F0010070474FEAFA
:1038A0001223800808BF7047B0FA80FCA2EB0C021C
:1038B000CCF1280C60FA0CF093EA122F04BF00EB55
:1038C000C25070474FEAC3707047130A5FEADC10BA
:1038D00008BF7047F6E79CEA026F04D010EA5C0F5D
:1038E00008BF0020704710B5FFF70BFF40DFF63E22
:1038F00081F0004070470CF00F03092B08BF08202F
:1039000000F051800A2B0BD0082B18BF704708BF5E
:103910001CF0400F0AD04FF000004FF0000170473C
:103920001CF0400F18BF4FF0004070471CF0100F04
:1039300008D000F07F4220F0704342EAD3014FEA02
:103940004370704700F0604021F07F4242EA00027D
:1039500001F07F4040EA727070474FF0FF0212EAB8
:10396000D0521CBF92F0FF038B42C2BFD14200EB8A
:10397000C1507047002A0AD0002B0BD000F0004045
:103980000029A4BF40F0FE4040F40000704700F062
:103990000040704743024FF00B0C18BF4CF0806C96
:1039A0007FF41EAD70471CF4801F11D01CF4E02F73
:1039B00003D06FEACC31490070474FF04050EFF32D
:1039C000008222F0704242EA000282F300887047CF
:1039D0004FF0000070470000000000006E83F9A265
:1039E0002915444ED15727FCC0DD34F5999562DB8B
:1039F0004190433CAB6351FE00000000000000001A
:103A0000010203040607080900000000000000008E
:103A100000000000000000000000000000000000A6
:103A20000000000000000000000000000000000096
:103A3000000000000000000000000000E003E003C0
:103A4000E003E003E003E003E003E003C003C0039E
:103A5000C001C001C001C001C001000000000000A1
:103A6000E003E003E00300000000000000000000AD
:103A70003C1E3C1E3C1E3C1E3C1E3C1E3C1E0000D0
:103A80000000000000000000000000000000000036
:103A90000000000000000000000000000000000026
:103AA00000000000CE01CE03DE039E039C039C07B2
:103AB000FF3FFF7F3807380F780F780F780EFFFF32
:103AC000FFFFF01EF01CE01CE03CE03DE039000090
:103AD0000000000000000000FC03FE0FEE1FE01ECF
:103AE000E01EE01EE01EE01FE00FE007F003FC0117
:103AF000FE01FE01FE01FE01FE01FE01FE3DFC3F56
:103B0000F00FE001E001000000000000033E07F7B5
:103B10008FE78EE79EE3BCE3B8E7F8E7F0F7E03F16
:103B2000C001FF03FF07F307F30FF31EF33CF33865
:103B3000F3787FF03FE0000000000000000000008C
:103B4000E007F80F780F781F781F781F780FF00FB5
:103B5000E00F801FC37FC3FBE7F3F7F1F7F0FFF03F
:103B60007FF03EF87F7CFF3FEF1F00000000000069
:103B700000000000E003E003E003E003E003C00313
:103B8000C001000000000000000000000000000074
:103B90000000000000000000000000000000000025
:103BA00000000000000000003F007C00F001E00188
:103BB000C003C00780078007800F000F000F000FB1
:103BC000000F000F000F800F80078007C007C003A1
:103BD000E001F0017C003F000F000000007E001FAC
:103BE000C007C003E001F001F000F000F800780029
:103BF00078007800780078007800F800F000F00095
:103C0000F001E001C003C007001F007E0078000043
:103C1000E003C003C001CE39FF3F7F3F20037003A4
:103C2000F807780F3C1F3806000000000000000075
:103C30000000000000000000000000000000000084
:103C40000000000000000000000000000000000074
:103C5000C001C001C001C001C001C001C001FFFF1F
:103C6000FFFFC001C001C001C001C001C0010000D0
:103C70000000000000000000000000000000000044
:103C80000000000000000000000000000000000034
:103C900000000000000000000000E003E003E0037B
:103CA000E003E001E001E001C0018003000000004A
:103CB0000000000000000000000000000000000004
:103CC0000000FE3FFE3F000000000000000000007A
:103CD00000000000000000000000000000000000E4
:103CE00000000000000000000000000000000000D4
:103CF00000000000000000000000000000000000C4
:103D00000000E003E003E003E00300000000000027
:103D1000000000000F000F001E001E003C003C00D1
:103D200078007800F000F000E001E001C003C0037B
:103D300080078007000F000F001E001E003C003CA3
:103D40000078007800F00000F007F80F7C1F3E3E7E
:103D50001E3C1F7C1F7C0F780F780F780F780F7830
:103D60000F780F781F7C1F7C1E3C3E3E7C1FF80F97
:103D7000F00700000000000000000000F000F00765
:103D8000F03FF03FF001F001F001F001F001F0012F
:103D9000F001F001F001F001F001F001F001F0019B
:103DA000F001FF3FFF3F00000000000000000000A6
:103DB000E00FF83F7C3C3C003E003E003E003C00F3
:103DC0003C007C00F800F001E003C0078007000F12
:103DD000001E003E003CFE3FFE3F000000000000D1
:103DE00000000000F00FF81F7C1C3E003E003E006B
:103DF0003C003C00F800F00FF80F7C003E001E0075
:103E00001E001E001E003E007C1CF81FE01F00006C
:103E100000000000000000007800F800F800F80141
:103E2000F803F807F807780F781E781E783C787842
:103E30007878FFFFFFFF780078007800780078003E
:103E4000780000000000000000000000FC1FFC1FC4
:103E5000FC1F001E001E001E001E001EE01FF81F9B
:103E6000FC007C003E003E001E003E003E003C0088
:103E70007C1CF81FE01F0000000000000000000094
:103E8000FC01FE078E0F001F001E003E003C003CA0
:103E9000F83DFC3F3E7F1F7E0F3C0F3C0F3C0F3C2C
:103EA0000F3E1F1E3E1FFC0FF0030000000000002D
:103EB00000000000FF3FFF3FFF3F0F001E001E00FD
:103EC0003C0038007800F000F000E001E001C003A1
:103ED000C0038007800F800F000F001F001F00002D
:103EE0000000000000000000F807FC0F3E1F1E1E2F
:103EF0001E3E1E3E1E1E3C1FF80FF007F80FFC1E54
:103F00003E3E1F3C1F7C0F7C0F7C1F3C3E3FFC1F36
:103F1000F00700000000000000000000F007F80FAC
:103F20007C1E3E3C1E3C1F7C1F7C1F7C1F7C1F3C5C
:103F30003F3EFF1FEF071F001E001E003E003C001B
:103F4000F838F03FE01F0000000000000000000013
:103F5000000000000000000000000000E003E0039B
:103F6000E003E0030000000000000000000000008B
:103F70000000E003E003E003E003000000000000B5
:103F80000000000000000000000000000000000031
:103F9000E003E003E003E003000000000000000095
:103FA000000000000000E003E003E003E003E001A4
:103FB000E001E001C00380030000000000000000F9
:103FC0000000000003000F003F00FC00F003C00FE2
:103FD000003F00FE003FC00FF003FC003F000F0059
:103FE00003000000000000000000000000000000CE
:103FF00000000000000000000000000000000000C1
:10400000FFFFFFFF000000000000FFFFFFFF0000B8
:1040100000000000000000000000000000000000A0
:1040200000000000000000000000000000E000F8B8
:10403000007E801FE007F8017E001F007E00F8016F
:10404000E007801F007E00F800E000000000000094
:1040500000000000F01FFC3F3E381F381F381E00D4
:104060001E003C007800F000E001C003C003C00760
:10407000C007000000000000C007C007C007000024
:104080000000000000000000F803FE0F1E1F0F3E9E
:104090007F3CFF78EF79C773C7F38FF38FF38FF30C
:1040A0009FF39FF3FF73FF7BF779003C1C1FFC0F0E
:1040B000F803000000000000000000000000000005
:1040C0000000E003E003F007F007F007780F780F37
:1040D0007C0E3C1E3C1E3E3CFE3FFF3F1F780F788F
:1040E0000FF007F007F000000000000000000000E3
:1040F000000000000000F83FFC3F3E3C1E3C1E3C20
:104100001E3C3E3C7C3CF03FF83F7E3C1F3C1F3C4D
:104110000F3C0F3C1F3CFE3FF83F0000000000003A
:1041200000000000000000000000FF01FF07871FE3
:10413000003E003C007C0078007800780078007831
:10414000007C007C003E003F831FFF07FF01000052
:104150000000000000000000000000000000F07FF0
:10416000FC7F7E781F781F780F780F780F780F7894
:104170000F780F780F780F781F781E787E78F87F89
:10418000E07F0000000000000000000000000000D0
:104190000000FF3FFF3F003E003E003E003E003E6D
:1041A000003EFE3FFE3F003E003E003E003E003E21
:1041B000003EFF3FFF3F0000000000000000000045
:1041C000000000000000FF1FFF1F001E001E001E59
:1041D000001E001E001EFF1FFF1F001E001E001EEF
:1041E000001E001E001E001E001E00000000000039
:1041F00000000000000000000000FE03FF0F871F0A
:10420000003E007C007C007800F800F87FF87FF822
:104210000F780F7C0F7C0F3E8F1FFF0FFE030000F7
:1042200000000000000000000000000000001F7CF3
:104230001F7C1F7C1F7C1F7C1F7C1F7C1F7CFF7FC3
:10424000FF7F1F7C1F7C1F7C1F7C1F7C1F7C1F7CB3
:104250001F7C0000000000000000000000000000C3
:104260000000FC3FFC3FE003E003E003E003E00369
:10427000E003E003E003E003E003E003E003E00326
:10428000E003FC3FFC3F00000000000000000000D5
:10429000000000000000FC1FFC1F7C007C007C0074
:1042A0007C007C007C007C007C007C007C007C002E
:1042B00078007800F838F03FC03F000000000000B0
:1042C000000000000000000000001F3C1E3C3C3CC1
:1042D000783CF03CE03DE03FC03F803FC03FE03FE6
:1042E000F03DF03C783C7C3C3E3C1F3C0F3C0000E9
:1042F0000000000000000000000000000000003E80
:10430000003E003E003E003E003E003E003E003EBD
:10431000003E003E003E003E003E003E003EFC3FB0
:10432000FC3F000000000000000000000000000052
:1043300000001FF81FFC1FFC3FFE3FFE3FFE7FFFFB
:1043400077FF77FFF7F7E7F7E7F3E7F3C7F307F050
:1043500007F007F007F00000000000000000000078
:104360000000000000000F7C0F7C0F7E0F7F0F7F8E
:104370008F7F8F7FCF7FEF7BEF79FF79FF78FF789B
:104380007F783F783F781F781F780000000000009A
:1043900000000000000000000000F007FC1F3E3E8F
:1043A0001F7C0F780F780FF80FF80FF80FF80FF841
:1043B0000FF80F780F781F7C3E3EFC1FF0070000BF
:1043C0000000000000000000000000000000FC3FB2
:1043D000FF3F1F3E0F3E0F3E0F3E0F3E1F3E3F3E34
:1043E000FC3FF03F003E003E003E003E003E003EEF
:1043F000003E00000000000000000000000000007F
:104400000000F007FC1F3E3E1F7C0F780F780FF86E
:104410000FF80FF80FF80FF80FF80F780F781F7CD0
:104420003E3EFC1FF8077C003F000F000300000029
:10443000000000000000F03FFC3F7E3C3E3C1E3C84
:104440001E3C3E3C3C3CFC3CF03FE03FF03DF83C39
:104450007C3C3E3C1E3C1F3C0F3C0000000000002A
:1044600000000000000000000000FC07FE1F0E3EE0
:10447000003C003C003C003EC01FF80FFE037F00E4
:104480001F000F000F001F203E3CFC3FF01F0000EC
:104490000000000000000000000000000000FFFF1E
:1044A000FFFFE003E003E003E003E003E003E003D9
:1044B000E003E003E003E003E003E003E003E003E4
:1044C000E003000000000000000000000000000009
:1044D00000000F7C0F7C0F7C0F7C0F7C0F7C0F7C0F
:1044E0000F7C0F7C0F7C0F7C0F7C0F7C1E3C1E3CD6
:1044F0003E3EFC1FF007000000000000000000002E
:1045000000000000000007F007F007F80F780F7CAC
:104510001E3C1E3C1E3E3C1E3C1F781F780FF80FB1
:10452000F007F007F007E003E003000000000000E0
:104530000000000000000000000003E003F003F0B2
:1045400007F0E7F3E7F3E7F3E773F77BF77FFF7F26
:104550007F7F7F7F7E7F7E3F3E3E3E3E3E3E000031
:10456000000000000000000000000000000007F84C
:104570000F7C1E3E3E3E3C1FF80FF007E007E003B5
:10458000E003F007F80F7C0F7C1E3E3C1F780F788D
:104590000FF000000000000000000000000000001C
:1045A000000007F807780F7C1E3C1E3E3C1F780F6A
:1045B000F80FF007E003E003E003E003E003E003AB
:1045C000E003E003E0030000000000000000000042
:1045D000000000000000FF7FFF7F0F001F003E0073
:1045E0007C00F800F000E001E003C007800F000F3E
:1045F000001E003E007CFF7FFF7F000000000000E7
:1046000000000000FF078007800780078007800701
:104610008007800780078007800780078007800762
:104620008007800780078007800780078007800752
:104630008007FF07FF07000000780078003C003C7F
:10464000001E001E000F000F80078007C003C0037C
:10465000E001E001F000F000780078003C003C0050
:104660001E001E000F000F0007000000F07FF0008A
:10467000F000F000F000F000F000F000F000F000BA
:10468000F000F000F000F000F000F000F000F000AA
:10469000F000F000F000F000F000F07FF07F00008C
:1046A000C000C001C001E003E003F007F007780795
:1046B000780F380F3C1E3C1E1E3C1E3C0F380F78F6
:1046C000077800000000000000000000000000006B
:1046D00000000000000000000000000000000000DA
:1046E00000000000000000000000000000000000CA
:1046F0000000000000000000000000000000FFFFBC
:10470000FFFF000000000000F000000000000000BB
:104710000000000000000000000000000000000099
:104720000000000000000000000000000000000089
:104730000000000000000000000000000000000079
:104740000000000000000000F80FFC3F7C3C3E0031
:104750003E003E00FE07FE1F3E3E3E7C3E783E7C15
:104760007E7CFF3FCF1F0000000000000000000023
:10477000003C003C003C003C003C003CF83DFE3F5F
:104780003E3F1F3E0F3C0F3C0F3C0F3C0F3C0F3C8D
:104790001F3C1E3C3E3FFC3FF03B00000000000081
:1047A0000000000000000000000000000000000009
:1047B000FE03FF0F871F003E003E003C007C007C94
:1047C000007C003C003E003E871FFF0FFE03000000
:1047D00000000000000000001F001F001F001F005D
:1047E0001F001F00FF07FF1F3F3E1F3C1F7C1F7C59
:1047F0001F7C1F781F781F7C1F7C3F3C7F3EFF1F64
:10480000DF0F0000000000000000000000000000BA
:104810000000000000000000F803FC0F3E1F1E3ED9
:104820001F3C1F7CFF7FFF7F007C007C003C003E24
:10483000071FFF0FFE030000000000000000000043
:10484000FF01E103C003C007C007C007FF7FFF7F70
:10485000C007C007C007C007C007C007C007C00720
:10486000C007C007C007C007C00700000000000065
:104870000000000000000000000000000000000038
:10488000EF07FF1F7F3E1F3C1F7C1F7C1F781F7898
:104890001F781F7C1F7C3F3C7F3EFF1FDF0F1E00E9
:1048A0001E001E007C38F83F003C003C003C003CF1
:1048B000003C003CFC3DFE3F9E3F1F3F1F3E1F3C17
:1048C0001F3C1F3C1F3C1F3C1F3C1F3C1F3C1F3C10
:1048D0001F3C00000000000000000000F001F0019B
:1048E0000000000000000000E07FE07FE001E00148
:1048F000E001E001E001E001E001E001E001E001B0
:10490000E001E001E0010000000000000000000004
:10491000F800F8000000000000000000F83FF83F39
:10492000F800F800F800F800F800F800F800F800C7
:10493000F800F800F800F800F800F800F800F000BF
:10494000F071E07F003C003C003C003C003C003C3F
:104950001F3C3E3C7C3CF83CF03DE03DC03FC03F4E
:10496000E03FF03DF83C7C3C3E3C1F3C1F3C0000DF
:104970000000000000000000F07FF001F001F001F5
:10498000F001F001F001F001F001F001F001F0019F
:10499000F001F001F001F001F001F001F001F0018F
:1049A000F001000000000000000000000000000016
:1049B00000000000000000009EF7FFFFFFFFFFFF68
:1049C000E7FBE7F9C7F1C7F1C7F1C7F1C7F1C7F1D5
:1049D000C7F1C7F1C7F100000000000000000000AF
:1049E000000000000000000000000000FC3DFE3F51
:1049F0009E3F1F3F1F3E1F3C1F3C1F3C1F3C1F3C58
:104A00001F3C1F3C1F3C1F3C1F3C000000000000DF
:104A10000000000000000000000000000000000096
:104A2000F007FC1F3E3E1F3C1F7C0F780F780F786D
:104A30000F780F781F7C1F3C3E3EFC1FF0070000E4
:104A40000000000000000000000000000000000066
:104A500000000000F83DFE3F3E3F1F3E0F3C0F3C74
:104A60000F3C0F3C0F3C0F3C1F3C1E3E3E3FFC3FAB
:104A7000F83F003C003C003C003C003C00000000D3
:104A80000000000000000000EE07FE1F7E3E1E3CFE
:104A90001E7C1E781E781E781E781E781E7C3E7C3A
:104AA0007E3EFE1FDE0F1E001E001E001E001E00AA
:104AB0000000000000000000000000007F1FFF1F3A
:104AC000E71FC71F871F001F001F001F001F001FB9
:104AD000001F001F001F001F001F0000000000003B
:104AE00000000000000000000000000000000000C6
:104AF000FC07FE1F0E1E003E003E003FE01FFC07AD
:104B0000FE003E001E001E003E3CFC3FF01F000069
:104B1000000000000000000000000000000080070E
:104B200080078007FF7FFF7F80078007800780075F
:104B3000800780078007800780078007C007FF0382
:104B4000FF01000000000000000000000000000065
:104B500000000000000000001E3C1E3C1E3C1E3CED
:104B60001E3C1E3C1E3C1E3C1E3C1E3C3E3C7E3CF5
:104B7000FE3EFE1FDE0F00000000000000000000EF
:104B800000000000000000000000000007F00F78A7
:104B90000F781E3C1E3C1E3E3C1E3C1E780F780FBC
:104BA000F00FF007F007E003E00300000000000052
:104BB00000000000000000000000000000000000F5
:104BC00003F0E3F1E3F3E7F3F7F3F7F3F77F777F2E
:104BD0007F7F7F7F7F7F3E3E3E3E3E3E3E3E0000EB
:104BE00000000000000000000000000000000000C5
:104BF000000000000F7C1E3E3C3E3C1FF80FF007FB
:104C0000F007E003F007F807F80F7C1E3E3E1F3C5C
:104C10001F780000000000000000000000000000FD
:104C2000000000000000000007F80F780F7C1E3C19
:104C30001E3C3C1E3C1E3C1F780FF80FF007F0078F
:104C4000E003E003C003C003C0038007800F007FC0
:104C5000000000000000000000000000FF3FFF3FD8
:104C60001F003E007C00F800F001E003C007800F49
:104C7000001F001E003CFF7FFF7F000000000000BF
:104C800000000000FE01E003C003C003C003C00336
:104C9000E001E001E001C001C003803F803FC003AC
:104CA000C001E001E001E001C003C003C003C00394
:104CB000E003FE017E000000C001C001C001C00190
:104CC000C001C001C001C001C001C001C001C001DC
:104CD000C001C001C001C001C001C001C001C001CC
:104CE000C001C001C001C001C0010000C03FE0031D
:104CF000E001E001E001E001C001C003C003C00128
:104D0000E001FE00FE00E001C001C003C003C001DD
:104D1000E001E001E001E001E003C03F003F0000EE
:104D20000000000000000000000000000000000083
:104D3000000000000000073FC77FE773FFF17EF02F
:104D40000000000000000000000000000000000063
:104D50000000000000000000000000000000000053
:104D600000000000002000200020002000200000A3
:104D70000020000000500050005000000000000023
:104D8000000000000050005000F8005000F80050F3
:104D9000005000000020007800A00070002800F003
:104DA0000020000000C000C8001000200040009853
:104DB00000180000004000A000A0004000A80090E3
:104DC00000680000003000300020004000000000BB
:104DD00000000000001000200040004000400020C3
:104DE0000010000000400020001000100010002003
:104DF00000400000002000A8007000F8007000A82B
:104E00000020000000000020002000F8002000200A
:104E10000000000000000000000000000030003032
:104E20000020000000000000000000F8000000006A
:104E30000000000000000000000000000000003042
:104E4000003000000000000800100020004000803A
:104E50000000000000700088009800A800C80088CA
:104E600000700000002000600020002000200020D2
:104E70000070000000700088000800700080008052
:104E800000F8000000F8000800100030000800885A
:104E900000700000001000300050009000F800107A
:104EA0000010000000F8008000F0000800080088F2
:104EB0000070000000380040008000F0008800888A
:104EC0000070000000F800080008001000200040FA
:104ED0000080000000700088008800700088008852
:104EE0000070000000700088008800780008001042
:104EF00000E0000000000000002000000020000092
:104F00000000000000000000002000000020002041
:104F100000400000000800100020004000200010A9
:104F2000000800000000000000F8000000F8000089
:104F300000000000004000200010000800100020C9
:104F400000400000007000880008003000200000D1
:104F5000002000000070008800A800B800B00080A9
:104F600000780000002000500088008800F80088C9
:104F70000088000000F00088008800F000880088A9
:104F800000F0000000700088008000800080008831
:104F90000070000000F00088008800880088008809
:104FA00000F0000000F80080008000F00080008029
:104FB00000F8000000F80080008000F00080008011
:104FC0000080000000780088008000800098008841
:104FD0000078000000880088008800F800880088B9
:104FE0000088000000700020002000200020002029
:104FF0000070000000380010001000100010009039
:10500000006000000088009000A000C000A0009098
:105010000088000000800080008000800080008008
:1050200000F80000008800D800A800A800A80088A8
:10503000008800000088008800C800A80098008848
:1050400000880000007000880088008800880088C0
:105050000070000000F00088008800F000800080F0
:1050600000800000007000880088008800A8009080
:105070000068000000F00088008800F000A00090A8
:105080000088000000700088008000700008008820
:105090000070000000F800A8002000200020002080
:1050A00000200000008800880088008800880088B0
:1050B0000070000000880088008800880088005088
:1050C0000020000000880088008800A800A800A830
:1050D0000050000000880088005000200050008828
:1050E0000088000000880088005000200020002078
:1050F0000020000000F80008001000700040008050
:1051000000F80000007800400040004000400040EF
:10511000007800000000008000400020001000081F
:1051200000000000007800080008000800080008DF
:1051300000780000002000500088000000000000FF
:10514000000000000000000000000000000000005F
:1051500000F8000000600060002000100000000067
:1051600000000000000000000060001000700090CF
:10517000007800000080008000B000C8008800C8EF
:1051800000B000000000000000700088008000886F
:10519000007000000008000800680098008800986F
:1051A00000680000000000000070008800F8008027
:1051B0000070000000100028002000700020002077
:1051C00000200000000000000070009800980068B7
:1051D000000800000080008000B000C8008800883F
:1051E0000088000000200000006000200020002057
:1051F000007000000010000000100010001000906F
:105200000060000000800080009000A000C000A0AE
:1052100000900000006000200020002000200020FE
:10522000007000000000000000D000A800A800A846
:1052300000A800000000000000B000C8008800883E
:1052400000880000000000000070008800880088CE
:10525000007000000000000000B000C800C800B0EE
:1052600000800000000000000068009800980068BE
:10527000000800000000000000B000C800800080AE
:10528000008000000000000000780080007000082E
:1052900000F000000020002000F80020002000287E
:1052A00000100000000000000088008800880098BE
:1052B000006800000000000000880088008800509E
:1052C00000200000000000000088008800A800A85E
:1052D0000050000000000000008800500020005036
:1052E00000880000000000000088008800780008A6
:1052F000008800000000000000F8001000200040BE
:1053000000F80000001000200020004000200020D5
:1053100000100000002000200020000000200020DD
:10532000002000000040002000200010002000208D
:1053300000400000004000A8001000000000000035
:1053400000000000101A0000083A000800000000E9
:1053500006080000544D000800000000010202038E
:105360000405060708090A0B0C0D0E0F10100000AB
:1053700090530008000000201000000050010008B9
:10538000A053000810000020C80A000070010008A7
:10539000010000001000000000127A000000000070
:04000005080000ED02
:00000001FF
