:020000040800F2
:10000000E0060020890100085B1300087F0F00084C
:10001000591300088B020008CF14000800000000EC
:10002000000000000000000000000000691400084B
:100030008D020008000000005D1300086B1400082A
:10004000A3010008A3010008A3010008A301000800
:10005000A3010008A3010008A3010008A3010008F0
:10006000A3010008A3010008A3010008A3010008E0
:10007000A3010008A3010008A3010008A3010008D0
:10008000A3010008A3010008A3010008A3010008C0
:10009000A3010008A3010008A3010008A3010008B0
:1000A000A3010008A3010008A3010008A3010008A0
:1000B000A3010008A3010008A3010008A301000890
:1000C000A3010008A3010008A301000861130008B0
:1000D000A3010008A3010008A3010008A301000870
:1000E000A3010008A3010008A301000800F002F822
:1000F00000F03AF80AA090E8000C82448344AAF188
:100100000107DA4501D100F02FF8AFF2090EBAE885
:100110000F0013F0010F18BFFB1A43F0010318473B
:1001200088710000A8710000103A24BF78C878C117
:10013000FAD8520724BF30C830C144BF04680C60ED
:10014000704700000023002400250026103A28BF35
:1001500078C1FBD8520728BF30C148BF0B60704739
:100160001FB51FBD10B510BD00F058F81146FFF7C0
:10017000F7FF01F0BDF900F076F803B4FFF7F2FFE6
:1001800003BC00F07BF8000009488047094800479D
:10019000FEE7FEE7FEE7FEE7FEE7FEE7FEE7FEE737
:1001A000FEE7FEE704480549054A064B7047000094
:1001B000CD140008ED000008E0000020E00600205B
:1001C000E0020020E00200204FF0000200B51346DC
:1001D00094469646203922BFA0E80C50A0E80C5067
:1001E000B1F12001BFF4F7AF090728BFA0E80C5018
:1001F00048BF0CC05DF804EB890028BF40F8042B11
:1002000008BF704748BF20F8022B11F0804F18BF7D
:1002100000F8012B7047704770477047754600F033
:1002200029F8AE4605006946534620F0070085468A
:1002300018B020B5FFF7B6FFBDE820404FF000062C
:100240004FF000074FF000084FF0000B21F00701BE
:10025000AC46ACE8C009ACE8C009ACE8C009ACE801
:10026000C0098D4670470446AFF300802046FFF773
:1002700084FF0000004870478000002001491820DA
:10028000ABBEFEE7260002007047FEE770472DE98F
:10029000FF4F804683B00F4615B20024C2F1010023
:1002A00006B2A54256DB08EB0500019007EB040AF5
:1002B0001FFA8AF180B2069A00F01DFF08EB0400D5
:1002C00007EB050900901FFA89F180B2069A00F049
:1002D00012FFA8EB040B1FFA89F11FFA8BF0069AA4
:1002E00000F009FFA8EB05091FFA8AF11FFA89F04F
:1002F000069A00F000FFA7EB040A1FFA8AF11FFA22
:1003000089F0069A00F0F7FEA7EB05091FFA89F1BC
:100310001FFA8BF0069A00F0EEFE00981FFA89F1A2
:1003200080B2069A00F0E7FE01981FFA8AF180B2C7
:10033000069A00F0E0FE641C24B2002E03DC06EBFB
:100340004400401CACE76D1E2DB2601B06EB400064
:10035000801CA5E707B0BDE8F08F72B6FEE700008D
:1003600010B590F821100024022903D004218163E4
:1003700001243DE001680A6822F00E020A6001686B
:100380000A6822F001020A601A4A0168914201D10A
:10039000012121E0174A1432914201D110211BE0C2
:1003A000144A2832914201D1891515E0114A3C3294
:1003B000914201D189140FE00E4A5032914202D18C
:1003C0004FF4803108E00B4A6432914202D14FF47D
:1003D000801101E04FF08071064A083A5160012116
:1003E00080F82110002180F82010416B01B188476E
:1003F000204610BD0800024070B5044600F004F924
:100400000546601C02D004480078044400F0FCF863
:10041000401BA042FAD370BD180000202DE9F84F10
:10042000DFF8B8910024A9F1040B23460F2709F146
:10043000040AABF1040EC9E00125A5402A40AA42F6
:100440007DD1674ED1F804C0ACEB0608B44532D07C
:1004500014DCBCF1030F3AD009DCBCF1000F2AD048
:10046000BCF1010F1CD0BCF1020F31D11DE0BCF179
:10047000110F17D0BCF1120F2AD119E0B8F5881F5F
:1004800019D006DCB8F5803F15D0B8F5801F1FD114
:1004900011E0B8F5001F0ED0B8F5041F18D10AE01E
:1004A000CB6815E0CB681B1D12E0CB6808330FE06A
:1004B000CB680C330CE08B682BB1012B4FF0080399
:1004C00003D0456104E0042302E0056100E000235D
:1004D000FF2A01D8064601E000F104064FEA840530
:1004E00001D9A5F12005D6F8008007FA05FC28EA15
:1004F0000C0803FA05F548EA0508C6F800804D68BF
:10050000ED0062D5374DAE6946F00106AE61AD69CA
:1005100024F0030605F001050095334D06EB050CAC
:10052000DCF80850A607360F07FA06F825EA080592
:10053000DFF8B880404503D14FF0000817E044E0F1
:10054000DFF8AC80404502D14FF001080FE0DFF842
:10055000A480404502D14FF0020808E0DFF89880FF
:10056000404502D14FF0030801E04FF0040808FABB
:1005700006F848EA0508CCF808804D68D9F800600C
:10058000ED024D4601D5164300E096432E604D68BE
:10059000DAF80060AD02554601D5164300E09643F7
:1005A0002E604D68DBF80060AD035D4601D5164353
:1005B00000E096432E604D68DEF80060ED0375465E
:1005C00001D5164300E096432E60641C0D682A4650
:1005D000E5407FF431AFBDE8F88F0000080401402A
:1005E000000011100010024000000140000801400E
:1005F000000C014000100140001401400AB10161EB
:1006000070470904FBE7000001488068704700005C
:100610001800002002488168027811448160704708
:1006200018000020074810B5016841F01001016072
:10063000032000F075F80F2000F006F800F024F811
:10064000002010BD0020024070B50D4D04464FF44F
:100650007A712878B1FBF0F00A490968B1FBF0F033
:1006600000F079FC48B9102C07D200222146501E18
:1006700000F036F800206C6070BD012070BD0000F5
:1006800018000020240000200C4808B5816941F0C2
:1006900001018161816901F001010091C16941F0AD
:1006A0008051C161C06900F08050009004484168E9
:1006B00021F0E06141F00071416008BD001002408E
:1006C00000000140002809DB00F01F0201219140D9
:1006D0004009800000F1E020C0F8001170470000E0
:1006E000F0B40E4B1B680C46C3F30223C3F107059D
:1006F000042D00D90425191D072901D2002300E08B
:10070000DB1E012606FA05F1491E214099409E4054
:10071000761E16403143F0BC00F0DABE0CED00E06E
:10072000064900F0070208684FF6FF03184040EA48
:100730000220034A10430860704700000CED00E0FF
:100740000000FA052DE9F0470F46050061D0434E41
:10075000306800F00700B84209D2306820F0070086
:1007600038433060306800F00700B84251D1286843
:100770003B4C810712D5400703D5606840F4E06028
:1007800060602878000703D5606840F460506060BE
:100790006068A96820F0F000084360602878C0070E
:1007A00028D06868012810D02168022810D0890755
:1007B00000292EDA616821F0030101436160FFF72F
:1007C00023FF804641F288390DE021688903EFE775
:1007D0008901EDE7FFF718FFA0EB0801494502D9B1
:1007E0000320BDE8F0876068696800F00C00B0EB9A
:1007F000810FEFD1306800F00700B8420BD93068A4
:1008000020F0070038433060306800F00700B8423D
:1008100001D00120E5E72878400705D56068E96840
:1008200020F4E060084360602878000706D560681F
:10083000296920F4605040EAC100606000F018F8B7
:100840006168084AC1F30311515CC8400649086059
:1008500006480068FFF7F8FE0020C2E700200240CB
:100860000010024095720008240000201C000020A7
:100870000E4A51680E4801F00C03042B11D0082BCE
:100880000FD10C48C1F38343C903C05C0AD551683A
:10089000084AC1F34041921E515C054A5043B0FBE7
:1008A000F1F07047044948437047000000100240CF
:1008B00000127A008572000800093D002DE9F84F0A
:1008C000040070D02078C04DC00749D06868C0F3DC
:1008D0008100012807D06868C0F38100022809D18F
:1008E0006868C00306D52868800339D56068002889
:1008F000E7D035E06068B0F5803F0BD010B1B0F5BF
:10090000A02F11D0286820F480302860286820F4B7
:10091000802002E0286840F480302860606890B150
:10092000FFF772FE06460AE0286840F4802028603F
:10093000F0E700BFFFF768FE801B642873D82868C3
:100940008003F7D50CE0FFF75FFE064605E000BF29
:10095000FFF75AFE801B6428F0D828688003F7D47C
:1009600020789A4E80074FF001094FF0000839D5E2
:10097000686810F00C0F07D06868C0F38100022887
:1009800009D16868C00306D42868800714D5206997
:10099000012808D110E02069B0B1C6F80090FFF737
:1009A00033FE074605E00AE1FFF72EFEC01B0228D2
:1009B000C4D828688007F7D52868616920F0F80056
:1009C00040EAC10028600DE0C6F80080FFF71CFE79
:1009D000074604E0FFF718FEC01B022823D828684A
:1009E0008007F7D4207800072CD57948A169D9B1C0
:1009F000C0F80090FFF708FE074604E0FFF704FE8A
:100A0000C01B02280FD8686A8007F7D571484FF4D9
:100A1000FA510068B0FBF1F0009000BF0098411E51
:100A20000091FAD20EE080E0C0F80080FFF7ECFD04
:100A3000074604E0FFF7E8FDC01B022875D8686A86
:100A40008007F7D42078400760D5E8690027C00008
:100A500008D4E86940F08050E861E869012700F0B7
:100A6000805000905C480168C90513D40168834632
:100A700041F480710160FFF7C7FD824606E000BFC8
:100A8000FFF7C2FDA0EB0A0064284ED8DBF8000097
:100A9000C005F5D5E06801280AD008B1052813D0B3
:100AA000286A20F001002862286A20F0040002E091
:100AB000286A40F001002862E06841F2883B98B162
:100AC000FFF7A2FD82460BE0286A40F0040028628E
:100AD000EEE700BFFFF798FDA0EB0A0159455AD891
:100AE000286A8007F6D50CE0FFF78EFD824605E008
:100AF000FFF78AFDA0EB0A0159454CD8286A800708
:100B0000F6D41FB1E86920F08050E861E06988B34D
:100B10006968C1F38101022944D00228C6F86080C7
:100B200004D0FFF771FD044638E034E0FFF76CFDB8
:100B3000074604E0FFF768FDC01B02282BD8286891
:100B40008001F7D4206AB0F5803F05D16868A168BC
:100B500020F4003008436860D4E90801084369685C
:100B600021F4741108436860C6F86090FFF74CFDEB
:100B7000044606E025E000BFFFF746FD001B022803
:100B800009D828688001F7D51BE000BFFFF73CFDBE
:100B9000001B022802D90320BDE8F88F28688001D5
:100BA000F4D40EE00128F7D06868226A00F480319E
:100BB000914204D1616A00F47010884201D0012092
:100BC000EAE70020E8E7000000100240000042428F
:100BD0008004424224000020007000407047000062
:100BE00038B50446006842688168C9434B0606D59B
:100BF000CB0704D1D3435B0601D4216C05E08B07FE
:100C000008D4D3431B0605D4616C01B02046BDE86F
:100C1000304008478B0601D54B0646D4D3439B068C
:100C200043D44B060AD494F85130032B3ED0636D65
:100C300043F004036365C36883680093890609D49D
:100C4000616D41F00101616581680091016821F0E9
:100C500040010160606D002827D02068416821F0C4
:100C6000E0014160012084F85100900722D0206803
:100C7000416821F003014160104DE06C40B14563D3
:100C8000E06CFFF76DFB18B1606D40F040006065EF
:100C9000A06C002809D04563A06CFFF761FB002819
:100CA00003D0606D40F04000606538BDC168806869
:100CB000009038BD2046FFF791FF38BD6D13000846
:100CC00070B5040009D0606A002540B125616561F6
:100CD000A56294F8510040B10CE0012070BD60683D
:100CE000B0F5827FF4D0E561F2E784F850502046F9
:100CF00000F040F8022084F851002068016821F0DB
:100D000040010160A088218900F4827001F404414F
:100D10000843A18901F400610843217C01F002012C
:100D20000843217D01F001010843218B01F400718A
:100D30000843217F01F03801084394F8201001F0A6
:100D400080010843218D01F40051084321680860A7
:100D5000A069042101EA1040216848602068C16947
:100D600021F40061C1616565012084F85100002013
:100D700070BD000010B586B0002100910191029174
:100D8000039100681749884229D11748816941F4C5
:100D900080518161816901F480510491816941F040
:100DA000040181618069114C00F00400049050201E
:100DB000009069462046FFF731FBA02000900220FA
:100DC00001900320039069462046FFF727FB00228D
:100DD00003212320FFF784FC2320FFF773FC06B0D8
:100DE00010BD00000030014000100240000801402A
:100DF0002DE9F84F984616468A460446FFF704FC4C
:100E0000814694F8510001281ED1BAF1000F73D029
:100E1000002E71D094F85000012815D0012784F8D5
:100E20005070032084F8510000256565C4F830A097
:100E3000A686E686A563A587E58765642564A06820
:100E4000B0F5004F03D00CE00220BDE8F88F206819
:100E5000016821F0400101602068016841F480418F
:100E6000016020680168490603D4016841F040012F
:100E70000160E068B0F5006F606803D048B3012EF0
:100E800027D047E008B1012E1FD1206B21680088D0
:100E9000C86006E020688168890709D5216B098848
:100EA000C160206B801C2063E08E401EE0860CE059
:100EB000FFF7AAFBA0EB0901414503D3B8F1FF3FBF
:100EC00003D035E0B8F1000F32D0E08E0028E1D138
:100ED00023E0206B21680078087306E020688168B1
:100EE00089070AD5216B09780173206B401C2063A8
:100EF000E08E401EE0860DE02BE0FFF785FBA0EBC7
:100F00000901414503D3B8F1FF3F03D010E0B8F128
:100F1000000F0DD0E08E0028E0D14A464146204621
:100F200000F02CFA08B120206065A06830B109E01B
:100F300084F8517084F85050032086E72068C16817
:100F40008068009084F8517004F8505F6068002851
:100F5000F3D0012079E710B5401EB0F1807F01D3B6
:100F6000012010BD4FF0E02460610F21601700F0F8
:100F7000AFFA0020A06107202061002010BDFEE72D
:100F800010B50F4C002202212046FFF737FB0A2044
:100F9000FFF732FA012202212046FFF72FFB0A2039
:100FA000FFF72AFA012000F019F86420FFF724FA6D
:100FB000282000F013F8BDE81040292000F00EB8FA
:100FC000000C014001B54FF0FF3301226946024891
:100FD000FFF70EFF08BD00002800002070B50B4C85
:100FE0000546002204212046FFF708FB00220121CC
:100FF0002046FFF703FB2846FFF7E4FF2046BDE845
:10100000704001221146FFF7F9BA0000000C0140C0
:1010100070B50B4C0546012204212046FFF7EEFA7D
:10102000002201212046FFF7E9FA2846FFF7CAFF10
:101030002046BDE8704001221146FFF7DFBA0000EC
:10104000000C01402DE9F84F0446101B9A46174644
:101050000D46002800DCE01B8046AAEB05000028B6
:1010600001DCA5EB0A00C0F100094FF0FF30BC42E3
:1010700001DA012100E001460091554500DA012026
:10108000834608EB0906A9B2A0B20A9A00F033F829
:10109000BC4201D155450AD07000484502DB009999
:1010A0004E440C444045EEDC46445D44EBE7BDE86D
:1010B000F88F2DE9F0478046DDF820901D46144654
:1010C000424501D2904604468D4201D20D46194652
:1010D0000F460CE0464606E04A463946304600F0E8
:1010E0000AF8761CB6B2A642F6D97F1CBFB2AF4250
:1010F000F0D9BDE8F0872DE9F041044615460F46CA
:101100002A20FFF76BFF3E0A3046FFF781FFF8B257
:10111000FFF77EFF3046FFF77BFFF8B2FFF778FF5F
:101120002B20FFF75BFF260A3046FFF771FFE0B286
:10113000FFF76EFF3046FFF76BFFE0B2FFF768FF87
:101140002C20FFF74BFF280AFFF762FFE8B2BDE84B
:10115000F041FFF75DBF00002DE9F74FA2F120003D
:101160008B465F2825D2144902EB82000844DFF841
:101170004C90A0F1A00A00254FF0010800981AF841
:101180000570002410EB050608FA04F0384202D07E
:10119000B9F8002001E0B9F802200BEB040081B29D
:1011A000B0B2FFF7A8FF641C072CEDDB6D1C052D0A
:1011B000E4DBBDE8FE8F0000A870000814000020EA
:1011C0002DE9F047984691460D4604460746099E8C
:1011D00014E000BF04EB0901A01D814202D20835D2
:1011E0003C46ADB205EB0801E81D814209D3294612
:1011F0002046FFF7B1FFA41DA4B2761C3278002A66
:10120000E8D1BDE8F08700002DE9FF5F99469046E0
:101210008246002543E000243DE000BF05FB084175
:101220000E9830F81100C10AC0F3451700F01F0BEB
:10123000084600F0D1F90F9900F0E2F900F0ACF99E
:10124000C6B21F2E00D91F26384600F0C5F91099E6
:1012500000F0D6F900F0A0F9C7B23F2F00D93F2720
:10126000584600F0B9F9119900F0CAF900F094F964
:10127000C0B21F2800D91F20F10241EA47110143E3
:1012800001988AB2284481B20AEB040080B2FFF7C9
:1012900032FF641CA4B24445C0D36D1CADB24D45B1
:1012A000B9D3BDE8FF9F000030B585B000241848D1
:1012B0000094019402940394816941F020018161BA
:1012C000816901F020010491816941F0040181618B
:1012D000816901F004010491816941F00801816193
:1012E00080690C4D00F00800049000220721284678
:1012F000FFF784F9072000900120CDE901040220C6
:10130000039069462846FFF789F805B030BD000014
:1013100000100240000C01400E4810B50C4901605D
:101320004FF48271416000218160C16001614161BF
:101330008161C1610162416281620A21C162FFF77C
:10134000BFFC002803D0BDE81040FFF706B810BD71
:101350000030014028000020FEE7FEE77047000053
:101360000148FFF73DBC00002800002010B5406A8E
:101370000021C187C186FFF731FC10BDF8B51546C5
:101380000E460B46009204460122022100F010F89E
:1013900040B93346002280212046009500F008F82D
:1013A000002804D0606D40F0200060650320F8BD87
:1013B0002DE9F8431E46914688460446089DFFF7EE
:1013C00023F9401B351AFFF71FF907462548006827
:1013D000C0F3CB30684338E0701C37D0FFF714F906
:1013E000C01BA84203D215B1009860B32CE020685E
:1013F000416821F0E00141606068B0F5827F0BD167
:10140000A068B0F5004F02D0B0F5806F04D120681D
:10141000016821F040010160A06AB0F5005F09D1C8
:101420002068016821F4005101602068016841F4DE
:1014300000510160012084F85100002084F8500020
:101440000320BDE8F8830025401E009020688168D5
:1014500038EA010004D000214945BDD10020F0E761
:101460000121F9E7240000207047FFF7D3B830B519
:101470008FB028216846FEF7A7FE14210AA8FEF7C0
:10148000A3FE01210804CDE90010002402940225E6
:101490000491CDE907504FF4E01009906846FFF73A
:1014A0000DFA08B172B6FEE70F20CDE90A054FF438
:1014B0008060CDE90C4002210AA80E94FFF742F9A2
:1014C000002801D072B6FEE70FB030BD7047FEE7CE
:1014D0000907090E002804DB00F1E02080F8001461
:1014E000704700F00F0000F1E02080F8141D7047F5
:1014F0001FB5FFF797F8FFF7BAFFFFF7D5FEFFF725
:101500000BFFFFF73DFD1F4C642300212089009055
:101510001A460846FFF796FD0A2141220846FFF7C2
:101520001BFE42220A211020FFF716FE43220A2149
:101530001620FFF711FE4FF478433222A0217820C5
:10154000FEF7A5FE10A10A20CDE90001C82301463F
:101550001A466420FFF734FE20896423002100909E
:101560001A460846FFF7A5FD4FF07E500949CDE920
:101570000010029000210390722364220846FFF7B6
:1015800043FEFEE7000000204D4F48414D4D4144D1
:101590000000000098170008C10DD1F19E0206DB83
:1015A0004FEA002343F0004323FA02F07047004261
:1015B00007D54FEA4001B1F1FE4F02D24FF00000D3
:1015C000704710B500F09DF84992248000207047C4
:1015D0006FEA200070470000B0FA80F310FA03F2BF
:1015E000C3F19D030AD0D90501EB1220530638BF81
:1015F000704700F1010008BF20F0010070470000B3
:101600004FF47F0C1CEAD0121EBF1CEAD11392EAE1
:101610000C0F93EA0C0F00F0478090EA010F48BFCF
:1016200042F480724FF0004C4CEA00204CEA012159
:1016300002EB0302A0FB0113A2F50002002918BF70
:1016400043F001035B0028BF4FEA330342EB224221
:101650005FEA132C4CEBC2502EBFBCEB436FB2F5CC
:101660007C0F70474FEA036CBCF1004F08BF20F0BD
:101670000100B2F57C0F38BF70470BD582F0FF0236
:1016800012F5803FC8BF704700F1C040D8BF00F0DE
:101690000040704700F5000C5FEA4C0C48BF7047F3
:1016A000B0F1C04000F073B890EA010F0CEAD1131A
:1016B00048BF42F48072624538BF634504D280EA75
:1016C000010000F00040704710B500F01AF800BFAC
:1016D0008900013E00F007B800F009B85FEA410C4C
:1016E0005FEA1C6C08D080EA010000F050B85FEAA5
:1016F000400C5FEA1C6CF6D14FF00040A0F5800072
:1017000070470EF1020E2EF0030E5EF8044B2442D9
:1017100004D44FEA4102B2F17F4F11D84FEA40039F
:10172000B3F17F4F0CD80ED14FEAD07CB2F17F4F8E
:101730000CEB4C0C0CF1020C08BF4CEBD17C04E020
:101740004FF0080C01E04FEAD17C0CEB4C0324FA7B
:1017500003F404F00704B4F1040C06D20EEB840C7D
:10176000BDE810404CF0010C6047DFE80CF00708C2
:1017700002024FF00040A0F5800010BD0846420074
:1017800018BFD2F1807288BF00F0004010BDFF2169
:1017900041EAD050C0057047EC21EC21EC21EC214E
:1017A000EC21EC21EC21EC21EC21EC21EC21EC21D1
:1017B000EC21EC21EC21EC21EC21EC21EC21EC21C1
:1017C000EC21EC21EC21EC21EC21EC21EC21EC21B1
:1017D000EC21EC21EC21EC21EC21EC21EC21EC21A1
:1017E000EC21EC21CC21CC21EC21EC21EC21EC21D1
:1017F000EC21EC21EC21EC21EC21EC21EC21EC2181
:10180000EC21EC21CC21CC21EC21EC21EC21EC21B0
:10181000EC21EC21CC21CC21EC21EC21EC21EC21A0
:10182000EC21EC21CC21CC21EC21EC21EC21EC2190
:10183000EC21EC21EC21EC21EC21EC21EC21356CAC
:10184000BB9D7A957A957B957B9D9B9D9B9D9B9D52
:10185000DCA5F884EC21EC21EC21EC21EC21EC213D
:101860000000000000000000000000000000000078
:101870000000000000000000000000000000000068
:101880000000000000000000000000000000000058
:101890000000000000000000000000000000000048
:1018A0000000000000000000000020086010601030
:1018B0000000000000000000000000000000000028
:1018C0000000000000000000000020006110601017
:1018D000000000000000000000000000611060082F
:1018E000000000000000000000000000611040083F
:1018F00020000000000000000000000000000000C8
:101900000000000000009194FFFF7DF77DF7DEFFEF
:10191000FFFFDEFFBEFFDEFFFFFF58CE000000002E
:1019200000000000000000000000000000000000B7
:1019300000000000000000000000000000000000A7
:101940000000000000000000000000000000000097
:101950000000000000000000000000000000000087
:101960000000000000000000000000000000000077
:101970000000200082108210200000000000000003
:101980000000000000000000000000000000000057
:10199000000020008210A2102000000000000000C3
:1019A000000020008210A2102000000000000000B3
:1019B000000000006108A2104008000000000000C4
:1019C0000000000000000000000000000000729411
:1019D0009EF73DE71CE734AD308CD39C5DEF9EF75E
:1019E000FFFF18C60000000000000000000000001B
:1019F00000000000000000000000000000000000E7
:101A000000000000000000000000000000000000D6
:101A100000000000000000000000000000000000C6
:101A200000000000000000000000E310851902091A
:101A300022090000000000000000A2104D63527453
:101A4000A72900006108F48CB8AD1595B27CF37C31
:101A5000D274779D579D041900008210EC5A737C54
:101A6000093A00000000000000006108EB5A5274BF
:101A7000493A00000000000000004108AB52727CAF
:101A80006A420000000000000000A21048428419D1
:101A900082098000000072949EF75DEFBBDEAA5AB7
:101AA000EC6255AD7EEF9EF7FFFF18C60000000008
:101AB0000000000000000000000000000000000026
:101AC0000000000000000000000000000000000016
:101AD0000000000000000000000000000000000006
:101AE00000000000000000000000000000000000F6
:101AF000000087214A3A4209210900000000000045
:101B00000000E3184D633274A72900008208BCC6A8
:101B1000DFE7DDCE39BE99AEDAAE9FDF5FDF662943
:101B20000000A2100C5B116CE83100000000000006
:101B3000000082108A52727C4A3A000000000000C5
:101B400000008210CB5252746A3A0000000000007C
:101B500000002421CF73683A82096000000072946B
:101B60009EF75DEFDBDECF73AA5279CEDFFF7EEF0B
:101B7000FFFF18C600000000000000000000000089
:101B80000000000000000000000000000000000055
:101B90000000000000000000000000000000000045
:101BA0000000000000000000000000000000000035
:101BB0000000000000000000200008422842C73951
:101BC00020000000000000002000083A0421A63197
:101BD0002421000062085BBE5FD7B9ADB48CF694D7
:101BE0001BB65FD7DFCE452100008631CB5A863148
:101BF00061100000000000000000E7396A4AA631C9
:101C0000E3200000000000000000E73966294529B4
:101C100086310000000000000000A6312521452982
:101C200086390000000072949EF75DEFDBDE2D6BBD
:101C30006A4ABAD6BEF77EF7FFFF18C6000000005A
:101C40000000000000000000000000000000000094
:101C50000000000000000000000000000000000084
:101C60000000000000000000000000000000000074
:101C70000000000000000000000000000000000064
:101C8000A210484AAA5AE74141080000000000009B
:101C900000008A524D6B49422000000062085BBE82
:101CA0005FD71695337C99A53FD71FD7DFCE452147
:101CB00000008A520C63694A4108000000000000DD
:101CC0002100C7390B63284A6108000000000000AA
:101CD0000000083A6D6BAA52610800000000000085
:101CE0000000C739694A494245210000000072944A
:101CF0009EF73DE71CE7F8BDD8B53DE79EF77EF7B8
:101D0000FFFF18C6000000000000000000000000F7
:101D100000000000000000000000000000000000C3
:101D200000000000000000000000000000000000B3
:101D300000000000000000000000000000000000A3
:101D40000000000000000000C639494A6529E31878
:101D500000000000000000002000AB520C6328428D
:101D60000000000062085BBE5FD7F68C748499A502
:101D70001FD71FD7DFCE452100002842EB5ACB5A90
:101D80006108000000000000E320C739452145211B
:101D900020000000000000000000494A2C638A5225
:101DA0002000000000000000A210A631653185313E
:101DB000E3180000000072949EF71CE73DE79EF7D1
:101DC000BEF77DEF7DEF7EF7FFFF18C60000000035
:101DD0000000000000000000000000000000000003
:101DE00000000000000000000000000000000000F3
:101DF00000000000000000000000000000000000E3
:101E000000000000000000000000000000000000D2
:101E10004008AA5AEF7B8631000000000000000055
:101E20004529C7396629A2100000000062085BBE80
:101E30005FDF589DB58C74845CBE3FD7DFCE4521F3
:101E40000000A6316D6B494A000000000000000050
:101E500020002842AE73284200000000000000006D
:101E6000C318C7398631E3182000000000000000C5
:101E7000610828420842EB5AC3180000000072941F
:101E80009EF71CE73DE73DEF5DEF5DEF7DEF7EF7F1
:101E9000FFFF18C600000000000000000000000066
:101EA0000000000000000000000000000000000032
:101EB0000000000000000000000000000000000022
:101EC0000000000000000000000000000000000012
:101ED00000000000000000000000A631EB5AA6310F
:101EE00020000000000000002008494A8A526529AD
:101EF0000000000062085BBE7FDF99A55384D58C8B
:101F00007DBE3FD7DFCE45210000694A4C6B284A91
:101F100000000000000000002421AA52CB5A694AA8
:101F2000000000000000000041086529694AE73907
:101F3000200000000000000000002421E739C6391D
:101F400041080000000072949EF71CE73DE73DEF5A
:101F50005DEF5DEF7DEF7EF7FFFF18C6000000002C
:101F60000000000000000000000000000000000071
:101F70000000000000000000000000000000000061
:101F80000000000000000000000000000000000051
:101F90000000000000000000000000000000000041
:101FA00020008A52CB5A8631000000000000000059
:101FB0004108694AAA52A7310000000062085BBECE
:101FC0007FDFDAAD1695379DDEC63FD7DFCE252100
:101FD000A21008426529C31800000000000000009C
:101FE00000006531CB5A8A5200000000000000005A
:101FF000C318C7392429A631410800000000000099
:1020000000000000000000000000000000007294CA
:102010009EF71CE73DE73DEF5DEF5DEF7DEF7EF75F
:10202000FFFF18C6000000000000000000000000D4
:1020300000000000000000000000000000000000A0
:102040000000000000000000000000000000000090
:102050000000000000000000000000000000000080
:1020600000000000000000002000284A494AE7392B
:102070002000000000000000442986312521E739B6
:102080000000000062085BBE1FD7579D9484789DB6
:102090001FCF1FD7DFCE25212000C7396A4A494A02
:1020A00041080000000000000000C7318E73494A5B
:1020B00000000000000000000000494ACB5A2C63D9
:1020C000A21000000000000000000000000000005E
:1020D00000000000000072949EF71CE73DE73DEF12
:1020E0005DEF5DEF7DEF7EF7FFFF18C6000000009B
:1020F00000000000000000000000000000000000E0
:1021000000000000000000000000000000000000CF
:1021100000000000000000000000000000000000BF
:1021200000000000000000000000000000000000AF
:10213000000000000000200000000000000000007F
:102140004108AA52CB5ACA5A4108000062087BBE15
:102150007CBED9AD1AB6D9ADFFCE1FD7DFCE452193
:102160000000C73924294529821000000000000022
:1021700000008631EB62CB5A200000000000000016
:102180006108083AE839C7316529000000000000FD
:102190000000000000000000000000000000729439
:1021A0009EF71CE73DE73DEF5DEF5DEF7DEF7EF7CE
:1021B000FFFF18C600000000000000000000000043
:1021C000000000000000000000000000000000000F
:1021D00000000000000000000000000000000000FF
:1021E00000000000000000000000000000000000EF
:1021F00000000000000000000000000000000000DF
:102200000000000000000000A2102842C739E73992
:102210000421000062085BBE5FD71695F694D58C4A
:10222000DEC63FD7DFCE2521C318A6394108820874
:102230000000000000000000E318E7392421C6393F
:10224000410800000000000000002421A7392842B6
:102250004529000000000000000000000000000010
:1022600000000000000072949EF71CE73DE73DEF80
:102270005DEF5DEF7DEF7EF7FFFF18C60000000009
:10228000000000000000000000000000000000004E
:10229000000000000000000000000000000000003E
:1022A000000000000000000000000000000000002E
:1022B000000000000000000000000000000000001E
:1022C000000000000000000000000000000000000E
:1022D00000006529A631494AC318000062083BBEC8
:1022E0005FD7DFC69EC6FFCE1FCF1FD7DFCE25210B
:1022F00020008A52CB5A2C636108000000000000C5
:102300004008494A6A4A0B5B821000000000000046
:102310000000C73929428A52452900000000000008
:1023200000000000000000000000000000007294A7
:102330009EF71CE73DE73DEF5DEF5DEF7DEF7EF73C
:10234000FFFF18C6000000000000000000000000B1
:10235000000000000000000000000000000000007D
:10236000000000000000000000000000000000006D
:10237000000000000000000000000000000000005D
:10238000000000000000000000000000000000004D
:102390000000000000000000200028422842AA524D
:1023A000C318000062083BBE3FD71FCF1FD71FCF07
:1023B000FFCE1FD7DFCE25214008E739E739084295
:1023C000E3180000000000006108E739E7412842F7
:1023D00004210000000000006108A631A639E6399A
:1023E000652900000000000000000000000000005F
:1023F00000000000000072949EF71CE73DE73DEFEF
:102400005DEF5DEF7DEF7EF7FFFF18C60000000077
:1024100000000000000000000000000000000000BC
:1024200000000000000000000000000000000000AC
:10243000000000000000000000000000000000009C
:10244000000000000000000000000000000000008C
:10245000000000000000000000000000000000007C
:10246000610886316529C639C218000021003BB6D3
:102470003FD7FFCEFFCEFFCEFFCE1FCFDFCE04195A
:1024800000008210E418E739C318000000000000C3
:102490000000042165290842C21800000000000065
:1024A000000000000000000000000000000000002C
:1024B0000000000000000000000000000000518C3F
:1024C0009EF71CE73DE73DEF5DEF5DEF7DEF7EF7AB
:1024D000FFFF18C600000000000000000000000020
:1024E000A631A631A631A631A631A631A631A63134
:1024F000A631A631A631A631A631A631A631A63124
:10250000A631A631A631A631A631A631A631A63113
:10251000A631A631A631A631A631A631A631A63103
:10252000A631A631A631A631C739A631A631A631CA
:10253000A631A631083ABCCE9FE75FDF5FDF5FDFE1
:102540005FDF7FDF5FDFAB528631EB5A4C638E7308
:102550002842A631A631A631C7390C632C6B6D73A6
:10256000CB52A631A631A631A631A631A631A6316D
:10257000A631A631A631A631A631A631A631A631A3
:10258000A631A631A63114A59EF73CE73DE75DEFE5
:102590005DEF5DEF7DEF7DEFFFFF38C620000000AF
:1025A00000000000000000006D6B6D6B6D6B6D6BCB
:1025B0006D6B6D6B6D6B6D6B6D6B6D6B6D6B6D6B5B
:1025C0006D6B6D6B6D6B6D6B6D6B6D6B6D6B6D6B4B
:1025D0006D6B6D6B6D6B6D6B6D6B6D6B6D6B6D6B3B
:1025E0006D6B4D6B4D6B4D6B6D6B6D6B6D6B6D6B8B
:1025F0006D6B4D6B4D6B4D6B6D6B6D6B8E6B728C34
:10260000D394B394D394D394B394B38CB38CAE7368
:102610006D6B8E6B8E738E736E6B6D6B6D6B6D6B86
:102620008E734D6B4C6B4D6B8E6B6D6B6D6B6D6B01
:102630006D6B6D6B4D6B4D6B6D6B6D6B6D6B6D6B1A
:102640006D6B6D6B4D6B4D6B6D6B6D6B4D6BF7BD4E
:102650009EF75DEF5DEF5DEF7DEF7DEF7DEF7DEF51
:10266000FFFF38C62000000000000000000000004E
:10267000000000000000000000000000000000005A
:10268000000000000000000000000000000000004A
:10269000000000000000000000000000000000003A
:1026A000000000000000000000008208C318452957
:1026B00020000000000000000000452145212421E9
:1026C00020000000000017859DC6BAA5789DF68CF5
:1026D000DAA59DBEDB9D6300000024216629A73199
:1026E000A21000000000000000004108A2102521F7
:1026F0008208000000000000000021008210252157
:10270000A21000000000000000002100A2102521FE
:10271000A21000000000518C9EF71CE73DE77EF7F9
:102720009EF77EF77DEF7EEFFFFF18C600000000EA
:102730000000000000000000000000000000000099
:102740000000000000000000000000000000000089
:102750000000000000000000000000000000000079
:102760000000000000000000000000000000000069
:1027700000008A52AA520B630421000000000000EE
:102780000000494A694A484AA21000002100DA9D27
:102790009FE7FFCEDFCEDEC6FFCE5FDFBEB6C4084A
:1027A0000000084210842C63042100000000000097
:1027B00000002008610861102008000000000000EF
:1027C0000000E318A631494A452900000000000036
:1027D00000002000610861104008000000007294B1
:1027E0009EF73CE73DE718C675B596B55DEF9EF7D9
:1027F000FFFF18C6000000000000000000000000FD
:1028000000000000000000000000000000000000C8
:1028100000000000000000000000000000000000B8
:1028200000000000000000000000000000000000A8
:10283000000000000000000020008A52CB5A0C6308
:102840000421000000000000200028422842084225
:10285000A21000002100BA955FDFFFCE1FCF1FCF6F
:10286000FFCE3FD77EB6E40800000421AA5AE7391C
:10287000A2100000000000000000000000000000A6
:1028800000000000000000000000C318653128426D
:1028900024210000000000000000000000000000F3
:1028A00000000000000072949EF75DEFDBDE8E7387
:1028B0006D7355AD7EEF9EF7FFFF18C60000000058
:1028C0000000000000000000000000000000000008
:1028D00000000000000000000000000000000000F8
:1028E00000000000000000000000000000000000E8
:1028F00000000000000000000000000000000000D8
:102900000000694A8A520B63242100000000000085
:102910002000484228420842A21000002100BA9537
:102920005FDFFFCEFFCEFFCEFFCE3FD77EB6E408FF
:102930000000000000000000000000000000000097
:102940000000000000000000000000000000000087
:102950000000C31865312842252100000000000056
:102960000000000000000000000000000000729461
:102970009EF75DEFBBD64D6BAF7BF8C59EF79EF71C
:10298000FFFF18C60000000000000000000000006B
:102990000000000000000000000000000000000037
:1029A0000000000000000000000000000000000027
:1029B0000000000000000000000000000000000017
:1029C0000000000000000000A210E839C739A6315D
:1029D0006108000000000000200028422842084250
:1029E000A21000002100BA955FDFFFCEFFCEFFCE20
:1029F000FFCE3FD77EB6E4080000000000000000D4
:102A000000000000000000000000000000000000C6
:102A100000000000000000000000C31885310842DB
:102A20002421000000000000000000000000000061
:102A300000000000000072949EF75DEFBBDEAB5A11
:102A4000CB5ADBDEBEF77EF7FFFF18C600000000A2
:102A50000000000000000000000000000000000076
:102A60000000000000000000000000000000000066
:102A70000000000000000000000000000000000056
:102A80000000000000000000000000000000000046
:102A9000A210CB5A0C638629000000000000000041
:102AA0000000284249420842A21000002100BA95C5
:102AB0005FDFFFCEFFCEFFCEFFCE3FD77EB6E4086E
:102AC0000000000000000000000000000000000006
:102AD00000000000000000000000000000000000F6
:102AE0000000C3188631494A452900000000000053
:102AF00000000000000000000000000000007294D0
:102B00009EF73CE71CE739C6F8BD3DE79EF77EF728
:102B1000FFFF18C6000000000000000000000000D9
:102B200000000000000000000000000000000000A5
:102B30000000000000000000000000000000000095
:102B40000000000000000000000000000000000085
:102B500000000000000000000000C218C218410878
:102B6000000000000000000000002842494A2842FE
:102B7000A21000002100BA955FDFFFCEFFCEFFCE8E
:102B8000FFCE3FD77EB6E408000000000000000042
:102B90000000000000000000000000000000000035
:102BA00000000000000000000000A2104429A63927
:102BB000E320000000000000000000000000000012
:102BC00000000000000072949EF71CE73DE79EF7AE
:102BD000BEF77DEF7DEF7EF7FFFF18C60000000017
:102BE00000000000000000000000000000000000E5
:102BF00000000000000000000000000000000000D5
:102C000000000000000000000000000000000000C4
:102C100000000000000000000000000000000000B4
:102C200000000000000000000000000000000000A4
:102C30002000694A484A2842A21000002100BA95A3
:102C40005FDFFFCEFFCEFFCEFFCE3FD77EB6E408DC
:102C50000000000000000000000000000000000074
:102C60000000000000000000000000000000000064
:102C70000000000000000000000000000000000054
:102C8000000000000000000000000000000072943E
:102C90009EF71CE73DE73DEF5DEF5DEF7DEF7EF7D3
:102CA000FFFF18C600000000000000000000000048
:102CB0000000000000000000000000000000000014
:102CC0000000000000000000000000000000000004
:102CD00000000000000000000000000000000000F4
:102CE00000000000000000000000000000000000E4
:102CF00000000000000000000000C218C218C21846
:102D0000400800002100BA955FDFFFCEFFCEFFCE66
:102D1000FFCE3FD77EB6E4080000000000000000B0
:102D200000000000000000000000000000000000A3
:102D30000000000000000000000000000000000093
:102D40000000000000000000000000000000000083
:102D500000000000000072949EF71CE73DE73DEF85
:102D60005DEF5DEF7DEF7EF7FFFF18C6000000000E
:102D70000000000000000000000000000000000053
:102D80000000000000000000000000000000000043
:102D90000000000000000000000000000000000033
:102DA0000000000000000000000000000000000023
:102DB0000000000000000000000000000000000013
:102DC0000000000000000000000000002100BA9593
:102DD0005FDFFFCEFFCEFFCEFFCE3FD77EB6E4084B
:102DE00000000000000000000000000000000000E3
:102DF00000000000000000000000000000000000D3
:102E000000000000000000000000000000000000C2
:102E100000000000000000000000000000007294AC
:102E20009EF71CE73DE73DEF5DEF5DEF7DEF7EF741
:102E3000FFFF18C6000000000000000000000000B6
:102E40000000000000000000000000000000000082
:102E50000000000000000000000000000000000072
:102E60000000000000000000000000000000000062
:102E70000000000000000000000000000000000052
:102E80000000000000000000000000000000000042
:102E9000000000002100BA955FDFFFCEFFCEFFCE1D
:102EA000FFCE3FD77EB6E40800000000000000001F
:102EB0000000000000000000000000000000000012
:102EC0000000000000000000000000000000000002
:102ED00000000000000000000000000000000000F2
:102EE00000000000000072949EF71CE73DE73DEFF4
:102EF0005DEF5DEF7DEF7EF7FFFF18C6000000007D
:102F000000000000000000000000000000000000C1
:102F100000000000000000000000000000000000B1
:102F200000000000000000000000000000000000A1
:102F30000000000000000000000000000000000091
:102F40000000000000000000000000000000000081
:102F50000000000000000000000000002100BA9501
:102F60005FDFFFCEFFCEFFCEFFCE3FD77EB6E408B9
:102F70000000000000000000000000000000000051
:102F80000000000000000000000000000000000041
:102F90000000000000000000000000000000000031
:102FA000000000000000000000000000000072941B
:102FB0009EF71CE73DE73DEF5DEF5DEF7DEF7EF7B0
:102FC000FFFF18C600000000000000000000000025
:102FD00000000000000000000000000000000000F1
:102FE00000000000000000000000000000000000E1
:102FF00000000000000000000000000000000000D1
:1030000000000000000000000000000000000000C0
:1030100000000000000000000000000000000000B0
:10302000000000000000FB9DBFE75FD75FD75FD7C0
:103030005FD79FDFDFBEA40000000000000000009B
:103040000000000000000000000000000000000080
:103050000000000000000000000000000000000070
:103060000000000000000000000000000000000060
:10307000000000000000718C9EF71CE73DE73DEF6B
:103080005DEF5DEF7DEF7EF7FFFF18C600000000EB
:103090000000000000000000452945294529452978
:1030A00045294529452945294529452945294529B0
:1030B00045294529452945294529452945294529A0
:1030C0004529452945294529452945294529452990
:1030D0002529252945292529252945294529452900
:1030E0004521452145294521452145294529537437
:1030F0003695F694F694F694F694F694B584A7294A
:10310000252925292529252925292529452945290F
:1031100025292529252925292529252945294529FF
:10312000252925292529252925292529452925290F
:10313000452945294529452945294529242134A5DD
:10314000FFFF9EF7BFF7BEF7DFFFDFFFFFFFFFFFC9
:10315000FFFFDBDE65294529652965296529652984
:10316000EF7BEF7BEF7BEF7BEF7BEF7BEF7BEF7B0F
:10317000EF7BEF7BEF7BEF7BEF7BEF7BEF7BEF7BFF
:10318000EF7BEF7BEF7BEF7BEF7BEF7BEF7BEF7BEF
:10319000EF7BEF7BEF7BEF7B4F7C6F7C4E746F7C24
:1031A0004F7C0F7CEF7BEF7B2F8C4F8C0E8C2F8C0A
:1031B0002F8C0F84EF7BCD73ED6BED6BED6BED6BB7
:1031C000CD6B6C640C6CAF7B4F7C6F7C4E746F7CF2
:1031D0006F7C0F7CCF7BEF7B2F7C6F7C4E744F7CA2
:1031E00070840F7CCF7BEF7B2F7C6F7C4E746F7C69
:1031F00070840F7CCF7B4F7C0F7CEF7BEF7BEF7B72
:10320000EF7BEF7B1084B294B294B294B294B294F8
:10321000718C518C10841084108410848E736D6BAB
:103220008E738E738E738E7300000000000000009A
:10323000000000000000000000000000000000008E
:10324000000000000000000000000000000000007E
:103250000000000000000000000000004000E0014D
:10326000A000A00040008000A000C001A0084041D4
:10327000801860102008401060104039801800024B
:10328000A0026002600260020002000500038001EB
:10329000E000A00060006000A000C0012001C001AB
:1032A000E000A00060006000A000C0010001A001DB
:1032B0000001A00060006000A000A0014001000229
:1032C000A000000000000000000000000421494AA6
:1032D00000000000000008428A526529000000003A
:1032E00000000000000000000000000000000000DE
:1032F00000000000000000000000000000000000CE
:1033000000000000000000000000000000000000BD
:1033100000000000000000000000000000000000AD
:10332000000000006000200200000000000000001B
:103330000000C001E0086051000000000000000033
:1033400000004041A020E001800240024002400213
:10335000E001000520030002200000000000000042
:103360000000A001A0014002400000000000000099
:103370000000A001800100026000000000000000C9
:1033800000006001A0010002A00000000000000099
:10339000000000000421AA522000000000000842A2
:1033A000494A8631000000000000000000000000D3
:1033B000000000000000000000000000000000000D
:1033C00000000000000000000000000000000000FD
:1033D00000000000000000000000000000000000ED
:1033E000000000000000000000000000600020025B
:1033F00000000000000000000000C001E00860497B
:10340000000000000000000000004041A020000279
:103410008002600260026002000200052003E001F9
:1034200040000000000000000000C001A0012002D8
:1034300060000000000000000000A0018001E00129
:10344000800000000000000000008001A0010002D8
:10345000C000000000000000000000000421AA528B
:103460002000000000008631494A8631000000003B
:10347000000000000000000000000000000000004C
:10348000000000000000000000000000000000003C
:10349000000000000000000000000000000000002C
:1034A000000000000000000000000000000000001C
:1034B000000000006000200200000000000000008A
:1034C0000000C001E00860490000000000000000AA
:1034D00000004041A0200002800260026002600201
:1034E000000200052003E001400000000000000091
:1034F0000000C001A00120026000000000000000E8
:103500000000A0018001E001800000000000000038
:1035100000008001A0010002C000000000000000C7
:10352000000000000421AA52200000000000CB5A35
:103530000C6300000000000000000000000000001C
:10354000000000000000000000000000000000007B
:10355000000000000000000000000000000000006B
:10356000000000000000000000000000000000005B
:1035700000000000000000000000000060002002C9
:1035800000000000000000000000C001E0086049E9
:10359000000000000000000000004041A0200002E8
:1035A0008002600260026002000200052003E00168
:1035B00040000000000000000000C001A001200247
:1035C00060000000000000000000A0018001E00198
:1035D000800000000000000000008001A001000247
:1035E000C000000000000000000000000421CB5AD1
:1035F0008210000000000C634D6B200000000000F2
:1036000000000000000000000000000000000000BA
:1036100000000000000000000000000000000000AA
:10362000000000000000000000000000000000009A
:10363000000000000000000000000000000000008A
:1036400000000000600020020000000000000000F8
:103650000000C001E0086049000000000000000018
:1036600000004041A020000280026002600260026F
:10367000000200052003E0014000000000000000FF
:103680000000C001A0012002600000000000000056
:103690000000A0018001E0018000000000000000A7
:1036A00000008001A0010002C00000000000000036
:1036B000000000000421AA52610800000000000080
:1036C00000000000000000000000000000000000FA
:1036D00000000000000000000000000000000000EA
:1036E00000000000000000000000000000000000DA
:1036F00000000000000000000000000000000000CA
:103700000000000000000000000000006000200237
:1037100000000000000000000000C001E008604957
:10372000000000000000000000004041A020000256
:103730008002600260026002000200052003E001D6
:1037400040000000000000000000C001A0012002B5
:1037500060000000000000000000A0018001E00106
:10376000800000000000000000008001A0010002B5
:10377000C000000000000000000000000421AA5268
:1037800041080000000000000000000000000000F0
:103790000000000000000000000000000000000029
:1037A0000000000000000000000000000000000019
:1037B0000000000000000000000000000000000009
:1037C00000000000000000000000000000000000F9
:1037D0000000000060002002000000000000000067
:1037E0000000C001E0086049000000000000000087
:1037F00000004041A02000028002600260026002DE
:10380000000200052003E00140000000000000006D
:103810000000C001A00120026000000000000000C4
:103820000000A0018001E001800000000000000015
:1038300000008001A0010002C000000000000000A4
:10384000000000000421AA52200000000000000037
:103850000000000000000000000000000000000068
:103860000000000000000000000000000000000058
:103870000000000000000000000000000000000048
:103880000000000000000000000000000000000038
:1038900000000000000000000000000060002002A6
:1038A00000000000000000000000C001E0086049C6
:1038B000000000000000000000004041A020E001E6
:1038C0008002400240024002E00100052003E001C6
:1038D00040000000000000000000C0018001200244
:1038E00060000000000000000000A0016001E00195
:1038F000800000000000000000008001A001000224
:10390000A000000000000000000000000421AA52F6
:103910002000000000000000000000000000000087
:103920000000000000000000000000000000000097
:1039300082108210821082108210821082108210F7
:1039400082108210821082108210821082108210E7
:1039500082108210821082108210821082108210D7
:1039600082106210E210400200000000000000001F
:103970000000E0016219805100000000000000001A
:10398000000060412231410AE10AC10AC10AC10AAC
:10399000610A4005610B210A4000000000000000A0
:1039A0000000C001E211610A600000000000000098
:1039B0000000A001E109210A6000000000000000F1
:1039C00000008001E109610A210962108210821061
:1039D000821061086529AA528210A210A210A210BA
:1039E00082104108000000000000000000000000FC
:1039F0000000000000000000610861086108610823
:103A0000610861086108610861086108610861086E
:103A1000610861086108610861086108610861085E
:103A2000610861086108610861084108E108400215
:103A300000000000000000000000E001411980517A
:103A40000000000000000000000040410129410288
:103A5000C10A810A810A810A410A2005410B00023C
:103A600040000000000000000000C001E109400229
:103A700060000000000000000000A001C109200259
:103A8000600000000000000000008001E109410A20
:103A90000109410861086108610841084529AA52E5
:103AA000821082108210AA522C632842000000006B
:103AB0000000000000000000000000000000000006
:103AC00000000000000000000000000000000000F6
:103AD00000000000000000000000000000000000E6
:103AE00000000000000000000000000000000000D6
:103AF0000000000060002002000000000000000044
:103B00000000C001E0086049000000000000000063
:103B100000004041A020E00180024002400240023B
:103B2000E00100052003E00140000000000000006B
:103B30000000C001800120026000000000000000C1
:103B40000000A0016001E001800000000000000012
:103B500000008001A0010002A000000000000000A1
:103B6000000000000421AA52410800000000E739CB
:103B70008631452900000000000000000000000020
:103B80000000000000000000000000000000000035
:103B90000000000000000000000000000000000025
:103BA0000000000000000000000000000000000015
:103BB0000000000000000000000000006000200283
:103BC00000000000000000000000C001E0086049A3
:103BD000000000000000000000004041A0200002A2
:103BE0008002600260026002000200052003E00122
:103BF00040000000000000000000C001A001200201
:103C000060000000000000000000A0018001E00151
:103C1000800000000000000000008001A001000200
:103C2000C000000000000000000000000421AA52B3
:103C300041080000000065296529242100000000DA
:103C40000000000000000000000000000000000074
:103C50000000000000000000000000000000000064
:103C60000000000000000000000000000000000054
:103C70000000000000000000000000000000000044
:103C800000000000600020020000000000000000B2
:103C90000000C001E00860490000000000000000D2
:103CA00000004041A0200002800260026002600229
:103CB000000200052003E0014000000000000000B9
:103CC0000000C001A0012002600000000000000010
:103CD0000000A0018001E001800000000000000061
:103CE00000008001A0010002C000000000000000F0
:103CF000000000000421AA522000000000008A52A7
:103D0000EB5A00000000000000000000000000006E
:103D100000000000000000000000000000000000A3
:103D20000000000000000000000000000000000093
:103D30000000000000000000000000000000000083
:103D400000000000000000000000000060002002F1
:103D500000000000000000000000C001E008604911
:103D6000000000000000000000004041A020000210
:103D70008002600260026002000200052003E00190
:103D800040000000000000000000C001A00120026F
:103D900060000000000000000000A0018001E001C0
:103DA000800000000000000000008001A00100026F
:103DB000C000000000000000000000000421AA5222
:103DC0006108000000002C634D6B20000000000023
:103DD00000000000000000000000000000000000E3
:103DE00000000000000000000000000000000000D3
:103DF00000000000000000000000000000000000C3
:103E000000000000000000000000000000000000B2
:103E10000000000060002002000000000000000020
:103E20000000C001E0086049000000000000000040
:103E300000004041A0200002800260026002600297
:103E4000000200052003E001400000000000000027
:103E50000000C001A001200260000000000000007E
:103E60000000A0018001E0018000000000000000CF
:103E700000008001A0010002C0000000000000005E
:103E8000000000000421CB5A61080000000000007F
:103E90002000000000000000000000000000000002
:103EA0000000000000000000000000000000000012
:103EB0000000000000000000000000000000000002
:103EC00000000000000000000000000000000000F2
:103ED0000000000000000000000000006000200260
:103EE00000000000000000000000C001E008604980
:103EF000000000000000000000004041A02000027F
:103F00008002600260026002000200052003E001FE
:103F100040000000000000000000C001A0012002DD
:103F200060000000000000000000A0018001E0012E
:103F3000800000000000000000008001A0010002DD
:103F4000C000000000000000000000000421CB5A67
:103F50004108000000000000000000000000000018
:103F60000000000000000000000000000000000051
:103F70000000000000000000000000000000000041
:103F80000000000000000000000000000000000031
:103F90000000000000000000000000000000000021
:103FA000000000006000200200000000000000008F
:103FB0000000C001E00860490000000000000000AF
:103FC00000004041A0200002800260026002600206
:103FD000000200052003E001400000000000000096
:103FE0000000C001A00120026000000000000000ED
:103FF0000000A0018001E00180000000000000003E
:1040000000008001A0010002C000000000000000CC
:10401000000000000421AA52410800000000000036
:104020000000000000000000000000000000000090
:104030000000000000000000000000000000000080
:104040000000000000000000000000000000000070
:104050000000000000000000000000000000000060
:1040600000000000000000000000000060002002CE
:1040700000000000000000000000C001E0086049EE
:10408000000000000000000000004041A020E0010E
:104090008002400240024002E00100052003E001EE
:1040A00040000000000000000000C001800120026C
:1040B00060000000000000000000A0016001E001BD
:1040C000800000000000000000008001A00100024C
:1040D000A000000000000000000000000421AA521F
:1040E00020000000000000000000000000000000B0
:1040F00000000000000000000000000000000000C0
:104100006108610861086108610861086108610867
:104110006108610861086108610861086108610857
:104120006108610861086108610861086108610847
:1041300061086108E1084002000000000000000082
:104140000000E00162198051000000000000000042
:10415000000060410131410AE10AA10AA10AA10A55
:10416000410A2005610B2002400000000000000011
:104170000000C001E109610A6000000000000000C9
:104180000000A001E109210A600000000000000019
:1041900000008001E109610A2109610861086108E4
:1041A000610841086529AA528210A210A210A2102B
:1041B000410841080000000000000000000000006D
:1041C000000000000000000061086108610861084B
:1041D0006108610861086108610861086108610897
:1041E0006108610861086108610861086108610887
:1041F000610861086108610861084108E10840023E
:1042000000000000000000000000E00141198051A2
:1042100000000000000000000000404101294102B0
:10422000C10AA10AA10AA10A410A2005410B000204
:1042300040000000000000000000C001E109400251
:1042400060000000000000000000A001C109200281
:10425000600000000000000000008001E109410A48
:104260000109410861086108610841086529CB5AC4
:104270008210821082108A520C63084200000000F3
:10428000000000000000000000000000000000002E
:10429000000000000000000000000000000000001E
:1042A000000000000000000000000000000000000E
:1042B00000000000000000000000000000000000FE
:1042C000000000006000200200000000000000006C
:1042D0000000C001E008604900000000000000008C
:1042E00000004041A020E001800240024002400264
:1042F000E00100052003E001400000000000000094
:104300000000C001800120026000000000000000E9
:104310000000A0016001E00180000000000000003A
:1043200000008001A0010002A000000000000000C9
:10433000000000000421AA522000000000000842F2
:104340006529652900000000000000000000000051
:10435000000000000000000000000000000000005D
:10436000000000000000000000000000000000004D
:10437000000000000000000000000000000000003D
:1043800000000000000000000000000060002002AB
:1043900000000000000000000000C001E0086049CB
:1043A000000000000000000000004041A0200002CA
:1043B0008002600260026002000200052003E0014A
:1043C00040000000000000000000C001A001200229
:1043D00060000000000000000000A0018001E0017A
:1043E000800000000000000000008001A001000229
:1043F000C000000000000000000000000421AA52DC
:1044000041080000200024218631A6310000000070
:10441000000000000000000000000000000000009C
:10442000000000000000000000000000000000008C
:10443000000000000000000000000000000000007C
:10444000000000000000000000000000000000006C
:1044500000000000600020020000000000000000DA
:104460000000C001E00860490000000000000000FA
:1044700000004041A0200002800260026002600251
:10448000000200052003E0014000000000000000E1
:104490000000C001A0012002600000000000000038
:1044A0000000A0018001E001800000000000000089
:1044B00000008001A0010002C00000000000000018
:1044C000000000000421AA52200000000000694AF8
:1044D000CB5A0000000000000000000000000000B7
:1044E00000000000000000000000000000000000CC
:1044F00000000000000000000000000000000000BC
:1045000000000000000000000000000000000000AB
:104510000000000000000000000000006000200219
:1045200000000000000000000000C001E008604939
:10453000000000000000000000004041A020000238
:104540008002600260026002000200052003E001B8
:1045500040000000000000000000C001A001200297
:1045600060000000000000000000A0018001E001E8
:10457000800000000000000000008001A001000297
:10458000C000000000000000000000000421AA524A
:104590004108000000004D6B8E73200000000000F9
:1045A000000000000000000000000000000000000B
:1045B00000000000000000000000000000000000FB
:1045C00000000000000000000000000000000000EB
:1045D00000000000000000000000000000000000DB
:1045E0000000000060002002000000000000000049
:1045F0000000C001E0086049000000000000000069
:1046000000004041A02000028002600260026002BF
:10461000000200052003E00140000000000000004F
:104620000000C001A00120026000000000000000A6
:104630000000A0018001E0018000000000000000F7
:1046400000008001A0010002C00000000000000086
:10465000000000000421AA526108000000000000D0
:10466000200000000000000000000000000000002A
:10467000000000000000000000000000000000003A
:10468000000000000000000000000000000000002A
:10469000000000000000000000000000000000001A
:1046A0000000000000000000000000006000200288
:1046B00000000000000000000000C001E0086049A8
:1046C000000000000000000000004041A0200002A7
:1046D0008002600260026002000200052003E00127
:1046E00040000000000000000000C001A001200206
:1046F00060000000000000000000A0018001E00157
:10470000800000000000000000008001A001000205
:10471000C000000000000000000000000421AA52B8
:104720004108000000000000000000000000000040
:104730000000000000000000000000000000000079
:104740000000000000000000000000000000000069
:104750000000000000000000000000000000000059
:104760000000000000000000000000000000000049
:1047700000000000600020020000000000000000B7
:104780000000C001E00860490000000000000000D7
:1047900000004041A020000280026002600260022E
:1047A000000200052003E0014000000000000000BE
:1047B0000000C001A0012002600000000000000015
:1047C0000000A0018001E001800000000000000066
:1047D00000008001A0010002C000000000000000F5
:1047E000000000000421AA5241080000000000005F
:1047F00000000000000000000000000000000000B9
:1048000000000000000000000000000000000000A8
:104810000000000000000000000000000000000098
:104820000000000000000000000000000000000088
:1048300000000000000000000000000060002002F6
:1048400000000000000000000000C001E008604916
:10485000000000000000000000004041A020E00136
:104860008002400240024002E00100052003E00116
:1048700040000000000000000000C0018001200294
:1048800060000000000000000000A0016001E001E5
:10489000800000000000000000008001A001000274
:1048A000A000000000000000000000000421AA5247
:1048B00020000000000000000000000000000000D8
:1048C00000000000000000000000000000000000E8
:1048D0006108610861086108610861086108610890
:1048E0006108610861086108610861086108610880
:1048F0006108610861086108610861086108610870
:1049000061086108E10840020000000000000000AA
:104910000000E0016119805100000000000000006B
:10492000000040410131410AC10AA10AA10AA10ABD
:10493000410A2005610B0002400000000000000059
:104940000000C001E109610A6000000000000000F1
:104950000000A001E109210A600000000000000041
:1049600000008001E109610A21096108610861080C
:10497000610841086529AA528210A210A210821073
:1049800041082000000000000000000000000000BE
:104990000000000000000000610861086108610873
:1049A00061086108610861086108610861086108BF
:1049B00061086108610861086108610861086108AF
:1049C000610861086108610861086108C108400266
:1049D00000000000000000000000E00161198051AB
:1049E00000000000000000000000604101294102B9
:1049F000C10AA10AA10AA10A410A2005610B00020D
:104A000040000000000000000000C001E109600259
:104A100060000000000000000000A001C109210AA0
:104A2000600000000000000000008001E109410A70
:104A30000109410861086108610841086529AA5215
:104A4000610882108210AA522C63284200000000E4
:104A50000000000000000000000000000000000056
:104A60000000000000000000000000000000000046
:104A70000000000000000000000000000000000036
:104A80000000000000000000000000000000000026
:104A90000000000060002002000000000000000094
:104AA0000000C001E00860490000000000000000B4
:104AB00000004041A020E00180024002400240028C
:104AC000E00100052003E0014000000000000000BC
:104AD0000000C00180012002600000000000000012
:104AE0000000A0016001E001800000000000000063
:104AF00000008001A0010002A000000000000000F2
:104B0000000000000421AA52200000000000A6318D
:104B1000242124210000000000000000000000000B
:104B20000000000000000000000000000000000085
:104B30000000000000000000000000000000000075
:104B40000000000000000000000000000000000065
:104B500000000000000000000000000060002002D3
:104B600000000000000000000000C001E0086049F3
:104B7000000000000000000000004041A0200002F2
:104B80008002600260026002000200052003E00172
:104B900040000000000000000000C001A001200251
:104BA00060000000000000000000A0018001E001A2
:104BB000800000000000000000008001A001000251
:104BC000C000000000000000000000000421AA5204
:104BD0004108000000004529A63186310000000090
:104BE00000000000000000000000000000000000C5
:104BF00000000000000000000000000000000000B5
:104C000000000000000000000000000000000000A4
:104C10000000000000000000000000000000000094
:104C20000000000060002002000000000000000002
:104C30000000C001E0086049000000000000000022
:104C400000004041A0200002800260026002600279
:104C5000000200052003E001400000000000000009
:104C60000000C001A0012002600000000000000060
:104C70000000A0018001E0018000000000000000B1
:104C800000008001A0010002C00000000000000040
:104C9000000000000421AA52410800000000494A17
:104CA000AA52000000000000000000000000000008
:104CB00000000000000000000000000000000000F4
:104CC00000000000000000000000000000000000E4
:104CD00000000000000000000000000000000000D4
:104CE0000000000000000000000000006000200242
:104CF00000000000000000000000C001E008604962
:104D0000000000000000000000004041A020000260
:104D10008002600260026002000200052003E001E0
:104D200040000000000000000000C001A0012002BF
:104D300060000000000000000000A0018001E00110
:104D4000800000000000000000008001A0010002BF
:104D5000C000000000000000000000000421AA5272
:104D60006108000000006D6BAE73200000000000C1
:104D70000000000000000000000000000000000033
:104D80000000000000000000000000000000000023
:104D90000000000000000000000000000000000013
:104DA0000000000000000000000000000000000003
:104DB0000000000060002002000000000000000071
:104DC0000000C001E0086049000000000000000091
:104DD00000004041A02000028002600260026002E8
:104DE000000200052003E001400000000000000078
:104DF0000000C001A00120026000000000000000CF
:104E00000000A0018001E00180000000000000001F
:104E100000008001A0010002C000000000000000AE
:104E2000000000000421AA526108000000002000D8
:104E30004108000000000000000000000000000029
:104E40000000000000000000000000000000000062
:104E50000000000000000000000000000000000052
:104E60000000000000000000000000000000000042
:104E700000000000000000000000000060002002B0
:104E800000000000000000000000C001E0086049D0
:104E9000000000000000000000004041A0200002CF
:104EA0008002600260026002000200052003E0014F
:104EB00040000000000000000000C001A00120022E
:104EC00060000000000000000000A0018001E0017F
:104ED000800000000000000000008001A00100022E
:104EE000C000000000000000000000000421AA52E1
:104EF0002000000000000000000000000000000092
:104F000000000000000000000000000000000000A1
:104F10000000000000000000000000000000000091
:104F20000000000000000000000000000000000081
:104F30000000000000000000000000000000000071
:104F400000000000600020020000000000000000DF
:104F50000000C001E00860490000000000000000FF
:104F600000004041A0200002800260026002600256
:104F7000000200052003E0014000000000000000E6
:104F80000000C001A001200260000000000000003D
:104F90000000A0018001E00180000000000000008E
:104FA00000008001A0010002C0000000000000001D
:104FB000000000000421AA52410800000000000087
:104FC00000000000000000000000000000000000E1
:104FD00000000000000000000000000000000000D1
:104FE00000000000000000000000000000000000C1
:104FF00000000000000000000000000000000000B1
:10500000000000000000000000000000600020021E
:1050100000000000000000000000C001E00860493E
:10502000000000000000000000004041A020E0015E
:105030008002400240024002E00100052003E0013E
:1050400040000000000000000000C00180012002BC
:1050500060000000000000000000A0016001E0010D
:10506000800000000000000000008001A00100029C
:10507000A000000000000000000000000421AA526F
:105080002000000000000000000000000000000000
:105090000000000000000000000000000000000010
:1050A00061086108610861086108610861086108B8
:1050B00061086108610861086108610861086108A8
:1050C0006108610861086108610861086108610898
:1050D00061086108E10840020000000000000000D3
:1050E0000000E00161198051000000000000000094
:1050F000000040410131410AC10AA10AA10AA10AE6
:10510000410A2005610B0002400000000000000081
:105110000000C001E109410A600000000000000039
:105120000000A001C109210A600000000000000089
:1051300000008001E109610A210961086108610834
:10514000610841086529AA528210A210A2106108C4
:1051500041082000000000000000000000000000E6
:10516000000000000000000061086108610861089B
:1051700061086108610861086108610861086108E7
:1051800061086108610861086108610861086108D7
:10519000610861086108610861086108E10840026E
:1051A00000000000000000000000E00161198051D3
:1051B00000000000000000000000604101314102D9
:1051C000E10AA10AA10AA10A410A2005610B000215
:1051D00040000000000000000000C001E109610A79
:1051E00060000000000000000000A001C109210AC9
:1051F000600000000000000000008001E109610A79
:105200002109610861086108610841086529AA52FD
:1052100082108210A210AA522C63284200000000C3
:10522000000000000000000000000000000000007E
:10523000000000000000000000000000000000006E
:10524000000000000000000000000000000000005E
:10525000000000000000000000000000000000004E
:1052600000000000600020020000000000000000BC
:105270000000C001E00860490000000000000000DC
:1052800000004041A020E0018002400240024002B4
:10529000E00100052003E0014000000000000000E4
:1052A0000000C0018001200260000000000000003A
:1052B0000000A0016001E00180000000000000008B
:1052C00000008001A0010002A0000000000000001A
:1052D000000000000421AA52200000000000284223
:1052E000494A2421000000000000000000000000E6
:1052F00000000000000000000000000000000000AE
:10530000000000000000000000000000000000009D
:10531000000000000000000000000000000000008D
:1053200000000000000000000000000060002002FB
:1053300000000000000000000000C001E00860491B
:10534000000000000000000000004041A02000021A
:105350008002600260026002000200052003E0019A
:1053600040000000000000000000C001A001200279
:1053700060000000000000000000A0018001E001CA
:10538000800000000000000000008001A001000279
:10539000C000000000000000000000000421AA522C
:1053A000410800000000E739694A8631000000002A
:1053B00000000000000000000000000000000000ED
:1053C00000000000000000000000000000000000DD
:1053D00000000000000000000000000000000000CD
:1053E00000000000000000000000000000000000BD
:1053F000000000006000200200000000000000002B
:105400000000C001E008604900000000000000004A
:1054100000004041A02000028002600260026002A1
:10542000000200052003E001400000000000000031
:105430000000C001A0012002600000000000000088
:105440000000A0018001E0018000000000000000D9
:1054500000008001A0010002C00000000000000068
:10546000000000000421AA52410800000000284268
:10547000694A000000000000000000000000000079
:10548000000000000000000000000000000000001C
:10549000000000000000000000000000000000000C
:1054A00000000000000000000000000000000000FC
:1054B000000000000000000000000000600020026A
:1054C00000000000000000000000C001E00860498A
:1054D000000000000000000000004041A020000289
:1054E0008002600260026002000200052003E00109
:1054F00040000000000000000000C001A0012002E8
:1055000060000000000000000000A0018001E00138
:10551000800000000000000000008001A0010002E7
:10552000C000000000000000000000000421AA529A
:105530006108000000008E73CF7B20000000000097
:10554000000000000000000000000000000000005B
:10555000000000000000000000000000000000004B
:10556000000000000000000000000000000000003B
:10557000000000000000000000000000000000002B
:105580000000000060002002000000000000000099
:105590000000C001E00860490000000000000000B9
:1055A00000004041A0200002800260026002600210
:1055B000000200052003E0014000000000000000A0
:1055C0000000C001A00120026000000000000000F7
:1055D0000000A0018001E001800000000000000048
:1055E00000008001A0010002C000000000000000D7
:1055F000000000000421AA52610800000000200001
:105600004108000000000000000000000000000051
:10561000000000000000000000000000000000008A
:10562000000000000000000000000000000000007A
:10563000000000000000000000000000000000006A
:1056400000000000000000000000000060002002D8
:1056500000000000000000000000C001E0086049F8
:10566000000000000000000000004041A0200002F7
:105670008002600260026002000200052003E00177
:1056800040000000000000000000C001A001200256
:1056900060000000000000000000A0018001E001A7
:1056A000800000000000000000008001A001000256
:1056B000C000000000000000000000000421AA5209
:1056C00020000000000000000000000000000000BA
:1056D00000000000000000000000000000000000CA
:1056E00000000000000000000000000000000000BA
:1056F00000000000000000000000000000000000AA
:105700000000000000000000000000000000000099
:105710000000000060002002000000000000000007
:105720000000C001E0086049000000000000000027
:1057300000004041A020000280026002600260027E
:10574000000200052003E00140000000000000000E
:105750000000C001A0012002600000000000000065
:105760000000A0018001E0018000000000000000B6
:1057700000008001A0010002C00000000000000045
:10578000000000000421AA524108000000000000AF
:105790000000000000000000000000000000000009
:1057A00000000000000000000000000000000000F9
:1057B00000000000000000000000000000000000E9
:1057C00000000000000000000000000000000000D9
:1057D0000000000000000000000000006000200247
:1057E00000000000000000000000C001E008604967
:1057F000000000000000000000004041A020E00187
:105800008002400240024002E00100052003E00166
:1058100040000000000000000000C00180012002E4
:1058200060000000000000000000A0016001E00135
:10583000800000000000000000008001A0010002C4
:10584000A000000000000000000000000421AA5297
:105850002000000000000000000000000000000028
:105860000000000000000000000000000000000038
:1058700061086108610861086108610861086108E0
:1058800061086108610861086108610861086108D0
:1058900061086108610861086108610861086108C0
:1058A00061086108E10840020000000000000000FB
:1058B0000000E001411980510000000000000000DC
:1058C0000000404101294102C10AA10AA10AA10A1E
:1058D000410A2005410B00024000000000000000CA
:1058E0000000C001E109600260000000000000004B
:1058F0000000A001C109210A6000000000000000B2
:1059000000008001E109410A01096108610861089C
:10591000610841086529AA5282108210821061082C
:105920002000000000000000000000000000000057
:10593000000000000000000082108210821082101F
:1059400082108210821082108210821082108210C7
:1059500082108210821082108210821082108210B7
:10596000821082108210821082106210E2104002B7
:1059700000000000000000000000E00162198051FA
:105980000000000000000000000060410131410AF9
:10599000E10AA10AA10AA10A410A4005610B2002FD
:1059A00040000000000000000000C001E109610AA1
:1059B00060000000000000000000A001E109210AD1
:1059C000600000000000000000008001E109610AA1
:1059D0002109621082108210821061086529CB5A59
:1059E000A210A210A210AA524D6B084200000000A3
:1059F00000000000000000000000000000000000A7
:105A00000000000000000000000000000000000096
:105A10000000000000000000000000000000000086
:105A20000000000000000000000000000000000076
:105A300000000000600020020000000000000000E4
:105A40000000C001E0086049000000000000000004
:105A500000004041A020E0018002400240024002DC
:105A6000E00100052003E00140000000000000000C
:105A70000000C00180012002600000000000000062
:105A80000000A0016001E0018000000000000000B3
:105A900000008001A0010002A00000000000000042
:105AA000000000000421AA52200000000000A631DE
:105AB00086314529000000000000000000000000C1
:105AC00000000000000000000000000000000000D6
:105AD00000000000000000000000000000000000C6
