:020000040800F2
:10000000D0070020D501000813230008FF1A0008BC
:1000100011230008EB05000833260008000000004B
:10002000000000000000000000000000192300088C
:10003000ED05000800000000152300081B23000840
:10004000EF010008EF010008EF010008EF010008D0
:10005000EF01000817230008EF010008EF01000876
:10006000EF010008BB060008C1060008EF01000808
:10007000EF010008EF010008EF010008EF010008A0
:10008000EF010008EF010008EF010008EF01000890
:10009000EF010008EF010008EF010008C7060008A3
:1000A000EF010008EF010008EF010008EF01000870
:1000B00081230008EF010008EF010008EF010008AC
:1000C000EF010008EF010008EF010008EF01000850
:1000D000EF010008EF010008EF010008EF01000840
:1000E000EF010008EF010008EF010008EF01000830
:1000F000EF010008EF010008EF010008EF01000820
:10010000EF010008EF010008EF010008EF0100080F
:10011000EF010008EF010008EF010008EF010008FF
:10012000EF010008EF010008EF010008EF010008EF
:1001300000F002F800F03FF80AA090E8000C8244BA
:100140008344AAF10107DA4501D100F034F8AFF297
:10015000090EBAE80F0013F0010F18BFFB1A43F0A5
:10016000010318475006010070060100103A24BF31
:1001700078C878C1FAD8520724BF30C830C144BF0C
:1001800004680C607047000000230024002500264E
:10019000103A28BF78C1FBD8520728BF30C148BFEA
:1001A0000B607047642900F07180002070471FB514
:1001B0001FBD10B510BD00F0E2F91146FFF7F7FFC3
:1001C00002F0A4FA00F000FA03B4FFF7F2FF03BC58
:1001D00000F004FA0948804709480047FEE7FEE7B7
:1001E000FEE7FEE7FEE7FEE7FEE7FEE7FEE7FEE7E7
:1001F00004480549054A064B704700007D23000866
:1002000031010008D0010020D0070020D0030020D9
:10021000D00300200FB41CB5074B06AA7B446946E7
:100220000090059800F093F90020694600F0A2F9CB
:100230001CBC5DF814FB00005503000070B50446BB
:1002400085690068C10601D5302600E02026C00778
:1002500007D070BDD4E9012130469047206A401C88
:1002600020626D1EF6D570BD70B5044685690078B4
:10027000C00707D170BDD4E9012120209047206A32
:10028000401C20626D1EF6D570BD00002DE9F041C6
:100290000646002410687529314616A510D0AFF324
:1002A0000080002802DA404213A507E031688A077F
:1002B00001D512A502E0490704D511A5012401E0EA
:1002C000AFF3008000210A2206F1240709E0B0FB09
:1002D000F2FCB0FBF2F302FB1C00303078541846FD
:1002E000491C0028F3D123462A463046BDE8F04198
:1002F00000F0CEB8000000002D0000002B00000030
:10030000200000002DE9F05F894604464FF0000A06
:10031000DFF824B1FB44C0F820A02046E1688847FC
:1003200000287DD0252806D0D4E901219047206AF5
:10033000401C2062F1E700255F462046E1688847BF
:100340002028064607DB312E05D2B81910F8200CFC
:1003500008B10543F1E7A80701D525F00405C4F865
:100360001CA00027C4F818A02A2E09D0304602F09D
:1003700071F938B304EB8708303EC8F8186019E00B
:1003800059F8041B204604EB87029161E168884715
:10039000012F064618D1E069002820DA25F0200553
:1003A0001DE0D8F8180000EB800006EB4000303864
:1003B000C8F818002046E1688847064602F04AF966
:1003C0000028EED1012F0AD02E2E08D12046E16858
:1003D00088477F1C0646022F45F02005C4DBA06934
:1003E000002803DA404245F00105A061E80701D08A
:1003F00025F01005A6B1A6F14100192802D8203633
:1004000045F400654A463146204625604D46FFF7D3
:10041000C9FE60B1012807D0ED1D25F0070000E0FE
:1004200007E000F1080978E705F1040975E73046AF
:100430007AE7206ABDE8F09F8A0401004FF00002CD
:1004400000B5134694469646203922BFA0E80C50CA
:10045000A0E80C50B1F12001BFF4F7AF090728BFA5
:10046000A0E80C5048BF0CC05DF804EB890028BF21
:1004700040F8042B08BF704748BF20F8022B11F04A
:10048000804F18BF00F8012B7047704770477047C6
:100490002DE9F0470D4699469246044600F124089E
:1004A0000168880604D5E06921F01001216000E0B0
:1004B0000120A84201DD471B00E00027A1697A194D
:1004C00002EB0900081AA0612078C00602D4204679
:1004D000FFF7B4FE002608E0D4E901211AF806006F
:1004E0009047206A401C761C20624E45F4DB207841
:1004F000C0060AD52046FFF7A1FE06E0D4E9012197
:1005000030209047206A401C2062381EA7F1010766
:10051000F4DC07E0D4E9012118F805009047206ACF
:10052000401C2062281EA5F10105F3DC2046FFF7E0
:100530009BFE2078000602D50220BDE8F08701204E
:10054000FBE7000001694A1C02610878704700B5AA
:100550008FB0CDE901310021059105497944CDE9FC
:10056000031011466846FFF7CDFE0FB000BD000036
:10057000E5FFFFFF0A6802F8010B0A607047754645
:1005800000F028F8AE4605006946534620F0070003
:10059000854618B020B5FFF72BFEBDE820404FF090
:1005A00000064FF000074FF000084FF0000B21F05D
:1005B0000701AC46ACE8C009ACE8C009ACE8C0092A
:1005C000ACE8C0098D4670470446AFF30080204672
:1005D000FFF7FAFD004870476C0100200149182020
:1005E000ABBEFEE7260002007047FEE770472DE92C
:1005F000FF4F804682B00F4615B20024C2F10100C1
:1006000006B2A54256DB08EB050007EB040A019091
:100610001FFA8AF180B2059A01F0E0FB08EB0400B2
:10062000009007EB05091FFA89F180B2059A01F0E5
:10063000D5FBA8EB040B1FFA89F11FFA8BF0059A82
:1006400001F0CCFBA8EB05091FFA8AF11FFA89F02B
:10065000059A01F0C3FBA7EB040A1FFA8AF11FFAFF
:1006600089F0059A01F0BAFBA7EB05091FFA89F199
:100670001FFA8BF0059A01F0B1FB00981FFA89F17F
:1006800080B2059A01F0AAFB01981FFA8AF180B2A4
:10069000059A01F0A3FB641C24B2002E03DC06EBD8
:1006A0004400401CACE76D1E2DB2601B06EB400001
:1006B000801CA5E706B0BDE8F08F082000F0FEB86A
:1006C000102000F0FBB810B5202000F0F7F8BDE8CE
:1006D0001040402000F0F2B872B6FEE730B5B3F536
:1006E000804F05D06FF0704140F82210002030BDDF
:1006F0008C690B688D6823434C688989240144EA1E
:100700000524234343EA014150F82230014C2340A1
:100710001943E9E70000F0CF10B50A6850F822301D
:1007200023F0010340F822308C68082C23D00023EA
:100730004A682243CC681C430B6922431A434B6925
:100740000E4C1A43CB691A430B6A1A434B6A1A437D
:100750008B6A1A43CB6A1A430B6B1A438B69134398
:100760004A6B09681A4350F82130A343134340F8F9
:100770002130002010BD4023DAE700007FFF0F008A
:1007800030B5D1E9003443EA04138C688D89240222
:1007900044EA054423430C8A074D00EB820005EB35
:1007A000045423430C7D6D0105EB046489692343E4
:1007B0000B434360002030BD0000F0FF70B50446DD
:1007C00000F092F90546601C02D004480078044409
:1007D00000F08AF9401BA042FAD370BD58000020F7
:1007E00030B585B0002000900190029003901B4826
:1007F0000168002930D1012101601948416941F4A3
:10080000807141614069022400F4807004904FF2CD
:100810003F00CDE90004032569460395114800F027
:1008200059F841F23F00CDE90004694603950E48AE
:1008300000F050F84FF68070CDE90004694603954A
:100840000A4800F047F84CF23370CDE900046946DD
:100850000395074800F03EF805B030BD5000002079
:1008600000100240001C014000200140001801401F
:100870000014014010B5044601210E4800F026F98D
:100880006420FFF79BFF01200B49082C08D0102C97
:1008900009D0202C0AD0402C01D181F8250010BDB0
:1008A00081F8220010BD81F8230010BD81F82400DA
:1008B00010BD0000000C014018000020044910B5D4
:1008C0000A68024202D00860FFF7D4FF10BD0000A2
:1008D000140401402DE9F84FDFF8C8910024A9F174
:1008E000040B23460F2709F1040AABF1040ED1E0F3
:1008F0000125A54006EA0502AA4276D1DFF8A8C183
:100900004E68A6EB0C0866452BD00DDC032E34D0C8
:1009100005DC36B3012E19D0022E2FD11BE0112E8B
:1009200016D0122E2AD119E0B8F5881F19D006DC8E
:10093000B8F5803F15D0B8F5801F1FD111E0B8F58C
:10094000001F0ED0B8F5041F18D10AE0CB6815E0DF
:10095000CB681B1D12E0CB6808330FE0CB680C336B
:100960000CE08B682BB1012B4FF0080303D04561DD
:1009700004E0042302E0056100E00023FF2A01D81F
:10098000064601E000F104064FEA840501D9A5F10D
:100990002005D6F8008007FA05FC28EA0C0803FABF
:1009A00005F548EA0508C6F800804D68ED0070D5E9
:1009B0003E4DAE6946F00106AE61AD6924F0030616
:1009C00005F0010500953A4D06EB050CDCF80850E2
:1009D000A607360F07FA06F825EA0805DFF8D480DF
:1009E000404503D14FF0000825E052E0DFF8C88011
:1009F000404502D14FF001081DE0DFF8C0804045BE
:100A000002D14FF0020816E0DFF8B480404502D171
:100A10004FF003080FE0DFF8AC80404502D14FF003
:100A2000040808E0DFF8A080404502D14FF0050837
:100A300001E04FF0060808FA06F848EA0508CCF885
:100A400008804D68D9F80060ED024D4601D5164387
:100A500000E096432E604D68DAF80060AD0255461E
:100A600001D5164300E096432E604D68DBF8006028
:100A7000AD035D4601D5164300E096432E604D68F8
:100A8000DEF80060ED03754601D5164300E096439D
:100A90002E60641C0A681646E2407FF429AFBDE868
:100AA000F88F0000080401400000111000100240FF
:100AB0000000014000080140000C0140001001400E
:100AC0000014014000180140001C0140C26821EAE6
:100AD00002030A4043EA0241016170470AB1016121
:100AE00070470904FBE70000014880687047000078
:100AF00058000020024881680278114481607047E4
:100B000058000020074810B5016841F0100101604D
:100B1000032000F07BF8012000F006F800F024F834
:100B2000002010BD0020024070B50D4D04464FF46A
:100B30007A712878B1FBF0F00A490968B1FBF0F04E
:100B400000F0F6FA48B9102C07D200222146501EB8
:100B500000F03CF800206C6070BD012070BD00000A
:100B600058000020640000200F4808B5816941F05A
:100B700001018161816901F001010091C16941F0C8
:100B80008051C161C069002200F0805000900421B2
:100B9000052000F01BF8052000F00AF80348416822
:100BA00021F0E061416008BD0010024000000140FA
:100BB000002809DB00F01F0201219140400980005C
:100BC00000F1E020C0F8001170470000F0B40E4BB7
:100BD0001B680C46C3F30223C3F10705042D00D99B
:100BE0000425191D072901D2002300E0DB1E012680
:100BF00006FA05F1491E214099409E40761E164096
:100C00003143F0BC01F016BD0CED00E0064900F0E8
:100C1000070208684FF6FF03184040EA0220034A23
:100C200010430860704700000CED00E00000FA057A
:100C30002DE9F0470F46050061D0434E306800F0C3
:100C40000700B84209D2306820F00700384330600E
:100C5000306800F00700B84251D128683B4C81074A
:100C600012D5400703D5606840F4E06060602878E2
:100C7000000703D5606840F4605060606068A96850
:100C800020F0F000084360602878C00728D068682A
:100C9000012810D02168022810D0890700292EDAF7
:100CA000616821F0030101436160FFF71DFF804689
:100CB00041F288390DE021688903EFE78901EDE70A
:100CC000FFF712FFA0EB0801494502D90320BDE858
:100CD000F0876068696800F00C00B0EB810FEFD11D
:100CE000306800F00700B8420BD9306820F00700E8
:100CF00038433060306800F00700B84201D001206E
:100D0000E5E72878400705D56068E96820F4E060E9
:100D1000084360602878000706D56068296920F4D8
:100D2000605040EAC100606000F018F86168084A4D
:100D3000C1F30311515CC8400649086006480068C9
:100D4000FFF7F2FE0020C2E7002002400010024040
:100D500092070108640000205C0000200E4A5168E0
:100D60000E4801F00C03042B11D0082B0FD10C48B6
:100D7000C1F38343C903C05C0AD55168084AC1F373
:100D80004041921E515C054A5043B0FBF1F0704760
:100D900004494843704700000010024000127A00E6
:100DA0008207010800093D002DE9F84F040070D0CA
:100DB0002078C04DC00749D06868C0F38100012881
:100DC00007D06868C0F38100022809D16868C003B1
:100DD00006D52868800339D560680028E7D035E05B
:100DE0006068B0F5803F0BD010B1B0F5A02F11D0E6
:100DF000286820F480302860286820F4802002E0F1
:100E0000286840F480302860606890B1FFF76CFE7D
:100E100006460AE0286840F480202860F0E700BF1A
:100E2000FFF762FE801B642873D828688003F7D51B
:100E30000CE0FFF759FE064605E000BFFFF754FE41
:100E4000801B6428F0D828688003F7D420789A4E55
:100E500080074FF001094FF0000839D5686810F09D
:100E60000C0F07D06868C0F38100022809D16868B8
:100E7000C00306D42868800714D52069012808D14A
:100E800010E02069B0B1C6F80090FFF72DFE0746CC
:100E900005E00AE1FFF728FEC01B0228C4D8286835
:100EA0008007F7D52868616920F0F80040EAC100A2
:100EB00028600DE0C6F80080FFF716FE074604E044
:100EC000FFF712FEC01B022823D828688007F7D43A
:100ED000207800072CD57948A169D9B1C0F80090D5
:100EE000FFF702FE074604E0FFF7FEFDC01B0228E5
:100EF0000FD8686A8007F7D571484FF4FA51006837
:100F0000B0FBF1F0009000BF0098411E0091FAD2B2
:100F10000EE080E0C0F80080FFF7E6FD074604E041
:100F2000FFF7E2FDC01B022875D8686A8007F7D476
:100F30002078400760D5E8690027C00008D4E86938
:100F400040F08050E861E869012700F0805000908F
:100F50005C480168C90513D40168834641F4807177
:100F60000160FFF7C1FD824606E000BFFFF7BCFD50
:100F7000A0EB0A0064284ED8DBF80000C005F5D5C8
:100F8000E06801280AD008B1052813D0286A20F0AB
:100F900001002862286A20F0040002E0286A40F07C
:100FA00001002862E06841F2883B98B1FFF79CFDA0
:100FB00082460BE0286A40F004002862EEE700BF9A
:100FC000FFF792FDA0EB0A0159455AD8286A80071D
:100FD000F6D50CE0FFF788FD824605E0FFF784FDBB
:100FE000A0EB0A0159454CD8286A8007F6D41FB1F6
:100FF000E86920F08050E861E06988B36968C1F36E
:101000008101022944D00228C6F8608004D0FFF78D
:101010006BFD044638E034E0FFF766FD074604E068
:10102000FFF762FDC01B02282BD828688001F7D487
:10103000206AB0F5803F05D16868A16820F40030CF
:1010400008436860D4E908010843696821F4741111
:1010500008436860C6F86090FFF746FD044606E066
:1010600025E000BFFFF740FD001B022809D82868D3
:101070008001F7D51BE000BFFFF736FD001B0228FB
:1010800002D90320BDE8F88F28688001F4D40EE06F
:101090000128F7D06868226A00F48031914204D1B7
:1010A000616A00F47010884201D00120EAE7002054
:1010B000E8E7000000100240000042428004424283
:1010C000640000200070004070B515460E46040014
:1010D00007D0A069B0F5807F03D094F8410010B12B
:1010E00007E0012070BD002084F84000204600F099
:1010F0001DF804F108012068FFF70EFB3146A268D5
:101100002068FFF73DFBD4E901022946236BFFF776
:10111000E5FAA168206850F8212042F0010240F869
:101120002120012084F84100002070BDFFF758BB4A
:1011300010B5401EB0F1807F01D3012010BD4FF0EB
:10114000E02460610F21601701F074FA0020A061B3
:1011500007202061002010BD7047704710B590F83F
:101160003C20012A22D0012280F83C20CA688C68E9
:1011700022F4407222434C6822F4806222430C68BD
:1011800022F4006222430C6922F4805222434C690B
:1011900022F400522243C969002322F480420A4308
:1011A00001684A6480F83C30002010BD022010BD68
:1011B00070B590F83C20012A2CD0012480F83C40E6
:1011C000022280F83D2003685A689D6822F070066C
:1011D0000A6832435A60104B02689A420ED00F4B95
:1011E0009A420BD0B2F1804F08D00D4B9A4205D0F5
:1011F0000C4B9A4202D00C4B9A4204D1496825F01C
:1012000080031943916080F83D40002180F83C1034
:10121000084670BD022070BD002C01400034014022
:101220000004004000080040000C004010B504001D
:1012300003D094F83D0010B107E0012010BD00205C
:1012400084F83C00204600F01FF8022084F83D009E
:10125000211D206801F09AF8012084F8460084F8E6
:101260003E0084F83F0084F8400084F8410084F890
:10127000420084F8430084F8440084F8450084F870
:101280003D00002010BD000008B5114A016811485A
:10129000914208D1816941F400618161806900F463
:1012A0000060009008BDB1F1804FFBD1C16941F0F1
:1012B0000101C161C069002200F00100009002211B
:1012C0001C20FFF783FCBDE808401C20FFF770BC22
:1012D000002C01400010024090F83D10012901D07F
:1012E00001207047022180F83D100168CA6842F071
:1012F0000102CA6000680E4988420ED00D4988423A
:101300000BD0B0F1804F08D00B49884205D00B4973
:10131000884202D00A49884204D1816801F007015D
:10132000062903D0016841F00101016000207047E7
:10133000002C01400034014000040040000800403F
:10134000000C004001680A6A41F211131A4207D1E9
:101350000A6A9B101A4203D10A6822F001020A604D
:10136000012180F83D10002070470168CA6822F012
:101370000102CA6001680A6A41F211131A4207D1D8
:101380000A6A9B101A4203D10A6822F001020A601D
:10139000012180F83D100020704770B5044690F898
:1013A0003C000025012817D0012684F83C6002206B
:1013B00084F83D002068826822F0770222F47F42A0
:1013C00082600868502838D00DDC20284FD005DC1A
:1013D00090B3102811D14AE0022070BD302846D0C9
:1013E00040280AD13BE060282FD070280DD0B0F5FE
:1013F000805F03D0B0F5005F12D0012584F83D6016
:10140000002084F83C00284670BDCB68D1E901215A
:10141000206801F016F82068816841F0770109E042
:10142000CB68D1E90121206801F00BF820688168C0
:1014300041F480418160E1E719E0CA6849682068A9
:1014400001F0D4F85021206806E0CA684968206895
:1014500001F0DDF86021206800F0FDFFCEE7CA68EA
:101460004968206801F0C2F840212068F4E722684A
:1014700001461046F0E770472DE9F0410446006848
:10148000C66805694FF00007A90713D5B10711D544
:10149000F91E0161012020772068806980072046BD
:1014A00002D0FFF7E8FF04E000F0A4F8204600F0C7
:1014B00036F92777680716D5700714D521686FF0BD
:1014C00004000861022020772068806910F4407FC2
:1014D000204602D0FFF7CFFF04E000F08BF8204653
:1014E00000F01DF92777280715D5300713D5216897
:1014F0006FF008000861042020772068C069800729
:10150000204602D0FFF7B7FF04E000F073F8204652
:1015100000F005F92777E80616D5F00614D52168FE
:101520006FF010000861082020772068C06910F46F
:10153000407F204602D0FFF79EFF04E000F05AF8FB
:10154000204600F0ECF82777E80708D0F00706D02F
:1015500021686FF001000861204600F079F9280643
:1015600008D5300606D521686FF080000861204656
:10157000FFF7F2FD680608D5700606D521686FF002
:1015800040000861204600F0B9FAA8060AD5B00666
:1015900008D521686FF0200008612046BDE8F041C1
:1015A000FFF7DBBDBDE8F08100B585B000210091FB
:1015B00001910291039100680B49884212D10B48B6
:1015C000816941F0040181618069694600F004008D
:1015D00004904FF480700090022001900390044822
:1015E000FFF778F905B000BD002C01400010024063
:1015F00000080140704770B5044690F83C00002692
:101600000D4601280FD0012084F83C006AB1042A5D
:101610001DD0082A2FD00C2A3FD00126002084F8A4
:101620003C00304670BD022070BD206800F01CFFF9
:101630002068816941F0080181612068816921F099
:1016400004018161206881692A69114311E02068E1
:1016500000F03AFF2068816941F4006181612068EF
:10166000816921F480618161206881692A6941EA88
:1016700002218161D2E7206800F05CFF2068C16927
:1016800041F00801C1612068C16921F00401C16114
:101690002068C1692A69114311E0206800F07EFFCB
:1016A0002068C16941F40061C1612068C16921F409
:1016B0008061C1612068C1692A6941EA0221C16172
:1016C000ACE710B5040003D094F83D0010B107E07A
:1016D000012010BD002084F83C00204600F01EF8D8
:1016E000022084F83D00211D206800F04FFE0120FB
:1016F00084F8460084F83E0084F83F0084F84000F7
:1017000084F8410084F8420084F8430084F84400DF
:1017100084F8450084F83D00002010BD70477047F4
:1017200010B50446022249B104290ED0082913D06D
:1017300094F84100012816D0012010BD94F83E0015
:101740000128F9D184F83E200FE094F83F000128E9
:10175000F2D184F83F2008E094F840000128EBD152
:1017600084F8402001E084F841200122206800F044
:101770005BFE13492068134A884201D0904203D18E
:10178000436C43F400434364206888420DD0904288
:101790000BD0B0F1804F08D00B49884205D00B49DF
:1017A000884202D00A49884204D1816801F00701C9
:1017B000062903D0016841F001010160002010BD3D
:1017C000002C0140003401400004004000080040AB
:1017D000000C004030B504460D460068002200F0C1
:1017E00023FE194B41F2111120688A10984202D051
:1017F000164B984209D1036A0B4206D1036A134281
:1018000003D1436C23F4004343642068036A0B4212
:1018100006D1016A114203D1016821F00101016082
:1018200001203DB1042D08D0082D09D084F84100D5
:10183000002030BD84F83E00FAE784F83F00F7E767
:1018400084F84000F4E70000002C0140003401401F
:101850002DE9FC5F9F49A04B884202D1D868401C0B
:10186000D860DFF878B29C4B59460BF11800D1F8DC
:1018700008A099499BF80080D0E90256D1F808C029
:10188000D0E900718946D0E904214FF47A7EB8F19D
:10189000000FDB6800F11804F0467CD043455ADBAA
:1018A00093FBFEF8E044DFF830C2BAF1020FCCF847
:1018B000088093FBFEF80EFB183C874BC3F80CC066
:1018C00049D18046104602F0CDFB8246284631467B
:1018D00002F0C8FB05463846494602F0C3FB014604
:1018E0004AF6DC6753462A46384600F0BBFE0090B5
:1018F00064234FF4B9723C21AA2000F087F9BBF8A9
:101900000460D8E904015D4602F0ACFB8246D8E9E8
:10191000020102F0A7FB8146D8E9000102F0A2FB18
:10192000014653464A46384600F09CFEA8806A4865
:1019300081680091D0E9002369A12046FEF76AFC86
:101940001220CDE90004F0234FF4C8723C21AA20F4
:1019500000F006FBAE80604882683C2A0ADB3C212E
:1019600092FBF1F344682344436092FBF1F301FBE3
:101970001321816042683C2A0ADB3C2192FBF1F38F
:1019800004682344036092FBF1F301FB13214160DF
:10199000BDE8FC9FFFE743455BDB93FBFEF8ACEB48
:1019A0000808DFF834C1BAF1020FCCF8088093FBC5
:1019B000FEF80EFB183C484BC3F80CC049D18046DA
:1019C000104602F04FFB82462846314602F04AFBA1
:1019D00005463846494602F045FB01464AF6DC67B3
:1019E00053462A46384600F03DFE009064234FF4EB
:1019F000B9723C21AA2000F009F9BBF80460D8E9CB
:101A000004015D4602F02EFB8246D8E9020102F095
:101A100029FB8146D8E9000102F024FB0146534628
:101A20004A46384600F01EFEA8802B488168009187
:101A3000D0E900232AA12046FEF7ECFB1220CDE9D5
:101A40000004F0234FF4C8723C21AA2000F088FA69
:101A5000AE802148816800290CDAC1F13B023C23A9
:101A600092FBF3F243689B1AC2EB021201EB820174
:101A7000C0E90131416800290CDAC1F13B023C2385
:101A800092FBF3F203689B1AC2EB021201EB820194
:101A9000C0E90031016800293FF77AAF41680029A9
:101AA000FADC81680029F7DC002101604160816077
:101AB0000848FFF747FC01218BF800100CA1122009
:101AC000CDE90001F0234FF4C8723C21AA2000F0B8
:101AD00047FA5DE724010020680000200000002094
:101AE000253032643A253032643A253032640000C1
:101AF00030303A30303A3030000000007047FEE7B6
:101B000010B5044600F0AEFA08492220074A0880C2
:101B10000021921C4FF4C8730020401C148098428E
:101B2000FBD3491CF029F7D310BD0000FE07006C61
:101B30002DE9FE4F161ACDE900104FF000085D1A8E
:101B400047464FF0FF30002E02DD4FF0010102E06A
:101B500003D14FF000018B4602E08346C6F1000638
:101B6000002D02DD4FF0010002E003D14FF0000034
:101B7000824602E08246C5F10005AE4201DD3446F0
:101B800000E02C46601C4FF0000902901AE000981B
:101B90000F4A81B20198528880B200F01FF9B04418
:101BA0002F44A04504DD0198A8EB04085844019097
:101BB000A74203DD00983F1B5044009009F101004B
:101BC0001FFA80F902998945E1DDBDE8FE8F00002A
:101BD00000000020F0B51C4615460E4607460B4691
:101BE000FFF7A6FF3A46234631461046FFF7A0FF0F
:101BF00023462A4619463846FFF79AFF2A462346C7
:101C00003146BDE8F0401046FFF792BF2DE9F041A4
:101C1000984616460D460746069C00F0F9F90D4910
:101C2000222001F1020C0880F01B0022A8EB050124
:101C3000401C491C08E0002303E000BFACF8004052
:101C40005B1C9842FAD8521C9142F4D8BDE8F0418E
:101C500000F008BAFE07006C10B53220FEF7AEFDAA
:101C60000121002000F006FA3220FEF7A7FD322005
:101C7000FEF7A4FD0121002000F0FCF93220FEF760
:101C80009DFD002000F0BAF85349888004211A20F5
:101C900002F0E0F90C211B2002F0DCF900212320E6
:101CA00002F0D8F94021242002F0D4F90F21252098
:101CB00002F0D0F906212D2002F0CCF9142000F01A
:101CC00019FD0821182002F0C5F90121192002F0A0
:101CD000C1F9142000F00EFD0021012002F0BAF934
:101CE00088211F2002F0B6F906211C2002F0B2F96B
:101CF0000A2000F0FFFC80211F2002F0ABF90A202F
:101D000000F0F8FC90211F2002F0A4F9052000F05B
:101D1000F1FCD0211F2002F09DF90A2000F0EAFC1E
:101D20000521172002F096F9142000F0E3FC0021B1
:101D3000402002F08FF90921412002F08BF9122195
:101D4000422002F087F90421432002F083F90021A8
:101D5000442002F07FF92321452002F07BF9032182
:101D6000462002F077F95E21472002F073F9002146
:101D7000482002F06FF90021492002F06BF90021A0
:101D80004A2002F067F900214B2002F063F900219C
:101D90004C2002F05FF900214D2002F05BF9002198
:101DA0004E2002F057F94F21572002F053F9A82195
:101DB000162002F04FF93821282002F04BF9282094
:101DC00000F098FC3C21282002F044F9BDE81040C6
:101DD0000A2000F08FBC00007800002010B51446E7
:101DE0000A460146104600F015F8034922200880F3
:101DF000881C048010BD0000FE07006C044900B57B
:101E00000880012000F076FC0148801C008800BD9D
:101E1000FE07006C10B50B460446010A802002F054
:101E200019F9E1B2812002F015F9190A822002F0B5
:101E300011F9BDE81040D9B2832002F00BB90000BF
:101E40002DE9FF4F1D46434B81B0203A8946B3F838
:101E500002B0D2B20E9903921A2D06D05FF00B0693
:101E60004FF000040090B9B36BE01026F8E700BF14
:101E700009F101001FFA80F9DDF8008003981A2D9E
:101E800008D000EBC0013448002700EB810030F897
:101E900014A01DE000EB800101EBC0012F48F3E727
:101EA0005FEA0A4001D55A4601E02A48828849463D
:101EB0004046FFF793FFB8F5C87F44D24FF6FF7155
:101EC00008F101007F1C01EA4A0A1FFA80F8BFB23C
:101ED000B742E5D3641CA4B2AC42C9D333E000BF1F
:101EE00009F101001FFA80F9DDF8008003981A2D2E
:101EF00008D000EBC0011848002700EB810030F843
:101F000014A01AE000EB800101EBC0011348F3E7D5
:101F10005FEA0A4004D55A4649464046FFF75EFF4D
:101F2000B8F5C87F0FD24FF6FF7108F101007F1C92
:101F300001EA4A0A1FFA80F8BFB2B742E8D3641C2C
:101F4000A4B2AC42CCD30349A1F802B005B0BDE8BD
:101F5000F08F000000000020D8E6000834F40008EC
:101F60002DE9F84F044600F0FF0A10190D46DDE98F
:101F70000A961FFA80F8581987B24FF0000B17E045
:101F8000444503D305EB0900544685B2BD4214D243
:101F90004B4629462046CDF800B0FFF751FF04EB31
:101FA000590084B2B9F11A0F01D1E41CA4B2761C15
:101FB0003278A2F120005E28E2D9BDE8F88F2DE941
:101FC000F05F984616468B4681460025DDF828A02E
:101FD0001AE000240BEB050712E005FB06410DF1AA
:101FE0002C0C3AF811009CE80E0000F03BFB024676
:101FF00009EB0400B9B280B2FFF7F0FE641CA4B292
:10200000B442EADB6D1CADB24545E2DBBDE8F09FB2
:1020100070B50D460446010A1646022002F01AF871
:10202000E1B2032002F016F8310A042002F012F89F
:10203000F1B2052002F00EF8290A062002F00AF893
:10204000E9B2072002F006F8190A082002F002F8A7
:10205000D9B2092001F0FEFF21462846BDE87040B4
:10206000FFF7D8BEEF23002140F28F120846FFF79A
:10207000CFBF0000024A1080901C01807047000012
:10208000FE07006C00B587B01C216846FEF7D6F944
:1020900017484FF020411022016016494160062187
:1020A00081600021C160C0E904128161C161130235
:1020B0000162C0E90913C1620163416381630F20BA
:1020C000FF230090CDE90103CDE903021120CDE902
:1020D0000501002269460648FEF7F6FF08B1FEF743
:1020E000FBFA0548C16941F48061C16107B000BDD8
:1020F00094000020040100A00000014070B586B0EB
:10210000002534480095019502950395816941F0B9
:1021100040018161816901F040010491816941F0D0
:1021200080018161816901F080010491816941F040
:1021300008018161816901F008010491816941F41C
:1021400080718161816901F480710491816941F03C
:1021500020018161816901F020010491816941F0D0
:102160000401816180691C4E00F00400049000228B
:1021700001213046FEF7B2FC782000901748012478
:10218000CDE9010469461648FEF7A4FB0220CDE91B
:1021900002500094694601943046FEF79BFB0022F2
:1021A00004210920FEF712FD0920FEF701FD00229F
:1021B00004210A20FEF70AFD0A20FEF7F9FC00229E
:1021C00004211720FEF702FD1720FEF7F1FC06B0F0
:1021D00070BD000000100240000C01400000111012
:1021E0000018014010B596B000240F94109411947B
:1021F000129413941C2108A81494FEF71FF92021AF
:102200006846FEF71BF92848264901604721C0E9C6
:10221000011440F2E731C0E9031444618461FFF71F
:1022200005F808B1FEF758FA4FF480500F900FA947
:102230001D48FFF7B2F808B1FEF74EFA1A48FFF74B
:1022400040FA08B1FEF748FA139413A916481494FB
:10225000FEF7AEFF08B1FEF73FFA7020CDE90804A3
:102260000A940B940C940D94002208A90E480E9425
:10227000FFF7C1F908B1FEF72FFA00944FF40050B0
:10228000CDE90440029401940394694606480794FA
:10229000FEF764FF08B1FEF71FFA0348FFF784F961
:1022A00016B010BD002C0140DC00002010B586B037
:1022B00000241648009401940294039404944FF06F
:1022C00080410594C0E900144FF6FF71C0E9024156
:1022D00004618461FEF7AAFF08B1FEF7FDF94FF42F
:1022E0008050009069460948FFF757F808B1FEF79B
:1022F000F3F9049404A905480594FEF759FF002852
:1023000001D0FEF7E9F906B010BD0000240100205D
:10231000FEE7FEE7704770477047FEF7EBBB30B54E
:102320008FB028216846FEF789F814210AA8FEF725
:1023300085F801210804CDE900100024029402254B
:102340000491CDE907504FF4E01009906846FEF77C
:102350002BFD08B172B6FEE70F20CDE90A054FF458
:102360008060CDE90C4002210AA80E94FEF760FCC3
:10237000002801D072B6FEE70FB030BD70470000F4
:102380000148FFF779B8000024010020F0B5026889
:10239000204C214D214E224F224B4FF0804CA04229
:1023A00009D0984207D0604505D0A84203D0B0427A
:1023B00001D0B84204D122F0700E4A6842EA0E02FF
:1023C000A04209D0984207D0604505D0A84203D06A
:1023D000B04201D0B84203D122F44075CA682A4302
:1023E0004D6922F080022A4302608A68C2620A684C
:1023F0008262A04201D0984201D1096901630121A2
:1024000041610169C90703D0016921F0010101613E
:10241000F0BD0000002C0140000400400008004016
:10242000000C00400034014010B501F01F030121F1
:10243000046A99408C430462016A9A401143016224
:1024400010BD10B5846842EA032224F47F440A4395
:102450002243826010BD826822F070020A4342F07B
:102460000701816070470000F0B5036A026A22F03C
:102470000102026242688469124E24F073050C68FE
:102480002C4323F002058B682B430D4DA84201D04D
:10249000B04205D123F00807CB683B4323F0040387
:1024A000A84201D0B04205D14D6922F440721543D3
:1024B0008A692A4342608461496841630362F0BDCE
:1024C000002C014000340140F0B5026A036A23F099
:1024D00010030362436884690D6824F4E64444EA07
:1024E00005248D6822F0200242EA05120F4D104E9D
:1024F000A84201D0B04206D1CF6822F0800242EA61
:10250000071222F04002A84201D0B04207D14D6923
:1025100023F4406343EA85038D6943EA85034360FE
:102520008461496881630262F0BD0000002C0140B3
:1025300000340140F0B5026A036A23F48073036239
:102540004368C46922F4007224F073050C68124ECB
:102550002C438D6842EA05220E4DA84201D0B042BC
:1025600006D1CF6822F4006242EA072222F4806298
:10257000A84201D0B04207D14D6923F4405343EA49
:1025800005138D6943EA05134360C4614968C1635B
:102590000262F0BD002C01400034014030B5046AF5
:1025A000026A22F4805202624268C3690D6823F411
:1025B000E64343EA05238D6824F4005444EA0534D5
:1025C000084DA84202D0084DA84204D14D6922F41A
:1025D000804242EA85124260C36149680164046234
:1025E00030BD0000002C01400034014010B5036AEA
:1025F000046A24F001040462846924F0F00444EACB
:10260000021423F00A020A438461026210BD10B56D
:10261000036A046A24F010040462846923F0A003AE
:1026200024F4704444EA023243EA011182610162F7
:1026300010BDFEE70907090E002804DB00F1E020C9
:1026400080F80014704700F00F0000F1E02080F8DF
:10265000141D704730380A2801D20120704700202D
:10266000704700002DE9F04117460A46204D064606
:1026700098462946104602F04DF804462946384649
:1026800002F048F807462946404602F043F88046E3
:10269000F00AC6F3451506F01F0602F01DF92146A3
:1026A00002F02EF902F0F8F8C4B21F2C00D91F2452
:1026B000284602F011F9394602F022F902F0ECF84E
:1026C000C5B23F2D00D93F25304602F005F94146FD
:1026D00002F016F902F0E0F8C0B21F2800D91F205E
:1026E000E10241EA4511014388B2BDE8F0810000F2
:1026F0000000A04042F2107204E0002100BF491C1B
:102700009142FBDB401EF8D2704700008EB0FEF70E
:10271000F9F9FFF704FEFFF7F1FCFFF7B3FCFFF751
:10272000C5FDFFF75FFDFFF797FAFF484FF0000B7D
:102730000990FD4C303CA06800287CD001287BD05B
:1027400002287AD0032879D0042878D0A04605281A
:1027500076D0062801F0DF820728EAD11834D4E9C0
:10276000040101F07FFC0646D4E9020101F07AFC85
:102770000546D4E9000101F075FC01464FF6FF77EC
:1027800033462A463846FFF76DFFFFF7B9F9D4E91B
:10279000040101F067FC0646D4E9020101F062FC85
:1027A0000546D4E9000101F05DFC014633462A46A6
:1027B0003846FFF757FFA8F80400DCA11220CDE946
:1027C00000014746F0234FF4C8720521B420FFF7FB
:1027D000C7FBCDF80CB0CDF810B0CDF814B0D4E9EB
:1027E00004014FF0010A4FF0000801F03BFC0646DF
:1027F000D4E9020101F036FC0546D4E9000101F0FC
:1028000031FC014633462A464AF6DC60FFF72AFFD0
:102810001E21009064234FF4B9720846FFF7F6F9C1
:102820004FEA070994F82200012801F00D8394F87B
:102830002300012805E012E01AE1ABE2F6E3F6E33B
:10284000F6E301F0078394F82400012801F00883DF
:1028500094F82500012801F0178301F00ABBDFF886
:10286000C8A2AAF1180A5546D5E9040101F0FAFBFD
:102870000746D5E9020101F0F5FB0646D5E900015E
:1028800001F0F0FB01464FF6FF783B4632464046EA
:10289000FFF7E8FEFFF734F9D5E9040101F0E2FBA8
:1028A0000746D5E9020101F0DDFB0646D5E9000146
:1028B00001F0D8FBA049CDE90010632300211A469E
:1028C0000846CDE90267FFF77AFBD5E9040101F07C
:1028D000C9FB0746D5E9020101F0C4FB0646D5E96C
:1028E000000101F0BFFB01463B4632464046FFF780
:1028F000B9FEA08091A01A27CDE900704FF4C879E5
:10290000F0234E464A461E216920FFF729FB90A07E
:102910001225CDE90050F02332463C217D20FFF7FF
:102920001FFB91A0CDE90050F02332465A217D20B3
:10293000FFF716FB90A0CDE90050F0233246782136
:102940007D20FFF70DFB91A0CDE90050F02332462A
:10295000A0217D20FFF704FBB8460026AAF10C0554
:102960004FEA0A0797F8220001280CD097F82300B5
:10297000012817D097F82400012822D097F82500C5
:1029800001282DD03DE02069002803DD2A222918E6
:1029900001F8012C814A87F822B0012142F8201069
:1029A00031212BE02069002803DD2A212A1802F8B2
:1029B000011C7A4987F823B0022241F820203221F5
:1029C0001CE02069002803DD2A212A1802F8011CD6
:1029D000724A87F824B0032142F8201033210DE019
:1029E0002069002803DD2A212A1802F8011C6B4AFD
:1029F00087F825B0042142F8201034212954401CC6
:102A00002061CDE90085F0234A46B4217D20FFF7FF
:102A1000A7FA206904281ED16420FDF7CFFE2A20E2
:102A2000C4F810B028706870A870E8703E495B4820
:102A300010310A6803689A420DD14A6843689A4285
:102A400009D18A6883689A4205D1C968C068814201
:102A500001D10120EFE3761C642E05D100262A2047
:102A600028706870A870E8700A20FDF7A7FE79E763
:102A70002D4D183DD5E9040101F0F4FA0746D5E9DA
:102A8000020101F0EFFA0646D5E9000101F0EAFA89
:102A9000324601464FF6FF763B463046FFF7E2FDF1
:102AA00040F28F170021009014233A460846FFF7A2
:102AB000ADF8D5E9040101F0D5FA8146D5E9020166
:102AC00001F0D0FA8046D5E9000101F0CBFA424688
:102AD00001464AF6DC684B464046FFF7C3FD0090CE
:102AE0008223C82214210020FFF790F8D5E90401C1
:102AF00001F0B8FA8246D5E9020101F0B3FA814645
:102B0000D5E9000101F0AEFA4A4601464FF6944974
:102B100053464846FFF7A6FD009082233A4614210B
:102B2000C820FFF773F83BE0300000207365742085
:102B300074696D6500000000B89800084D69637203
:102B40006F50726F636573736F72204C6162000027
:102B50004D6F6168616D6D61642045737465676870
:102B6000616D6174000000004D6F61686D6D61649E
:102B700020416C65616C69004D616E64616E61201D
:102B800053686162616E7A6164656800456E746560
:102B9000722050617373776F72643A008400002072
:102BA000D5E9040101F05EFA0390D5E9020101F0D4
:102BB00059FA8246D5E9000101F054FA524601461D
:102BC0004FF6FB7A5046039BFFF74CFD0090EF2336
:102BD000C82282210020FFF719F8D5E9040101F08D
:102BE00041FA0390D5E9020101F03CFA0290D5E9DF
:102BF000000101F037FADDE9022301464CF21860CA
:102C0000FFF730FD0090EF233A468221C820FEF7FF
:102C1000FDFFD5E9040101F025FA0190D5E9020193
:102C200001F020FA0746D5E9000101F01BFA014640
:102C30003A463046019BFFF715FDA080FEA0122604
:102C4000CDE900604FF4C877F0233A460021962082
:102C5000FFF786F9D5E9040101F004FA0090D5E9FF
:102C6000020101F0FFF90390D5E9000101F0FAF942
:102C700001464046009B039AFFF7F4FCA080F1A0B8
:102C8000CDE90060F0233A4641214B20FFF768F977
:102C9000D5E9040101F0E6F90090D5E9020101F05F
:102CA000E1F98046D5E9000101F0DCF90146424630
:102CB0004846009BFFF7D6FCA080E4A0CDE9006069
:102CC00040F21318F0233A4641214046FFF748F9F5
:102CD000D5E9040101F0C6F90190D5E9020101F03E
:102CE000C1F98146D5E9000101F0BCF901464A4627
:102CF0005046019BFFF7B6FCA080D6A0CDE900604E
:102D0000F0233A46AF213720FFF72AF9D5E904012D
:102D100001F0A8F98246D5E9020101F0A3F9814644
:102D2000D5E9000101F09EF9014653464A464CF2AE
:102D30001860FFF797FCA080C9A0CDE90060F023E0
:102D40003A46AF214046FFF70BF900BF95F8220045
:102D500001280FD095F8230001280FD095F8240002
:102D600001280FD095F8250001280FD00A20FDF783
:102D700025FDEBE785F822B002205CE285F823B060
:102D8000032058E285F824B0042054E2584685F820
:102D900025B050E2B44D0326D5E9040101F062F9F3
:102DA0008046D5E9020101F05DF90746D5E9000149
:102DB00001F058F9434601464FF6FF783A4640463F
:102DC000FFF750FCFEF79CFED5E9040101F04AF93B
:102DD0008146D5E9020101F045F90746D5E9000130
:102DE00001F040F901464B463A464046FFF73AFCAF
:102DF000A0809EA14FF01209CDE90091A246F023D8
:102E00004FF4C87205219120FFF7AAF8D5E9040113
:102E100001F028F90746D5E9020101F023F904463B
:102E2000D5E9000101F01EF901463B4622464AF66B
:102E3000DC60FFF717FC1E21009064234FF4B97289
:102E40000846FEF7E3FED5E9040101F00BF9074659
:102E5000D5E9020101F006F90446D5E9000101F0C7
:102E600001F98749CDE90010CDE9024732231A461E
:102E70006E211E20FFF7A3F8D5E9040101F0F2F856
:102E80000746D5E9020101F0EDF80446D5E9000155
:102E900001F0E8F87B49CDE90010CDE90247322383
:102EA0001A466E217F20FFF78AF8D5E9040101F068
:102EB000D9F80746D5E9020101F0D4F80446D5E96E
:102EC000000101F0CFF87049CDE90010CDE90247CB
:102ED00032231A466E21E020FFF771F8D5E904018C
:102EE00001F0C0F80746D5E9020101F0BBF804463D
:102EF000D5E9000101F0B6F86449CDE90010CDE94B
:102F0000024732231A466E2140F24110FFF757F86C
:102F10005FA1CDE90091F0234FF4C872B4211E20C7
:102F2000FFF71EF864A1CDE90091F0234FF4C872B9
:102F3000D2211420FFF714F895F8220001280CD0B4
:102F400095F8230001284DD095F82400012870D071
:102F500095F8250001286DD0FDE05A4685F822B08D
:102F600036B1012E08D0022E0AD0032E38D0F2E05E
:102F70005B48FEF7B1F9EEE05948FEF7F6F9EAE0F2
:102F80005848134658A1026042608260C2600092B5
:102F90000998FDF73FF9BAF80470D5E904015446E1
:102FA00001F060F80390D5E9020101F05BF80290AE
:102FB000D5E9000101F056F8DDE9022301464AF6A1
:102FC000DC60FFF74FFBA0800998F023CDE900906B
:102FD0004FF4C8723C21AA20FEF7C2FFA780BAE0D6
:102FE0000721BFE006EB4610002400EB861785F8AA
:102FF00023B0373704F11E0082B2B8B243468221B3
:10300000FDF7F5FA641C052CF4DB761C032E00DDBD
:10301000002606EB4610002400EB861717F1370751
:1030200004F11E0082B2B8B2002365E09EE035E2F2
:1030300090E368E093E000004D61696E204D656E9D
:1030400075000000312D54696D657200322D5057A6
:103050004D000000332D53657474696E6773000072
:10306000342D4261636B00001800002073746F7090
:103070002077617463682074696D657200000000D8
:10308000A8710008205E0008984A000830850008F2
:103090006F6B203A207075736820627574746F6E60
:1030A00020312020204261636B3A70757368206282
:1030B0007574746F6E203400203C203A2070757354
:1030C0006820627574746F6E203220202020203EAC
:1030D000203A7075736820627574746F6E203300C7
:1030E0002401002068000020253032643A25303267
:1030F000643A2530326400008221FDF778FA641CBE
:10310000052C8DDB27E006EB4610002400EB86172C
:1031100085F824B017F1370704F11E0082B2B8B267
:1031200043468221FDF763FA641C052CF4DB761E0E
:1031300000D5032606EB4610002400EB8617373730
:1031400004F11E0082B2B8B200238221FDF74FFACB
:10315000641C052CF4DB0A20FDF730FBECE685F857
:1031600025B00121CAF80810FFF7E3BAFE4DD5E9F2
:10317000040100F077FF0746D5E9020100F072FF75
:103180000646D5E9000100F06DFF01464FF6FF78D5
:103190003B4632464046FFF765FAFEF7B1FCD5E9FB
:1031A000040100F05FFF0746D5E9020100F05AFF75
:1031B0000646D5E9000100F055FF01463B46324680
:1031C0004046FFF74FFAA5F11801F0238880E7A1E8
:1031D0001220CDE900014FF4C87202218C20FEF7C5
:1031E000BFFE4FF0010A4FF00009D046CDF81CA0F9
:1031F000DD4C94F8220001280CD094F8230001281B
:1032000024D094F8240001283FD094F82500012808
:103210004ED046E084F822B0B9F1010F03D0B9F1E5
:10322000000F09D0E2E00120824607900021D0483B
:10323000FEF776FA99E07DE2CB484FF001081838A6
:103240004169491C416101EB81001AE084F823B017
:10325000B9F1010F03D0B9F1000F09D0C6E0002089
:10326000014607904FF0010AC148FEF7B3FA7CE02F
:10327000BD494FF0010818394869401E486100EB0C
:103280008000BC494000086019E009F1010000EB32
:10329000D07121F0010184F824B0A0EB01094FF0B6
:1032A000010AB9F1000F0AD0B9F1010F5DD09DE01C
:1032B000AD49012081F825B01839886054E75AEAF1
:1032C0000800AFD0D4E904014FF0000A00F0CAFEB4
:1032D0000546D4E9020100F0C5FE0646D4E9000126
:1032E00000F0C0FE01462B4632464FF6FF70FFF756
:1032F000B9F99D4D1A26183D4FF4C877A8809EA0B5
:10330000CDE90060F0233A468C211E20FEF728FE0E
:103310009DA0CDE90060F0233A4664211E20FEF70F
:103320001FFEA0A0CDE90060F0233A4664211E20D4
:10333000FEF716FE9FA16A690998FCF76BFF0998D2
:103340001225CDE90050F0233A466E214FF48770E4
:10335000FEF706FE079808B197A000E099A0CDE916
:103360000050F0233A468C213DE05AEA08003DD057
:1033700088A01A26CDE900604FF4C8774FF0000A04
:10338000F0233A468C211E20FEF7EAFD90A0CDE9FD
:103390000060F0233A4664211E20FEF7E1FD81A083
:1033A0001225CDE90050F0233A4664211E20FEF795
:1033B000D7FD6D487FA1183842690998FCF72AFFAC
:1033C0000998F023CDE900503A4664218C20FEF79D
:1033D000C7FD079808B178A000E07AA0CDE90060A9
:1033E000F0233A468C211E20FEF7BAFDB8F1000FFB
:1033F0003FF4FEAED4E904014FF0000800F032FEC5
:103400000546D4E9020100F02DFE0646D4E900018C
:1034100000F028FE01462B4632464FF6FF70FFF7BC
:1034200021F9142100903C234FF4A0720846FEF7C6
:10343000EDFB4D4F0025183F05EBC50000EB0514D3
:10344000142000EB8406B2B2B0B214233C21FEF784
:103450006FFBB88A142300EB8400143082B2B0B240
:103460001946FEF765FBB88A3C2300EB8400143054
:1034700082B280B21421FEF75BFB782000EB84005F
:1034800082B2B88A3C2300EB8400143080B2194623
:10349000FEF74EFB6D1C032DCEDBA9E6324DD5E9C0
:1034A000040100F0DFFD0746D5E9020100F0DAFD76
:1034B0000646D5E9000100F0D5FD01464FF6FF783C
:1034C0003B4632464046FFF7CDF840F28F190021C7
:1034D000009014234A460846FEF798FBD5E90401FC
:1034E00000F0C0FD0746D5E9020100F0BBFD06462D
:1034F000D5E9000100F0B6FD01464AF6DC6A3B461C
:1035000032465046FFF7AEF800908223C8221421BD
:103510000020FEF77BFBD5E9040100F0A3FD074680
:10352000D5E9020100F09EFD0646D5E9000100F054
:1035300099FD01463B4632464FF69440FFF792F81C
:10354000009082234A461421C820FEF75FFBD5E98C
:10355000040100F087FD0746D5E9020100F082FD75
:103560000646D5E9000141E01800002050574D0003
:10357000DC000020342C01402020202020202020AE
:10358000202020202000000020202020202020209B
:10359000202020202020202020202020202020202B
:1035A0002020000050574D204475747920437963E2
:1035B0006C653A002533640050574D203A204F4E39
:1035C0000000000050574D203A204F4646000000B2
:1035D00020202020202020202020202020202020EB
:1035E00020202020202020202020200000F03AFD54
:1035F00001463B4632464CF21860FFF733F8009024
:10360000EF234A4682210020FEF700FBD5E90401A2
:1036100000F028FD0746D5E9020100F023FD06462B
:10362000D5E9000100F01EFD01463B46324640460A
:10363000FFF718F8A080FEA01226CDE900604FF435
:10364000C879F0234A460021A520FEF789FCD5E978
:10365000040100F007FD8046D5E9020100F002FDFB
:103660000746D5E9000100F0FDFC014643463A4615
:103670005046FEF7F7FFA080F0A0CDE90060F023F0
:103680004A4641211420FEF76BFCD5E9040100F005
:10369000E9FC8046D5E9020100F0E4FC0746D5E9E3
:1036A000000100F0DFFC014643463A464FF69440E5
:1036B000FEF7D8FFA080E6A0CDE90060F0234A46DF
:1036C000412140F20910FEF74BFCD5E9040100F05E
:1036D000C9FC8046D5E9020100F0C4FC0746D5E9E3
:1036E000000100F0BFFC014643463A464CF2186028
:1036F000FEF7B8FFA080AFF29860CDE90060F0233C
:103700004A46AF21AA20FEF72BFC5E4695F8220020
:1037100001280CD095F8230001280DD095F824003D
:1037200001280DD095F8250001280FD00AE085F872
:1037300022600620A06017E585F823600520F9E7E0
:1037400085F824600A20FDF739F8DFE785F8256061
:10375000FFF77FB9C04D0024012006940390D5E9FE
:10376000040100F07FFC0746D5E9020100F07AFC75
:103770000646D5E9000100F075FC01464FF6FF79D9
:103780003B4632464846FEF76DFFFEF7B9F9D5E9EC
:10379000040100F067FC0746D5E9020100F062FC75
:1037A0000646D5E9000100F05DFC01463B46324685
:1037B0004846FEF757FFA8F80400A8A01227CDE955
:1037C00000704FF4C878F02342460521B420FEF77C
:1037D000C7FBA4A0CDE90070F0234246DC21002005
:1037E000FEF7BEFB9C4D95F8220001280CD095F801
:1037F0002300012825D095F82400012846D095F80B
:10380000250001287ED04BE085F822B024B1012CA0
:1038100009D0022C0ED036E0D5E9000100229C4BE5
:1038200000F052FC1BE0D5E902010022984B00F0A9
:103830004BFC1DE0D5E904010022954B00F044FC4F
:103840001FE085F823B024B1012C0BD0022C12D03C
:1038500019E0D5E9000100228D4B00F071FEC5E9A9
:10386000000110E0D5E902010022894B00F068FE5A
:10387000C5E9020107E0D5E904010022844B00F00C
:103880005FFEC5E904010120069009E00320641CE5
:1038900094FBF0F100FB114485F824B00120039063
:1038A000D5E900010022134600F0DAFC02D2002024
:1038B000C5E90000774ED5E900010022334600F04B
:1038C00009FE03D200203146C5E90001D5E9020115
:1038D0000022134600F0C4FC02D20020C5E9020019
:1038E000D5E902010022334600F0F4FD03D2694914
:1038F0000020C5E90201D5E904010022134600F0C9
:10390000AFFC00E037E002D20020C5E90400D5E9B1
:1039100004010022334600F0DDFD03D25D490020A2
:10392000C5E904014C4E4FF47847183E4FF49678A1
:1039300077805A23424632216420FEF74BF94FF438
:10394000FC69A6F80290962342466E216420FEF799
:1039500041F94FF01F0AA6F802A0D2234246AA213D
:103960006420FEF737F9A6F802B06CB1012C47D0FD
:10397000022C5BD01EE13848042280F825B01838AC
:103980008260A0F802B099E4039800284FD042A1C9
:103990004FF01A08CDE90081F0234FF4C872AA2134
:1039A0000F20FEF7DDFAAFF2C031CDE90081F02340
:1039B0004FF4C87232210F20FEF7D2FAAFF2404125
:1039C000CDE90081F0234FF4C8726E210F20FEF77D
:1039D000C7FA778032A1CDE90081F0234FF4C87295
:1039E00032210F20FEF7BCFAA6F802902DA14FF06D
:1039F0001208CDE90081F0234FF4C8726E217CE0FB
:103A00000398A0B124A14FF01A08CDE90081F0235A
:103A10004FF4C872AA210F20FEF7A2FAAFF2384184
:103A2000CDE90081F0234FF4C8723FE072E0B1E0CD
:103A300073657474696E677300000000312D43680C
:103A4000616E67652050617373776F726400000068
:103A5000322D5468656D6500180000205468656D4E
:103A600065000000312D20494E4352454153452009
:103A7000322D20444543524541534520332D205398
:103A8000454C45435420342D204241434B00000017
:103A90000000F03F00003440202020200000000003
:103AA00052454400475245454E00000032210F2048
:103AB000FEF756FAAFF23851CDE90081F0234FF40A
:103AC000C8726E210F20FEF74BFAA6F80290AFF2F3
:103AD0002C01CDE90081F0234FF4C8726E210F2034
:103AE000FEF73EFA7780AFF248014FF01208CDE9B9
:103AF0000081F0234FF4C87232210F20FEF730FA14
:103B0000A6F802A0FEA1CDE90081F0234FF4C8720F
:103B1000AA214AE00398E8B3AFF284014FF01A08F3
:103B2000CDE90081F0234FF4C872AA210F20FEF7DF
:103B300017FAAFF24C51CDE90081F0234FF4C8726F
:103B400032210F20FEF70CFAAFF2CC51CDE9008103
:103B5000F0234FF4C8726E210F20FEF701FAA6F889
:103B600002A0E7A1CDE90081F0234FF4C872AA2199
:103B70000F20FEF7F5F97780AFF2DC014FF0120865
:103B8000CDE90081F0234FF4C87232210F20FEF7F7
:103B9000E7F900E00EE0A6F80290AFF2F801CDE9F7
:103BA0000081F0234FF4C8726E210F20FEF7D8F980
:103BB00000200390D4480026A846478009E000BFB3
:103BC00006F1640082B280B25A233221FDF7B0FFC1
:103BD000761CD8E900010022CC4B00F07DFB0746A3
:103BE0000D46304600F024FB3A462B4600F038FBE9
:103BF000E6D3C5490025A1F80290DFF8109308E04C
:103C000005F1640082B280B296236E21FDF790FF29
:103C10006D1CD8E9020100224B4600F05DFB07460F
:103C20000E46284600F004FB3A46334600F018FBE7
:103C3000E6D35046DFF8D0A20025AAF8020008E03B
:103C400005F1640082B280B2D223AA21FDF770FF91
:103C50006D1CD8E9040100224B4600F03DFB0646EE
:103C60000F46284600F0E4FA3B46324600F0F8FAE8
:103C7000E6D30698F0B3002045460690D5E9040146
:103C800000F0F0F90746D5E9020100F0EBF906462D
:103C9000D5E9000100F0E6F9324601464FF6FF761D
:103CA0003B463046FEF7DEFCFDF72AFFD5E904016E
:103CB00000F0D8F98046D5E9020100F0D3F90746B3
:103CC000D5E9000100F0CEF9014643463A463046B8
:103CD000FEF7C8FCAAF80400AFF280201225CDE957
:103CE00000504FF4C876F02332460521B420FEF789
:103CF00037F900E00BE0AFF29420CDE90050F0235B
:103D00003246DC210020FEF72BF9012003900A2027
:103D1000FCF754FD66E57C4D1835D5E9040100F04B
:103D2000A1F90746D5E9020100F09CF90646D5E95C
:103D3000000100F097F901463B4632464FF6FF700E
:103D4000FEF790FCFDF7DCFE71A01A27CDE90070AC
:103D50004FF4C878F0234646424605215020FEF72E
:103D6000FFF86FA0CDE90070F02332463C211E2001
:103D7000FEF7F6F84FF48C79A5F10C0695F82200C1
:103D800001280CD095F8230001280FD095F82400C5
:103D9000012815D095F82500012818D022E085F8D3
:103DA00022B0206931210122315405E085F823B089
:103DB00020693221022231545E4941F820200FE06F
:103DC00085F824B0206933213154032105E085F8BA
:103DD00025B02069342131540421564A42F820107C
:103DE000401C2061CDE90076F02342463C21484644
:103DF000FEF7B6F82069042803D00A20FCF7DEFCA1
:103E0000BCE70420C4F810B0A0602A2030707070A5
:103E1000B070F07048A11220CDE90001E5234246C0
:103E2000A0211E20FEF79CF8374B0020414A40336A
:103E300052F8201043F82010401C0428F8DB6420BE
:103E4000FCF7BCFC77E400BF84F822B00AF1010063
:103E500004E000BF84F823B0AAF10100824608E024
:103E600008F10100032190FBF1F201FB120884F834
:103E700024B0B8F1020F19D0B8F1010F23D0B8F176
:103E8000000F2DD039E000BF84F825B00221C9F819
:103E9000081028491C39C1F80CB0059B8B60049BA5
:103EA0004B60039B0B6089F800B044E405993C200B
:103EB000514491FBF0F200FB1210059000281CDA2F
:103EC000CDF814B019E004993C20514491FBF0F274
:103ED00000FB1210049000280FDACDF810B00CE0AF
:103EE000039800EB0A013C2091FBF0F200FB12105A
:103EF0000390002801DACDF80CB000272CE0000078
:103F0000424C554500000000000000200000144015
:103F10004368616E67652050617373776F726400E8
:103F20004C6F67696E2070617373776F7264203AAB
:103F300000000000840000205468652070617373E5
:103F4000776F726420686173206265656E206368B4
:103F5000616E67656400000008EBC80101EB08159D
:103F600005F1B40615F1BE05D4E9040100F07AF8B4
:103F70000790D4E9020100F075F80090D4E900013F
:103F800000F070F801460020079B009AFEF76AFBDC
:103F9000A9F802005023AAB2B0B21946FDF7C8FD35
:103FA0003220FCF70BFCD4E9040100F05BF8009030
:103FB000D4E9020100F056F80790D4E9000100F0BE
:103FC00051F801464AF6DC60009B079AFEF74AFB6F
:103FD000A9F802005023AAB2B0B21946FDF7A8FD15
:103FE0003220FCF7EBFB7F1C042FBDDBA9F802B0ED
:103FF00005980090DDE903234D4613A10998FCF7CD
:1040000009F9D4E9040100F02DF80746D4E90201CA
:1040100000F028F80646D4E9000100F023F8014634
:104020003B4632464AF6DC60FEF71CFBA880099945
:104030001220CDE90001F0234FF4C8723C21AA20E0
:10404000FDF78EFFFEF7EEBB2532643A2532643A67
:1040500025326400024A1080901C018070470000E5
:10406000FE07006C21F00042A2F16052B2F5801F01
:1040700001F0004328BFD2F17F6C0BD95FEA001C2E
:1040800043EAC20242EB507018BF704728BF20F0CD
:1040900001007047B2F5801FBCBF184670474FEA59
:1040A000410C1CF5001F02D2084600F0F0BC70B5B0
:1040B00000F0BCF900000089FFF7F6BF4FF00040A8
:1040C000A0F580007047000010B591EA030F48BFCB
:1040D00083F0004300F13C82841A71EB030C05D29B
:1040E000121943EB0C03001B61EB0C01DFF824E118
:1040F0004FEA1154A4EB135C1EEA430F18BF9EEA6B
:10410000445F73D023EA0E03DCF1200E21EA045150
:1041100043F4801332D322FA0CFE10EB0E0023FA84
:104120000CFE41EB0E01CCF1200E03FA0EFE10EB5B
:104130000E0051F10001B1F5801FCCF1200E32D2FA
:1041400001EB045112FA0EF2BDE8104058BF70475F
:10415000401C38BF5FEA420218BF7047002814BFF6
:1041600020F0010041F100014FEA410313F5001F67
:1041700038BF7047A1F1C04100F0A6B9012A43EB56
:104180000302ACF1200CDCF11F0E32BF4FF0000E29
:1041900023FA0CF310EB030041EB0451B4EB115F75
:1041A000D0D0A1EB045101F5801149085FEA30003D
:1041B00001EB04510ED350F1000038BF12FA0EFE8D
:1041C00008D1BDE81040C9E7401C38BF5FEA420291
:1041D000CAD1C3E7BDE810404FEA410313F5001F01
:1041E00038BF7047A1F1C04100F06EB99EEA445F4C
:1041F00008D011EA5E0FBDE8104004BF01F0004195
:1042000000207047BDE8104070B500F00FF900BF06
:1042100064FBBE3E0000E0FF491058BFC1F14041C1
:104220005B1058BFC3F140438B42EFF300807047EF
:1042300010F0004248BF4042B0FA80F310FA03F198
:104240000AD0C3F11D0303F580634FEA415002EB2E
:10425000035202EBD12170474FF00000704700007D
:1042600051EA030C17D41CF5801F58BFBCF5801F02
:1042700000F10680994218BF704708BF904270470E
:1042800007D711F5801F58BF13F5801F19D4994225
:104290007047894270471CF5801F08D5BCF5801F08
:1042A000F7D58B4218BF704708BF824270474FF462
:1042B000001C1CEB410F38BF1CEB430F01D28B429B
:1042C000704770B500F0B2F8922449004FF00051E9
:1042D0004FF08053FFF7A0BFDFF848C170B51CEA6C
:1042E000111E1EBF1CEA13159EEA0C0F95EA0C0F57
:1042F00000F06F8081EA030423EA4C134EEAD47E77
:1043000021EA4C1141F4801143F48013AE44A1FB27
:10431000024CA0FB0365AEF17F7E361955EB0C0510
:10432000A1FB034C4CF10003A0FB021C16EB0C0696
:10433000654153F10003094218BF46F0010613F42A
:10434000007F0BD14FEA03314FEA0530340341EAD5
:10435000155140EA16506FF003020AE04FEAC321FC
:104360004FEAC520F40241EA555140EA56506FF039
:10437000020202EB2E4201EB025585EACE710AD011
:104380005FEA440C18BF24F0004450F1000041F1F2
:10439000000120EAD47040F2FE7C624500D270BD7C
:1043A000A84214BF4FF080444FF04044002E08BF95
:1043B0000024BEF1806FA8BFA1F1C041BDE87040EC
:1043C00080F282804FF0000001F1C04101F0004115
:1043D00070479EEA0C0F0CEA131518BF95EA0C0FF4
:1043E00006D04FF0000081EA030E0EF0004170BDD0
:1043F00000F01CF88900013E00F007B800F009B891
:104400004FEA430C5FEA5C5C08D081EA030100F0EC
:104410005BB84FEA410C5FEA5C5CF6D14FF00000FC
:10442000014970470000FF070000F87F0EF1020EFF
:104430002EF0030E5EF8046B364205D4012A43EBDE
:10444000030515F5001F12D8012841EB010C1CF5DE
:10445000001F0CD80ED14FEAD17C15F5001F0CEBD4
:104460004C0C0CF1020C08BF4CEBD37C04E04FF079
:10447000080C01E04FEAD37C0CEB4C0526FA05F65C
:1044800006F00706B6F1040C06D20EEB860CBDE86A
:1044900070404CF0010C6047DFE80CF0090B0202A1
:1044A0004FF000414FF00000A1F5002170BD19460A
:1044B0001046012851EB010418BFD4F5001484BF45
:1044C000002001F0004170BD0808A0F500114FEA7E
:1044D0003101704753EA010C17D41CF5801F58BFF7
:1044E000BCF5801F00F106808B4218BF704708BFE3
:1044F0008242704707D713F5801F58BF11F5801F00
:1045000019D48B4270479B4270471CF5801F08D519
:10451000BCF5801FF7D5994218BF704708BF90427D
:1045200070474FF4001C1CEB430F38BF1CEB410FCE
:1045300001D2994270470FB40CBC03BCFFF7C1BE57
:1045400010B591EA030F48BF83F000433FF5C4ADB7
:10455000841A71EB030C07D212198CF0004C43EB58
:104560000C03001B61EB0C01DFF8A4E14FEA1154CE
:10457000A4EB135C1EEA430F18BF9EEA445F00F0F1
:10458000B08023EA6E03524221EA0451C3EB6E036A
:1045900038BF5B1EDCF1200E25D322FA0CFE10EB97
:1045A0000E0043FA0CFE41EB0E01CCF1200E03FA93
:1045B0000EFE10EB0E0051F10001CCF1200E29D4BB
:1045C00012FA0EF201EB0451BDE8104058BF7047DB
:1045D000401C1CBFB2F1004F704700280CBF491CA3
:1045E00020F00100704712EB020E43EB030218BFEC
:1045F0004FF0010E4EEA4202ACF1200CDCF11E0E2F
:1046000054D943FA0CFE10EB0E0051F1FF31CCF1FE
:104610001E0ED5D50EF1010E12FA0EFE404141EBF1
:10462000010101EB445C5FEA5C5C10D910EBDE70C9
:1046300001EB045138BFBEF1004FBDE8104018BF78
:10464000704700280CBF491C20F00100704730D291
:104650004FEAD42C11F5001124F400641BD0B1FAF8
:1046600081F20B3AA41AA41ED2F12003914030FA31
:1046700003F31943904001EBCC71002C01EB045182
:10468000BDE81040A8BF704701F1C0414FF00000E5
:1046900001F000417047B0FA80F310FA03F100D145
:1046A00010BDE41A173C4805C90AE4E701EB0451C0
:1046B00010BD491001EB0451BDE810404FEA300035
:1046C00002E04FF0000170474A0008BF0042F8D0F6
:1046D000B2F5001F28BF704701F000414FF0000005
:1046E00070479EEA445F07D011EA5E0FBDE81040B4
:1046F00004BF002100207047BDE8104070B5FFF7EF
:1047000095FE00BF40DFF63E83F000411046704743
:104710000000E0FF4FF47F0C1CEAD0121EBF1CEA21
:10472000D11392EA0C0F93EA0C0F00F0858090EA07
:10473000010F48BF42F4807240F4000C41F40000C5
:104740002CF07F4120F07F4000B58142A2EB0302B4
:104750000FF2081CACEB504EC0F100009EF800E0D8
:104760004FEA4E0E00FB0EFC38BF49004FEA2C1CEE
:1047700002F5FA020CFB0EF34FEACE1E4FEA112CA3
:104780004FEAC1210EEB635E42EB22420EFB0CFCB2
:104790004FEA1C5300FB03114FEA112C4FEA013181
:1047A0000EFB0CFC4FEADC4C00FB0C11C14228BF95
:1047B00009184CEB03335DF804EB10EB410143EBBC
:1047C000C250B2F57C0F38BF704729D512F0F00FF8
:1047D0001CBF00F1C04000F00040704700818283A0
:1047E0008485868788898B8C8D8E8F919293959600
:1047F00097999A9C9D9FA0A2A3A5A7A8AAACAEB08A
:10480000B2B3B5B7B9BCBEC0C2C5C7C9CCCED1D48E
:10481000D7D9DCDFE2E6E9ECF0F3F7FAFE000000BE
:104820004FEA400C0CF1807CBCF17E4F28BF7047F2
:10483000B0F1C04000F02BB990EA010F0CEAD1139F
:1048400048BF42F48072624538BF634507D213F413
:104850007F0F16D080EA010000F00040704710B5CD
:1048600000F0CFF8097EFC3E00F005B880EA0100B8
:1048700000F00040704780EA010000F0004000F0C6
:1048800006B912F47F0F04BF0248704780EA0100A6
:1048900000F0FDB80000C07FC10DD1F19E0206DB23
:1048A0004FEA002343F0004323FA02F0704700422E
:1048B00007D54FEA4001B1F1FE4F02D24FF00000A0
:1048C000704710B500F09DF8499224800020704791
:1048D0006FEA200070470000B0FA80F310FA03F28C
:1048E000C3F19D030AD0D90501EB1220530638BF4E
:1048F000704700F1010008BF20F001007047000080
:104900004FF47F0C1CEAD0121EBF1CEAD11392EAAE
:104910000C0F93EA0C0F00F0478090EA010F48BF9C
:1049200042F480724FF0004C4CEA00204CEA012126
:1049300002EB0302A0FB0113A2F50002002918BF3D
:1049400043F001035B0028BF4FEA330342EB2242EE
:104950005FEA132C4CEBC2502EBFBCEB436FB2F599
:104960007C0F70474FEA036CBCF1004F08BF20F08A
:104970000100B2F57C0F38BF70470BD582F0FF0203
:1049800012F5803FC8BF704700F1C040D8BF00F0AB
:104990000040704700F5000C5FEA4C0C48BF7047C0
:1049A000B0F1C04000F073B890EA010F0CEAD113E7
:1049B00048BF42F48072624538BF634504D280EA42
:1049C000010000F00040704710B500F01AF800BF79
:1049D0008900013E00F007B800F009B85FEA410C19
:1049E0005FEA1C6C08D080EA010000F050B85FEA72
:1049F000400C5FEA1C6CF6D14FF00040A0F580003F
:104A000070470EF1020E2EF0030E5EF8044B2442A6
:104A100004D44FEA4102B2F17F4F11D84FEA40036C
:104A2000B3F17F4F0CD80ED14FEAD07CB2F17F4F5B
:104A30000CEB4C0C0CF1020C08BF4CEBD17C04E0ED
:104A40004FF0080C01E04FEAD17C0CEB4C0324FA48
:104A500003F404F00704B4F1040C06D20EEB840C4A
:104A6000BDE810404CF0010C6047DFE80CF007088F
:104A700002024FF00040A0F5800010BD0846420041
:104A800018BFD2F1807288BF00F0004010BDFF2136
:104A900041EAD050C0057047FFFFFFFFFFFFFFFF57
:104AA000FFFFFFFFFFFFFFFFFFFFFFFFFFFFFFFF16
:104AB000FFFFFFFFFFFFFFFFFFFFFFFFFFFFFFFF06
:104AC000FFF7DFEFBEE79EDF7ED77EDF9EDF9EDF54
:104AD000DFEFFFF7FFFFFFFFFFFFFFFFFFFFFFFF1E
:104AE000FFFFFFFFFFFFFFFFFFFFFFFFFFFFFFFFD6
:104AF000FFFFFFFFFFFFFFFFFFFFFFFFFFFFFFFFC6
:104B0000FFFFFFFFFFFFFFFFFFFFFFFFFFFFFFFFB5
:104B1000FFFFFFFFFFFFFFFFFFFFFFFFFFEF7ED75E
:104B2000DCB63A969775366DF65CD554B54CB54CF7
:104B3000B54CD55416657775F98DBBAE7DD7FFEFB3
:104B4000FFFFFFFFFFFFFFFFFFFFFFF79ED77DD7B0
:104B5000FFF7FFFFFFFFFFFFFFFFFFFFFFFFFFFF6D
:104B6000FFFFFFFFFFFFFFFFFFFFFFFFFFFFFFFF55
:104B7000FFFFFFFFFFFFFFFFFFFFFFFFBFDFFCB6F1
:104B8000D885F55C9444953C9534B534B634B63448
:104B9000B634B634B63496349634753475347444B9
:104BA000F55CD8853DC7FFEFFFFFFEFFFFF79ED7FF
:104BB0005675F88DFFEFFFF7FFFFFFFFFFFFFFFFC9
:104BC000FFFFFFFFFFFFFFFFFFFFFFFFFFFFFFFFF5
:104BD000FFFFFFFFFFFFFFFFFFFFFFFFDFE7BBA6BA
:104BE000566DB544B53CB63CD73CF73C173D173D38
:104BF000F73CF734F734D734D734D634F734D734D6
:104C0000D734B734B6349534D5545A96BFD7FFF756
:104C1000DFDFD87D3234155DBFDFFFFFFFFFFFFF11
:104C2000FFFFFFFFFFFFFFFFFFFFFFFFFFFFFFFF94
:104C3000FFFFFFFFFFFFFFFFFFFFFFFFFFEF3DC78E
:104C40009875B544B53CD73C183D183DF73CF73C4A
:104C5000B63CB63CB544D644F64CF64CF64CD6447D
:104C6000D63CB63CD63CF73C183DF73CB634953CB8
:104C700057653DAF7A96943C95349544DCAEFFF78A
:104C8000FFFFFFFFFFFFFFFFFFFFFFFFFFFFFFFF34
:104C9000FFFFFFFFFFFFFFFFFFFFFFFFFFFFFFE73C
:104CA000BB9EF54C943CF63CF83C173DF73CD63C9B
:104CB000F64C365DB8755A96BBA6FCB63DBF3DBFF7
:104CC0003DBFFCAE9B9E3A8ED97537551745F73CD4
:104CD000F73CD73C953CD644B53C9534B634753C4E
:104CE000D885FFEFFFFFFFFFFFFFFFFFFFFFFFFF85
:104CF000FFFFFFFFFFFFFFFFFFFFFFFFFFFFFFFFC4
:104D0000DFDF1996B44CB63CF73C183DF73CD53C78
:104D10003655187EFCAEBECFFFE7FFEFFFF7FFF77B
:104D2000FFF7FFF7FFF7FFF7FFEFFFEFDFDF7EC7CC
:104D30007B8E3755D63CF73CF73CB6349534B634C9
:104D4000D6349534F65C7ED7FFFFFFFFFFFFFFFFF1
:104D5000FFFFFFFFFFFFFFFFFFFFFFFFFFFFFFFF63
:104D6000FFFFDFDFD8859444D63C1845F744F63C76
:104D7000165539865DBFFFE7FFEFFFF7FFF7FFF737
:104D8000FFF7FFFFFFFFFFFFFFFFFFF7FFF7FFFF4B
:104D9000FFFFFFF7FFE75DBFB975B63CD63CD634E1
:104DA000B634B634D734B634954CDCB6FFF7FEFFD4
:104DB000FFFFFFFFFFFFFFFFFFFFFFFFFFFFFFFF03
:104DC000FFFFFFFFDFE7F9857444D63CF73CF83C72
:104DD000D644B76D3DB7FFE7FFF7FFF7FFF7FFFFDB
:104DE000FFFFFFFFFFFFFFFFFFFFFFFFFFFFFFFFD3
:104DF000FFFFFFFFFFFFFFFFFFFFFFF7BFD73A8E69
:104E0000F644B534B634B634B634B63C7544199667
:104E1000FFEFFFFFFFFFFFFFFFFFFFFFFFFFFFFFB2
:104E2000FFFFFFFFFFF7FFE7398E9544B63CF73CE5
:104E3000F73CD5443986DFCFFFEFFFF7FFFFFFFFD9
:104E4000FFFFFFFFDFFFDFFFFFFFFFFFFFFFFFFFB2
:104E5000FFFFFFFFFFFFFFFFFFFFDFFFDFFFFFFFA2
:104E6000FFFF7EBFF644952CD634B634B634D63424
:104E7000953C366DBED7FFFFFFFFFFFFFFFFFFFF33
:104E8000FFFFFFFFFFFFFFFFFFF7BBA6944CB53C02
:104E9000F73CF73CF64C7A96FFDFFFF7FFFFFFFF8A
:104EA000FFFFFFFFFFFFFFFFFFFFFFFFFFFFFFFF12
:104EB000FFFFFFFFFFFFFFFFFFFFFFFFFFFFFFFF02
:104EC000FFFFFFF7BFDF78757434B634B634B634FD
:104ED000B634B634B53C944CFCBEFFFFFFFFFFFF79
:104EE000FFFFFFFFFFFFFFFFFFFFFFFF9ECF165DEE
:104EF000953CD73CF73CF6447A96FFDFFFEFFFF78F
:104F0000FFFFFFFFDFFFDFFFDFFFFFFFFFFFFFFF11
:104F1000FFFFFFFFFFFFFFFFFFFFFFFFFFFFFFFFA1
:104F2000FFFFFFFFFFF75DCF987D33349534B62C3C
:104F3000B62CB634B634B62C9534543C1996FFF7DB
:104F4000FFFFFFFFFFFFFFFFFFFFFFFFFFFFFFEF81
:104F5000198E943CD63CD73C95443A8EFFDFFFEF48
:104F6000FFF7FFFFFFFFFFFFFFFFFFFFFFFFFFFF59
:104F7000FFFFFFFFFFFFFFFFFFFFFFFFFFFFFFFF41
:104F8000FFFFFFFFFFFFFFFFFFF7F89DF23B5434E9
:104F9000742C752C542C542C742C752C952C543446
:104FA000366DBFE7FFFFFFFFFFFFFFFFFFFFFFFFC4
:104FB000FFFF3DC7F654B53CF73CB63C9875DFD7CC
:104FC000FFEFFFF7FFFFFFFFFFFFFFFFFFFFFFFF09
:104FD000FFFFFFFFFFFFFFFFFFFFFFFFFFFFFFFFE1
:104FE000FFFFFFFFFFFFFFFFFFFFFFFFFFF71CCFEC
:104FF0003A9E1986D975986D5765375D175D174DBF
:10500000F644B444156D7ED7FFFFFFFFFFFFFFFF9F
:10501000FFFFFFFFFFEFD87D953CF73CD63CD65411
:105020003DBFFFEFFFF7FFFFFFFFFFFFFFFFFFFFAA
:10503000FFFFFFFFFFFFFFFFFFFFFFFFFFFFFFFF80
:10504000FFFFFFFFFFFFFFFFFFFFFFFFFFFFFFFF70
:10505000FFFFFFF7FFF7FFEFFFEFFFDFDFD7DFD740
:10506000BECF9EBF5DB71CAF3DC7DFEFFFF7FFFFB1
:10507000FFFFFFFFFFFFFFFF5DC7F554B63CF73CA6
:10508000B53C398EFFE7FFF7FFFFFFFFFFFFFFFF94
:10509000FFFFFFFFFFFFFFFFFFFFFFFFFFFFFFFF20
:1050A000FFFFFFFFFFFFFFFFFFFFFFFFFFFFFFFF10
:1050B000FFFFFFFFFFFFFFFFFFFFFFFFFFFFFFFF00
:1050C000FFFFFFF7FFF7FFF7FFF7FFF7FFF7FFF728
:1050D000FFFFFFFFFFFFFFFFFFFFFFF73A96953C43
:1050E000F73CD63C16557EC7FFF7FFFFFFFFFFFFDB
:1050F000FFFFFFFFFFFFFFFFFFFFFFFFFFFFFFFFC0
:10510000FFFFFFFFFFFFFFFFFFFFFFFFFFFFFFFFAF
:10511000FFFFFFFFFFFFFFFFDFFFDFFFFFFFFFFFDF
:10512000FFFFFFFFFFFFFFFFFFFFFFFFFFFFFFFF8F
:10513000FFFFFFFFFFFFFFFFFFFFFFFFFFFFBEDFE0
:10514000366DB53CF744B53C1986FFE7FFF7FFFF26
:10515000FFFFFFFFFFFFFFFFFFFFFFFFFFFFFFFF5F
:10516000FFFFFFFFFFFFFFFFFFFFFFFFFFFFFFFF4F
:10517000FFFFFFFFFFFFFFFFFFFFFFFFFFFFFFFF3F
:10518000FFFFFFFFFFFFFFFFFFFFFFFFFFFFFFFF2F
:10519000FFFFFFFFFFF7FFF7FFEFFFF7FFFFFFFF47
:1051A000FFFF1DC7D554D63CF73CD54C1CB7FFF7C5
:1051B000FFFFFFFFFFFFFFFFFFFFFFFFFFFFFFFFFF
:1051C000FFFFFFFFFFFFFFFFFFFFFFFFFFFFFFFFEF
:1051D000FFFFFFFFFFFFFFFFFFFFFFFFFFFFFFFFDF
:1051E000FFFFFFFFFFFFFFFFFFFFFFFFFFFFFFFFCF
:1051F000FFFFFFFFFFFFFFFFDFE7BBAEB78DDCBEAA
:10520000FFF7FFFFFFFF7BA6B544F73CB63C3665D2
:10521000BFD7FFF7FFFFDFFFFFFFFFFFFFFFFFFF2E
:10522000FFFFFFFFFFFFFFFFFFFFFFFFFFFFFFFF8E
:10523000FFFFDFFFDFFFFFFFFFFFFFFFDFFFFFFFDE
:10524000FFFFFFFFFFFFFFFFFFFFFFFFFFFFFFFF6E
:10525000FFFFFFFFFFFFFFFFFFFFFFEF1996944CDB
:105260003344977DFFE7FFFFFFF7F98DB544F73C27
:10527000953C1986FFE7FFFFFFFFFFFF9EEF79CE0A
:10528000B6B596B555AD34A514A5F39CD39CB29490
:1052900092949294718C518C3084508CF7BDDFFFC6
:1052A000FFFFFFFFFFFFFFFFFFFFFFFFFFFFFFFF0E
:1052B000FFFFFFFFFFFFFFFFFFFFFFFFFFFFBEDF5F
:1052C0001565543C753C37657ED7FFFFDFEF97755A
:1052D000B63CF73CB53CBB9EFFF7FFFFFFFFDFFF8F
:1052E000F49CAB528B52AB528A526A4A6A4A6A4A5F
:1052F000494A494A494A494A2942494A494A494A3E
:105300002C63FBDEFFFFFFFFFFFFFFFFFFFFFFFF41
:10531000FFFFFFFFFFFFFFFFFFFFFFFFFFFFFFFF9D
:10532000FFFFDEE7566D543C9644D554FCC6FFFFA4
:105330009EDF3665B63CF73CD6441CAFFFF7FFFF57
:10534000FFFFBEF7EF7B09428B4A6A4A6A4A6A4A04
:105350006A4A694A694A694A694A6A4A6A528A5281
:10536000AA528A528A4A38C6FFFFFFFFFFFFFFFF9B
:10537000FFFFFFFFFFFFFFFFFFFFFFFFFFFFFFFF3D
:10538000FFFFFFFFFFFFFFEFB77D5434B644954C9E
:105390009BAEFFFF7DD7F55CD63CD73CF64C3DBFBE
:1053A000FFF7FFFFFFFFFFFF38C6B394B394D3941A
:1053B000D394D394F49C149D34A535A535A575AD2F
:1053C00096B596B58E73494AAA5238C6FFFFFFFFBD
:1053D000FFFFFFFFFFFFFFFFFFFFFFFFFFFFFFFFDD
:1053E000FFFFFFFFFFFFFFFFFFFFFFEFF98D543CC3
:1053F000963C75445A9EFFF77DCFF554D63CD63C7B
:10540000F64C5EBFFFF7FFFFFFFFFFFFFFFFFFFF51
:10541000FFFFFFFFFFFFFFFFFFFFFFFFFFFFFFFF9C
:10542000FFFFFFFFFFFFFFFF518C2842AA4A59CE22
:10543000FFFFFFFFFFFFFFFFFFFFFFFFFFFFFFFF7C
:10544000FFFFFFFFFFFFFFFFFFFFFFFFFFFFFFF774
:105450001996553C963C753C1A96FFF77DCFF5544E
:10546000D63CD73CF64C5DBFFFF7DFFFDFFFFFFF09
:10547000FFFFFFFFFFFFFFFFFFFFFFFFFFFFFFFF3C
:10548000FFFFFFFFFFFFFFFFFFFFDFFF308428422A
:10549000AA5279CEFFFFFFFFFFFFFFFFFFFFFFFFD5
:1054A000FFFFFFFFFFFFFFFFFFFFFFFFFFFFFFFF0C
:1054B000FFFFFFF73A96543CB63C75441996FFF748
:1054C0007DD7D554B63CD73CF64C3DBFFFF7DFFF48
:1054D000DFFFFFFFFFFFFFFFFFFFFFFFDFFFDFFF3C
:1054E000FFFFFFFFFFFFFFFFFFFFFFFFFFFFDFFFEC
:1054F00030842842CA5279CEFFFFFFFFFFFFFFFF33
:10550000FFFFFFFFFFFFFFFFFFFFFFFFFFFFFFFFAB
:10551000FFFFFFFFFFFFFFF73A96753CB63C95444F
:105520001A96FFF79ED7F55CB63CD63CD64C1DB715
:10553000FFF7FFFFFFFFFFFFFFFFFFFFFFFFFFFF83
:10554000DFFFDFFFFFFFFFFFFFFFFFFFFFFFFFFFAB
:10555000FFFFDFFF518C2842CA5279CEFFFFFFFFC9
:10556000FFFFFFFFFFFFFFFFFFFFFFFFFFFFFFFF4B
:10557000FFFFFFFFFFFFFFFFFFFFFFEF198E743CF0
:10558000B63C753C3A9EFFF7DFE7366D953CD73C5D
:10559000B544DCA6FFEFFFF7FFF7FFFFFFFFFFFFBC
:1055A000FFFFFFFFFFFFFFFFFFFFFFFFFFFFFFFF0B
:1055B000FFFFFFFFFFFFDFFF518C2842CA5279CE69
:1055C000FFFFFFFFFFFFFFFFFFFFFFFFFFFFFFFFEB
:1055D000FFFFFFFFFFFFFFFFFFFFFFFFFFFFFFEFEB
:1055E000D87D7534B63475447BA6FFF7FFEF987D00
:1055F000953CD73C95445A96FFEFFFF7FFF7FFFF26
:10560000FFFFFFFFFFFFFFFFFFFFFFFFFFFFFFFFAA
:10561000FFFFFFFFFFFFFFFFFFFFBEF7518C284298
:10562000CA5279CEFFFFFFFFFFFFFFFFFFFFFFFF23
:10563000FFFFFFFFFFFFFFFFFFFFFFFFFFFFFFFF7A
:10564000FFFFDFE7976D9534B63CB544BCAEFFF77E
:10565000FFF73996953CF73C953CB87DFFE7FFF79F
:10566000FFF7FFF7FFFFFFFFFFFFFFFFFFFFFFFF5A
:10567000FFFFFFFFFFFFFFFFFFFFFFFFFFFFBEF783
:1056800010842842CB5279CEFFFFFFFFFFFFFFFFC0
:10569000FFFFFFFFFFFFFFFFFFFFFFFFFFFFFFFF1A
:1056A000FFFFFFFFFFFFBFD7575DB634B63CD554B1
:1056B0003DBFFFFFFFF7DCAEB544D73CB63C365DDF
:1056C0009ECFFFF7FFF7FFF7DFFFFFFFFFFFFFFFB3
:1056D000FFFFFFFFFFFFFFFFFFFFFFFFFFFFFFFFDA
:1056E000FFFFBEF730840842CB52DAD6FFFFFFFF40
:1056F000FFFFFFFFFFFFFFFFFFFFFFFFFFFFFFFFBA
:10570000FFFFFFFFFFFFFFFFFFF73DB7F644D73472
:10571000B63C37659ED7FFFFFFFF7ECF165DB73CD7
:10572000F744D54CFCAEFFF7FFF7FFF7FFFFFFFF95
:10573000FFFFFFFFFFFFFFFFFFFFFFFFFFFFFFFF79
:10574000FFFFFFFFFFFFFFFF18C62C63718C9EF762
:10575000FFFFFFFFFFFFFFFFFFFFFFFFFFFFFFFF59
:10576000FFFFFFFFFFFFFFFFFFFFFFFFFFEF5A8E6F
:10577000D63CF734B63CB87DDFE7FFF7FFFFFFE725
:10578000977D953CF7449544D885FFEFFFFFFFF7E1
:10579000FFFFFFFFFFFFFFFFFFFFFFFFFFFFFFFF19
:1057A000FFFFFFFFFFFFFFFFFFFFFFFFFFFF3CE7E4
:1057B0009EF7FFFFFFFFFFFFFFFFFFFFFFFFFFFF62
:1057C000FFFFFFFFFFFFFFFFFFFFFFFFFFFFFFFFE9
:1057D000BFD7775DB634F734B5447AA6FFEFFFF74D
:1057E000FFFFFFF79BA6B544F73CB63CF65C7ECFC7
:1057F000FFF7FFF7FFFFFFFFFFFFFFFFFFFFFFFFC9
:10580000FFFFFFFFFFFFFFFFFFFFFFFFFFFFFFFFA8
:10581000FFFFFFFFFFFFFFFFFFFFFFFFFFFFFFFF98
:10582000FFFFFFFFFFFFFFFFFFFFFFFFFFFFFFFF88
:10583000FFFFFFF7DCA6D544D634B63CF6543DC78F
:10584000FFF7FFFFFFFFFFFF9ED73665B63CF7442B
:1058500095443A96FFEFFFFFFFFFFFFFFFFFFFFFBB
:10586000FFFFFFFFFFFFFFFFFFFFFFFFFFFFFFFF48
:10587000FFFFFFFFFFFFFFFFFFFFFFFFFFFFFFFF38
:10588000FFFFFFFFFFFFFFFFFFFFFFFFFFFFFFFF28
:10589000FFFFFFFFFFFFDFDF986DB634F734B63C44
:1058A000B875DFE7FFFFFFFFFFFFFFFFFFF73A9647
:1058B000753CF744D644165D5ECFFFF7FFFFFFFF50
:1058C000FFFFFFFFFFFFFFFFFFFFFFFFFFFFFFFFE8
:1058D000FFFFFFFFFFFFFFFFFFFFFFFFFFFFFFFFD8
:1058E000FFFFFFFFFFFFFFFFFFFFFFFFFFFFFFFFC8
:1058F000FFFFFFFFFFFFFFFFFFF7BBA6B544D63456
:10590000D734B544DCAEFFF7FFF7FFFFFFFFFFFF23
:10591000FFFF9ED7365DB63CF73C953CB87DDFE790
:10592000FFFFFFFFFFFFFFFFFFFFFFFFFFFFFFFF87
:10593000FFFFFFFFFFFFFFFFFFFFFFFFFFFFFFFF77
:10594000FFFFFFFFFFFFFFFFFFFFFFFFFFFFFFFF67
:10595000FFFFFFFFFFFFFFFFFFFFFFFF7ED7165D8B
:10596000B534F734953C7775DFDFFFF7FFF7FFF7C6
:10597000FFFFFFFFFFFFFFF79BA6B544D63CB63CF9
:1059800074445A9EFFEFFFFFDFFFDFFFDFFFDFFF03
:10599000DFFFFFFFFFFFFFFFFFFFFFFFFFFFFFFF37
:1059A000FFFFFFFFFFFFFFFFFFFFFFFFFFFFFFFF07
:1059B000FFFFFFFFFFFFFFFFFFFFFFFFFFFFFFEF07
:1059C000D885953CF734D634D54CFCBEFFF7FFFFA5
:1059D000FFFFFFFFFFFFFFFFFFFFFFFFDFDFD87DC0
:1059E000743CB6349534954C9BA6FFEFFFF7FFFF50
:1059F000FFFFFFFFFFFFFFFFFFFFFFFFFFFFFFFFB7
:105A0000FFFFFFFFFFFFFFFFFFFFFFFFFFFFFFFFA6
:105A1000FFFFFFFFFFFFDFFFDFFFDFFFFFFFFFFFF6
:105A2000FFF75A9EB544D634D634743CF985FFE767
:105A3000FFFFFFFFFFFFFFFFFFFFFFFFFFFFFFFF76
:105A4000FFF77ECF36657534D7349634B54C7A9EE1
:105A5000FFE7FFFFFFFFFFFFFFFFFFFFFFFFFFFF6E
:105A6000FFFFFFFFFFFFFFFFFFFFFFFFFFFFDFFF66
:105A7000DFFFDFFFDFFFDFFFFFFFFFFFFFFFFFFFB6
:105A8000FFFFDFE73A96B44CB63CD7349534366D19
:105A90009ECFFFF7FFFFFFFFFFFFFFFFFFFFFFFFAF
:105AA000FFFFFFFFFFF7FFEF1CBFD5549534F7341E
:105AB000B6349544F9859ED7FFF7FFFFFFFFFFFF40
:105AC000FEFFFFFFFFFFFFFFFFFFFFFFFFFFFFFFE7
:105AD000FFFFDFFFDFFFDFFFFFFFFFFFFFFFFFFF36
