:020000040800F2
:10000000C0060020B501000895100008DD0F0008AB
:100010009110000871020008A910000800000000FB
:100020000000000000000000000000009D1000081B
:10003000750200080000000099100008A1100008D7
:10004000CF010008CF010008CF010008CF01000850
:10005000CF010008CF010008CF010008CF01000840
:10006000CF010008CF010008CF010008CF01000830
:10007000CF010008CF010008CF010008CF01000820
:10008000CF010008CF010008CF010008CF01000810
:10009000CF010008CF010008CF010008CF01000800
:1000A000CF010008CF010008CF010008CF010008F0
:1000B000CF010008CF010008CF010008CF010008E0
:1000C000CF010008CF010008CF010008CF010008D0
:1000D000CF010008CF010008CF010008CF010008C0
:1000E000CF010008CF010008CF01000800F002F89E
:1000F00000F050F814A696E8000CB244B344DA4578
:1001000001D100F047F8BAE80F000FA696E83000DA
:10011000A5EB040504EB0607AAEB0704A7F101070A
:100120004FEA15154FEA3414A4F10104AC4201D38F
:1001300000F030F813F0010F18BFFB1A43F0010371
:1001400000F001F8DBE71847241200004412000019
:10015000103A24BF78C878C1FAD8520724BF30C8F3
:1001600030C144BF04680C60704700007047000055
:100170000023002400250026103A28BF78C1FBD8B0
:10018000520728BF30C148BF0B6070471FB51FBD65
:1001900010B510BD00F031F81146FFF7F7FF01F080
:1001A0008BF800F04FF803B4FFF7F2FF03BC00F048
:1001B00057F800000948804709480047FEE7FEE776
:1001C000FEE7FEE7FEE7FEE7FEE7FEE7FEE7FEE707
:1001D00004480549054A064B70470000A510000871
:1001E000ED000008C0000020C0060020C002002072
:1001F000C0020020704770477047754600F02CF829
:10020000AE4605006946534620F00700854618B003
:1002100020B5FFF7DDFFBDE820404FF000064FF0AE
:1002200000074FF000084FF0000BAC46ACE8C009E7
:10023000ACE8C009ACE8C009ACE8C00921F007018E
:100240008D46704710B50446AFF300802046BDE8E8
:100250001040FFF7A8BF00000048704710000020C2
:1002600001491820ABBEFEE72600020070470000DF
:10027000FEE7000070470000EFF3108072B600BF89
:10028000FEE70000B0B5044600F01EF9054640F256
:100290000000C2F200000078611C18BF044400BFD7
:1002A00000F012F9401BA042FAD3B0BD2DE9F04F87
:1002B00082B00E68002E00F0FD8041F20042C4F2D0
:1002C0000102042340F2004E904208BF03234FF680
:1002D000FF7CC4F2010E009300240123C1F2100C34
:1002E0004FF0000A4FF0000944E000BF012704F07E
:1002F0000C030F229A402BEA020207FA03F34FEA9B
:100300009A051A4346F825204E6840F20C45F20241
:10031000DEF8082054BF22EA080242EA0802C4F2CA
:100320000105CEF808202A68B30254BF22EA080269
:1003300042EA08022A60B303DEF8042054BF22EA2E
:10034000080242EA0802F303CEF80420DEF8002097
:100350004FF0010354BF22EA080242EA0802CEF835
:1003600000200E680AF1010A36FA0AF204F10404C8
:1003700000F0A08003FA0AFB16EA0B08F1D04E68E1
:10038000664511DC122E55D8DFE806F0340A4448E1
:10039000545454545454545454545454544C50007D
:1003A000D1F80C9046E000BF4FF6FF72C1F2210277
:1003B00096420FDC0022C1F2110296421AD00022AE
:1003C000C1F21202964215D00022C1F221029642D9
:1003D00010D02FE00022C1F2220296420AD0002261
:1003E000C1F23102964205D00022C1F23202964299
:1003F00020D100BF8A684AB1012A14BFC0F814B0E6
:10040000C0F810B04FF0080914E000BF4FF0040925
:1004100010E000BFCA6802F108090BE04FF00009C4
:1004200008E000BFCA6802F1040903E0CA6802F1EB
:100430000C0900BF22460646B8F5807F24BF203A4B
:10044000043637680F25954027EA050509FA02F2B8
:100450002A433260CA79D2067FF583AF41F218038E
:10046000C4F202031A68AEF57E7642F001021A6009
:100470001A6802F001020192019A2AF0030256F86A
:1004800002B040F60002C4F20102904210D040F6E1
:100490000042C4F2010290423FF428AF41F2000250
:1004A000C4F20102009F904208BF02271FE700BF6D
:1004B00000271CE702B0BDE8F08F0000002A08BF4B
:1004C000090401617047000040F2B800C2F2000068
:1004D0000068704740F2000040F2B801C2F200002C
:1004E000C2F2000100780A681044086070470000FA
:1004F00080B542F20000C4F20200016841F0100130
:100500000160032000F07AF80F2000F005F800F0F9
:1005100027F8002080BD000070B540F20006C2F24E
:10052000000640F208013278C2F200014FF47A73FB
:100530000968B3FBF2F20446B1FBF2F1084600F0A1
:1005400077FB0F2C4FF0010508D838B94FF0FF307A
:1005500021460022002500F025F87460284670BD71
:1005600082B041F21800C4F202000168022241F098
:1005700001010160016801F00101019101994168E7
:1005800041F080514160406800F080500090009838
:100590000420C4F20100016862F31A61016002B034
:1005A0007047000010B54EF60C5CCEF2000CDCF883
:1005B0000030C3F3022E8EF00704042C28BF04245D
:1005C000BEF103034FF0FF3E0EFA04F438BF0023E0
:1005D000A14399400EFA03F39A43114300F00F022E
:1005E00000F160430901043A03F5644362440028C2
:1005F00048BF02F10C03197010BD00004EF60C51FB
:10060000CEF200010A684FF6FF031A4060F30A2297
:1006100042F0806040F0FD7008607047002804BF21
:10062000012070472DE9F04381B042F20008C4F286
:1006300002080446D8F800000D4600F00700884282
:100640000CD2D8F8000020F007002843C8F80000BA
:10065000D8F8000000F00700A8426CD1206841F2F1
:1006600004098107C4F2020917D5410705D5D9F855
:10067000001041F4E061C9F80010010705D5D9F870
:10068000001041F46051C9F80010D9F80010A268B8
:1006900021F0F0011143C9F80010C00742D1D8F889
:1006A000000000F00700A8420CD9D8F8000020F0A4
:1006B00007002843C8F80000D8F8000000F0070041
:1006C000A84238D12068410707D5D9F80010E26860
:1006D00021F4E0611143C9F80010000708D5D9F8EA
:1006E0000000216920F4605040EAC100C9F8000010
:1006F000D9F8002002F00C00082841F20020C0F2D6
:100700007A0051D141F25A33C2F38341C0F600035B
:10071000595CD2033CD440F60010C0F23D0048437F
:1007200042E000BF606802280AD001282AD159F8A7
:10073000041C890308D4012001B0BDE8F08300BF88
:1007400059F8041C8901F6D5D9F8001021F00301ED
:100750000843C9F80000FFF7B7FE064641F28837A4
:10076000D9F80000616800F00C00B0EB810F96D062
:10077000FFF7AAFE801BB842F2D9032001B0BDE802
:10078000F08300BF59F8041C8907D4D5DCE700BF0B
:10079000D9F8002041F25833C2F34042C0F60003BA
:1007A0009A5C4843B0FBF2F0D9F8001041F24032B5
:1007B000C1F30311C0F60002515C40F2080220FAB6
:1007C00001F140F20400C2F200000068C2F200022F
:1007D0001160FFF7A1FE002001B0BDE8F08300002A
:1007E00040F2080041F20401C2F20000C4F202012A
:1007F0000068096841F25032C1F30221C0F60002DC
:10080000515CC8407047000040F2080041F204010A
:10081000C2F20000C4F202010068096841F25032DD
:10082000C1F3C221C0F60002515CC840704700000D
:10083000002804BF012070472DE9F04182B0044632
:10084000007841F20006C007C4F202060CD07068BE
:1008500000F00C00042840F081803068800303D54C
:100860006068002800F04E81207880071BD57068F2
:1008700010F00C0F09D0706800F00C00082840F050
:100880008B807068C00300F187803068800703D5D3
:100890002069012840F036813068616920F0F80055
:1008A00040EAC10030602078000713D42078400768
:1008B0002CD4E569002D00F02081706800F00C0058
:1008C000082840F0AF80012D40F00C81012002B0DB
:1008D000BDE8F081A069002800F08C800020C4F2FF
:1008E00042200121C0F88014FFF7EEFD054600BF4D
:1008F000706A800700F1BA80FFF7E6FD401B02280E
:10090000F6D9032002B0BDE8F08100BFF0695FEACC
:10091000C00808D4F06940F08050F061F06900F040
:1009200080500090009847F20007C4F20007386832
:10093000C0054DD4386840F480703860FFF7C4FDBE
:10094000054600BF3868C00542D4FFF7BDFD401B17
:100950006428F7D9032002B0BDE8F081706800F088
:100960000C00082803D17068C0033FF576AF6068BB
:10097000002800F00981B0F5A02F00F01D81B0F52E
:10098000803F00F01D81306820F480303060306896
:1009900020F4802017E100BF2069002840F2000009
:1009A000C4F2422000F08C8001210160FFF78CFD31
:1009B000054600BF306880073FF56EAFFFF784FD46
:1009C000401B0228F6D9032002B0BDE8F08100BF29
:1009D000E068002800F09A80052800F0B180012826
:1009E00000F0B280306A20F001003062306A20F0FE
:1009F0000400ACE00020C4F242200021C0F88014C2
:100A0000FFF762FD054600BF706A80077FF54EAFB5
:100A1000FFF75AFD401B0228F6D9032002B0BDE8BB
:100A2000F08100BF0027C4F2422700203866FFF79C
:100A30004BFD022D05460DD13068800140F1D68076
:100A4000FFF742FD401B02284FF00300F4D902B02B
:100A5000BDE8F081306880014FD5FFF735FD401BC0
:100A600002284FF00300F5D9F1E700BF40F208007B
:100A7000C2F20000006844F6D351C1F26201A0FB4B
:100A80000101480A019000BF00BF0198411E0028E3
:100A900001913FF40BAF00BF0198411E0028019166
:100AA0003FF404AF00BF0198411E002801913FF4BC
:100AB000FDAE00BF0198411E00280191E4D1F5E68A
:100AC00000210160FFF700FD054600BF3068800788
:100AD0007FF5E9AEFFF7F8FC401B02284FF003005A
:100AE000F4D9B4E77068216A00F480328A4209D1EF
:100AF000616A00F47010884204D1002002B0BDE8A1
:100B0000F08100BF012002B0BDE8F081306A20F022
:100B100001003062306A20F004003062FFF7D4FC3C
:100B2000054641F2883700BF306A800722D5FFF7BB
:100B3000CBFC401BB8424FF00300F5D987E700BF5C
:100B4000306A40F004003062306A40F001003062E8
:100B5000FFF7BAFC054641F2883700BF306A8007CC
:100B600008D4FFF7B1FC401BB842F7D9032002B00C
:100B7000BDE8F081B8F1000F3FF59BAEF06920F0C1
:100B80008050F06195E600BF306820F4803030601E
:100B9000306820F480203060FFF796FC054600BFE7
:100BA000306880037FF560AEFFF78EFC401B642841
:100BB0004FF00300F4D94AE7306840F480203060F9
:100BC000306840F480303060FFF77EFC054600BF9F
:100BD000306880033FF548AEFFF776FC401B642881
:100BE000F6D9032002B0BDE8F08100BF206AB0F55D
:100BF000803F05D17168A26821F400311143716012
:100C00007168626A21F47411114308437060012015
:100C10003866FFF759FC0446306880013FF56DAF38
:100C2000FFF752FC001B02284FF00300F4D90EE737
:100C3000411E0020B0EB116F1CBF012070474EF227
:100C40001002CEF2000251604EF62351CEF20001A6
:100C5000F0230B700721906011607047002804BFDB
:100C60000120704710B5044690F8410028B90020D3
:100C700084F84000204600F063F8242084F8410006
:100C80002068D4E90212C36823F40053C3600369E7
:100C900023F440531A430261D4E904231143C26888
:100CA000194341F20C639A431143C1604169A2693F
:100CB00021F44071114343F60002C4F20102904254
:100CC000416103D0FFF78CFD02E000BFFFF79CFD00
:100CD000D4E90023192148439900B0FBF1F048F210
:100CE0001F5CC5F2EB1CA0FB0C314FF69C7349094D
:100CF000C0F6FF7301FB0300322303EB0010A0FBDF
:100D00000C03F02000EA531000EB0110C3F3431171
:100D1000084490601069202120F4904010615069CF
:100D200020F02A005061D06840F40050D0600020CC
:100D3000606484F8411084F84210606310BD0000C4
:100D400070B586B040F60004C4F20104006804F5F2
:100D5000405100268842049602D006B070BD00BF04
:100D600041F21800C4F20200016802AD41F4804172
:100D70000160016801F4804101910199016841F02D
:100D8000040101600068294600F004000190019808
:100D90004FF400700290022003900320059020463B
:100DA000FFF784FA4FF48060CDE902062046294619
:100DB0000496FFF77BFA06B070BD00002DE9F04302
:100DC00081B0044690F84200202825D188460029A9
:100DD0004FF0010000F0FA801746002A00F0F6807C
:100DE000002022211D46606484F842102063FFF732
:100DF0006BFBA785E785A1680746B1F5805F02D147
:100E00002069002854D046464FF00008E08D0028A5
:100E100052D005F101090FE0022001B0BDE8F083D6
:100E2000406800266FF35F2028F8020BE08D013840
:100E3000E085E08D00283FD020680168890617D43E
:100E4000B9F1000F22D0002D00F0C480FFF73CFB69
:100E5000C01BA84200F2B6802068C168490744BFA1
:100E600001685FEA017129D401688906EED500BFE7
:100E7000002ED5D0A168B1F5805F15D009B92169E0
:100E800091B1406800F07F000FE000BF0168890663
:100E9000EED4016889065CBF01685FEA8161E7D42E
:100EA00001688906F2D5E3E7406806F8010BBDE763
:100EB0000026E08D0028ACD1002084E000210091C4
:100EC0000168009140680090009800BF206850E8D9
:100ED000030F216820F4907041E80302BAB3206840
:100EE00050E8030F216820F4907041E8030272B3C8
:100EF000206850E8030F216820F4907041E8030255
:100F00002AB3206850E8030F216820F4907041E86C
:100F10000302002ADAD11AE0206850E8050F2168A0
:100F200020F0010041E80502DAB1206850E8050F21
:100F3000216820F0010041E8050292B1206850E8E4
:100F4000050F216820F0010041E805024AB1206840
:100F500050E8050F216820F0010041E80502002A51
:100F6000DAD1206B012824D1206850E8030F2168D2
:100F700020F0100041E80302DAB1206850E8030FC6
:100F8000216820F0100041E8030292B1206850E887
:100F9000030F216820F0100041E803024AB12068E5
:100FA00050E8030F216820F0100041E80302002AF6
:100FB000DAD1202084F842000020082120636164F7
:100FC00084F840000320202184F8421001B0BDE8DD
:100FD000F08300BFFFF778FAF4E70000FEE70000B7
:100FE00070B584B041F21800C4F20200016840F606
:100FF000004441F0200101600168C4F2010401F0E5
:101000002001009100990168002241F0080101606F
:10101000016840F2FF7501F0080100910099016834
:10102000002641F004010160006840F2FF7100F009
:101030000400009000982046FFF740FA0120CDE917
:10104000010602200390694620460095FFF72EF91D
:1010500004B070BD80B540F2700043F60001C2F2EA
:101060000000C4F2010100234FF00C0C4FF4E132F8
:1010700080E80E00C0E90333C0E905C3C361FFF790
:10108000EDFD002808BF80BDBDE88040FFF7F4B843
:10109000FEE70000FEE70000704700007047000018
:1010A000FFF718BA70470000FEE7000010B50120F6
:1010B000FFF7E8F80220FFF7E5F840F60044C4F235
:1010C000010420464FF480710022FFF7F7F9204613
:1010D0004FF400710022FFF7F1F92046FF210022B2
:1010E000FFF7ECF9204601210122FFF7E7F920463E
:1010F0004FF480610122FFF7E1F920464FF480614F
:101100000022FFF7DBF90220FFF7BCF820464FF47E
:1011100080710022FFF7D2F920464FF400710022BF
:10112000FFF7CCF92046FF210022FFF7C7F9204640
:1011300002210122FFF7C2F920464FF4806101220B
:10114000FFF7BCF920464FF480610022BDE8104053
:10115000FFF7B4B910B50220FFF794F80220FFF7AB
:1011600091F840F60044C4F2010420464FF4807127
:101170000022FFF7A3F920464FF400710022FFF789
:101180009DF92046FF210022FFF798F920463821DB
:101190000122FFF793F920464FF480610122FFF707
:1011A0008DF920464FF480610022FFF787F9022075
:1011B000FFF768F820464FF480710022FFF77EF9B0
:1011C00020464FF400710022FFF778F92046FF21F6
:1011D0000022FFF773F9204606210122FFF76EF97E
:1011E00020464FF480610122FFF768F920464FF452
:1011F00080610022FFF762F90220FFF743F82046E2
:101200004FF480710022FFF759F920464FF4007126
:101210000022FFF753F92046FF210022FFF74EF985
:1012200020460C210122FFF749F920464FF4806146
:101230000122FFF743F920464FF480610022BDE808
:101240001040FFF73BB9000070B505460120FFF7DD
:1012500019F82E78002E08BF70BD40F60044C4F285
:101260000104013D0120FFF70DF820464FF4807185
:101270000122FFF723F920464FF400710022FFF707
:101280001DF92046FF210022FFF718F9F1B2204690
:101290000122FFF713F920464FF480610122FFF786
:1012A0000DF920464FF480610022FFF707F9AE7870
:1012B0000135002ED6D170BD90B0FFF719F900248A
:1012C0000120CDE90B44CDE9094406904FF480316B
:1012D0000A90022506A8CDE90714CDE90D510F9417
:1012E000FFF7A6FA20B1EFF3108072B6FEE700BF59
:1012F0000F20CDE9010501A80021CDE903440594A3
:10130000FFF78CF920B1EFF3108072B6FEE700BF53
:10131000FFF766FEFFF79EFEFFF71CFF40F270042A
:10132000C2F2000406AD00BF204629461022C823A1
:10133000FFF744FDFFF7BAFE2846FFF785FFF3E706
:101340000000000000000000010203040607080975
:101350000000000001020304010202030405060765
:1013600008090A0B0C0D0E0F101000009013000856
:10137000000000201000000050010008A013000829
:1013800010000020B00600007001000800000000FE
:10139000010000001000000000127A0000000000B0
:04000005080000ED02
:00000001FF
