:020000040800F2
:1000000098060020B5010008690C0008010C0008E2
:10001000650C0008710200087D0C0008000000005B
:10002000000000000000000000000000710C00084B
:1000300075020008000000006D0C0008750C000837
:10004000CF010008CF010008CF010008CF01000850
:10005000CF010008CF010008CF010008CF01000840
:10006000CF010008CF010008CF010008CF01000830
:10007000CF010008CF010008CF010008CF01000820
:10008000CF010008CF010008CF010008CF01000810
:10009000CF010008CF010008CF010008CF01000800
:1000A000CF010008CF010008CF010008CF010008F0
:1000B000CF010008CF010008CF010008CF010008E0
:1000C000CF010008CF010008CF010008CF010008D0
:1000D000CF010008CF010008CF010008CF010008C0
:1000E000CF010008CF010008CF01000800F002F89E
:1000F00000F050F814A696E8000CB244B344DA4578
:1001000001D100F047F8BAE80F000FA696E83000DA
:10011000A5EB040504EB0607AAEB0704A7F101070A
:100120004FEA15154FEA3414A4F10104AC4201D38F
:1001300000F030F813F0010F18BFFB1A43F0010371
:1001400000F001F8DBE71847C4120000E4120000D9
:10015000103A24BF78C878C1FAD8520724BF30C8F3
:1001600030C144BF04680C60704700007047000055
:100170000023002400250026103A28BF78C1FBD8B0
:10018000520728BF30C148BF0B6070471FB51FBD65
:1001900010B510BD00F031F81146FFF7F7FF01F080
:1001A0003FF800F04FF803B4FFF7F2FF03BC00F094
:1001B00057F800000948804709480047FEE7FEE776
:1001C000FEE7FEE7FEE7FEE7FEE7FEE7FEE7FEE707
:1001D00004480549054A064B70470000790C0008A1
:1001E000ED000008980000209806002098020020EA
:1001F00098020020704770477047754600F02CF851
:10020000AE4605006946534620F00700854618B003
:1002100020B5FFF7DDFFBDE820404FF000064FF0AE
:1002200000074FF000084FF0000BAC46ACE8C009E7
:10023000ACE8C009ACE8C009ACE8C00921F007018E
:100240008D46704710B50446AFF300802046BDE8E8
:100250001040FFF7A8BF00000048704710000020C2
:1002600001491820ABBEFEE72600020070470000DF
:10027000FEE7000070470000B0B5044600F01EF92C
:10028000054640F20000C2F200000078611C18BF71
:10029000044400BF00F012F9401BA042FAD3B0BDE5
:1002A0002DE9F04F82B00E68002E00F0FD8041F283
:1002B0000042C4F20102042340F2004E904208BF03
:1002C00003234FF6FF7CC4F2010E009300240123A8
:1002D000C1F2100C4FF0000A4FF0000944E000BFDB
:1002E000012704F00C030F229A402BEA020207FABE
:1002F00003F34FEA9A051A4346F825204E6840F268
:100300000C45F202DEF8082054BF22EA080242EA55
:100310000802C4F20105CEF808202A68B30254BFCF
:1003200022EA080242EA08022A60B303DEF8042047
:1003300054BF22EA080242EA0802F303CEF804207E
:10034000DEF800204FF0010354BF22EA080242EA1F
:100350000802CEF800200E680AF1010A36FA0AF205
:1003600004F1040400F0A08003FA0AFB16EA0B086B
:10037000F1D04E68664511DC122E55D8DFE806F044
:10038000340A4448545454545454545454545454B3
:10039000544C5000D1F80C9046E000BF4FF6FF726D
:1003A000C1F2210296420FDC0022C1F211029642F4
:1003B0001AD00022C1F21202964215D00022C1F2D8
:1003C0002102964210D02FE00022C1F22202964272
:1003D0000AD00022C1F23102964205D00022C1F2B9
:1003E0003202964220D100BF8A684AB1012A14BF66
:1003F000C0F814B0C0F810B04FF0080914E000BF06
:100400004FF0040910E000BFCA6802F108090BE0D0
:100410004FF0000908E000BFCA6802F1040903E0D8
:10042000CA6802F10C0900BF22460646B8F5807F73
:1004300024BF203A043637680F25954027EA050582
:1004400009FA02F22A433260CA79D2067FF583AFF5
:1004500041F21803C4F202031A68AEF57E7642F048
:1004600001021A601A6802F001020192019A2AF050
:10047000030256F802B040F60002C4F201029042B4
:1004800010D040F60042C4F2010290423FF428AF7F
:1004900041F20002C4F20102009F904208BF02270D
:1004A0001FE700BF00271CE702B0BDE8F08F000087
:1004B000002A08BF090401617047000040F294005F
:1004C000C2F200000068704740F2000040F2940160
:1004D000C2F20000C2F2000100780A68104408600D
:1004E0007047000080B542F20000C4F202000168CB
:1004F00041F010010160032000F07AF80F2000F0B5
:1005000005F800F027F8002080BD000070B540F22B
:100510000006C2F2000640F208013278C2F2000181
:100520004FF47A730968B3FBF2F20446B1FBF2F1BF
:10053000084600F04FFB0F2C4FF0010508D838B9E2
:100540004FF0FF3021460022002500F025F87460AE
:10055000284670BD82B041F21800C4F20200016862
:10056000022241F001010160016801F001010191E5
:100570000199416841F080514160406800F080502D
:10058000009000980420C4F20100016862F31A612F
:10059000016002B07047000010B54EF60C5CCEF260
:1005A000000CDCF80030C3F3022E8EF00704042C9C
:1005B00028BF0424BEF103034FF0FF3E0EFA04F4FB
:1005C00038BF0023A14399400EFA03F39A43114325
:1005D00000F00F0200F160430901043A03F564439F
:1005E0006244002848BF02F10C03197010BD0000DE
:1005F0004EF60C51CEF200010A684FF6FF031A4086
:1006000060F30A2242F0806040F0FD70086070479D
:10061000002804BF012070472DE9F04381B042F269
:100620000008C4F202080446D8F800000D4600F0A5
:10063000070088420CD2D8F8000020F007002843B9
:10064000C8F80000D8F8000000F00700A8426CD1FC
:10065000206841F204098107C4F2020917D5410755
:1006600005D5D9F8001041F4E061C9F80010010780
:1006700005D5D9F8001041F46051C9F80010D9F837
:100680000010A26821F0F0011143C9F80010C00762
:1006900042D1D8F8000000F00700A8420CD9D8F8E1
:1006A000000020F007002843C8F80000D8F8000038
:1006B00000F00700A84238D12068410707D5D9F8D3
:1006C0000010E26821F4E0611143C9F8001000074E
:1006D00008D5D9F80000216920F4605040EAC10033
:1006E000C9F80000D9F8002002F00C00082841F2F7
:1006F0000020C0F27A0051D141F2FA33C2F38341B3
:10070000C0F60003595CD2033CD440F60010C0F29E
:100710003D00484342E000BF606802280AD001283B
:100720002AD159F8041C890308D4012001B0BDE87E
:10073000F08300BF59F8041C8901F6D5D9F80010E0
:1007400021F003010843C9F80000FFF7B7FE064691
:1007500041F28837D9F80000616800F00C00B0EB76
:10076000810F96D0FFF7AAFE801BB842F2D9032072
:1007700001B0BDE8F08300BF59F8041C8907D4D547
:10078000DCE700BFD9F8002041F2F833C2F3404261
:10079000C0F600039A5C4843B0FBF2F0D9F80010B1
:1007A00041F2E832C1F30311C0F60002515C40F29D
:1007B000080220FA01F140F20400C2F200000068D1
:1007C000C2F200021160FFF7A1FE002001B0BDE8F7
:1007D000F0830000002804BF012070472DE9F0419C
:1007E00082B00446007841F20006C007C4F2020657
:1007F0000CD0706800F00C00042840F08180306854
:10080000800303D56068002800F04E8120788007BF
:100810001BD5706810F00C0F09D0706800F00C0048
:10082000082840F08B807068C00300F18780306832
:10083000800703D52069012840F03681306861695E
:1008400020F0F80040EAC10030602078000713D49F
:10085000207840072CD4E569002D00F020817068D5
:1008600000F00C00082840F0AF80012D40F00C8112
:10087000012002B0BDE8F081A069002800F08C8062
:100880000020C4F242200121C0F88014FFF716FEB8
:10089000054600BF706A800700F1BA80FFF70EFEC0
:1008A000401B0228F6D9032002B0BDE8F08100BF4A
:1008B000F0695FEAC00808D4F06940F08050F06148
:1008C000F06900F080500090009847F20007C4F2F1
:1008D00000073868C0054DD4386840F4807038602F
:1008E000FFF7ECFD054600BF3868C00542D4FFF7AE
:1008F000E5FD401B6428F7D9032002B0BDE8F08174
:10090000706800F00C00082803D17068C0033FF540
:1009100076AF6068002800F00981B0F5A02F00F0E4
:100920001D81B0F5803F00F01D81306820F48030DB
:100930003060306820F4802017E100BF2069002873
:1009400040F20000C4F2422000F08C8001210160DE
:10095000FFF7B4FD054600BF306880073FF56EAF76
:10096000FFF7ACFD401B0228F6D9032002B0BDE81A
:10097000F08100BFE068002800F09A80052800F0B0
:10098000B180012800F0B280306A20F001003062AE
:10099000306A20F00400ACE00020C4F242200021C4
:1009A000C0F88014FFF78AFD054600BF706A800713
:1009B0007FF54EAFFFF782FD401B0228F6D90320DA
:1009C00002B0BDE8F08100BF0027C4F2422700203A
:1009D0003866FFF773FD022D05460DD130688001A2
:1009E00040F1D680FFF76AFD401B02284FF003005C
:1009F000F4D902B0BDE8F081306880014FD5FFF72F
:100A00005DFD401B02284FF00300F5D9F1E700BF60
:100A100040F20800C2F20000006844F6D351C1F26F
:100A20006201A0FB0101480A019000BF00BF0198CC
:100A3000411E002801913FF40BAF00BF0198411EF9
:100A4000002801913FF404AF00BF0198411E002827
:100A500001913FF4FDAE00BF0198411E00280191B5
:100A6000E4D1F5E600210160FFF728FD054600BF4F
:100A7000306880077FF5E9AEFFF720FD401B0228B4
:100A80004FF00300F4D9B4E77068216A00F48032B3
:100A90008A4209D1616A00F47010884204D10020B2
:100AA00002B0BDE8F08100BF012002B0BDE8F081D6
:100AB000306A20F001003062306A20F004003062B9
:100AC000FFF7FCFC054641F2883700BF306A80071B
:100AD00022D5FFF7F3FC401BB8424FF00300F5D9D5
:100AE00087E700BF306A40F004003062306A40F0AF
:100AF00001003062FFF7E2FC054641F2883700BF93
:100B0000306A800708D4FFF7D9FC401BB842F7D9F8
:100B1000032002B0BDE8F081B8F1000F3FF59BAEB5
:100B2000F06920F08050F06195E600BF306820F455
:100B300080303060306820F480203060FFF7BEFCE9
:100B4000054600BF306880037FF560AEFFF7B6FC56
:100B5000401B64284FF00300F4D94AE7306840F4A2
:100B600080203060306840F480303060FFF7A6FCB1
:100B7000054600BF306880033FF548AEFFF79EFC96
:100B8000401B6428F6D9032002B0BDE8F08100BF05
:100B9000206AB0F5803F05D17168A26821F4003168
:100BA000114371607168626A21F474111143084342
:100BB000706001203866FFF781FC044630688001D0
:100BC0003FF56DAFFFF77AFC001B02284FF00300E2
:100BD000F4D90EE7411E0020B0EB116F1CBF0120BD
:100BE00070474EF21002CEF2000251604EF62351D1
:100BF000CEF20001F0230B70072190601160704766
:100C0000FEE7000070B584B041F21800C4F20200A3
:100C1000016840F6000441F0200101600168C4F25F
:100C2000010401F02001009100990168002241F0C7
:100C3000040101600068FE2100F0040000900098AB
:100C40002046FE250026FFF733FC0120CDE90106F2
:100C500002200390694620460095FFF721FB04B06F
:100C600070BD0000FEE70000FEE7000070470000D6
:100C700070470000FFF728BC70470000FEE7000047
:100C8000B0B584B040F270050229C2F2000503D36A
:100C90006A7842F008026A7000F140024FF4804323
:100CA0000129A9702B82A874EA7405D1287818B19B
:100CB000687840F004006870E868A0F18041A1F510
:100CC0008431820542EA9121042942D8DFE801F00B
:100CD00004101C28340000BF41F21801C4F20201C4
:100CE0000A6842F004020A60096801F004012EE07B
:100CF00041F21801C4F202010A6842F008020A60D7
:100D0000096801F0080122E041F21801C4F2020171
:100D10000A6842F010020A60096801F0100116E04A
:100D200041F21801C4F202010A6842F020020A608E
:100D3000096801F020010AE041F21801C4F2020141
:100D40000A6842F040020A60096801F0400100911F
:100D500000990321EA882B8903910121019143EA3B
:100D600002016A89AB8A1143EA8A194340F20C03F3
:100D700011432A8BC2F200031B7811436A8B41EAAC
:100D800002013BB9AA8BEB8B6C8C1A432B8C1A4358
:100D90002243114389B200916946FFF781FA32205C
:100DA000FFF76AFAE868E9880022FFF781FBE86844
:100DB00069890022FFF77CFB2989FF2903D0E868B5
:100DC0000022FFF775FB6A78D00613D4032000F0E9
:100DD00081FA0520FFF750FA032000F07BFA052086
:100DE000FFF74AFA032000F075FA0120FFF744FAF2
:100DF000022054E0E868E98842F020040022FFF76E
:100E000057FB2989FF2903D0E8680022FFF750FB30
:100E10006878C00606D4200900F05CFA204600F08D
:100E200059FA02E0204600F08FFA0520FFF724FA75
:100E3000E868E9886C780022FFF73AFB2989FF29E6
:100E400003D0E8680022FFF733FB6878C00644F05F
:100E5000200007D4C4B2200900F03CFA204600F07C
:100E600039FA02E0C0B200F06FFA0120FFF704FA8D
:100E7000E868E9886C780022FFF71AFB2989FF29C6
:100E800003D0E8680022FFF713FB6878C00644F03F
:100E9000200007D4C4B2200900F01CFA204600F05C
:100EA00019FA02E0C0B200F04FFAE868E9886C78FD
:100EB0000022FFF7FDFA2989FF2903D0E868002204
:100EC000FFF7F6FA6878C00644F0200008D4C4B2F0
:100ED000200900F0FFF9204600F0FCF903E000BF14
:100EE000C0B200F031FA0422E868E988EA70002212
:100EF000FFF7DEFA2989FF2903D0E8680022FFF70F
:100F0000D7FA6878C00607D4002000F0E3F90C2077
:100F100000F0E0F903E000BF0C2000F015FAE868EB
:100F2000E9880022FFF7C4FA2989FF2903D0E8687D
:100F30000022FFF7BDFA6878C00607D4002000F051
:100F4000C9F9012000F0C6F903E000BF012000F05C
:100F5000FBF902200224FFF78FF9E868E9880022F4
:100F60002C71FFF7A5FA2989FF2903D0E868002230
:100F7000FFF79EFA6878C00608D4002000F0AAF9AE
:100F8000062000F0A7F904B0B0BD00BF062000F0B5
:100F9000DBF904B0B0BD000070B540F27006C2F2DB
:100FA0000006F2680C464025F18860F3C50510463E
:100FB0000022FFF77DFA3189FF2903D0F068002273
:100FC000FFF776FA7078C00606D4280900F082F997
:100FD000284600F07FF902E0284600F0B5F9F068F5
:100FE000F18825780122FFF763FA3189FF2903D0C0
:100FF000F0680022FFF75CFA7078C00606D4280972
:1010000000F068F9284600F065F902E0284600F093
:101010009BF9F068F18865780122FFF749FA318978
:10102000FF2903D0F0680022FFF742FA7078C0066B
:1010300006D4280900F04EF9284600F04BF902E0EA
:10104000284600F081F9F068F188A5780122FFF7C1
:101050002FFA3189FF2903D0F0680022FFF728FA20
:101060007078C00606D4280900F034F9284600F04C
:1010700031F902E0284600F067F9F068F188E57878
:101080000122FFF715FA3189FF2903D0F068002209
:10109000FFF70EFA7078C00606D4280900F01AF996
:1010A000284600F017F902E0284600F04DF9F068F4
:1010B000F18825790122FFF7FBF93189FF2903D057
:1010C000F0680022FFF7F4F97078C00606D428090A
:1010D00000F000F9284600F0FDF802E0284600F094
:1010E00033F9F068F18865790122FFF7E1F9318978
:1010F000FF2903D0F0680022FFF7DAF97078C00604
:1011000006D4280900F0E6F8284600F0E3F802E0EB
:10111000284600F019F9F068F188A5790122FFF757
:10112000C7F93189FF2903D0F0680022FFF7C0F921
:101130007078C00606D4280900F0CCF8284600F0E4
:10114000C9F802E0284600F0FFF8F068F188E47979
:101150000122FFF7ADF93189FF2903D0F0680022A1
:10116000FFF7A6F97078C00608D4200900F0B2F89D
:101170002046BDE8704000F0ADB800BF2046BDE895
:10118000704000F0E1B80000F0B540F20C05C2F28A
:1011900000052D7840F27007B5FA85F5DDF820C01E
:1011A000DDE9064E059E6D09C2F200073A81F8603E
:1011B00000202A01F9807B81BE82FC82A7F818E01A
:1011C000A7F81AC0C7E90700102002217A70BDE80D
:1011D000F040FFF755BD0000B0B540F27005C2F217
:1011E0000005EA68E988044610460122FFF760F925
:1011F0002989FF2903D0E8680022FFF759F96878A8
:10120000C00607D4200900F065F8204600F062F817
:101210000120B0BD204600F097F80120B0BD0000CD
:1012200094B0FFF75FF900240120CDE90F44CDE928
:101230000D440A900E904FF440204FF48031022567
:1012400013900AA8CDE90B14CDE91151FFF7C2FAAA
:1012500020B1EFF3108072B6FEE700BF0F20CDE99A
:1012600005059020CDE9070405A801210994FFF7A1
:10127000CFF928B1EFF3108072B600BFFEE700BFD0
:10128000FFF7C0FC41F21110C1F61F700B9041F640
:101290000E30C1F211100A9040202021102202903D
:1012A00040F600008025CDE90021C4F201000221B2
:1012B000042208230395FFF767FF0AA90020FFF720
:1012C0006BFE6320FFF788FF4FF47A70FEF7D4FFC0
:1012D000FEE70000B0B540F27005C2F20005EB6811
:1012E000A98A044600F001021846FFF7E1F8E86811
:1012F000E98AC4F34002FFF7DBF8E868298BC4F3FE
:101300008002FFF7D5F8E868698BC4F3C002FFF7E5
:10131000CFF8E86869890022FFF7CAF80120FEF7D4
:10132000ABFFE86869890122FFF7C2F80120FEF7E8
:10133000A3FFE86869890022FFF7BAF80120BDE839
:10134000B040FEF799BF0000B0B540F27005C2F2A0
:101350000005EB68A98A044600F001021846FFF771
:10136000A7F8E868E98AC4F34002FFF7A1F8E86843
:10137000298BC4F38002FFF79BF8E868698BC4F3FC
:10138000C002FFF795F8E868A98BC4F30012FFF7D5
:101390008FF8E868E98BC4F34012FFF789F8E86832
:1013A000298CC4F38012FFF783F8E868698CE2099E
:1013B000FFF77EF8E86869890022FFF779F80120D5
:1013C000FEF75AFFE86869890122FFF771F80120EA
:1013D000FEF752FFE86869890022FFF769F80120EB
:1013E000BDE8B040FEF748BF00000000000000006C
:1013F00001020304060708090102020304050607A7
:1014000008090A0B0C0D0E0F101000003014000814
:1014100000000020100000005001000840140008E7
:101420001000002088060000700100080000000085
:10143000010000001000000000127A00010000000E
:04000005080000ED02
:00000001FF
